{
  "contractName": "Boardroom",
  "abi": [
    {
      "inputs": [
        {
          "internalType": "contract IERC20",
          "name": "_GOC",
          "type": "address"
        },
        {
          "internalType": "contract IERC20",
          "name": "_GOT",
          "type": "address"
        }
      ],
      "stateMutability": "nonpayable",
      "type": "constructor"
    },
    {
      "anonymous": false,
      "inputs": [
        {
          "indexed": true,
          "internalType": "address",
          "name": "account",
          "type": "address"
        }
      ],
      "name": "AdminAdded",
      "type": "event"
    },
    {
      "anonymous": false,
      "inputs": [
        {
          "indexed": true,
          "internalType": "address",
          "name": "account",
          "type": "address"
        }
      ],
      "name": "AdminRemoved",
      "type": "event"
    },
    {
      "anonymous": false,
      "inputs": [
        {
          "indexed": true,
          "internalType": "address",
          "name": "user",
          "type": "address"
        },
        {
          "indexed": false,
          "internalType": "uint256",
          "name": "reward",
          "type": "uint256"
        }
      ],
      "name": "RewardAdded",
      "type": "event"
    },
    {
      "anonymous": false,
      "inputs": [
        {
          "indexed": true,
          "internalType": "address",
          "name": "user",
          "type": "address"
        },
        {
          "indexed": false,
          "internalType": "uint256",
          "name": "reward",
          "type": "uint256"
        }
      ],
      "name": "RewardPaid",
      "type": "event"
    },
    {
      "anonymous": false,
      "inputs": [
        {
          "indexed": true,
          "internalType": "address",
          "name": "user",
          "type": "address"
        },
        {
          "indexed": false,
          "internalType": "uint256",
          "name": "amount",
          "type": "uint256"
        }
      ],
      "name": "Staked",
      "type": "event"
    },
    {
      "anonymous": false,
      "inputs": [
        {
          "indexed": true,
          "internalType": "address",
          "name": "user",
          "type": "address"
        },
        {
          "indexed": false,
          "internalType": "uint256",
          "name": "amount",
          "type": "uint256"
        }
      ],
      "name": "Withdraw",
      "type": "event"
    },
    {
      "inputs": [],
      "name": "GOT",
      "outputs": [
        {
          "internalType": "contract IERC20",
          "name": "",
          "type": "address"
        }
      ],
      "stateMutability": "view",
      "type": "function"
    },
    {
      "inputs": [
        {
          "internalType": "address",
          "name": "account",
          "type": "address"
        }
      ],
      "name": "addAdmin",
      "outputs": [],
      "stateMutability": "nonpayable",
      "type": "function"
    },
    {
      "inputs": [],
      "name": "allAdmins",
      "outputs": [
        {
          "internalType": "address[]",
          "name": "admins",
          "type": "address[]"
        }
      ],
      "stateMutability": "view",
      "type": "function"
    },
    {
      "inputs": [
        {
          "internalType": "address",
          "name": "account",
          "type": "address"
        }
      ],
      "name": "balanceOf",
      "outputs": [
        {
          "internalType": "uint256",
          "name": "",
          "type": "uint256"
        }
      ],
      "stateMutability": "view",
      "type": "function"
    },
    {
      "inputs": [
        {
          "internalType": "address",
          "name": "account",
          "type": "address"
        }
      ],
      "name": "isAdmin",
      "outputs": [
        {
          "internalType": "bool",
          "name": "",
          "type": "bool"
        }
      ],
      "stateMutability": "view",
      "type": "function"
    },
    {
      "inputs": [
        {
          "internalType": "address",
          "name": "account",
          "type": "address"
        }
      ],
      "name": "removeAdmin",
      "outputs": [],
      "stateMutability": "nonpayable",
      "type": "function"
    },
    {
      "inputs": [],
      "name": "renounceAdmin",
      "outputs": [],
      "stateMutability": "nonpayable",
      "type": "function"
    },
    {
      "inputs": [],
      "name": "totalSupply",
      "outputs": [
        {
          "internalType": "uint256",
          "name": "",
          "type": "uint256"
        }
      ],
      "stateMutability": "view",
      "type": "function"
    },
    {
      "inputs": [],
      "name": "latestSnapshotIndex",
      "outputs": [
        {
          "internalType": "uint256",
          "name": "",
          "type": "uint256"
        }
      ],
      "stateMutability": "view",
      "type": "function"
    },
    {
      "inputs": [
        {
          "internalType": "address",
          "name": "director",
          "type": "address"
        }
      ],
      "name": "getLastSnapshotIndexOf",
      "outputs": [
        {
          "internalType": "uint256",
          "name": "",
          "type": "uint256"
        }
      ],
      "stateMutability": "view",
      "type": "function"
    },
    {
      "inputs": [],
      "name": "rewardPerShare",
      "outputs": [
        {
          "internalType": "uint256",
          "name": "",
          "type": "uint256"
        }
      ],
      "stateMutability": "view",
      "type": "function"
    },
    {
      "inputs": [
        {
          "internalType": "address",
          "name": "director",
          "type": "address"
        }
      ],
      "name": "earned",
      "outputs": [
        {
          "internalType": "uint256",
          "name": "",
          "type": "uint256"
        }
      ],
      "stateMutability": "view",
      "type": "function"
    },
    {
      "inputs": [
        {
          "internalType": "uint256",
          "name": "amount",
          "type": "uint256"
        }
      ],
      "name": "stake",
      "outputs": [],
      "stateMutability": "nonpayable",
      "type": "function"
    },
    {
      "inputs": [
        {
          "internalType": "uint256",
          "name": "amount",
          "type": "uint256"
        }
      ],
      "name": "withdraw",
      "outputs": [],
      "stateMutability": "nonpayable",
      "type": "function"
    },
    {
      "inputs": [],
      "name": "exit",
      "outputs": [],
      "stateMutability": "nonpayable",
      "type": "function"
    },
    {
      "inputs": [],
      "name": "claimReward",
      "outputs": [],
      "stateMutability": "nonpayable",
      "type": "function"
    },
    {
      "inputs": [
        {
          "internalType": "uint256",
          "name": "amount",
          "type": "uint256"
        }
      ],
      "name": "allocateSeigniorage",
      "outputs": [],
      "stateMutability": "nonpayable",
      "type": "function"
    },
    {
      "inputs": [
        {
          "internalType": "contract IERC20",
          "name": "_token",
          "type": "address"
        },
        {
          "internalType": "uint256",
          "name": "_amount",
          "type": "uint256"
        },
        {
          "internalType": "address",
          "name": "_to",
          "type": "address"
        }
      ],
      "name": "governanceRecoverUnsupported",
      "outputs": [],
      "stateMutability": "nonpayable",
      "type": "function"
    }
  ],
  "bytecode": "0x60806040523480156200001157600080fd5b5060405162001be838038062001be8833981810160405260408110156200003757600080fd5b5080516020909101516200004b336200012e565b600680546001600160a01b038085166001600160a01b03199283161790925560008054928416929091169190911790556200008562000208565b50506040805160608101825243815260006020820181815292820181815260088054600181018255925291517ff3f7a9fe364faab93b216da50a3214154f22a0a2b415b23a84c8169e8b636ee360039092029182015591517ff3f7a9fe364faab93b216da50a3214154f22a0a2b415b23a84c8169e8b636ee4830155517ff3f7a9fe364faab93b216da50a3214154f22a0a2b415b23a84c8169e8b636ee5909101555062000229565b620001498160046200018160201b62000e8c1790919060201c565b506040516001600160a01b038216907f44d6d25963f097ad14f29f06854a01f575648a1ef82f30e562ccd3889717e33990600090a250565b600062000198836001600160a01b038416620001a1565b90505b92915050565b6000620001af8383620001f0565b620001e7575081546001818101845560008481526020808220909301849055845484825282860190935260409020919091556200019b565b5060006200019b565b60009081526001919091016020526040902054151590565b60405180606001604052806000815260200160008152602001600081525090565b6119af80620002396000396000f3fe608060405234801561001057600080fd5b50600436106101155760003560e01c806370480275116100a257806397ffe1d71161007157806397ffe1d7146102f1578063a694fc3a1461030e578063b88a802f1461032b578063c4dd5cef14610333578063e9fad8ee1461035757610115565b8063704802751461027757806370a082311461029d578063714b4658146102c35780638bad0c0a146102e957610115565b80632e1a7d4d116100e95780632e1a7d4d146101bc5780633f9e3f04146101d957806340f32be6146101e1578063446a2ec81461023957806354575af41461024157610115565b80628cc2621461011a5780631785f53c1461015257806318160ddd1461017a57806324d7806c14610182575b600080fd5b6101406004803603602081101561013057600080fd5b50356001600160a01b031661035f565b60408051918252519081900360200190f35b6101786004803603602081101561016857600080fd5b50356001600160a01b03166103dc565b005b61014061042c565b6101a86004803603602081101561019857600080fd5b50356001600160a01b0316610432565b604080519115158252519081900360200190f35b610178600480360360208110156101d257600080fd5b5035610445565b610140610668565b6101e961067e565b60408051602080825283518183015283519192839290830191858101910280838360005b8381101561022557818101518382015260200161020d565b505050509050019250505060405180910390f35b61014061071c565b6101786004803603606081101561025757600080fd5b506001600160a01b0381358116916020810135916040909101351661072f565b6101786004803603602081101561028d57600080fd5b50356001600160a01b031661081e565b610140600480360360208110156102b357600080fd5b50356001600160a01b031661086b565b610140600480360360208110156102d957600080fd5b50356001600160a01b0316610886565b6101786108a1565b6101786004803603602081101561030757600080fd5b50356108ac565b6101786004803603602081101561032457600080fd5b5035610b87565b610178610d63565b61033b610e64565b604080516001600160a01b039092168252519081900360200190f35b610178610e73565b60008061036a61071c565b9050600061037784610ea8565b6040908101516001600160a01b0386166000908152600760205291909120600101549091506103d4906103ce670de0b6b3a76400006103c86103b98787610f03565b6103c28a61086b565b90610f45565b90610f9e565b90610fe0565b949350505050565b6103e533610432565b6104205760405162461bcd60e51b815260040180806020018281038252602e8152602001806118a0602e913960400191505060405180910390fd5b6104298161103a565b50565b60015490565b600061043f60048361107d565b92915050565b61044d611092565b156104895760405162461bcd60e51b815260040180806020018281038252602681526020018061191e6026913960400191505060405180910390fd5b6104916110b3565b156104cd5760405162461bcd60e51b815260040180806020018281038252602681526020018061191e6026913960400191505060405180910390fd5b60006104d83361086b565b116105145760405162461bcd60e51b81526004018080602001828103825260268152602001806118ce6026913960400191505060405180910390fd5b338015610595576105236117f1565b506001600160a01b038116600090815260076020908152604091829020825180840190935280548352600101549082015261055d8261035f565b602082015261056a610668565b81526001600160a01b0382166000908152600760209081526040909120825181559101516001909101555b600082116105ea576040805162461bcd60e51b815260206004820152601c60248201527f426f617264726f6f6d3a2043616e6e6f74207769746864726177203000000000604482015290519081900360640190fd5b6105f3826110d4565b60408051838152905133917f884edad9ce6fa2440d8a54cc123490eb96d2768479d49ff9c7366125a9424364919081900360200190a250504360009081526003602090815260408083203284529091528082208054600160ff1991821681179092553384529190922080549091169091179055565b600854600090610679906001610f03565b905090565b606061068a6004611168565b67ffffffffffffffff811180156106a057600080fd5b506040519080825280602002602001820160405280156106ca578160200160208202803683370190505b50905060005b6106da6004611168565b811015610718576106ec600482611173565b8282815181106106f857fe5b6001600160a01b03909216602092830291909101909101526001016106d0565b5090565b600061072661117f565b60400151905090565b61073833610432565b6107735760405162461bcd60e51b815260040180806020018281038252602e8152602001806118a0602e913960400191505060405180910390fd5b6006546001600160a01b03848116911614156107bc576040805162461bcd60e51b8152602060048201526003602482015262474f4360e81b604482015290519081900360640190fd5b6000546001600160a01b0384811691161415610805576040805162461bcd60e51b815260206004820152600360248201526211d3d560ea1b604482015290519081900360640190fd5b6108196001600160a01b03841682846111d7565b505050565b61082733610432565b6108625760405162461bcd60e51b815260040180806020018281038252602e8152602001806118a0602e913960400191505060405180910390fd5b61042981611229565b6001600160a01b031660009081526002602052604090205490565b6001600160a01b031660009081526007602052604090205490565b6108aa3361103a565b565b6108b4611092565b156108f05760405162461bcd60e51b815260040180806020018281038252602681526020018061191e6026913960400191505060405180910390fd5b6108f86110b3565b156109345760405162461bcd60e51b815260040180806020018281038252602681526020018061191e6026913960400191505060405180910390fd5b61093d33610432565b6109785760405162461bcd60e51b815260040180806020018281038252602e8152602001806118a0602e913960400191505060405180910390fd5b600081116109cd576040805162461bcd60e51b815260206004820152601c60248201527f426f617264726f6f6d3a2043616e6e6f7420616c6c6f63617465203000000000604482015290519081900360640190fd5b60006109d761042c565b11610a135760405162461bcd60e51b815260040180806020018281038252603081526020018061184f6030913960400191505060405180910390fd5b6000610a1d61071c565b90506000610a48610a41610a2f61042c565b6103c886670de0b6b3a7640000610f45565b8390610fe0565b9050610a5261180b565b5060408051606081018252438152602081018581529181018381526008805460018101825560009190915282517ff3f7a9fe364faab93b216da50a3214154f22a0a2b415b23a84c8169e8b636ee360039092029182015592517ff3f7a9fe364faab93b216da50a3214154f22a0a2b415b23a84c8169e8b636ee4840155517ff3f7a9fe364faab93b216da50a3214154f22a0a2b415b23a84c8169e8b636ee590920191909155600654610b10906001600160a01b031633308761126c565b60408051858152905133917fac24935fd910bc682b5ccb1a07b718cadf8cf2f6d1404c4f3ddc3662dae40e29919081900360200190a250504360009081526003602090815260408083203284529091528082208054600160ff19918216811790925533845291909220805490911690911790555050565b610b8f611092565b15610bcb5760405162461bcd60e51b815260040180806020018281038252602681526020018061191e6026913960400191505060405180910390fd5b610bd36110b3565b15610c0f5760405162461bcd60e51b815260040180806020018281038252602681526020018061191e6026913960400191505060405180910390fd5b338015610c9057610c1e6117f1565b506001600160a01b0381166000908152600760209081526040918290208251808401909352805483526001015490820152610c588261035f565b6020820152610c65610668565b81526001600160a01b0382166000908152600760209081526040909120825181559101516001909101555b60008211610ce5576040805162461bcd60e51b815260206004820152601960248201527f426f617264726f6f6d3a2043616e6e6f74207374616b65203000000000000000604482015290519081900360640190fd5b610cee826112cc565b60408051838152905133917f9e71bc8eea02a63969f509818f2dafb9254532904319f9dbda79b67bd34a5f3d919081900360200190a250504360009081526003602090815260408083203284529091528082208054600160ff1991821681179092553384529190922080549091169091179055565b338015610de457610d726117f1565b506001600160a01b0381166000908152600760209081526040918290208251808401909352805483526001015490820152610dac8261035f565b6020820152610db9610668565b81526001600160a01b0382166000908152600760209081526040909120825181559101516001909101555b336000908152600760205260409020600101548015610e605733600081815260076020526040812060010155600654610e29916001600160a01b0390911690836111d7565b60408051828152905133917fe2403640ba68fed3a2f88b7557551d1993f84b99bb10ff833f0cf8db0c5e0486919081900360200190a25b5050565b6000546001600160a01b031681565b610e84610e7f3361086b565b610445565b6108aa610d63565b6000610ea1836001600160a01b038416611322565b9392505050565b610eb061180b565b6008610ebb83610886565b81548110610ec557fe5b906000526020600020906003020160405180606001604052908160008201548152602001600182015481526020016002820154815250509050919050565b6000610ea183836040518060400160405280601e81526020017f536166654d6174683a207375627472616374696f6e206f766572666c6f77000081525061136c565b600082610f545750600061043f565b82820282848281610f6157fe5b0414610ea15760405162461bcd60e51b815260040180806020018281038252602181526020018061187f6021913960400191505060405180910390fd5b6000610ea183836040518060400160405280601a81526020017f536166654d6174683a206469766973696f6e206279207a65726f000000000000815250611403565b600082820183811015610ea1576040805162461bcd60e51b815260206004820152601b60248201527f536166654d6174683a206164646974696f6e206f766572666c6f770000000000604482015290519081900360640190fd5b611045600482611468565b506040516001600160a01b038216907fa3b62bc36326052d97ea62d63c3d60308ed4c3ea8ac079dd8499f1e9c4f80c0f90600090a250565b6000610ea1836001600160a01b03841661147d565b43600090815260036020908152604080832032845290915290205460ff1690565b43600090815260036020908152604080832033845290915290205460ff1690565b33600090815260026020526040902054818110156111235760405162461bcd60e51b81526004018080602001828103825260368152602001806119446036913960400191505060405180910390fd5b6001546111309083610f03565b60015561113d8183610f03565b336000818152600260205260408120929092559054610e60916001600160a01b0390911690846111d7565b600061043f82611495565b6000610ea18383611499565b61118761180b565b6008611191610668565b8154811061119b57fe5b90600052602060002090600302016040518060600160405290816000820154815260200160018201548152602001600282015481525050905090565b604080516001600160a01b038416602482015260448082018490528251808303909101815260649091019091526020810180516001600160e01b031663a9059cbb60e01b1790526108199084906114fd565b611234600482610e8c565b506040516001600160a01b038216907f44d6d25963f097ad14f29f06854a01f575648a1ef82f30e562ccd3889717e33990600090a250565b604080516001600160a01b0380861660248301528416604482015260648082018490528251808303909101815260849091019091526020810180516001600160e01b03166323b872dd60e01b1790526112c69085906114fd565b50505050565b6001546112d99082610fe0565b600155336000908152600260205260409020546112f69082610fe0565b336000818152600260205260408120929092559054610429916001600160a01b0390911690308461126c565b600061132e838361147d565b6113645750815460018181018455600084815260208082209093018490558454848252828601909352604090209190915561043f565b50600061043f565b600081848411156113fb5760405162461bcd60e51b81526004018080602001828103825283818151815260200191508051906020019080838360005b838110156113c05781810151838201526020016113a8565b50505050905090810190601f1680156113ed5780820380516001836020036101000a031916815260200191505b509250505060405180910390fd5b505050900390565b600081836114525760405162461bcd60e51b81526020600482018181528351602484015283519092839260449091019190850190808383600083156113c05781810151838201526020016113a8565b50600083858161145e57fe5b0495945050505050565b6000610ea1836001600160a01b0384166115ae565b60009081526001919091016020526040902054151590565b5490565b815460009082106114db5760405162461bcd60e51b815260040180806020018281038252602281526020018061182d6022913960400191505060405180910390fd5b8260000182815481106114ea57fe5b9060005260206000200154905092915050565b6060611552826040518060400160405280602081526020017f5361666545524332303a206c6f772d6c6576656c2063616c6c206661696c6564815250856001600160a01b03166116749092919063ffffffff16565b8051909150156108195780806020019051602081101561157157600080fd5b50516108195760405162461bcd60e51b815260040180806020018281038252602a8152602001806118f4602a913960400191505060405180910390fd5b6000818152600183016020526040812054801561166a57835460001980830191908101906000908790839081106115e157fe5b90600052602060002001549050808760000184815481106115fe57fe5b60009182526020808320909101929092558281526001898101909252604090209084019055865487908061162e57fe5b6001900381819060005260206000200160009055905586600101600087815260200190815260200160002060009055600194505050505061043f565b600091505061043f565b60606103d484846000856060611689856117eb565b6116da576040805162461bcd60e51b815260206004820152601d60248201527f416464726573733a2063616c6c20746f206e6f6e2d636f6e7472616374000000604482015290519081900360640190fd5b60006060866001600160a01b031685876040518082805190602001908083835b602083106117195780518252601f1990920191602091820191016116fa565b6001836020036101000a03801982511681845116808217855250505050505090500191505060006040518083038185875af1925050503d806000811461177b576040519150601f19603f3d011682016040523d82523d6000602084013e611780565b606091505b509150915081156117945791506103d49050565b8051156117a45780518082602001fd5b60405162461bcd60e51b81526020600482018181528651602484015286518793919283926044019190850190808383600083156113c05781810151838201526020016113a8565b3b151590565b604051806040016040528060008152602001600081525090565b6040518060600160405280600081526020016000815260200160008152509056fe456e756d657261626c655365743a20696e646578206f7574206f6620626f756e6473426f617264726f6f6d3a2043616e6e6f7420616c6c6f63617465207768656e20746f74616c537570706c792069732030536166654d6174683a206d756c7469706c69636174696f6e206f766572666c6f7741646d696e526f6c653a2063616c6c657220646f6573206e6f742068617665207468652041646d696e20726f6c65426f617264726f6f6d3a20546865206469726563746f7220646f6573206e6f742065786973745361666545524332303a204552433230206f7065726174696f6e20646964206e6f742073756363656564436f6e747261637447756172643a206f6e6520626c6f636b2c206f6e652066756e6374696f6e426f617264726f6f6d3a20776974686472617720726571756573742067726561746572207468616e207374616b656420616d6f756e74a264697066735822122027c431a552b493b061b64ec871d681b7f4b503ee431797cfe68180f8d550895264736f6c634300060c0033",
  "immutableReferences": {},
  "source": "// SPDX-License-Identifier: MIT\npragma solidity ^0.6.0;\n\nimport '@openzeppelin/contracts/token/ERC20/IERC20.sol';\nimport '@openzeppelin/contracts/token/ERC20/SafeERC20.sol';\nimport '@openzeppelin/contracts/token/ERC20/SafeERC20.sol';\nimport './libraries/AdminRole.sol';\nimport './libraries/Safe112.sol';\nimport './libraries/ContractGuard.sol';\n\n/**\n * @title \n */\ncontract GOTWrapper {\n    using SafeMath for uint256;\n    using SafeERC20 for IERC20;\n    /// @notice GoSwap Token\n    IERC20 public GOT;\n    /// @dev \n    uint256 private _totalSupply;\n    /// @dev \n    mapping(address => uint256) private _balances;\n\n    /**\n     * @dev \n     * @return \n     */\n    function totalSupply() public view returns (uint256) {\n        return _totalSupply;\n    }\n\n    /**\n     * @dev \n     * @param account \n     * @return \n     */\n    function balanceOf(address account) public view returns (uint256) {\n        return _balances[account];\n    }\n\n    /**\n     * @dev GOTBoardroom\n     * @param amount \n     */\n    function stake(uint256 amount) public virtual {\n        // \n        _totalSupply = _totalSupply.add(amount);\n        // \n        _balances[msg.sender] = _balances[msg.sender].add(amount);\n        // GOT\n        GOT.safeTransferFrom(msg.sender, address(this), amount);\n    }\n\n    /**\n     * @dev BoardroomGOT\n     * @param amount \n     */\n    function withdraw(uint256 amount) public virtual {\n        // \n        uint256 directorShare = _balances[msg.sender];\n        // \n        require(directorShare >= amount, 'Boardroom: withdraw request greater than staked amount');\n        // \n        _totalSupply = _totalSupply.sub(amount);\n        // \n        _balances[msg.sender] = directorShare.sub(amount);\n        // GOT\n        GOT.safeTransfer(msg.sender, amount);\n    }\n}\n\n/**\n * @title GoSwap Cash Boardroom\n * \n * 1.GOTBoardroomBoardroomGOT\n * 2.EpochAdminGOC(Treasury)\n * GOCGOTBoardroom\n * TimBear 20210107\n */\ncontract Boardroom is GOTWrapper, ContractGuard, AdminRole {\n    using SafeERC20 for IERC20;\n    using Address for address;\n    using SafeMath for uint256;\n    using Safe112 for uint112;\n\n    /* ========== DATA STRUCTURES ========== */\n\n    /// @notice \n    struct Boardseat {\n        uint256 lastSnapshotIndex; // \n        uint256 rewardEarned; // \n    }\n\n    /// @notice \n    struct BoardSnapshot {\n        uint256 time; // \n        uint256 rewardReceived; // \n        uint256 rewardPerShare; // \n    }\n\n    /* ========== STATE VARIABLES ========== */\n    /// @dev GoSwap Cash\n    IERC20 private GOC;\n\n    /// @dev ()\n    mapping(address => Boardseat) private directors;\n    /// @dev \n    BoardSnapshot[] private boardHistory;\n\n    /* ========== CONSTRUCTOR ========== */\n\n    /**\n     * @dev \n     * @param _GOC GoSwap Cash\n     * @param _GOT GoSwap Token\n     */\n    constructor(IERC20 _GOC, IERC20 _GOT) public {\n        GOC = _GOC;\n        GOT = _GOT;\n        // \n        BoardSnapshot memory genesisSnapshot =\n            BoardSnapshot({time: block.number, rewardReceived: 0, rewardPerShare: 0});\n        //\n        boardHistory.push(genesisSnapshot);\n    }\n\n    /* ========== Modifiers =============== */\n    /// @notice Boardroom0\n    modifier directorExists {\n        require(balanceOf(msg.sender) > 0, 'Boardroom: The director does not exist');\n        _;\n    }\n\n    /// @notice (GOC)\n    /// @param director \n    modifier updateReward(address director) {\n        // 0\n        if (director != address(0)) {\n            // \n            Boardseat memory seat = directors[director];\n            //  = \n            seat.rewardEarned = earned(director);\n            //  = -1\n            seat.lastSnapshotIndex = latestSnapshotIndex();\n            // \n            directors[director] = seat;\n        }\n        _;\n    }\n\n    /* ========== VIEW FUNCTIONS ========== */\n\n    // =========== Snapshot getters\n    // \n    /**\n     * @dev \n     * @return \n     */\n    function latestSnapshotIndex() public view returns (uint256) {\n        // -1\n        return boardHistory.length.sub(1);\n    }\n\n    /**\n     * @dev \n     * @return \n     */\n    function getLatestSnapshot() internal view returns (BoardSnapshot memory) {\n        return boardHistory[latestSnapshotIndex()];\n    }\n\n    /**\n     * @dev id\n     * @param \n     * @return id\n     */\n    function getLastSnapshotIndexOf(address director) public view returns (uint256) {\n        return directors[director].lastSnapshotIndex;\n    }\n\n    /**\n     * @dev id\n     * @param \n     * @return \n     */\n    function getLastSnapshotOf(address director) internal view returns (BoardSnapshot memory) {\n        return boardHistory[getLastSnapshotIndexOf(director)];\n    }\n\n    // =========== Director getters\n\n    /**\n     * @dev \n     * @return \n     */\n    function rewardPerShare() public view returns (uint256) {\n        return getLatestSnapshot().rewardPerShare;\n    }\n\n    /**\n     * @dev (GOC)\n     * @param \n     * @return GOC\n     */\n    function earned(address director) public view returns (uint256) {\n        // \n        uint256 latestRPS = rewardPerShare();\n        // id\n        uint256 storedRPS = getLastSnapshotOf(director).rewardPerShare;\n\n        //      (GOTGOC\n        //    - GOTGOC)\n        //    x GOT\n        //    + \n        //---------------------------------\n        //      \n        return balanceOf(director).mul(latestRPS.sub(storedRPS)).div(1e18).add(directors[director].rewardEarned);\n    }\n\n    /* ========== MUTATIVE FUNCTIONS ========== */\n\n    /**\n     * @dev GOTBoardroom\n     * @param amount \n     */\n    function stake(uint256 amount) public override onlyOneBlock updateReward(msg.sender) {\n        // 0\n        require(amount > 0, 'Boardroom: Cannot stake 0');\n        // \n        super.stake(amount);\n        //\n        emit Staked(msg.sender, amount);\n    }\n\n    /**\n     * @dev BoardroomGOT\n     * @param amount \n     */\n    function withdraw(uint256 amount) public override onlyOneBlock directorExists updateReward(msg.sender) {\n        // 0\n        require(amount > 0, 'Boardroom: Cannot withdraw 0');\n        // \n        super.withdraw(amount);\n        //\n        emit Withdraw(msg.sender, amount);\n    }\n\n    /**\n     * @dev BoardroomGOT\n     */\n    function exit() external {\n        // \n        withdraw(balanceOf(msg.sender));\n        // \n        claimReward();\n    }\n\n    /**\n     * @dev BoardroomGOC\n     * @notice (GOC)\n     */\n    function claimReward() public updateReward(msg.sender) {\n        //\n        uint256 reward = directors[msg.sender].rewardEarned;\n        // 0\n        if (reward > 0) {\n            //0\n            directors[msg.sender].rewardEarned = 0;\n            // \n            GOC.safeTransfer(msg.sender, reward);\n            //\n            emit RewardPaid(msg.sender, reward);\n        }\n    }\n\n    /**\n     * @dev GOTGOCAdmin\n     * @param amount \n     * @notice EpochGOCAdmin,Treasury\n     */\n    function allocateSeigniorage(uint256 amount) external onlyOneBlock onlyAdmin {\n        // 0\n        require(amount > 0, 'Boardroom: Cannot allocate 0');\n        // 0\n        require(totalSupply() > 0, 'Boardroom: Cannot allocate when totalSupply is 0');\n\n        //  = \n        uint256 prevRPS = rewardPerShare();\n        //  =   +  * 1e18 / \n        uint256 nextRPS = prevRPS.add(amount.mul(1e18).div(totalSupply()));\n        //()Epoch()\n        // \n        BoardSnapshot memory newSnapshot =\n            BoardSnapshot({\n                time: block.number, // \n                rewardReceived: amount, // \n                rewardPerShare: nextRPS // \n            });\n        //\n        boardHistory.push(newSnapshot);\n\n        //GOCAdmin\n        GOC.safeTransferFrom(msg.sender, address(this), amount);\n        //GOC\n        emit RewardAdded(msg.sender, amount);\n    }\n\n    /**\n     * @dev \n     * @param _token Token\n     * @param _amount \n     * @param _to \n     * @notice \n     */\n    function governanceRecoverUnsupported(\n        IERC20 _token,\n        uint256 _amount,\n        address _to\n    ) external onlyAdmin {\n        // do not allow to drain core tokens\n        require(address(_token) != address(GOC), 'GOC');\n        require(address(_token) != address(GOT), 'GOT');\n        _token.safeTransfer(_to, _amount);\n    }\n\n    /* ========== EVENTS ========== */\n    /**\n     * @dev : \n     * @param user \n     * @param amount \n     */\n    event Staked(address indexed user, uint256 amount);\n    /**\n     * @dev : \n     * @param user \n     * @param amount \n     */\n    event Withdraw(address indexed user, uint256 amount);\n    /**\n     * @dev : \n     * @param user \n     * @param reward \n     */\n    event RewardPaid(address indexed user, uint256 reward);\n    /**\n     * @dev : \n     * @param user \n     * @param reward \n     */\n    event RewardAdded(address indexed user, uint256 reward);\n}\n",
  "sourcePath": "/home/cui/Documents/goswap/goswap-core/contracts/Boardroom.sol",
  "compiler": {
    "name": "solc",
    "version": "0.6.12+commit.27d51765.Emscripten.clang"
  },
  "schemaVersion": "3.3.2",
  "updatedAt": "2021-01-18T03:20:28.207Z",
  "devdoc": {
    "events": {
      "RewardAdded(address,uint256)": {
        "details": ": ",
        "params": {
          "reward": "",
          "user": ""
        }
      },
      "RewardPaid(address,uint256)": {
        "details": ": ",
        "params": {
          "reward": "",
          "user": ""
        }
      },
      "Staked(address,uint256)": {
        "details": ": ",
        "params": {
          "amount": "",
          "user": ""
        }
      },
      "Withdraw(address,uint256)": {
        "details": ": ",
        "params": {
          "amount": "",
          "user": ""
        }
      }
    },
    "kind": "dev",
    "methods": {
      "addAdmin(address)": {
        "details": "",
        "params": {
          "account": ""
        }
      },
      "allAdmins()": {
        "details": "",
        "returns": {
          "admins": ""
        }
      },
      "allocateSeigniorage(uint256)": {
        "details": "GOTGOCAdmin",
        "params": {
          "amount": ""
        }
      },
      "balanceOf(address)": {
        "details": "",
        "params": {
          "account": ""
        },
        "returns": {
          "_0": ""
        }
      },
      "claimReward()": {
        "details": "BoardroomGOC"
      },
      "constructor": {
        "details": "",
        "params": {
          "_GOC": "GoSwap Cash",
          "_GOT": "GoSwap Token"
        }
      },
      "earned(address)": {
        "details": "(GOC)",
        "params": {
          "": ""
        },
        "returns": {
          "_0": "GOC"
        }
      },
      "exit()": {
        "details": "BoardroomGOT"
      },
      "getLastSnapshotIndexOf(address)": {
        "details": "id",
        "params": {
          "": ""
        },
        "returns": {
          "_0": "id"
        }
      },
      "governanceRecoverUnsupported(address,uint256,address)": {
        "details": "",
        "params": {
          "_amount": "",
          "_to": "",
          "_token": "Token"
        }
      },
      "isAdmin(address)": {
        "details": "",
        "params": {
          "account": ""
        },
        "returns": {
          "_0": ""
        }
      },
      "latestSnapshotIndex()": {
        "details": "",
        "returns": {
          "_0": ""
        }
      },
      "removeAdmin(address)": {
        "details": "",
        "params": {
          "account": ""
        }
      },
      "renounceAdmin()": {
        "details": ""
      },
      "rewardPerShare()": {
        "details": "",
        "returns": {
          "_0": ""
        }
      },
      "stake(uint256)": {
        "details": "GOTBoardroom",
        "params": {
          "amount": ""
        }
      },
      "totalSupply()": {
        "details": "",
        "returns": {
          "_0": ""
        }
      },
      "withdraw(uint256)": {
        "details": "BoardroomGOT",
        "params": {
          "amount": ""
        }
      }
    },
    "stateVariables": {
      "GOC": {
        "details": "GoSwap Cash"
      },
      "boardHistory": {
        "details": ""
      },
      "directors": {
        "details": "()"
      }
    },
    "title": "GoSwap Cash Boardroom  1.GOTBoardroomBoardroomGOT 2.EpochAdminGOC(Treasury) GOCGOTBoardroom TimBear 20210107",
    "version": 1
  },
  "userdoc": {
    "kind": "user",
    "methods": {
      "GOT()": {
        "notice": "GoSwap Token"
      },
      "allocateSeigniorage(uint256)": {
        "notice": "EpochGOCAdmin,Treasury"
      },
      "claimReward()": {
        "notice": "(GOC)"
      },
      "governanceRecoverUnsupported(address,uint256,address)": {
        "notice": ""
      }
    },
    "version": 1
  }
}