{
  "contractName": "BoringCryptoTokenScanner",
  "abi": [
    {
      "inputs": [
        {
          "internalType": "address[]",
          "name": "addresses",
          "type": "address[]"
        }
      ],
      "name": "getTokenInfo",
      "outputs": [
        {
          "components": [
            {
              "internalType": "address",
              "name": "token",
              "type": "address"
            },
            {
              "internalType": "uint256",
              "name": "decimals",
              "type": "uint256"
            },
            {
              "internalType": "string",
              "name": "name",
              "type": "string"
            },
            {
              "internalType": "string",
              "name": "symbol",
              "type": "string"
            }
          ],
          "internalType": "struct BoringCryptoTokenScanner.TokenInfo[]",
          "name": "",
          "type": "tuple[]"
        }
      ],
      "stateMutability": "pure",
      "type": "function"
    },
    {
      "inputs": [
        {
          "internalType": "address",
          "name": "who",
          "type": "address"
        },
        {
          "internalType": "address[]",
          "name": "addresses",
          "type": "address[]"
        }
      ],
      "name": "findBalances",
      "outputs": [
        {
          "components": [
            {
              "internalType": "address",
              "name": "token",
              "type": "address"
            },
            {
              "internalType": "uint256",
              "name": "balance",
              "type": "uint256"
            }
          ],
          "internalType": "struct BoringCryptoTokenScanner.Balance[]",
          "name": "",
          "type": "tuple[]"
        }
      ],
      "stateMutability": "view",
      "type": "function"
    },
    {
      "inputs": [
        {
          "internalType": "address",
          "name": "who",
          "type": "address"
        },
        {
          "internalType": "address[]",
          "name": "addresses",
          "type": "address[]"
        },
        {
          "internalType": "contract IFactory",
          "name": "factory",
          "type": "address"
        },
        {
          "internalType": "address",
          "name": "currency",
          "type": "address"
        }
      ],
      "name": "getBalances",
      "outputs": [
        {
          "components": [
            {
              "internalType": "address",
              "name": "token",
              "type": "address"
            },
            {
              "internalType": "uint256",
              "name": "balance",
              "type": "uint256"
            },
            {
              "internalType": "uint256",
              "name": "rate",
              "type": "uint256"
            }
          ],
          "internalType": "struct BoringCryptoTokenScanner.BalanceFull[]",
          "name": "",
          "type": "tuple[]"
        }
      ],
      "stateMutability": "view",
      "type": "function"
    },
    {
      "inputs": [
        {
          "internalType": "contract IFactory[]",
          "name": "addresses",
          "type": "address[]"
        }
      ],
      "name": "getFactoryInfo",
      "outputs": [
        {
          "components": [
            {
              "internalType": "contract IFactory",
              "name": "factory",
              "type": "address"
            },
            {
              "internalType": "uint256",
              "name": "allPairsLength",
              "type": "uint256"
            },
            {
              "internalType": "address",
              "name": "feeTo",
              "type": "address"
            },
            {
              "internalType": "address",
              "name": "feeToSetter",
              "type": "address"
            }
          ],
          "internalType": "struct BoringCryptoTokenScanner.Factory[]",
          "name": "",
          "type": "tuple[]"
        }
      ],
      "stateMutability": "view",
      "type": "function"
    },
    {
      "inputs": [
        {
          "internalType": "contract IFactory",
          "name": "factory",
          "type": "address"
        },
        {
          "internalType": "uint256",
          "name": "fromID",
          "type": "uint256"
        },
        {
          "internalType": "uint256",
          "name": "toID",
          "type": "uint256"
        }
      ],
      "name": "getPairs",
      "outputs": [
        {
          "components": [
            {
              "internalType": "address",
              "name": "token",
              "type": "address"
            },
            {
              "internalType": "address",
              "name": "token0",
              "type": "address"
            },
            {
              "internalType": "address",
              "name": "token1",
              "type": "address"
            }
          ],
          "internalType": "struct BoringCryptoTokenScanner.Pair[]",
          "name": "",
          "type": "tuple[]"
        }
      ],
      "stateMutability": "view",
      "type": "function"
    },
    {
      "inputs": [
        {
          "internalType": "address",
          "name": "who",
          "type": "address"
        },
        {
          "internalType": "contract IFactory",
          "name": "factory",
          "type": "address"
        },
        {
          "internalType": "uint256",
          "name": "fromID",
          "type": "uint256"
        },
        {
          "internalType": "uint256",
          "name": "toID",
          "type": "uint256"
        }
      ],
      "name": "findPairs",
      "outputs": [
        {
          "components": [
            {
              "internalType": "address",
              "name": "token",
              "type": "address"
            },
            {
              "internalType": "address",
              "name": "token0",
              "type": "address"
            },
            {
              "internalType": "address",
              "name": "token1",
              "type": "address"
            }
          ],
          "internalType": "struct BoringCryptoTokenScanner.Pair[]",
          "name": "",
          "type": "tuple[]"
        }
      ],
      "stateMutability": "view",
      "type": "function"
    },
    {
      "inputs": [
        {
          "internalType": "address",
          "name": "who",
          "type": "address"
        },
        {
          "internalType": "address[]",
          "name": "addresses",
          "type": "address[]"
        }
      ],
      "name": "getPairsFull",
      "outputs": [
        {
          "components": [
            {
              "internalType": "address",
              "name": "token",
              "type": "address"
            },
            {
              "internalType": "address",
              "name": "token0",
              "type": "address"
            },
            {
              "internalType": "address",
              "name": "token1",
              "type": "address"
            },
            {
              "internalType": "uint256",
              "name": "reserve0",
              "type": "uint256"
            },
            {
              "internalType": "uint256",
              "name": "reserve1",
              "type": "uint256"
            },
            {
              "internalType": "uint256",
              "name": "totalSupply",
              "type": "uint256"
            },
            {
              "internalType": "uint256",
              "name": "balance",
              "type": "uint256"
            }
          ],
          "internalType": "struct BoringCryptoTokenScanner.PairFull[]",
          "name": "",
          "type": "tuple[]"
        }
      ],
      "stateMutability": "view",
      "type": "function"
    }
  ],
  "bytecode": "0x608060405234801561001057600080fd5b50611f6d806100206000396000f3fe608060405234801561001057600080fd5b506004361061007d5760003560e01c80635f2bf94f1161005b5780635f2bf94f146100eb5780637e3e25961461010b578063ca0f937c1461012b578063d80f01701461014b5761007d565b806303656f71146100825780633dea3ce5146100ab5780634a69ac50146100cb575b600080fd5b61009561009036600461197e565b61015e565b6040516100a29190611c41565b60405180910390f35b6100be6100b9366004611a3e565b61052b565b6040516100a29190611cee565b6100de6100d9366004611a3e565b6107bb565b6040516100a29190611e31565b6100fe6100f936600461192b565b610a2a565b6040516100a29190611d53565b61011e610119366004611a7e565b610d93565b6040516100a29190611dd6565b61013e61013936600461192b565b61106d565b6040516100a29190611ca3565b61011e6101593660046119f9565b61130e565b6060808467ffffffffffffffff8111801561017857600080fd5b506040519080825280602002602001820160405280156101b257816020015b61019f611792565b8152602001906001900390816101975790505b50905060005b858110156105205760008787838181106101ce57fe5b90506020020160208101906101e391906118ec565b9050808383815181106101f257fe5b60209081029190910101516001600160a01b0391821690526040516370a0823160e01b8152908216906370a082319061022f908c90600401611c13565b60206040518083038186803b15801561024757600080fd5b505afa15801561025b573d6000803e3d6000fd5b505050506040513d601f19601f8201168201806040525081019061027f9190611ba1565b83838151811061028b57fe5b602002602001015160200181815250506000866001600160a01b031663e6a439058a8a868181106102b857fe5b90506020020160208101906102cd91906118ec565b886040518363ffffffff1660e01b81526004016102eb929190611c27565b60206040518083038186803b15801561030357600080fd5b505afa158015610317573d6000803e3d6000fd5b505050506040513d601f19601f8201168201806040525081019061033b919061190f565b90506001600160a01b0381161561051657600080876001600160a01b0316836001600160a01b0316630dfe16816040518163ffffffff1660e01b815260040160206040518083038186803b15801561039257600080fd5b505afa1580156103a6573d6000803e3d6000fd5b505050506040513d601f19601f820116820180604052508101906103ca919061190f565b6001600160a01b0316141561046057826001600160a01b0316630902f1ac6040518163ffffffff1660e01b815260040160606040518083038186803b15801561041257600080fd5b505afa158015610426573d6000803e3d6000fd5b505050506040513d601f19601f8201168201806040525081019061044a9190611b4d565b506001600160701b0391821693501690506104e3565b826001600160a01b0316630902f1ac6040518163ffffffff1660e01b815260040160606040518083038186803b15801561049957600080fd5b505afa1580156104ad573d6000803e3d6000fd5b505050506040513d601f19601f820116820180604052508101906104d19190611b4d565b506001600160701b0390811693501690505b8181670de0b6b3a764000002816104f657fe5b0486868151811061050357fe5b6020026020010151604001818152505050505b50506001016101b8565b509695505050505050565b6060808267ffffffffffffffff8111801561054557600080fd5b5060405190808252806020026020018201604052801561057f57816020015b61056c6117bc565b8152602001906001900390816105645790505b50905060005b838110156107b357600085858381811061059b57fe5b90506020020160208101906105b091906118ec565b9050808383815181106105bf57fe5b6020026020010151600001906001600160a01b031690816001600160a01b031681525050806001600160a01b031663574f2ba36040518163ffffffff1660e01b815260040160206040518083038186803b15801561061c57600080fd5b505afa158015610630573d6000803e3d6000fd5b505050506040513d601f19601f820116820180604052508101906106549190611ba1565b83838151811061066057fe5b60200260200101516020018181525050806001600160a01b031663017e7e586040518163ffffffff1660e01b815260040160206040518083038186803b1580156106a957600080fd5b505afa1580156106bd573d6000803e3d6000fd5b505050506040513d601f19601f820116820180604052508101906106e1919061190f565b8383815181106106ed57fe5b6020026020010151604001906001600160a01b031690816001600160a01b031681525050806001600160a01b031663094b74156040518163ffffffff1660e01b815260040160206040518083038186803b15801561074a57600080fd5b505afa15801561075e573d6000803e3d6000fd5b505050506040513d601f19601f82011682018060405250810190610782919061190f565b83838151811061078e57fe5b60209081029190910101516001600160a01b0390911660609091015250600101610585565b509392505050565b6060808267ffffffffffffffff811180156107d557600080fd5b5060405190808252806020026020018201604052801561080f57816020015b6107fc6117e3565b8152602001906001900390816107f45790505b50905060005b838110156107b357600085858381811061082b57fe5b905060200201602081019061084091906118ec565b90508083838151811061084f57fe5b6020026020010151600001906001600160a01b031690816001600160a01b031681525050806001600160a01b03166306fdde036040518163ffffffff1660e01b815260040160006040518083038186803b1580156108ac57600080fd5b505afa1580156108c0573d6000803e3d6000fd5b505050506040513d6000823e601f3d908101601f191682016040526108e89190810190611ab2565b8383815181106108f457fe5b602002602001015160400181905250806001600160a01b03166395d89b416040518163ffffffff1660e01b815260040160006040518083038186803b15801561093c57600080fd5b505afa158015610950573d6000803e3d6000fd5b505050506040513d6000823e601f3d908101601f191682016040526109789190810190611ab2565b83838151811061098457fe5b602002602001015160600181905250806001600160a01b031663313ce5676040518163ffffffff1660e01b815260040160206040518083038186803b1580156109cc57600080fd5b505afa1580156109e0573d6000803e3d6000fd5b505050506040513d601f19601f82011682018060405250810190610a049190611bb9565b60ff16838381518110610a1357fe5b602090810291909101810151015250600101610815565b6060808267ffffffffffffffff81118015610a4457600080fd5b50604051908082528060200260200182016040528015610a7e57816020015b610a6b611814565b815260200190600190039081610a635790505b50905060005b83811015610d8a576000858583818110610a9a57fe5b9050602002016020810190610aaf91906118ec565b905080838381518110610abe57fe5b6020026020010151600001906001600160a01b031690816001600160a01b031681525050806001600160a01b0316630dfe16816040518163ffffffff1660e01b815260040160206040518083038186803b158015610b1b57600080fd5b505afa158015610b2f573d6000803e3d6000fd5b505050506040513d601f19601f82011682018060405250810190610b53919061190f565b838381518110610b5f57fe5b6020026020010151602001906001600160a01b031690816001600160a01b031681525050806001600160a01b031663d21220a76040518163ffffffff1660e01b815260040160206040518083038186803b158015610bbc57600080fd5b505afa158015610bd0573d6000803e3d6000fd5b505050506040513d601f19601f82011682018060405250810190610bf4919061190f565b838381518110610c0057fe5b6020026020010151604001906001600160a01b031690816001600160a01b031681525050600080826001600160a01b0316630902f1ac6040518163ffffffff1660e01b815260040160606040518083038186803b158015610c6057600080fd5b505afa158015610c74573d6000803e3d6000fd5b505050506040513d601f19601f82011682018060405250810190610c989190611b4d565b506001600160701b031691506001600160701b0316915081858581518110610cbc57fe5b6020026020010151606001818152505080858581518110610cd957fe5b6020908102919091010151608001526040516370a0823160e01b81526001600160a01b038416906370a0823190610d14908c90600401611c13565b60206040518083038186803b158015610d2c57600080fd5b505afa158015610d40573d6000803e3d6000fd5b505050506040513d601f19601f82011682018060405250810190610d649190611ba1565b858581518110610d7057fe5b602090810291909101015160c00152505050600101610a84565b50949350505050565b606081610e0e57836001600160a01b031663574f2ba36040518163ffffffff1660e01b815260040160206040518083038186803b158015610dd357600080fd5b505afa158015610de7573d6000803e3d6000fd5b505050506040513d601f19601f82011682018060405250810190610e0b9190611ba1565b91505b606083830367ffffffffffffffff81118015610e2957600080fd5b50604051908082528060200260200182016040528015610e6357816020015b610e5061186c565b815260200190600190039081610e485790505b509050835b83811015610d8a57604051631e3dd18b60e01b81526000906001600160a01b03881690631e3dd18b90610e9f908590600401611ed1565b60206040518083038186803b158015610eb757600080fd5b505afa158015610ecb573d6000803e3d6000fd5b505050506040513d601f19601f82011682018060405250810190610eef919061190f565b90506000868303905081848281518110610f0557fe5b6020026020010151600001906001600160a01b031690816001600160a01b031681525050816001600160a01b0316630dfe16816040518163ffffffff1660e01b815260040160206040518083038186803b158015610f6257600080fd5b505afa158015610f76573d6000803e3d6000fd5b505050506040513d601f19601f82011682018060405250810190610f9a919061190f565b848281518110610fa657fe5b6020026020010151602001906001600160a01b031690816001600160a01b031681525050816001600160a01b031663d21220a76040518163ffffffff1660e01b815260040160206040518083038186803b15801561100357600080fd5b505afa158015611017573d6000803e3d6000fd5b505050506040513d601f19601f8201168201806040525081019061103b919061190f565b84828151811061104757fe5b60209081029190910101516001600160a01b039091166040909101525050600101610e68565b60606000805b8381101561112e57600085858381811061108957fe5b905060200201602081019061109e91906118ec565b6001600160a01b03166370a08231886040518263ffffffff1660e01b81526004016110c99190611c13565b60206040518083038186803b1580156110e157600080fd5b505afa1580156110f5573d6000803e3d6000fd5b505050506040513d601f19601f820116820180604052508101906111199190611ba1565b1115611126576001909101905b600101611073565b5060608167ffffffffffffffff8111801561114857600080fd5b5060405190808252806020026020018201604052801561118257816020015b61116f61188c565b8152602001906001900390816111675790505b5090506000915060005b848110156113045760008686838181106111a257fe5b90506020020160208101906111b791906118ec565b90506000816001600160a01b03166370a082318a6040518263ffffffff1660e01b81526004016111e79190611c13565b60206040518083038186803b1580156111ff57600080fd5b505afa158015611213573d6000803e3d6000fd5b505050506040513d601f19601f820116820180604052508101906112379190611ba1565b905080156112fa578184868151811061124c57fe5b60209081029190910101516001600160a01b0391821690526040516370a0823160e01b8152908316906370a0823190611289908c90600401611c13565b60206040518083038186803b1580156112a157600080fd5b505afa1580156112b5573d6000803e3d6000fd5b505050506040513d601f19601f820116820180604052508101906112d99190611ba1565b8486815181106112e557fe5b60209081029190910181015101526001909401935b505060010161118c565b5095945050505050565b60608161138957836001600160a01b031663574f2ba36040518163ffffffff1660e01b815260040160206040518083038186803b15801561134e57600080fd5b505afa158015611362573d6000803e3d6000fd5b505050506040513d601f19601f820116820180604052508101906113869190611ba1565b91505b6000835b838110156114aa57604051631e3dd18b60e01b81526000906001600160a01b03881690631e3dd18b906113c4908590600401611ed1565b60206040518083038186803b1580156113dc57600080fd5b505afa1580156113f0573d6000803e3d6000fd5b505050506040513d601f19601f82011682018060405250810190611414919061190f565b90506000816001600160a01b03166370a082318a6040518263ffffffff1660e01b81526004016114449190611c13565b60206040518083038186803b15801561145c57600080fd5b505afa158015611470573d6000803e3d6000fd5b505050506040513d601f19601f820116820180604052508101906114949190611ba1565b11156114a1576001909201915b5060010161138d565b5060608167ffffffffffffffff811180156114c457600080fd5b506040519080825280602002602001820160405280156114fe57816020015b6114eb61186c565b8152602001906001900390816114e35790505b50600092509050845b8481101561052057604051631e3dd18b60e01b81526000906001600160a01b03891690631e3dd18b9061153e908590600401611ed1565b60206040518083038186803b15801561155657600080fd5b505afa15801561156a573d6000803e3d6000fd5b505050506040513d601f19601f8201168201806040525081019061158e919061190f565b90506000816001600160a01b03166370a082318b6040518263ffffffff1660e01b81526004016115be9190611c13565b60206040518083038186803b1580156115d657600080fd5b505afa1580156115ea573d6000803e3d6000fd5b505050506040513d601f19601f8201168201806040525081019061160e9190611ba1565b90508015611788578184868151811061162357fe5b6020026020010151600001906001600160a01b031690816001600160a01b031681525050816001600160a01b0316630dfe16816040518163ffffffff1660e01b815260040160206040518083038186803b15801561168057600080fd5b505afa158015611694573d6000803e3d6000fd5b505050506040513d601f19601f820116820180604052508101906116b8919061190f565b8486815181106116c457fe5b6020026020010151602001906001600160a01b031690816001600160a01b031681525050816001600160a01b031663d21220a76040518163ffffffff1660e01b815260040160206040518083038186803b15801561172157600080fd5b505afa158015611735573d6000803e3d6000fd5b505050506040513d601f19601f82011682018060405250810190611759919061190f565b84868151811061176557fe5b60209081029190910101516001600160a01b039091166040909101526001909401935b5050600101611507565b604051806060016040528060006001600160a01b0316815260200160008152602001600081525090565b60408051608081018252600080825260208201819052918101829052606081019190915290565b604051806080016040528060006001600160a01b031681526020016000815260200160608152602001606081525090565b6040518060e0016040528060006001600160a01b0316815260200160006001600160a01b0316815260200160006001600160a01b03168152602001600081526020016000815260200160008152602001600081525090565b604080516060810182526000808252602082018190529181019190915290565b604080518082019091526000808252602082015290565b60008083601f8401126118b4578182fd5b50813567ffffffffffffffff8111156118cb578182fd5b60208301915083602080830285010111156118e557600080fd5b9250929050565b6000602082840312156118fd578081fd5b813561190881611f0a565b9392505050565b600060208284031215611920578081fd5b815161190881611f0a565b60008060006040848603121561193f578182fd5b833561194a81611f0a565b9250602084013567ffffffffffffffff811115611965578283fd5b611971868287016118a3565b9497909650939450505050565b600080600080600060808688031215611995578081fd5b85356119a081611f0a565b9450602086013567ffffffffffffffff8111156119bb578182fd5b6119c7888289016118a3565b90955093505060408601356119db81611f0a565b915060608601356119eb81611f0a565b809150509295509295909350565b60008060008060808587031215611a0e578384fd5b8435611a1981611f0a565b93506020850135611a2981611f0a565b93969395505050506040820135916060013590565b60008060208385031215611a50578182fd5b823567ffffffffffffffff811115611a66578283fd5b611a72858286016118a3565b90969095509350505050565b600080600060608486031215611a92578283fd5b8335611a9d81611f0a565b95602085013595506040909401359392505050565b600060208284031215611ac3578081fd5b815167ffffffffffffffff80821115611ada578283fd5b818401915084601f830112611aed578283fd5b815181811115611afb578384fd5b604051601f8201601f191681016020018381118282101715611b1b578586fd5b604052818152838201602001871015611b32578485fd5b611b43826020830160208701611eda565b9695505050505050565b600080600060608486031215611b61578283fd5b8351611b6c81611f22565b6020850151909350611b7d81611f22565b604085015190925063ffffffff81168114611b96578182fd5b809150509250925092565b600060208284031215611bb2578081fd5b5051919050565b600060208284031215611bca578081fd5b815160ff81168114611908578182fd5b6001600160a01b03169052565b60008151808452611bff816020860160208601611eda565b601f01601f19169290920160200192915050565b6001600160a01b0391909116815260200190565b6001600160a01b0392831681529116602082015260400190565b602080825282518282018190526000919060409081850190868401855b82811015611c9657815180516001600160a01b0316855286810151878601528501518585015260609093019290850190600101611c5e565b5091979650505050505050565b602080825282518282018190526000919060409081850190868401855b82811015611c9657815180516001600160a01b03168552860151868501529284019290850190600101611cc0565b602080825282518282018190526000919060409081850190868401855b82811015611c9657815180516001600160a01b039081168652878201518887015286820151811687870152606091820151169085015260809093019290850190600101611d0b565b602080825282518282018190526000919060409081850190868401855b82811015611c9657815180516001600160a01b03908116865287820151811688870152868201511686860152606080820151908601526080808201519086015260a0808201519086015260c0908101519085015260e09093019290850190600101611d70565b602080825282518282018190526000919060409081850190868401855b82811015611c9657815180516001600160a01b0390811686528782015181168887015290860151168585015260609093019290850190600101611df3565b60208082528251828201819052600091906040908185019080840286018301878501865b83811015611ec357603f1989840301855281516080611e75858351611bda565b8882015189860152878201518189870152611e9282870182611be7565b91505060608083015192508582038187015250611eaf8183611be7565b968901969450505090860190600101611e55565b509098975050505050505050565b90815260200190565b60005b83811015611ef5578181015183820152602001611edd565b83811115611f04576000848401525b50505050565b6001600160a01b0381168114611f1f57600080fd5b50565b6001600160701b0381168114611f1f57600080fdfea2646970667358221220d690db539e42a97cd1252cf1340b0f568cf99c2d7f657bcf9881894e60470c1d64736f6c634300060c0033",
  "immutableReferences": {},
  "source": "// SPDX-License-Identifier: MIT\npragma solidity ^0.6.12;\npragma experimental ABIEncoderV2;\nimport '@openzeppelin/contracts/access/Ownable.sol';\nimport '@openzeppelin/contracts/math/SafeMath.sol';\nimport {IERC20GoSwap as IERC20} from './interfaces/IERC20GoSwap.sol';\n\ninterface IFactory {\n    function allPairsLength() external view returns (uint256);\n\n    function allPairs(uint256 i) external view returns (address);\n\n    function getPair(address token0, address token1) external view returns (address);\n\n    function feeTo() external view returns (address);\n\n    function feeToSetter() external view returns (address);\n}\n\ninterface IPair is IERC20 {\n    function token0() external view returns (address);\n\n    function token1() external view returns (address);\n\n    function getReserves()\n        external\n        view\n        returns (\n            uint112,\n            uint112,\n            uint32\n        );\n}\n\ncontract BoringCryptoTokenScanner {\n    using SafeMath for uint256;\n\n    struct Balance {\n        address token;\n        uint256 balance;\n    }\n\n    struct BalanceFull {\n        address token;\n        uint256 balance;\n        uint256 rate;\n    }\n\n    struct TokenInfo {\n        address token;\n        uint256 decimals;\n        string name;\n        string symbol;\n    }\n\n    function getTokenInfo(address[] calldata addresses) public pure returns (TokenInfo[] memory) {\n        TokenInfo[] memory infos = new TokenInfo[](addresses.length);\n\n        for (uint256 i = 0; i < addresses.length; i++) {\n            IERC20 token = IERC20(addresses[i]);\n            infos[i].token = address(token);\n\n            infos[i].name = token.name();\n            infos[i].symbol = token.symbol();\n            infos[i].decimals = token.decimals();\n        }\n\n        return infos;\n    }\n\n    function findBalances(address who, address[] calldata addresses) public view returns (Balance[] memory) {\n        uint256 balanceCount;\n\n        for (uint256 i = 0; i < addresses.length; i++) {\n            if (IERC20(addresses[i]).balanceOf(who) > 0) {\n                balanceCount++;\n            }\n        }\n\n        Balance[] memory balances = new Balance[](balanceCount);\n\n        balanceCount = 0;\n        for (uint256 i = 0; i < addresses.length; i++) {\n            IERC20 token = IERC20(addresses[i]);\n            uint256 balance = token.balanceOf(who);\n            if (balance > 0) {\n                balances[balanceCount].token = address(token);\n                balances[balanceCount].balance = token.balanceOf(who);\n                balanceCount++;\n            }\n        }\n\n        return balances;\n    }\n\n    function getBalances(\n        address who,\n        address[] calldata addresses,\n        IFactory factory,\n        address currency\n    ) public view returns (BalanceFull[] memory) {\n        BalanceFull[] memory balances = new BalanceFull[](addresses.length);\n\n        for (uint256 i = 0; i < addresses.length; i++) {\n            IERC20 token = IERC20(addresses[i]);\n            balances[i].token = address(token);\n            balances[i].balance = token.balanceOf(who);\n\n            IPair pair = IPair(factory.getPair(addresses[i], currency));\n            if (address(pair) != address(0)) {\n                uint256 reserveCurrency;\n                uint256 reserveToken;\n                if (pair.token0() == currency) {\n                    (reserveCurrency, reserveToken, ) = pair.getReserves();\n                } else {\n                    (reserveToken, reserveCurrency, ) = pair.getReserves();\n                }\n                balances[i].rate = (reserveToken * 1e18) / reserveCurrency;\n            }\n        }\n\n        return balances;\n    }\n\n    struct Factory {\n        IFactory factory;\n        uint256 allPairsLength;\n        address feeTo;\n        address feeToSetter;\n    }\n\n    function getFactoryInfo(IFactory[] calldata addresses) public view returns (Factory[] memory) {\n        Factory[] memory factories = new Factory[](addresses.length);\n\n        for (uint256 i = 0; i < addresses.length; i++) {\n            IFactory factory = addresses[i];\n            factories[i].factory = factory;\n\n            factories[i].allPairsLength = factory.allPairsLength();\n            factories[i].feeTo = factory.feeTo();\n            factories[i].feeToSetter = factory.feeToSetter();\n        }\n\n        return factories;\n    }\n\n    struct Pair {\n        address token;\n        address token0;\n        address token1;\n    }\n\n    function getPairs(\n        IFactory factory,\n        uint256 fromID,\n        uint256 toID\n    ) public view returns (Pair[] memory) {\n        if (toID == 0) {\n            toID = factory.allPairsLength();\n        }\n\n        Pair[] memory pairs = new Pair[](toID - fromID);\n\n        for (uint256 id = fromID; id < toID; id++) {\n            address token = factory.allPairs(id);\n            uint256 i = id - fromID;\n            pairs[i].token = token;\n            pairs[i].token0 = IPair(token).token0();\n            pairs[i].token1 = IPair(token).token1();\n        }\n        return pairs;\n    }\n\n    function findPairs(\n        address who,\n        IFactory factory,\n        uint256 fromID,\n        uint256 toID\n    ) public view returns (Pair[] memory) {\n        if (toID == 0) {\n            toID = factory.allPairsLength();\n        }\n\n        uint256 pairCount;\n\n        for (uint256 id = fromID; id < toID; id++) {\n            address token = factory.allPairs(id);\n            if (IERC20(token).balanceOf(who) > 0) {\n                pairCount++;\n            }\n        }\n\n        Pair[] memory pairs = new Pair[](pairCount);\n\n        pairCount = 0;\n        for (uint256 id = fromID; id < toID; id++) {\n            address token = factory.allPairs(id);\n            uint256 balance = IERC20(token).balanceOf(who);\n            if (balance > 0) {\n                pairs[pairCount].token = token;\n                pairs[pairCount].token0 = IPair(token).token0();\n                pairs[pairCount].token1 = IPair(token).token1();\n                pairCount++;\n            }\n        }\n\n        return pairs;\n    }\n\n    struct PairFull {\n        address token;\n        address token0;\n        address token1;\n        uint256 reserve0;\n        uint256 reserve1;\n        uint256 totalSupply;\n        uint256 balance;\n    }\n\n    function getPairsFull(address who, address[] calldata addresses) public view returns (PairFull[] memory) {\n        PairFull[] memory pairs = new PairFull[](addresses.length);\n        for (uint256 i = 0; i < addresses.length; i++) {\n            address token = addresses[i];\n            pairs[i].token = token;\n            pairs[i].token0 = IPair(token).token0();\n            pairs[i].token1 = IPair(token).token1();\n            (uint256 reserve0, uint256 reserve1, ) = IPair(token).getReserves();\n            pairs[i].reserve0 = reserve0;\n            pairs[i].reserve1 = reserve1;\n            pairs[i].balance = IERC20(token).balanceOf(who);\n        }\n        return pairs;\n    }\n}\n",
  "sourcePath": "/home/cui/Documents/goswap/goswap-core/contracts/BoringCryptoTokenScanner.sol",
  "compiler": {
    "name": "solc",
    "version": "0.6.12+commit.27d51765.Emscripten.clang"
  },
  "schemaVersion": "3.3.2",
  "updatedAt": "2021-01-12T07:30:41.500Z",
  "devdoc": {
    "kind": "dev",
    "methods": {},
    "version": 1
  },
  "userdoc": {
    "kind": "user",
    "methods": {},
    "version": 1
  }
}