{
  "contractName": "Epoch",
  "abi": [
    {
      "inputs": [
        {
          "internalType": "uint256",
          "name": "_period",
          "type": "uint256"
        },
        {
          "internalType": "uint256",
          "name": "_startTime",
          "type": "uint256"
        },
        {
          "internalType": "uint256",
          "name": "_startEpoch",
          "type": "uint256"
        }
      ],
      "stateMutability": "nonpayable",
      "type": "constructor"
    },
    {
      "anonymous": false,
      "inputs": [
        {
          "indexed": true,
          "internalType": "address",
          "name": "account",
          "type": "address"
        }
      ],
      "name": "AdminAdded",
      "type": "event"
    },
    {
      "anonymous": false,
      "inputs": [
        {
          "indexed": true,
          "internalType": "address",
          "name": "account",
          "type": "address"
        }
      ],
      "name": "AdminRemoved",
      "type": "event"
    },
    {
      "inputs": [
        {
          "internalType": "address",
          "name": "account",
          "type": "address"
        }
      ],
      "name": "addAdmin",
      "outputs": [],
      "stateMutability": "nonpayable",
      "type": "function"
    },
    {
      "inputs": [],
      "name": "allAdmins",
      "outputs": [
        {
          "internalType": "address[]",
          "name": "admins",
          "type": "address[]"
        }
      ],
      "stateMutability": "view",
      "type": "function"
    },
    {
      "inputs": [
        {
          "internalType": "address",
          "name": "account",
          "type": "address"
        }
      ],
      "name": "isAdmin",
      "outputs": [
        {
          "internalType": "bool",
          "name": "",
          "type": "bool"
        }
      ],
      "stateMutability": "view",
      "type": "function"
    },
    {
      "inputs": [
        {
          "internalType": "address",
          "name": "account",
          "type": "address"
        }
      ],
      "name": "removeAdmin",
      "outputs": [],
      "stateMutability": "nonpayable",
      "type": "function"
    },
    {
      "inputs": [],
      "name": "renounceAdmin",
      "outputs": [],
      "stateMutability": "nonpayable",
      "type": "function"
    },
    {
      "inputs": [],
      "name": "getLastEpoch",
      "outputs": [
        {
          "internalType": "uint256",
          "name": "",
          "type": "uint256"
        }
      ],
      "stateMutability": "view",
      "type": "function"
    },
    {
      "inputs": [],
      "name": "getCurrentEpoch",
      "outputs": [
        {
          "internalType": "uint256",
          "name": "",
          "type": "uint256"
        }
      ],
      "stateMutability": "view",
      "type": "function"
    },
    {
      "inputs": [],
      "name": "getNextEpoch",
      "outputs": [
        {
          "internalType": "uint256",
          "name": "",
          "type": "uint256"
        }
      ],
      "stateMutability": "view",
      "type": "function"
    },
    {
      "inputs": [],
      "name": "nextEpochPoint",
      "outputs": [
        {
          "internalType": "uint256",
          "name": "",
          "type": "uint256"
        }
      ],
      "stateMutability": "view",
      "type": "function"
    },
    {
      "inputs": [],
      "name": "getPeriod",
      "outputs": [
        {
          "internalType": "uint256",
          "name": "",
          "type": "uint256"
        }
      ],
      "stateMutability": "view",
      "type": "function"
    },
    {
      "inputs": [],
      "name": "getStartTime",
      "outputs": [
        {
          "internalType": "uint256",
          "name": "",
          "type": "uint256"
        }
      ],
      "stateMutability": "view",
      "type": "function"
    },
    {
      "inputs": [
        {
          "internalType": "uint256",
          "name": "_period",
          "type": "uint256"
        }
      ],
      "name": "setPeriod",
      "outputs": [],
      "stateMutability": "nonpayable",
      "type": "function"
    }
  ],
  "bytecode": "0x608060405234801561001057600080fd5b5060405162000c4438038062000c448339818101604052606081101561003557600080fd5b508051602082015160409092015190919061004f336100e6565b4282116100a3576040805162461bcd60e51b815260206004820152601960248201527f45706f63683a20696e76616c69642073746172742074696d6500000000000000604482015290519081900360640190fd5b600283905560038290556100da6100c58285610136602090811b61044a17901c565b60035461019960201b6104aa1790919060201c565b60045550610265915050565b6100fe8160006101f360201b6105041790919060201c565b506040516001600160a01b038216907f44d6d25963f097ad14f29f06854a01f575648a1ef82f30e562ccd3889717e33990600090a250565b60008261014557506000610193565b8282028284828161015257fe5b04146101905760405162461bcd60e51b815260040180806020018281038252602181526020018062000c236021913960400191505060405180910390fd5b90505b92915050565b600082820183811015610190576040805162461bcd60e51b815260206004820152601b60248201527f536166654d6174683a206164646974696f6e206f766572666c6f770000000000604482015290519081900360640190fd5b6000610190836001600160a01b038416600061020f838361024d565b61024557508154600181810184556000848152602080822090930184905584548482528286019093526040902091909155610193565b506000610193565b60009081526001919091016020526040902054151590565b6109ae80620002756000396000f3fe608060405234801561001057600080fd5b50600436106100b45760003560e01c8063704802751161007157806370480275146101b25780638bad0c0a146101d8578063b97dd9e2146101e0578063c5967c26146101e8578063c828371e146101f0578063efe97d05146101f8576100b4565b80630f3a9f65146100b95780631785f53c146100d85780631ed24195146100fe57806324d7806c14610118578063398bac631461015257806340f32be61461015a575b600080fd5b6100d6600480360360208110156100cf57600080fd5b5035610200565b005b6100d6600480360360208110156100ee57600080fd5b50356001600160a01b0316610249565b610106610299565b60408051918252519081900360200190f35b61013e6004803603602081101561012e57600080fd5b50356001600160a01b03166102a0565b604080519115158252519081900360200190f35b6101066102b2565b6101626102dc565b60408051602080825283518183015283519192839290830191858101910280838360005b8381101561019e578181015183820152602001610186565b505050509050019250505060405180910390f35b6100d6600480360360208110156101c857600080fd5b50356001600160a01b031661037a565b6100d66103c7565b6101066103d2565b6101066103f2565b610106610414565b61010661041a565b610209336102a0565b6102445760405162461bcd60e51b815260040180806020018281038252602e81526020018061094b602e913960400191505060405180910390fd5b600255565b610252336102a0565b61028d5760405162461bcd60e51b815260040180806020018281038252602e81526020018061094b602e913960400191505060405180910390fd5b61029681610519565b50565b6002545b90565b60006102ac818361055c565b92915050565b60006102d76002546102d160035460045461057190919063ffffffff16565b906105b3565b905090565b60606102e860006105f5565b67ffffffffffffffff811180156102fe57600080fd5b50604051908082528060200260200182016040528015610328578160200160208202803683370190505b50905060005b61033860006105f5565b8110156103765761034a600082610600565b82828151811061035657fe5b6001600160a01b039092166020928302919091019091015260010161032e565b5090565b610383336102a0565b6103be5760405162461bcd60e51b815260040180806020018281038252602e81526020018061094b602e913960400191505060405180910390fd5b6102968161060c565b6103d033610519565b565b60006102d76002546102d16003546103ec6003544261064f565b90610571565b60006102d761040b60025461040561041a565b9061044a565b600354906104aa565b60035490565b60006004546003541415610437576104306102b2565b905061029d565b6102d760016104446102b2565b906104aa565b600082610459575060006102ac565b8282028284828161046657fe5b04146104a35760405162461bcd60e51b815260040180806020018281038252602181526020018061092a6021913960400191505060405180910390fd5b9392505050565b6000828201838110156104a3576040805162461bcd60e51b815260206004820152601b60248201527f536166654d6174683a206164646974696f6e206f766572666c6f770000000000604482015290519081900360640190fd5b60006104a3836001600160a01b038416610666565b6105246000826106b0565b506040516001600160a01b038216907fa3b62bc36326052d97ea62d63c3d60308ed4c3ea8ac079dd8499f1e9c4f80c0f90600090a250565b60006104a3836001600160a01b0384166106c5565b60006104a383836040518060400160405280601e81526020017f536166654d6174683a207375627472616374696f6e206f766572666c6f7700008152506106dd565b60006104a383836040518060400160405280601a81526020017f536166654d6174683a206469766973696f6e206279207a65726f000000000000815250610774565b60006102ac826107d9565b60006104a383836107dd565b610617600082610504565b506040516001600160a01b038216907f44d6d25963f097ad14f29f06854a01f575648a1ef82f30e562ccd3889717e33990600090a250565b60008183101561065f57816104a3565b5090919050565b600061067283836106c5565b6106a8575081546001818101845560008481526020808220909301849055845484825282860190935260409020919091556102ac565b5060006102ac565b60006104a3836001600160a01b038416610841565b60009081526001919091016020526040902054151590565b6000818484111561076c5760405162461bcd60e51b81526004018080602001828103825283818151815260200191508051906020019080838360005b83811015610731578181015183820152602001610719565b50505050905090810190601f16801561075e5780820380516001836020036101000a031916815260200191505b509250505060405180910390fd5b505050900390565b600081836107c35760405162461bcd60e51b8152602060048201818152835160248401528351909283926044909101919085019080838360008315610731578181015183820152602001610719565b5060008385816107cf57fe5b0495945050505050565b5490565b8154600090821061081f5760405162461bcd60e51b81526004018080602001828103825260228152602001806109086022913960400191505060405180910390fd5b82600001828154811061082e57fe5b9060005260206000200154905092915050565b600081815260018301602052604081205480156108fd578354600019808301919081019060009087908390811061087457fe5b906000526020600020015490508087600001848154811061089157fe5b6000918252602080832090910192909255828152600189810190925260409020908401905586548790806108c157fe5b600190038181906000526020600020016000905590558660010160008781526020019081526020016000206000905560019450505050506102ac565b60009150506102ac56fe456e756d657261626c655365743a20696e646578206f7574206f6620626f756e6473536166654d6174683a206d756c7469706c69636174696f6e206f766572666c6f7741646d696e526f6c653a2063616c6c657220646f6573206e6f742068617665207468652041646d696e20726f6c65a2646970667358221220de9975f7c36e47fb62afc835e3a6e1f6fa0a2e2d1c3eba083a019eaa70017e0c64736f6c634300060c0033536166654d6174683a206d756c7469706c69636174696f6e206f766572666c6f77",
  "immutableReferences": {},
  "source": "// SPDX-License-Identifier: MIT\npragma solidity ^0.6.0;\n\nimport '@openzeppelin/contracts/math/SafeMath.sol';\nimport './AdminRole.sol';\nimport './Math.sol';\n\n/**\n * @title 周期合约\n */\ncontract Epoch is AdminRole {\n    using SafeMath for uint256;\n    /// @dev 周期时长\n    uint256 private period;\n    /// @dev 开始时间\n    uint256 private startTime;\n    /// @dev 最后执行时间\n    uint256 private lastExecutedAt;\n\n    /* ========== CONSTRUCTOR ========== */\n    /**\n     * @dev 构造函数\n     * @param _period 周期时长 1 days\n     * @param _startTime 开始时间\n     * @param _startEpoch 0周期\n     */\n    constructor(\n        uint256 _period,\n        uint256 _startTime,\n        uint256 _startEpoch\n    ) public {\n        require(_startTime > block.timestamp, 'Epoch: invalid start time');\n        period = _period;\n        startTime = _startTime;\n        // 最后执行时间 = 开始时间 + 开始周期 * 周期时长\n        lastExecutedAt = startTime.add(_startEpoch.mul(period));\n    }\n\n    /* ========== Modifier ========== */\n\n    /**\n     * @dev 检查开始时间\n     */\n    modifier checkStartTime {\n        //确认现在大于开始时间\n        require(now >= startTime, 'Epoch: not started yet');\n        _;\n    }\n\n    /**\n     * @dev 检查周期\n     */\n    modifier checkEpoch {\n        //确认现在大于开始时间\n        require(now > startTime, 'Epoch: not started yet');\n        //确认当前周期 >= 下一个周期\n        require(getCurrentEpoch() >= getNextEpoch(), 'Epoch: not allowed');\n\n        _;\n        // 最后执行时间 = 当前时间\n        lastExecutedAt = block.timestamp;\n    }\n\n    /* ========== VIEW FUNCTIONS ========== */\n\n    // epoch\n    /**\n     * @dev 获取最后一个周期\n     */\n    function getLastEpoch() public view returns (uint256) {\n        // (最后执行时间 - 开始时间) / 周期时长\n        return lastExecutedAt.sub(startTime).div(period);\n    }\n\n    /**\n     * @dev 获取当前周期\n     */\n    function getCurrentEpoch() public view returns (uint256) {\n        // (最大值(开始时间, 当前时间) - 开始时间) / 周期时长\n        return Math.max(startTime, block.timestamp).sub(startTime).div(period);\n    }\n\n    /**\n     * @dev 获取下一个周期\n     */\n    function getNextEpoch() public view returns (uint256) {\n        // 如果开始时间 == 最后执行时间\n        if (startTime == lastExecutedAt) {\n            // 返回最后一个周期\n            return getLastEpoch();\n        }\n        // 最后一个周期 + 1\n        return getLastEpoch().add(1);\n    }\n\n    /**\n     * @dev 获取下一个周期点\n     */\n    function nextEpochPoint() public view returns (uint256) {\n        // 开始时间 + (下一个周期 * 周期时长)\n        return startTime.add(getNextEpoch().mul(period));\n    }\n\n    // params\n    /**\n     * @dev 获取周期时长\n     */\n    function getPeriod() public view returns (uint256) {\n        return period;\n    }\n\n    /**\n     * @dev 获取开始时间\n     */\n    function getStartTime() public view returns (uint256) {\n        return startTime;\n    }\n\n    /* ========== GOVERNANCE ========== */\n\n    /**\n     * @dev 设置周期时长\n     * @param _period 周期时长\n     */\n    function setPeriod(uint256 _period) external onlyAdmin {\n        period = _period;\n    }\n}\n",
  "sourcePath": "/home/cui/Documents/goswap/goswap-core/contracts/libraries/Epoch.sol",
  "compiler": {
    "name": "solc",
    "version": "0.6.12+commit.27d51765.Emscripten.clang"
  },
  "schemaVersion": "3.3.2",
  "updatedAt": "2021-01-18T03:20:28.716Z",
  "devdoc": {
    "kind": "dev",
    "methods": {
      "addAdmin(address)": {
        "details": "添加管理员",
        "params": {
          "account": "帐号地址"
        }
      },
      "allAdmins()": {
        "details": "返回所有管理员",
        "returns": {
          "admins": "管理员数组"
        }
      },
      "constructor": {
        "details": "构造函数",
        "params": {
          "_period": "周期时长 1 days",
          "_startEpoch": "0周期",
          "_startTime": "开始时间"
        }
      },
      "getCurrentEpoch()": {
        "details": "获取当前周期"
      },
      "getLastEpoch()": {
        "details": "获取最后一个周期"
      },
      "getNextEpoch()": {
        "details": "获取下一个周期"
      },
      "getPeriod()": {
        "details": "获取周期时长"
      },
      "getStartTime()": {
        "details": "获取开始时间"
      },
      "isAdmin(address)": {
        "details": "判断是否是管理员",
        "params": {
          "account": "帐号地址"
        },
        "returns": {
          "_0": "是否是管理员"
        }
      },
      "nextEpochPoint()": {
        "details": "获取下一个周期点"
      },
      "removeAdmin(address)": {
        "details": "移除管理员",
        "params": {
          "account": "帐号地址"
        }
      },
      "renounceAdmin()": {
        "details": "撤销管理员"
      },
      "setPeriod(uint256)": {
        "details": "设置周期时长",
        "params": {
          "_period": "周期时长"
        }
      }
    },
    "stateVariables": {
      "lastExecutedAt": {
        "details": "最后执行时间"
      },
      "period": {
        "details": "周期时长"
      },
      "startTime": {
        "details": "开始时间"
      }
    },
    "title": "周期合约",
    "version": 1
  },
  "userdoc": {
    "kind": "user",
    "methods": {},
    "version": 1
  }
}