{
  "contractName": "GoSwapMigrate",
  "abi": [
    {
      "anonymous": false,
      "inputs": [
        {
          "indexed": true,
          "internalType": "address",
          "name": "account",
          "type": "address"
        }
      ],
      "name": "AdminAdded",
      "type": "event"
    },
    {
      "anonymous": false,
      "inputs": [
        {
          "indexed": true,
          "internalType": "address",
          "name": "account",
          "type": "address"
        }
      ],
      "name": "AdminRemoved",
      "type": "event"
    },
    {
      "inputs": [
        {
          "internalType": "address",
          "name": "account",
          "type": "address"
        }
      ],
      "name": "addAdmin",
      "outputs": [],
      "stateMutability": "nonpayable",
      "type": "function"
    },
    {
      "inputs": [],
      "name": "allAdmins",
      "outputs": [
        {
          "internalType": "address[]",
          "name": "admins",
          "type": "address[]"
        }
      ],
      "stateMutability": "view",
      "type": "function"
    },
    {
      "inputs": [
        {
          "internalType": "address",
          "name": "account",
          "type": "address"
        }
      ],
      "name": "isAdmin",
      "outputs": [
        {
          "internalType": "bool",
          "name": "",
          "type": "bool"
        }
      ],
      "stateMutability": "view",
      "type": "function"
    },
    {
      "inputs": [],
      "name": "oldRouter",
      "outputs": [
        {
          "internalType": "contract IGoSwapRouter",
          "name": "",
          "type": "address"
        }
      ],
      "stateMutability": "view",
      "type": "function"
    },
    {
      "inputs": [
        {
          "internalType": "address",
          "name": "account",
          "type": "address"
        }
      ],
      "name": "removeAdmin",
      "outputs": [],
      "stateMutability": "nonpayable",
      "type": "function"
    },
    {
      "inputs": [],
      "name": "renounceAdmin",
      "outputs": [],
      "stateMutability": "nonpayable",
      "type": "function"
    },
    {
      "inputs": [],
      "name": "router",
      "outputs": [
        {
          "internalType": "contract IGoSwapRouter",
          "name": "",
          "type": "address"
        }
      ],
      "stateMutability": "view",
      "type": "function"
    },
    {
      "inputs": [
        {
          "internalType": "contract IGoSwapRouter",
          "name": "_oldRouter",
          "type": "address"
        }
      ],
      "name": "setOldRouter",
      "outputs": [],
      "stateMutability": "nonpayable",
      "type": "function"
    },
    {
      "inputs": [
        {
          "internalType": "contract IGoSwapRouter",
          "name": "_router",
          "type": "address"
        }
      ],
      "name": "setRouter",
      "outputs": [],
      "stateMutability": "nonpayable",
      "type": "function"
    },
    {
      "inputs": [
        {
          "internalType": "address",
          "name": "tokenA",
          "type": "address"
        },
        {
          "internalType": "address",
          "name": "tokenB",
          "type": "address"
        },
        {
          "internalType": "uint256",
          "name": "liquidity",
          "type": "uint256"
        },
        {
          "internalType": "uint256",
          "name": "amountAMin",
          "type": "uint256"
        },
        {
          "internalType": "uint256",
          "name": "amountBMin",
          "type": "uint256"
        },
        {
          "internalType": "uint256",
          "name": "deadline",
          "type": "uint256"
        },
        {
          "internalType": "uint8",
          "name": "v",
          "type": "uint8"
        },
        {
          "internalType": "bytes32",
          "name": "r",
          "type": "bytes32"
        },
        {
          "internalType": "bytes32",
          "name": "s",
          "type": "bytes32"
        }
      ],
      "name": "migrateWithPermit",
      "outputs": [],
      "stateMutability": "nonpayable",
      "type": "function"
    },
    {
      "inputs": [
        {
          "internalType": "address",
          "name": "tokenA",
          "type": "address"
        },
        {
          "internalType": "address",
          "name": "tokenB",
          "type": "address"
        },
        {
          "internalType": "uint256",
          "name": "liquidity",
          "type": "uint256"
        },
        {
          "internalType": "uint256",
          "name": "amountAMin",
          "type": "uint256"
        },
        {
          "internalType": "uint256",
          "name": "amountBMin",
          "type": "uint256"
        },
        {
          "internalType": "uint256",
          "name": "deadline",
          "type": "uint256"
        }
      ],
      "name": "migrate",
      "outputs": [],
      "stateMutability": "nonpayable",
      "type": "function"
    }
  ],
  "bytecode": "0x60806040523480156200001157600080fd5b506200001d3362000023565b620000fd565b6200003e8160006200007660201b620006da1790919060201c565b506040516001600160a01b038216907f44d6d25963f097ad14f29f06854a01f575648a1ef82f30e562ccd3889717e33990600090a250565b60006200008d836001600160a01b03841662000096565b90505b92915050565b6000620000a48383620000e5565b620000dc5750815460018181018455600084815260208082209093018490558454848252828601909352604090209190915562000090565b50600062000090565b60009081526001919091016020526040902054151590565b6117f0806200010d6000396000f3fe608060405234801561001057600080fd5b50600436106100a95760003560e01c8063704802751161007157806370480275146101ed5780638bad0c0a14610213578063964c1f981461021b578063aac55b391461023f578063c0d7865514610287578063f887ea40146102ad576100a9565b8063069baa9e146100ae5780631785f53c146100d657806324d7806c146100fc578063396ac3281461013657806340f32be614610195575b600080fd5b6100d4600480360360208110156100c457600080fd5b50356001600160a01b03166102b5565b005b6100d4600480360360208110156100ec57600080fd5b50356001600160a01b031661031b565b6101226004803603602081101561011257600080fd5b50356001600160a01b031661036b565b604080519115158252519081900360200190f35b6100d4600480360361012081101561014d57600080fd5b506001600160a01b03813581169160208101359091169060408101359060608101359060808101359060a08101359060ff60c0820135169060e081013590610100013561037d565b61019d6104a6565b60408051602080825283518183015283519192839290830191858101910280838360005b838110156101d95781810151838201526020016101c1565b505050509050019250505060405180910390f35b6100d46004803603602081101561020357600080fd5b50356001600160a01b0316610544565b6100d4610591565b61022361059c565b604080516001600160a01b039092168252519081900360200190f35b6100d4600480360360c081101561025557600080fd5b506001600160a01b03813581169160208101359091169060408101359060608101359060808101359060a001356105ab565b6100d46004803603602081101561029d57600080fd5b50356001600160a01b0316610665565b6102236106cb565b6102be3361036b565b6102f95760405162461bcd60e51b815260040180806020018281038252602e81526020018061173e602e913960400191505060405180910390fd5b600280546001600160a01b0319166001600160a01b0392909216919091179055565b6103243361036b565b61035f5760405162461bcd60e51b815260040180806020018281038252602e81526020018061173e602e913960400191505060405180910390fd5b610368816106f6565b50565b60006103778183610739565b92915050565b6002546040805163c45a015560e01b815290516000926001600160a01b03169163c45a0155916004808301926020929190829003018186803b1580156103c257600080fd5b505afa1580156103d6573d6000803e3d6000fd5b505050506040513d60208110156103ec57600080fd5b5051905060006103fd828c8c61074e565b6040805163d505accf60e01b8152336004820152306024820152604481018c90526064810189905260ff8816608482015260a4810187905260c4810186905290519192506001600160a01b0383169163d505accf9160e48082019260009290919082900301818387803b15801561047357600080fd5b505af1158015610487573d6000803e3d6000fd5b505050506104998b8b8b8b8b8b6105ab565b5050505050505050505050565b60606104b260006108e1565b67ffffffffffffffff811180156104c857600080fd5b506040519080825280602002602001820160405280156104f2578160200160208202803683370190505b50905060005b61050260006108e1565b811015610540576105146000826108ec565b82828151811061052057fe5b6001600160a01b03909216602092830291909101909101526001016104f8565b5090565b61054d3361036b565b6105885760405162461bcd60e51b815260040180806020018281038252602e81526020018061173e602e913960400191505060405180910390fd5b610368816108f8565b61059a336106f6565b565b6002546001600160a01b031681565b428110156105f5576040805162461bcd60e51b815260206004820152601260248201527114dd5cda1a54ddd85c0e881156141254915160721b604482015290519081900360640190fd5b60008061060688888888888861093b565b915091506000806106198a8a8686610bc3565b915091508184111561063b5761063b6001600160a01b038b1633848703610d01565b80831115610659576106596001600160a01b038a1633838603610d01565b50505050505050505050565b61066e3361036b565b6106a95760405162461bcd60e51b815260040180806020018281038252602e81526020018061173e602e913960400191505060405180910390fd5b600380546001600160a01b0319166001600160a01b0392909216919091179055565b6003546001600160a01b031681565b60006106ef836001600160a01b038416610d58565b9392505050565b610701600082610da2565b506040516001600160a01b038216907fa3b62bc36326052d97ea62d63c3d60308ed4c3ea8ac079dd8499f1e9c4f80c0f90600090a250565b60006106ef836001600160a01b038416610db7565b600080846001600160a01b0316620cb79785856040518363ffffffff1660e01b815260040180836001600160a01b03168152602001826001600160a01b031681526020019250505060206040518083038186803b1580156107ae57600080fd5b505afa1580156107c2573d6000803e3d6000fd5b505050506040513d60208110156107d857600080fd5b505190506000806107e98686610dcf565b915091506000836001600160a01b0316639aab92486040518163ffffffff1660e01b815260040160206040518083038186803b15801561082857600080fd5b505afa15801561083c573d6000803e3d6000fd5b505050506040513d602081101561085257600080fd5b5051604080516bffffffffffffffffffffffff19606096871b811660208381019190915295871b81166034830152825160288184030181526048830184528051908701206001600160f81b031960688401529790961b9095166069860152607d850195909552609d808501919091528451808503909101815260bd909301909352815191012095945050505050565b600061037782610ead565b60006106ef8383610eb1565b6109036000826106da565b506040516001600160a01b038216907f44d6d25963f097ad14f29f06854a01f575648a1ef82f30e562ccd3889717e33990600090a250565b6000806000600260009054906101000a90046001600160a01b03166001600160a01b031663c45a01556040518163ffffffff1660e01b815260040160206040518083038186803b15801561098e57600080fd5b505afa1580156109a2573d6000803e3d6000fd5b505050506040513d60208110156109b857600080fd5b5051905060006109c9828b8b61074e565b604080516323b872dd60e01b81523360048201526001600160a01b03831660248201819052604482018c9052915192935090916323b872dd916064808201926020929091908290030181600087803b158015610a2457600080fd5b505af1158015610a38573d6000803e3d6000fd5b505050506040513d6020811015610a4e57600080fd5b50506040805163226bf2d160e21b8152306004820152815160009283926001600160a01b038616926389afcb449260248084019391929182900301818787803b158015610a9a57600080fd5b505af1158015610aae573d6000803e3d6000fd5b505050506040513d6040811015610ac457600080fd5b50805160209091015190925090506000610ade8d8d610dcf565b509050806001600160a01b03168d6001600160a01b031614610b01578183610b04565b82825b909750955089871015610b5e576040805162461bcd60e51b815260206004820181905260248201527f5375736869526f6c6c3a20494e53554646494349454e545f415f414d4f554e54604482015290519081900360640190fd5b88861015610bb3576040805162461bcd60e51b815260206004820181905260248201527f5375736869526f6c6c3a20494e53554646494349454e545f425f414d4f554e54604482015290519081900360640190fd5b5050505050965096945050505050565b600080610bd286868686610f15565b6003546040805163c45a015560e01b81529051939550919350600092610c56926001600160a01b039092169163c45a0155916004808301926020929190829003018186803b158015610c2357600080fd5b505afa158015610c37573d6000803e3d6000fd5b505050506040513d6020811015610c4d57600080fd5b5051888861074e565b9050610c6c6001600160a01b0388168285610d01565b610c806001600160a01b0387168284610d01565b604080516335313c2160e11b815233600482015290516001600160a01b03831691636a6278429160248083019260209291908290030181600087803b158015610cc857600080fd5b505af1158015610cdc573d6000803e3d6000fd5b505050506040513d6020811015610cf257600080fd5b50929791965090945050505050565b604080516001600160a01b038416602482015260448082018490528251808303909101815260649091019091526020810180516001600160e01b031663a9059cbb60e01b179052610d53908490611133565b505050565b6000610d648383610db7565b610d9a57508154600181810184556000848152602080822090930184905584548482528286019093526040902091909155610377565b506000610377565b60006106ef836001600160a01b0384166111e4565b60009081526001919091016020526040902054151590565b600080826001600160a01b0316846001600160a01b03161415610e235760405162461bcd60e51b81526004018080602001828103825260228152602001806116d96022913960400191505060405180910390fd5b826001600160a01b0316846001600160a01b031610610e43578284610e46565b83835b90925090506001600160a01b038216610ea6576040805162461bcd60e51b815260206004820152601b60248201527f476f537761704c6962726172793a205a45524f5f414444524553530000000000604482015290519081900360640190fd5b9250929050565b5490565b81546000908210610ef35760405162461bcd60e51b81526004018080602001828103825260228152602001806116b76022913960400191505060405180910390fd5b826000018281548110610f0257fe5b9060005260206000200154905092915050565b6000806000600360009054906101000a90046001600160a01b03166001600160a01b031663c45a01556040518163ffffffff1660e01b815260040160206040518083038186803b158015610f6857600080fd5b505afa158015610f7c573d6000803e3d6000fd5b505050506040513d6020811015610f9257600080fd5b50516040805163e6a4390560e01b81526001600160a01b038a81166004830152898116602483015291519293506000929184169163e6a4390591604480820192602092909190829003018186803b158015610fec57600080fd5b505afa158015611000573d6000803e3d6000fd5b505050506040513d602081101561101657600080fd5b50516001600160a01b031614156110b457806001600160a01b031663c9c6539688886040518363ffffffff1660e01b815260040180836001600160a01b03168152602001826001600160a01b0316815260200192505050602060405180830381600087803b15801561108757600080fd5b505af115801561109b573d6000803e3d6000fd5b505050506040513d60208110156110b157600080fd5b50505b6000806110c2838a8a6112aa565b50915091508160001480156110d5575080155b156110e557869450859350611127565b60006110f28884846113ef565b905086811161110657879550935083611125565b60006111138884866113ef565b90508881111561111f57fe5b95508694505b505b50505094509492505050565b6060611188826040518060400160405280602081526020017f5361666545524332303a206c6f772d6c6576656c2063616c6c206661696c6564815250856001600160a01b03166114959092919063ffffffff16565b805190915015610d53578080602001905160208110156111a757600080fd5b5051610d535760405162461bcd60e51b815260040180806020018281038252602a81526020018061176c602a913960400191505060405180910390fd5b600081815260018301602052604081205480156112a0578354600019808301919081019060009087908390811061121757fe5b906000526020600020015490508087600001848154811061123457fe5b60009182526020808320909101929092558281526001898101909252604090209084019055865487908061126457fe5b60019003818190600052602060002001600090559055866001016000878152602001908152602001600020600090556001945050505050610377565b6000915050610377565b6000806000806112ba8686610dcf565b5090506000806112cb89898961074e565b6001600160a01b0316630902f1ac6040518163ffffffff1660e01b815260040160606040518083038186803b15801561130357600080fd5b505afa158015611317573d6000803e3d6000fd5b505050506040513d606081101561132d57600080fd5b5080516020909101516dffffffffffffffffffffffffffff91821693501690506001600160a01b038881169084161461136757808261136a565b81815b909650945061137a89898961074e565b6001600160a01b031663ddca3f436040518163ffffffff1660e01b815260040160206040518083038186803b1580156113b257600080fd5b505afa1580156113c6573d6000803e3d6000fd5b505050506040513d60208110156113dc57600080fd5b5051959994985094965092945050505050565b600080841161142f5760405162461bcd60e51b81526004018080602001828103825260228152602001806116fb6022913960400191505060405180910390fd5b60008311801561143f5750600082115b61147a5760405162461bcd60e51b81526004018080602001828103825260258152602001806117966025913960400191505060405180910390fd5b8261148585846114ac565b8161148c57fe5b04949350505050565b60606114a48484600085611505565b949350505050565b6000826114bb57506000610377565b828202828482816114c857fe5b04146106ef5760405162461bcd60e51b815260040180806020018281038252602181526020018061171d6021913960400191505060405180910390fd5b6060611510856116b0565b611561576040805162461bcd60e51b815260206004820152601d60248201527f416464726573733a2063616c6c20746f206e6f6e2d636f6e7472616374000000604482015290519081900360640190fd5b60006060866001600160a01b031685876040518082805190602001908083835b602083106115a05780518252601f199092019160209182019101611581565b6001836020036101000a03801982511681845116808217855250505050505090500191505060006040518083038185875af1925050503d8060008114611602576040519150601f19603f3d011682016040523d82523d6000602084013e611607565b606091505b5091509150811561161b5791506114a49050565b80511561162b5780518082602001fd5b8360405162461bcd60e51b81526004018080602001828103825283818151815260200191508051906020019080838360005b8381101561167557818101518382015260200161165d565b50505050905090810190601f1680156116a25780820380516001836020036101000a031916815260200191505b509250505060405180910390fd5b3b15159056fe456e756d657261626c655365743a20696e646578206f7574206f6620626f756e6473476f537761704c6962726172793a204944454e544943414c5f414444524553534553476f537761704c6962726172793a20494e53554646494349454e545f414d4f554e54536166654d6174683a206d756c7469706c69636174696f6e206f766572666c6f7741646d696e526f6c653a2063616c6c657220646f6573206e6f742068617665207468652041646d696e20726f6c655361666545524332303a204552433230206f7065726174696f6e20646964206e6f742073756363656564476f537761704c6962726172793a20494e53554646494349454e545f4c4951554944495459a264697066735822122062fbe7bc9309e594e64e3bced38bdd2e5ac78b6d0fbd567b759d5ca717b750b264736f6c634300060c0033",
  "immutableReferences": {},
  "source": "// SPDX-License-Identifier: MIT\npragma solidity 0.6.12;\n\nimport \"@openzeppelin/contracts/token/ERC20/IERC20.sol\";\nimport \"@openzeppelin/contracts/token/ERC20/SafeERC20.sol\";\nimport \"./interfaces/IGoSwapPair.sol\";\nimport \"./interfaces/IERC20GoSwap.sol\";\nimport \"./interfaces/IGoSwapRouter.sol\";\nimport \"./interfaces/IGoSwapFactory.sol\";\nimport \"./libraries/GoSwapLibrary.sol\";\nimport \"./libraries/AdminRole.sol\";\n\n// SushiRoll helps your migrate your existing Uniswap LP tokens to SushiSwap LP ones\ncontract GoSwapMigrate is AdminRole {\n    using SafeERC20 for IERC20;\n\n    IGoSwapRouter public oldRouter;\n    IGoSwapRouter public router;\n\n    function setOldRouter(IGoSwapRouter _oldRouter) public onlyAdmin {\n        oldRouter = _oldRouter;\n    }\n\n    function setRouter(IGoSwapRouter _router) public onlyAdmin {\n        router = _router;\n    }\n\n    function migrateWithPermit(\n        address tokenA,\n        address tokenB,\n        uint256 liquidity,\n        uint256 amountAMin,\n        uint256 amountBMin,\n        uint256 deadline,\n        uint8 v,\n        bytes32 r,\n        bytes32 s\n    ) public {\n        address oldFactory = oldRouter.factory();\n        IERC20GoSwap pair = IERC20GoSwap(\n            GoSwapLibrary.pairFor(oldFactory, tokenA, tokenB)\n        );\n        pair.permit(msg.sender, address(this), liquidity, deadline, v, r, s);\n\n        migrate(tokenA, tokenB, liquidity, amountAMin, amountBMin, deadline);\n    }\n\n    // msg.sender should have approved 'liquidity' amount of LP token of 'tokenA' and 'tokenB'\n    function migrate(\n        address tokenA,\n        address tokenB,\n        uint256 liquidity,\n        uint256 amountAMin,\n        uint256 amountBMin,\n        uint256 deadline\n    ) public {\n        require(deadline >= block.timestamp, \"SushiSwap: EXPIRED\");\n\n        // Remove liquidity from the old router with permit\n        (uint256 amountA, uint256 amountB) = removeLiquidity(\n            tokenA,\n            tokenB,\n            liquidity,\n            amountAMin,\n            amountBMin,\n            deadline\n        );\n\n        // Add liquidity to the new router\n        (uint256 pooledAmountA, uint256 pooledAmountB) = addLiquidity(\n            tokenA,\n            tokenB,\n            amountA,\n            amountB\n        );\n\n        // Send remaining tokens to msg.sender\n        if (amountA > pooledAmountA) {\n            IERC20(tokenA).safeTransfer(msg.sender, amountA - pooledAmountA);\n        }\n        if (amountB > pooledAmountB) {\n            IERC20(tokenB).safeTransfer(msg.sender, amountB - pooledAmountB);\n        }\n    }\n\n    function removeLiquidity(\n        address tokenA,\n        address tokenB,\n        uint256 liquidity,\n        uint256 amountAMin,\n        uint256 amountBMin,\n        uint256 deadline\n    ) internal returns (uint256 amountA, uint256 amountB) {\n        address oldFactory = oldRouter.factory();\n        address pair = GoSwapLibrary.pairFor(oldFactory, tokenA, tokenB);\n        IERC20GoSwap(pair).transferFrom(msg.sender, address(pair), liquidity);\n        (uint256 amount0, uint256 amount1) = IGoSwapPair(pair).burn(\n            address(this)\n        );\n        (address token0, ) = GoSwapLibrary.sortTokens(tokenA, tokenB);\n        (amountA, amountB) = tokenA == token0\n            ? (amount0, amount1)\n            : (amount1, amount0);\n        require(amountA >= amountAMin, \"SushiRoll: INSUFFICIENT_A_AMOUNT\");\n        require(amountB >= amountBMin, \"SushiRoll: INSUFFICIENT_B_AMOUNT\");\n    }\n\n    function addLiquidity(\n        address tokenA,\n        address tokenB,\n        uint256 amountADesired,\n        uint256 amountBDesired\n    ) internal returns (uint256 amountA, uint256 amountB) {\n        (amountA, amountB) = _addLiquidity(\n            tokenA,\n            tokenB,\n            amountADesired,\n            amountBDesired\n        );\n        address pair = GoSwapLibrary.pairFor(router.factory(), tokenA, tokenB);\n        IERC20(tokenA).safeTransfer(pair, amountA);\n        IERC20(tokenB).safeTransfer(pair, amountB);\n        IGoSwapPair(pair).mint(msg.sender);\n    }\n\n    function _addLiquidity(\n        address tokenA,\n        address tokenB,\n        uint256 amountADesired,\n        uint256 amountBDesired\n    ) internal returns (uint256 amountA, uint256 amountB) {\n        // create the pair if it doesn't exist yet\n        IGoSwapFactory factory = IGoSwapFactory(router.factory());\n        if (factory.getPair(tokenA, tokenB) == address(0)) {\n            factory.createPair(tokenA, tokenB);\n        }\n        (uint256 reserveA, uint256 reserveB, ) = GoSwapLibrary.getReserves(\n            address(factory),\n            tokenA,\n            tokenB\n        );\n        if (reserveA == 0 && reserveB == 0) {\n            (amountA, amountB) = (amountADesired, amountBDesired);\n        } else {\n            uint256 amountBOptimal = GoSwapLibrary.quote(\n                amountADesired,\n                reserveA,\n                reserveB\n            );\n            if (amountBOptimal <= amountBDesired) {\n                (amountA, amountB) = (amountADesired, amountBOptimal);\n            } else {\n                uint256 amountAOptimal = GoSwapLibrary.quote(\n                    amountBDesired,\n                    reserveB,\n                    reserveA\n                );\n                assert(amountAOptimal <= amountADesired);\n                (amountA, amountB) = (amountAOptimal, amountBDesired);\n            }\n        }\n    }\n}\n",
  "sourcePath": "/home/cui/Documents/goswap/goswap-core/contracts/GoSwapMigrate.sol",
  "compiler": {
    "name": "solc",
    "version": "0.6.12+commit.27d51765.Emscripten.clang"
  },
  "schemaVersion": "3.3.2",
  "updatedAt": "2021-01-22T03:09:29.970Z",
  "devdoc": {
    "kind": "dev",
    "methods": {
      "addAdmin(address)": {
        "details": "",
        "params": {
          "account": ""
        }
      },
      "allAdmins()": {
        "details": "",
        "returns": {
          "admins": ""
        }
      },
      "isAdmin(address)": {
        "details": "",
        "params": {
          "account": ""
        },
        "returns": {
          "_0": ""
        }
      },
      "removeAdmin(address)": {
        "details": "",
        "params": {
          "account": ""
        }
      },
      "renounceAdmin()": {
        "details": ""
      }
    },
    "version": 1
  },
  "userdoc": {
    "kind": "user",
    "methods": {},
    "version": 1
  }
}