{
  "contractName": "GoSwapRouter",
  "abi": [
    {
      "inputs": [
        {
          "internalType": "address",
          "name": "_company",
          "type": "address"
        },
        {
          "internalType": "address",
          "name": "_WHT",
          "type": "address"
        }
      ],
      "stateMutability": "nonpayable",
      "type": "constructor"
    },
    {
      "inputs": [],
      "name": "WHT",
      "outputs": [
        {
          "internalType": "address",
          "name": "",
          "type": "address"
        }
      ],
      "stateMutability": "view",
      "type": "function"
    },
    {
      "inputs": [],
      "name": "company",
      "outputs": [
        {
          "internalType": "address",
          "name": "",
          "type": "address"
        }
      ],
      "stateMutability": "view",
      "type": "function"
    },
    {
      "stateMutability": "payable",
      "type": "receive"
    },
    {
      "inputs": [],
      "name": "factory",
      "outputs": [
        {
          "internalType": "address",
          "name": "",
          "type": "address"
        }
      ],
      "stateMutability": "view",
      "type": "function"
    },
    {
      "inputs": [
        {
          "internalType": "address",
          "name": "tokenA",
          "type": "address"
        },
        {
          "internalType": "address",
          "name": "tokenB",
          "type": "address"
        },
        {
          "internalType": "uint256",
          "name": "amountADesired",
          "type": "uint256"
        },
        {
          "internalType": "uint256",
          "name": "amountBDesired",
          "type": "uint256"
        },
        {
          "internalType": "uint256",
          "name": "amountAMin",
          "type": "uint256"
        },
        {
          "internalType": "uint256",
          "name": "amountBMin",
          "type": "uint256"
        },
        {
          "internalType": "address",
          "name": "to",
          "type": "address"
        },
        {
          "internalType": "uint256",
          "name": "deadline",
          "type": "uint256"
        }
      ],
      "name": "addLiquidity",
      "outputs": [
        {
          "internalType": "uint256",
          "name": "amountA",
          "type": "uint256"
        },
        {
          "internalType": "uint256",
          "name": "amountB",
          "type": "uint256"
        },
        {
          "internalType": "uint256",
          "name": "liquidity",
          "type": "uint256"
        }
      ],
      "stateMutability": "nonpayable",
      "type": "function"
    },
    {
      "inputs": [
        {
          "internalType": "address",
          "name": "token",
          "type": "address"
        },
        {
          "internalType": "uint256",
          "name": "amountTokenDesired",
          "type": "uint256"
        },
        {
          "internalType": "uint256",
          "name": "amountTokenMin",
          "type": "uint256"
        },
        {
          "internalType": "uint256",
          "name": "amountHTMin",
          "type": "uint256"
        },
        {
          "internalType": "address",
          "name": "to",
          "type": "address"
        },
        {
          "internalType": "uint256",
          "name": "deadline",
          "type": "uint256"
        }
      ],
      "name": "addLiquidityHT",
      "outputs": [
        {
          "internalType": "uint256",
          "name": "amountToken",
          "type": "uint256"
        },
        {
          "internalType": "uint256",
          "name": "amountHT",
          "type": "uint256"
        },
        {
          "internalType": "uint256",
          "name": "liquidity",
          "type": "uint256"
        }
      ],
      "stateMutability": "payable",
      "type": "function"
    },
    {
      "inputs": [
        {
          "internalType": "address",
          "name": "tokenA",
          "type": "address"
        },
        {
          "internalType": "address",
          "name": "tokenB",
          "type": "address"
        },
        {
          "internalType": "uint256",
          "name": "liquidity",
          "type": "uint256"
        },
        {
          "internalType": "uint256",
          "name": "amountAMin",
          "type": "uint256"
        },
        {
          "internalType": "uint256",
          "name": "amountBMin",
          "type": "uint256"
        },
        {
          "internalType": "address",
          "name": "to",
          "type": "address"
        },
        {
          "internalType": "uint256",
          "name": "deadline",
          "type": "uint256"
        }
      ],
      "name": "removeLiquidity",
      "outputs": [
        {
          "internalType": "uint256",
          "name": "amountA",
          "type": "uint256"
        },
        {
          "internalType": "uint256",
          "name": "amountB",
          "type": "uint256"
        }
      ],
      "stateMutability": "nonpayable",
      "type": "function"
    },
    {
      "inputs": [
        {
          "internalType": "address",
          "name": "token",
          "type": "address"
        },
        {
          "internalType": "uint256",
          "name": "liquidity",
          "type": "uint256"
        },
        {
          "internalType": "uint256",
          "name": "amountTokenMin",
          "type": "uint256"
        },
        {
          "internalType": "uint256",
          "name": "amountHTMin",
          "type": "uint256"
        },
        {
          "internalType": "address",
          "name": "to",
          "type": "address"
        },
        {
          "internalType": "uint256",
          "name": "deadline",
          "type": "uint256"
        }
      ],
      "name": "removeLiquidityHT",
      "outputs": [
        {
          "internalType": "uint256",
          "name": "amountToken",
          "type": "uint256"
        },
        {
          "internalType": "uint256",
          "name": "amountHT",
          "type": "uint256"
        }
      ],
      "stateMutability": "nonpayable",
      "type": "function"
    },
    {
      "inputs": [
        {
          "internalType": "address",
          "name": "tokenA",
          "type": "address"
        },
        {
          "internalType": "address",
          "name": "tokenB",
          "type": "address"
        },
        {
          "internalType": "uint256",
          "name": "liquidity",
          "type": "uint256"
        },
        {
          "internalType": "uint256",
          "name": "amountAMin",
          "type": "uint256"
        },
        {
          "internalType": "uint256",
          "name": "amountBMin",
          "type": "uint256"
        },
        {
          "internalType": "address",
          "name": "to",
          "type": "address"
        },
        {
          "internalType": "uint256",
          "name": "deadline",
          "type": "uint256"
        },
        {
          "internalType": "bool",
          "name": "approveMax",
          "type": "bool"
        },
        {
          "internalType": "uint8",
          "name": "v",
          "type": "uint8"
        },
        {
          "internalType": "bytes32",
          "name": "r",
          "type": "bytes32"
        },
        {
          "internalType": "bytes32",
          "name": "s",
          "type": "bytes32"
        }
      ],
      "name": "removeLiquidityWithPermit",
      "outputs": [
        {
          "internalType": "uint256",
          "name": "amountA",
          "type": "uint256"
        },
        {
          "internalType": "uint256",
          "name": "amountB",
          "type": "uint256"
        }
      ],
      "stateMutability": "nonpayable",
      "type": "function"
    },
    {
      "inputs": [
        {
          "internalType": "address",
          "name": "token",
          "type": "address"
        },
        {
          "internalType": "uint256",
          "name": "liquidity",
          "type": "uint256"
        },
        {
          "internalType": "uint256",
          "name": "amountTokenMin",
          "type": "uint256"
        },
        {
          "internalType": "uint256",
          "name": "amountHTMin",
          "type": "uint256"
        },
        {
          "internalType": "address",
          "name": "to",
          "type": "address"
        },
        {
          "internalType": "uint256",
          "name": "deadline",
          "type": "uint256"
        },
        {
          "internalType": "bool",
          "name": "approveMax",
          "type": "bool"
        },
        {
          "internalType": "uint8",
          "name": "v",
          "type": "uint8"
        },
        {
          "internalType": "bytes32",
          "name": "r",
          "type": "bytes32"
        },
        {
          "internalType": "bytes32",
          "name": "s",
          "type": "bytes32"
        }
      ],
      "name": "removeLiquidityHTWithPermit",
      "outputs": [
        {
          "internalType": "uint256",
          "name": "amountToken",
          "type": "uint256"
        },
        {
          "internalType": "uint256",
          "name": "amountHT",
          "type": "uint256"
        }
      ],
      "stateMutability": "nonpayable",
      "type": "function"
    },
    {
      "inputs": [
        {
          "internalType": "address",
          "name": "token",
          "type": "address"
        },
        {
          "internalType": "uint256",
          "name": "liquidity",
          "type": "uint256"
        },
        {
          "internalType": "uint256",
          "name": "amountTokenMin",
          "type": "uint256"
        },
        {
          "internalType": "uint256",
          "name": "amountHTMin",
          "type": "uint256"
        },
        {
          "internalType": "address",
          "name": "to",
          "type": "address"
        },
        {
          "internalType": "uint256",
          "name": "deadline",
          "type": "uint256"
        }
      ],
      "name": "removeLiquidityHTSupportingFeeOnTransferTokens",
      "outputs": [
        {
          "internalType": "uint256",
          "name": "amountHT",
          "type": "uint256"
        }
      ],
      "stateMutability": "nonpayable",
      "type": "function"
    },
    {
      "inputs": [
        {
          "internalType": "address",
          "name": "token",
          "type": "address"
        },
        {
          "internalType": "uint256",
          "name": "liquidity",
          "type": "uint256"
        },
        {
          "internalType": "uint256",
          "name": "amountTokenMin",
          "type": "uint256"
        },
        {
          "internalType": "uint256",
          "name": "amountHTMin",
          "type": "uint256"
        },
        {
          "internalType": "address",
          "name": "to",
          "type": "address"
        },
        {
          "internalType": "uint256",
          "name": "deadline",
          "type": "uint256"
        },
        {
          "internalType": "bool",
          "name": "approveMax",
          "type": "bool"
        },
        {
          "internalType": "uint8",
          "name": "v",
          "type": "uint8"
        },
        {
          "internalType": "bytes32",
          "name": "r",
          "type": "bytes32"
        },
        {
          "internalType": "bytes32",
          "name": "s",
          "type": "bytes32"
        }
      ],
      "name": "removeLiquidityHTWithPermitSupportingFeeOnTransferTokens",
      "outputs": [
        {
          "internalType": "uint256",
          "name": "amountHT",
          "type": "uint256"
        }
      ],
      "stateMutability": "nonpayable",
      "type": "function"
    },
    {
      "inputs": [
        {
          "internalType": "uint256",
          "name": "amountIn",
          "type": "uint256"
        },
        {
          "internalType": "uint256",
          "name": "amountOutMin",
          "type": "uint256"
        },
        {
          "internalType": "address[]",
          "name": "path",
          "type": "address[]"
        },
        {
          "internalType": "address",
          "name": "to",
          "type": "address"
        },
        {
          "internalType": "uint256",
          "name": "deadline",
          "type": "uint256"
        }
      ],
      "name": "swapExactTokensForTokens",
      "outputs": [
        {
          "internalType": "uint256[]",
          "name": "amounts",
          "type": "uint256[]"
        }
      ],
      "stateMutability": "nonpayable",
      "type": "function"
    },
    {
      "inputs": [
        {
          "internalType": "uint256",
          "name": "amountOut",
          "type": "uint256"
        },
        {
          "internalType": "uint256",
          "name": "amountInMax",
          "type": "uint256"
        },
        {
          "internalType": "address[]",
          "name": "path",
          "type": "address[]"
        },
        {
          "internalType": "address",
          "name": "to",
          "type": "address"
        },
        {
          "internalType": "uint256",
          "name": "deadline",
          "type": "uint256"
        }
      ],
      "name": "swapTokensForExactTokens",
      "outputs": [
        {
          "internalType": "uint256[]",
          "name": "amounts",
          "type": "uint256[]"
        }
      ],
      "stateMutability": "nonpayable",
      "type": "function"
    },
    {
      "inputs": [
        {
          "internalType": "uint256",
          "name": "amountOutMin",
          "type": "uint256"
        },
        {
          "internalType": "address[]",
          "name": "path",
          "type": "address[]"
        },
        {
          "internalType": "address",
          "name": "to",
          "type": "address"
        },
        {
          "internalType": "uint256",
          "name": "deadline",
          "type": "uint256"
        }
      ],
      "name": "swapExactHTForTokens",
      "outputs": [
        {
          "internalType": "uint256[]",
          "name": "amounts",
          "type": "uint256[]"
        }
      ],
      "stateMutability": "payable",
      "type": "function"
    },
    {
      "inputs": [
        {
          "internalType": "uint256",
          "name": "amountOut",
          "type": "uint256"
        },
        {
          "internalType": "uint256",
          "name": "amountInMax",
          "type": "uint256"
        },
        {
          "internalType": "address[]",
          "name": "path",
          "type": "address[]"
        },
        {
          "internalType": "address",
          "name": "to",
          "type": "address"
        },
        {
          "internalType": "uint256",
          "name": "deadline",
          "type": "uint256"
        }
      ],
      "name": "swapTokensForExactHT",
      "outputs": [
        {
          "internalType": "uint256[]",
          "name": "amounts",
          "type": "uint256[]"
        }
      ],
      "stateMutability": "nonpayable",
      "type": "function"
    },
    {
      "inputs": [
        {
          "internalType": "uint256",
          "name": "amountIn",
          "type": "uint256"
        },
        {
          "internalType": "uint256",
          "name": "amountOutMin",
          "type": "uint256"
        },
        {
          "internalType": "address[]",
          "name": "path",
          "type": "address[]"
        },
        {
          "internalType": "address",
          "name": "to",
          "type": "address"
        },
        {
          "internalType": "uint256",
          "name": "deadline",
          "type": "uint256"
        }
      ],
      "name": "swapExactTokensForHT",
      "outputs": [
        {
          "internalType": "uint256[]",
          "name": "amounts",
          "type": "uint256[]"
        }
      ],
      "stateMutability": "nonpayable",
      "type": "function"
    },
    {
      "inputs": [
        {
          "internalType": "uint256",
          "name": "amountOut",
          "type": "uint256"
        },
        {
          "internalType": "address[]",
          "name": "path",
          "type": "address[]"
        },
        {
          "internalType": "address",
          "name": "to",
          "type": "address"
        },
        {
          "internalType": "uint256",
          "name": "deadline",
          "type": "uint256"
        }
      ],
      "name": "swapHTForExactTokens",
      "outputs": [
        {
          "internalType": "uint256[]",
          "name": "amounts",
          "type": "uint256[]"
        }
      ],
      "stateMutability": "payable",
      "type": "function"
    },
    {
      "inputs": [
        {
          "internalType": "uint256",
          "name": "amountIn",
          "type": "uint256"
        },
        {
          "internalType": "uint256",
          "name": "amountOutMin",
          "type": "uint256"
        },
        {
          "internalType": "address[]",
          "name": "path",
          "type": "address[]"
        },
        {
          "internalType": "address",
          "name": "to",
          "type": "address"
        },
        {
          "internalType": "uint256",
          "name": "deadline",
          "type": "uint256"
        }
      ],
      "name": "swapExactTokensForTokensSupportingFeeOnTransferTokens",
      "outputs": [],
      "stateMutability": "nonpayable",
      "type": "function"
    },
    {
      "inputs": [
        {
          "internalType": "uint256",
          "name": "amountOutMin",
          "type": "uint256"
        },
        {
          "internalType": "address[]",
          "name": "path",
          "type": "address[]"
        },
        {
          "internalType": "address",
          "name": "to",
          "type": "address"
        },
        {
          "internalType": "uint256",
          "name": "deadline",
          "type": "uint256"
        }
      ],
      "name": "swapExactHTForTokensSupportingFeeOnTransferTokens",
      "outputs": [],
      "stateMutability": "payable",
      "type": "function"
    },
    {
      "inputs": [
        {
          "internalType": "uint256",
          "name": "amountIn",
          "type": "uint256"
        },
        {
          "internalType": "uint256",
          "name": "amountOutMin",
          "type": "uint256"
        },
        {
          "internalType": "address[]",
          "name": "path",
          "type": "address[]"
        },
        {
          "internalType": "address",
          "name": "to",
          "type": "address"
        },
        {
          "internalType": "uint256",
          "name": "deadline",
          "type": "uint256"
        }
      ],
      "name": "swapExactTokensForHTSupportingFeeOnTransferTokens",
      "outputs": [],
      "stateMutability": "nonpayable",
      "type": "function"
    },
    {
      "inputs": [
        {
          "internalType": "uint256",
          "name": "amountA",
          "type": "uint256"
        },
        {
          "internalType": "uint256",
          "name": "reserveA",
          "type": "uint256"
        },
        {
          "internalType": "uint256",
          "name": "reserveB",
          "type": "uint256"
        }
      ],
      "name": "quote",
      "outputs": [
        {
          "internalType": "uint256",
          "name": "amountB",
          "type": "uint256"
        }
      ],
      "stateMutability": "pure",
      "type": "function"
    },
    {
      "inputs": [
        {
          "internalType": "uint256",
          "name": "amountIn",
          "type": "uint256"
        },
        {
          "internalType": "uint256",
          "name": "reserveIn",
          "type": "uint256"
        },
        {
          "internalType": "uint256",
          "name": "reserveOut",
          "type": "uint256"
        },
        {
          "internalType": "uint8",
          "name": "fee",
          "type": "uint8"
        }
      ],
      "name": "getAmountOut",
      "outputs": [
        {
          "internalType": "uint256",
          "name": "amountOut",
          "type": "uint256"
        }
      ],
      "stateMutability": "pure",
      "type": "function"
    },
    {
      "inputs": [
        {
          "internalType": "uint256",
          "name": "amountOut",
          "type": "uint256"
        },
        {
          "internalType": "uint256",
          "name": "reserveIn",
          "type": "uint256"
        },
        {
          "internalType": "uint256",
          "name": "reserveOut",
          "type": "uint256"
        },
        {
          "internalType": "uint8",
          "name": "fee",
          "type": "uint8"
        }
      ],
      "name": "getAmountIn",
      "outputs": [
        {
          "internalType": "uint256",
          "name": "amountIn",
          "type": "uint256"
        }
      ],
      "stateMutability": "pure",
      "type": "function"
    },
    {
      "inputs": [
        {
          "internalType": "uint256",
          "name": "amountIn",
          "type": "uint256"
        },
        {
          "internalType": "address[]",
          "name": "path",
          "type": "address[]"
        }
      ],
      "name": "getAmountsOut",
      "outputs": [
        {
          "internalType": "uint256[]",
          "name": "amounts",
          "type": "uint256[]"
        }
      ],
      "stateMutability": "view",
      "type": "function"
    },
    {
      "inputs": [
        {
          "internalType": "uint256",
          "name": "amountOut",
          "type": "uint256"
        },
        {
          "internalType": "address[]",
          "name": "path",
          "type": "address[]"
        }
      ],
      "name": "getAmountsIn",
      "outputs": [
        {
          "internalType": "uint256[]",
          "name": "amounts",
          "type": "uint256[]"
        }
      ],
      "stateMutability": "view",
      "type": "function"
    }
  ],
  "bytecode": "0x60c060405234801561001057600080fd5b5060405162004c5038038062004c508339818101604052604081101561003557600080fd5b5080516020909101516001600160601b0319606092831b8116608052911b1660a05260805160601c60a05160601c614ac66200018a6000398061017a5280610e575280610fac52806110865280611142528061144952806115d652806116d6528061178a52806118605280611baf5280611bfb5280611d525280611da85280611ddc5280611e505280611fde528061212152806121a9528061245852806124ed528061256152806127e552806128205280612c0e5280612d545280612ddc525080610ce05280610d195280610f0652806111205280611275528061134c52806114d752806118ee5280611bd95280611ce15280611d86528061207152806121db5280612364528061259352806129005280612afa5280612b895280612ca15280612e0e5280612f7752806134d2528061372c5280613b525280613b885280613e865280613f3f5280613ff25250614ac66000f3fe60806040526004361061016a5760003560e01c806379836890116100d1578063baa2abde1161008a578063d27c3a3711610064578063d27c3a3714610b75578063de6b825614610bb4578063df2f374014610c38578063e8e3370014610c77576101a3565b8063baa2abde14610a4e578063c45a015514610aab578063d06ca61f14610ac0576101a3565b806379836890146107c35780637edecb45146108275780638803dbee146108ab578063a223880b14610941578063ad615dec146109c5578063b08700c6146109fb576101a3565b80634883f12a116101235780634883f12a146105795780634b361208146105de5780635c11d795146106745780635cb485921461070a578063613fc2491461073b5780636904c94d146107ae576101a3565b80631f00ca74146101a85780632195995c146102ad57806325ae1cda1461034457806329dd2327146103da57806338ed17391461044d57806346eb6051146104e3576101a3565b366101a357336001600160a01b037f000000000000000000000000000000000000000000000000000000000000000016146101a157fe5b005b600080fd5b3480156101b457600080fd5b5061025d600480360360408110156101cb57600080fd5b81359190810190604081016020820135600160201b8111156101ec57600080fd5b8201836020820111156101fe57600080fd5b803590602001918460208302840111600160201b8311171561021f57600080fd5b919080806020026020016040519081016040528093929190818152602001838360200280828437600092019190915250929550610cd9945050505050565b60408051602080825283518183015283519192839290830191858101910280838360005b83811015610299578181015183820152602001610281565b505050509050019250505060405180910390f35b3480156102b957600080fd5b5061032b60048036036101608110156102d157600080fd5b506001600160a01b038135811691602081013582169160408201359160608101359160808201359160a08101359091169060c08101359060e081013515159060ff6101008201351690610120810135906101400135610d0f565b6040805192835260208301919091528051918290030190f35b34801561035057600080fd5b506101a1600480360360a081101561036757600080fd5b813591602081013591810190606081016040820135600160201b81111561038d57600080fd5b82018360208201111561039f57600080fd5b803590602001918460208302840111600160201b831117156103c057600080fd5b91935091506001600160a01b038135169060200135610e09565b3480156103e657600080fd5b5061032b60048036036101408110156103fe57600080fd5b506001600160a01b0381358116916020810135916040820135916060810135916080820135169060a08101359060c081013515159060ff60e08201351690610100810135906101200135611116565b34801561045957600080fd5b5061025d600480360360a081101561047057600080fd5b813591602081013591810190606081016040820135600160201b81111561049657600080fd5b8201836020820111156104a857600080fd5b803590602001918460208302840111600160201b831117156104c957600080fd5b91935091506001600160a01b03813516906020013561122a565b3480156104ef57600080fd5b5061025d600480360360a081101561050657600080fd5b813591602081013591810190606081016040820135600160201b81111561052c57600080fd5b82018360208201111561053e57600080fd5b803590602001918460208302840111600160201b8311171561055f57600080fd5b91935091506001600160a01b0381351690602001356113f9565b34801561058557600080fd5b506105cc600480360360c081101561059c57600080fd5b506001600160a01b0381358116916020810135916040820135916060810135916080820135169060a0013561168a565b60408051918252519081900360200190f35b3480156105ea57600080fd5b5061025d600480360360a081101561060157600080fd5b813591602081013591810190606081016040820135600160201b81111561062757600080fd5b82018360208201111561063957600080fd5b803590602001918460208302840111600160201b8311171561065a57600080fd5b91935091506001600160a01b038135169060200135611810565b34801561068057600080fd5b506101a1600480360360a081101561069757600080fd5b813591602081013591810190606081016040820135600160201b8111156106bd57600080fd5b8201836020820111156106cf57600080fd5b803590602001918460208302840111600160201b831117156106f057600080fd5b91935091506001600160a01b03813516906020013561199f565b34801561071657600080fd5b5061071f611bad565b604080516001600160a01b039092168252519081900360200190f35b34801561074757600080fd5b506105cc600480360361014081101561075f57600080fd5b506001600160a01b0381358116916020810135916040820135916060810135916080820135169060a08101359060c081013515159060ff60e08201351690610100810135906101200135611bd1565b3480156107ba57600080fd5b5061071f611cdf565b610809600480360360c08110156107d957600080fd5b506001600160a01b0381358116916020810135916040820135916060810135916080820135169060a00135611d03565b60408051938452602084019290925282820152519081900360600190f35b61025d6004803603608081101561083d57600080fd5b81359190810190604081016020820135600160201b81111561085e57600080fd5b82018360208201111561087057600080fd5b803590602001918460208302840111600160201b8311171561089157600080fd5b91935091506001600160a01b038135169060200135611f96565b3480156108b757600080fd5b5061025d600480360360a08110156108ce57600080fd5b813591602081013591810190606081016040820135600160201b8111156108f457600080fd5b82018360208201111561090657600080fd5b803590602001918460208302840111600160201b8311171561092757600080fd5b91935091506001600160a01b038135169060200135612319565b6101a16004803603608081101561095757600080fd5b81359190810190604081016020820135600160201b81111561097857600080fd5b82018360208201111561098a57600080fd5b803590602001918460208302840111600160201b831117156109ab57600080fd5b91935091506001600160a01b038135169060200135612412565b3480156109d157600080fd5b506105cc600480360360608110156109e857600080fd5b5080359060208101359060400135612783565b348015610a0757600080fd5b5061032b600480360360c0811015610a1e57600080fd5b506001600160a01b0381358116916020810135916040820135916060810135916080820135169060a00135612798565b348015610a5a57600080fd5b5061032b600480360360e0811015610a7157600080fd5b506001600160a01b038135811691602081013582169160408201359160608101359160808201359160a08101359091169060c001356128b2565b348015610ab757600080fd5b5061071f612af6565b348015610acc57600080fd5b5061025d60048036036040811015610ae357600080fd5b81359190810190604081016020820135600160201b811115610b0457600080fd5b820183602082011115610b1657600080fd5b803590602001918460208302840111600160201b83111715610b3757600080fd5b919080806020026020016040519081016040528093929190818152602001838360200280828437600092019190915250929550612b82945050505050565b348015610b8157600080fd5b506105cc60048036036080811015610b9857600080fd5b508035906020810135906040810135906060013560ff16612baf565b61025d60048036036080811015610bca57600080fd5b81359190810190604081016020820135600160201b811115610beb57600080fd5b820183602082011115610bfd57600080fd5b803590602001918460208302840111600160201b83111715610c1e57600080fd5b91935091506001600160a01b038135169060200135612bc6565b348015610c4457600080fd5b506105cc60048036036080811015610c5b57600080fd5b508035906020810135906040810135906060013560ff16612f06565b348015610c8357600080fd5b506108096004803603610100811015610c9b57600080fd5b506001600160a01b038135811691602081013582169160408201359160608101359160808201359160a08101359160c0820135169060e00135612f14565b6060610d067f00000000000000000000000000000000000000000000000000000000000000008484613047565b90505b92915050565b6000806000610d3f7f00000000000000000000000000000000000000000000000000000000000000008f8f61319a565b9050600087610d4e578c610d52565b6000195b6040805163d505accf60e01b815233600482015230602482015260448101839052606481018c905260ff8a16608482015260a4810189905260c4810188905290519192506001600160a01b0384169163d505accf9160e48082019260009290919082900301818387803b158015610dc857600080fd5b505af1158015610ddc573d6000803e3d6000fd5b50505050610def8f8f8f8f8f8f8f6128b2565b809450819550505050509b509b9950505050505050505050565b8042811015610e4d576040805162461bcd60e51b815260206004820152601560248201526000805160206148c1833981519152604482015290519081900360640190fd5b6001600160a01b037f00000000000000000000000000000000000000000000000000000000000000001685856000198101818110610e8757fe5b905060200201356001600160a01b03166001600160a01b031614610ee0576040805162461bcd60e51b815260206004820152601a6024820152600080516020614998833981519152604482015290519081900360640190fd5b610f6a85856000818110610ef057fe5b905060200201356001600160a01b031633610f647f000000000000000000000000000000000000000000000000000000000000000089896000818110610f3257fe5b905060200201356001600160a01b03168a8a6001818110610f4f57fe5b905060200201356001600160a01b031661319a565b8a61332d565b610fa885858080602002602001604051908101604052809392919081815260200183836020028082843760009201919091525030925061348a915050565b60007f00000000000000000000000000000000000000000000000000000000000000006001600160a01b03166370a08231306040518263ffffffff1660e01b815260040180826001600160a01b0316815260200191505060206040518083038186803b15801561101757600080fd5b505afa15801561102b573d6000803e3d6000fd5b505050506040513d602081101561104157600080fd5b50519050868110156110845760405162461bcd60e51b81526004018080602001828103825260288152602001806149266028913960400191505060405180910390fd5b7f00000000000000000000000000000000000000000000000000000000000000006001600160a01b0316632e1a7d4d826040518263ffffffff1660e01b815260040180828152602001915050600060405180830381600087803b1580156110ea57600080fd5b505af11580156110fe573d6000803e3d6000fd5b5050505061110c8482613873565b5050505050505050565b60008060006111667f00000000000000000000000000000000000000000000000000000000000000008e7f000000000000000000000000000000000000000000000000000000000000000061319a565b9050600087611175578c611179565b6000195b6040805163d505accf60e01b815233600482015230602482015260448101839052606481018c905260ff8a16608482015260a4810189905260c4810188905290519192506001600160a01b0384169163d505accf9160e48082019260009290919082900301818387803b1580156111ef57600080fd5b505af1158015611203573d6000803e3d6000fd5b505050506112158e8e8e8e8e8e612798565b909f909e509c50505050505050505050505050565b60608142811015611270576040805162461bcd60e51b815260206004820152601560248201526000805160206148c1833981519152604482015290519081900360640190fd5b6112ce7f00000000000000000000000000000000000000000000000000000000000000008988888080602002602001604051908101604052809392919081815260200183836020028082843760009201919091525061396692505050565b915086826001845103815181106112e157fe5b602002602001015110156113265760405162461bcd60e51b81526004018080602001828103825260288152602001806149266028913960400191505060405180910390fd5b6113af8686600081811061133657fe5b905060200201356001600160a01b0316336113957f00000000000000000000000000000000000000000000000000000000000000008a8a600081811061137857fe5b905060200201356001600160a01b03168b8b6001818110610f4f57fe5b856000815181106113a257fe5b602002602001015161332d565b6113ee82878780806020026020016040519081016040528093929190818152602001838360200280828437600092019190915250899250613aa3915050565b509695505050505050565b6060814281101561143f576040805162461bcd60e51b815260206004820152601560248201526000805160206148c1833981519152604482015290519081900360640190fd5b6001600160a01b037f0000000000000000000000000000000000000000000000000000000000000000168686600019810181811061147957fe5b905060200201356001600160a01b03166001600160a01b0316146114d2576040805162461bcd60e51b815260206004820152601a6024820152600080516020614998833981519152604482015290519081900360640190fd5b6115307f00000000000000000000000000000000000000000000000000000000000000008988888080602002602001604051908101604052809392919081815260200183836020028082843760009201919091525061304792505050565b9150868260008151811061154057fe5b602002602001015111156115855760405162461bcd60e51b8152600401808060200182810382526024815260200180614a246024913960400191505060405180910390fd5b6115958686600081811061133657fe5b6115d482878780806020026020016040519081016040528093929190818152602001838360200280828437600092019190915250309250613aa3915050565b7f00000000000000000000000000000000000000000000000000000000000000006001600160a01b0316632e1a7d4d8360018551038151811061161357fe5b60200260200101516040518263ffffffff1660e01b815260040180828152602001915050600060405180830381600087803b15801561165157600080fd5b505af1158015611665573d6000803e3d6000fd5b505050506113ee848360018551038151811061167d57fe5b6020026020010151613873565b600081428110156116d0576040805162461bcd60e51b815260206004820152601560248201526000805160206148c1833981519152604482015290519081900360640190fd5b6116ff887f000000000000000000000000000000000000000000000000000000000000000089898930896128b2565b90508092505061178888858a6001600160a01b03166370a08231306040518263ffffffff1660e01b815260040180826001600160a01b0316815260200191505060206040518083038186803b15801561175757600080fd5b505afa15801561176b573d6000803e3d6000fd5b505050506040513d602081101561178157600080fd5b5051613cd3565b7f00000000000000000000000000000000000000000000000000000000000000006001600160a01b0316632e1a7d4d836040518263ffffffff1660e01b815260040180828152602001915050600060405180830381600087803b1580156117ee57600080fd5b505af1158015611802573d6000803e3d6000fd5b505050506113ee8483613873565b60608142811015611856576040805162461bcd60e51b815260206004820152601560248201526000805160206148c1833981519152604482015290519081900360640190fd5b6001600160a01b037f0000000000000000000000000000000000000000000000000000000000000000168686600019810181811061189057fe5b905060200201356001600160a01b03166001600160a01b0316146118e9576040805162461bcd60e51b815260206004820152601a6024820152600080516020614998833981519152604482015290519081900360640190fd5b6119477f00000000000000000000000000000000000000000000000000000000000000008988888080602002602001604051908101604052809392919081815260200183836020028082843760009201919091525061396692505050565b9150868260018451038151811061195a57fe5b602002602001015110156115855760405162461bcd60e51b81526004018080602001828103825260288152602001806149266028913960400191505060405180910390fd5b80428110156119e3576040805162461bcd60e51b815260206004820152601560248201526000805160206148c1833981519152604482015290519081900360640190fd5b6119f385856000818110610ef057fe5b600085856000198101818110611a0557fe5b905060200201356001600160a01b03166001600160a01b03166370a08231856040518263ffffffff1660e01b815260040180826001600160a01b0316815260200191505060206040518083038186803b158015611a6157600080fd5b505afa158015611a75573d6000803e3d6000fd5b505050506040513d6020811015611a8b57600080fd5b50516040805160208881028281018201909352888252929350611acd92909189918991829185019084908082843760009201919091525088925061348a915050565b86611b708288886000198101818110611ae257fe5b905060200201356001600160a01b03166001600160a01b03166370a08231886040518263ffffffff1660e01b815260040180826001600160a01b0316815260200191505060206040518083038186803b158015611b3e57600080fd5b505afa158015611b52573d6000803e3d6000fd5b505050506040513d6020811015611b6857600080fd5b505190613e3d565b101561110c5760405162461bcd60e51b81526004018080602001828103825260288152602001806149266028913960400191505060405180910390fd5b7f000000000000000000000000000000000000000000000000000000000000000081565b600080611c1f7f00000000000000000000000000000000000000000000000000000000000000008d7f000000000000000000000000000000000000000000000000000000000000000061319a565b9050600086611c2e578b611c32565b6000195b6040805163d505accf60e01b815233600482015230602482015260448101839052606481018b905260ff8916608482015260a4810188905260c4810187905290519192506001600160a01b0384169163d505accf9160e48082019260009290919082900301818387803b158015611ca857600080fd5b505af1158015611cbc573d6000803e3d6000fd5b50505050611cce8d8d8d8d8d8d61168a565b9d9c50505050505050505050505050565b7f000000000000000000000000000000000000000000000000000000000000000081565b60008060008342811015611d4c576040805162461bcd60e51b815260206004820152601560248201526000805160206148c1833981519152604482015290519081900360640190fd5b611d7a8a7f00000000000000000000000000000000000000000000000000000000000000008b348c8c613e7f565b90945092506000611dcc7f00000000000000000000000000000000000000000000000000000000000000008c7f000000000000000000000000000000000000000000000000000000000000000061319a565b9050611dda8b33838861332d565b7f00000000000000000000000000000000000000000000000000000000000000006001600160a01b031663d0e30db0856040518263ffffffff1660e01b81526004016000604051808303818588803b158015611e3557600080fd5b505af1158015611e49573d6000803e3d6000fd5b50505050507f00000000000000000000000000000000000000000000000000000000000000006001600160a01b031663a9059cbb82866040518363ffffffff1660e01b815260040180836001600160a01b0316815260200182815260200192505050602060405180830381600087803b158015611ec557600080fd5b505af1158015611ed9573d6000803e3d6000fd5b505050506040513d6020811015611eef57600080fd5b5051611ef757fe5b806001600160a01b0316636a627842886040518263ffffffff1660e01b815260040180826001600160a01b03168152602001915050602060405180830381600087803b158015611f4657600080fd5b505af1158015611f5a573d6000803e3d6000fd5b505050506040513d6020811015611f7057600080fd5b5051925034841015611f8857611f8833853403613873565b505096509650969350505050565b60608142811015611fdc576040805162461bcd60e51b815260206004820152601560248201526000805160206148c1833981519152604482015290519081900360640190fd5b7f00000000000000000000000000000000000000000000000000000000000000006001600160a01b03168686600081811061201357fe5b905060200201356001600160a01b03166001600160a01b03161461206c576040805162461bcd60e51b815260206004820152601a6024820152600080516020614998833981519152604482015290519081900360640190fd5b6120ca7f00000000000000000000000000000000000000000000000000000000000000008888888080602002602001604051908101604052809392919081815260200183836020028082843760009201919091525061304792505050565b915034826000815181106120da57fe5b6020026020010151111561211f5760405162461bcd60e51b8152600401808060200182810382526024815260200180614a246024913960400191505060405180910390fd5b7f00000000000000000000000000000000000000000000000000000000000000006001600160a01b031663d0e30db08360008151811061215b57fe5b60200260200101516040518263ffffffff1660e01b81526004016000604051808303818588803b15801561218e57600080fd5b505af11580156121a2573d6000803e3d6000fd5b50505050507f00000000000000000000000000000000000000000000000000000000000000006001600160a01b031663a9059cbb6122077f000000000000000000000000000000000000000000000000000000000000000089896000818110610f3257fe5b8460008151811061221457fe5b60200260200101516040518363ffffffff1660e01b815260040180836001600160a01b0316815260200182815260200192505050602060405180830381600087803b15801561226257600080fd5b505af1158015612276573d6000803e3d6000fd5b505050506040513d602081101561228c57600080fd5b505161229457fe5b6122d382878780806020026020016040519081016040528093929190818152602001838360200280828437600092019190915250899250613aa3915050565b816000815181106122e057fe5b602002602001015134111561230f5761230f338360008151811061230057fe5b60200260200101513403613873565b5095945050505050565b6060814281101561235f576040805162461bcd60e51b815260206004820152601560248201526000805160206148c1833981519152604482015290519081900360640190fd5b6123bd7f00000000000000000000000000000000000000000000000000000000000000008988888080602002602001604051908101604052809392919081815260200183836020028082843760009201919091525061304792505050565b915086826000815181106123cd57fe5b602002602001015111156113265760405162461bcd60e51b8152600401808060200182810382526024815260200180614a246024913960400191505060405180910390fd5b8042811015612456576040805162461bcd60e51b815260206004820152601560248201526000805160206148c1833981519152604482015290519081900360640190fd5b7f00000000000000000000000000000000000000000000000000000000000000006001600160a01b03168585600081811061248d57fe5b905060200201356001600160a01b03166001600160a01b0316146124e6576040805162461bcd60e51b815260206004820152601a6024820152600080516020614998833981519152604482015290519081900360640190fd5b60003490507f00000000000000000000000000000000000000000000000000000000000000006001600160a01b031663d0e30db0826040518263ffffffff1660e01b81526004016000604051808303818588803b15801561254657600080fd5b505af115801561255a573d6000803e3d6000fd5b50505050507f00000000000000000000000000000000000000000000000000000000000000006001600160a01b031663a9059cbb6125bf7f000000000000000000000000000000000000000000000000000000000000000089896000818110610f3257fe5b836040518363ffffffff1660e01b815260040180836001600160a01b0316815260200182815260200192505050602060405180830381600087803b15801561260657600080fd5b505af115801561261a573d6000803e3d6000fd5b505050506040513d602081101561263057600080fd5b505161263857fe5b60008686600019810181811061264a57fe5b905060200201356001600160a01b03166001600160a01b03166370a08231866040518263ffffffff1660e01b815260040180826001600160a01b0316815260200191505060206040518083038186803b1580156126a657600080fd5b505afa1580156126ba573d6000803e3d6000fd5b505050506040513d60208110156126d057600080fd5b505160408051602089810282810182019093528982529293506127129290918a918a91829185019084908082843760009201919091525089925061348a915050565b87611b70828989600019810181811061272757fe5b905060200201356001600160a01b03166001600160a01b03166370a08231896040518263ffffffff1660e01b815260040180826001600160a01b0316815260200191505060206040518083038186803b158015611b3e57600080fd5b6000612790848484614109565b949350505050565b60008082428110156127df576040805162461bcd60e51b815260206004820152601560248201526000805160206148c1833981519152604482015290519081900360640190fd5b61280e897f00000000000000000000000000000000000000000000000000000000000000008a8a8a308a6128b2565b909350915061281e898685613cd3565b7f00000000000000000000000000000000000000000000000000000000000000006001600160a01b0316632e1a7d4d836040518263ffffffff1660e01b815260040180828152602001915050600060405180830381600087803b15801561288457600080fd5b505af1158015612898573d6000803e3d6000fd5b505050506128a68583613873565b50965096945050505050565b60008082428110156128f9576040805162461bcd60e51b815260206004820152601560248201526000805160206148c1833981519152604482015290519081900360640190fd5b60006129267f00000000000000000000000000000000000000000000000000000000000000008c8c61319a565b604080516323b872dd60e01b81523360048201526001600160a01b03831660248201819052604482018d9052915192935090916323b872dd916064808201926020929091908290030181600087803b15801561298157600080fd5b505af1158015612995573d6000803e3d6000fd5b505050506040513d60208110156129ab57600080fd5b50506040805163226bf2d160e21b81526001600160a01b03888116600483015282516000938493928616926389afcb44926024808301939282900301818787803b1580156129f857600080fd5b505af1158015612a0c573d6000803e3d6000fd5b505050506040513d6040811015612a2257600080fd5b50805160209091015190925090506000612a3c8e8e6141af565b509050806001600160a01b03168e6001600160a01b031614612a5f578183612a62565b82825b90975095508a871015612aa65760405162461bcd60e51b815260040180806020018281038252602381526020018061489e6023913960400191505060405180910390fd5b89861015612ae55760405162461bcd60e51b81526004018080602001828103825260238152602001806149036023913960400191505060405180910390fd5b505050505097509795505050505050565b60007f00000000000000000000000000000000000000000000000000000000000000006001600160a01b031663c45a01556040518163ffffffff1660e01b815260040160206040518083038186803b158015612b5157600080fd5b505afa158015612b65573d6000803e3d6000fd5b505050506040513d6020811015612b7b57600080fd5b5051905090565b6060610d067f00000000000000000000000000000000000000000000000000000000000000008484613966565b6000612bbd8585858561428d565b95945050505050565b60608142811015612c0c576040805162461bcd60e51b815260206004820152601560248201526000805160206148c1833981519152604482015290519081900360640190fd5b7f00000000000000000000000000000000000000000000000000000000000000006001600160a01b031686866000818110612c4357fe5b905060200201356001600160a01b03166001600160a01b031614612c9c576040805162461bcd60e51b815260206004820152601a6024820152600080516020614998833981519152604482015290519081900360640190fd5b612cfa7f00000000000000000000000000000000000000000000000000000000000000003488888080602002602001604051908101604052809392919081815260200183836020028082843760009201919091525061396692505050565b91508682600184510381518110612d0d57fe5b60200260200101511015612d525760405162461bcd60e51b81526004018080602001828103825260288152602001806149266028913960400191505060405180910390fd5b7f00000000000000000000000000000000000000000000000000000000000000006001600160a01b031663d0e30db083600081518110612d8e57fe5b60200260200101516040518263ffffffff1660e01b81526004016000604051808303818588803b158015612dc157600080fd5b505af1158015612dd5573d6000803e3d6000fd5b50505050507f00000000000000000000000000000000000000000000000000000000000000006001600160a01b031663a9059cbb612e3a7f000000000000000000000000000000000000000000000000000000000000000089896000818110610f3257fe5b84600081518110612e4757fe5b60200260200101516040518363ffffffff1660e01b815260040180836001600160a01b0316815260200182815260200192505050602060405180830381600087803b158015612e9557600080fd5b505af1158015612ea9573d6000803e3d6000fd5b505050506040513d6020811015612ebf57600080fd5b5051612ec757fe5b61230f82878780806020026020016040519081016040528093929190818152602001838360200280828437600092019190915250899250613aa3915050565b6000612bbd8585858561436f565b60008060008342811015612f5d576040805162461bcd60e51b815260206004820152601560248201526000805160206148c1833981519152604482015290519081900360640190fd5b612f6b8c8c8c8c8c8c613e7f565b90945092506000612f9d7f00000000000000000000000000000000000000000000000000000000000000008e8e61319a565b9050612fab8d33838861332d565b612fb78c33838761332d565b806001600160a01b0316636a627842886040518263ffffffff1660e01b815260040180826001600160a01b03168152602001915050602060405180830381600087803b15801561300657600080fd5b505af115801561301a573d6000803e3d6000fd5b505050506040513d602081101561303057600080fd5b5051949d939c50939a509198505050505050505050565b60606002825110156130a0576040805162461bcd60e51b815260206004820152601b60248201527f476f537761704c6962726172793a20494e56414c49445f504154480000000000604482015290519081900360640190fd5b815167ffffffffffffffff811180156130b857600080fd5b506040519080825280602002602001820160405280156130e2578160200160208202803683370190505b50905082816001835103815181106130f657fe5b60209081029190910101528151600019015b80156131925760008060006131478887600187038151811061312657fe5b602002602001015188878151811061313a57fe5b6020026020010151614451565b92509250925061316c85858151811061315c57fe5b602002602001015184848461428d565b85600186038151811061317b57fe5b602090810291909101015250505060001901613108565b509392505050565b600080846001600160a01b0316620cb79785856040518363ffffffff1660e01b815260040180836001600160a01b03168152602001826001600160a01b031681526020019250505060206040518083038186803b1580156131fa57600080fd5b505afa15801561320e573d6000803e3d6000fd5b505050506040513d602081101561322457600080fd5b5051905060008061323586866141af565b915091506000836001600160a01b0316639aab92486040518163ffffffff1660e01b815260040160206040518083038186803b15801561327457600080fd5b505afa158015613288573d6000803e3d6000fd5b505050506040513d602081101561329e57600080fd5b5051604080516bffffffffffffffffffffffff19606096871b811660208381019190915295871b81166034830152825160288184030181526048830184528051908701206001600160f81b031960688401529790961b9095166069860152607d850195909552609d808501919091528451808503909101815260bd909301909352815191012095945050505050565b604080516001600160a01b0385811660248301528481166044830152606480830185905283518084039091018152608490920183526020820180516001600160e01b03166323b872dd60e01b17815292518251600094606094938a169392918291908083835b602083106133b25780518252601f199092019160209182019101613393565b6001836020036101000a0380198251168184511680821785525050505050509050019150506000604051808303816000865af19150503d8060008114613414576040519150601f19603f3d011682016040523d82523d6000602084013e613419565b606091505b5091509150818015613447575080511580613447575080806020019051602081101561344457600080fd5b50515b6134825760405162461bcd60e51b8152600401808060200182810382526024815260200180614a6d6024913960400191505060405180910390fd5b505050505050565b60005b600183510381101561386e576000808483815181106134a857fe5b60200260200101518584600101815181106134bf57fe5b60200260200101519150915060006134f87f0000000000000000000000000000000000000000000000000000000000000000848461319a565b9050600061350684846141af565b5090506000806000846001600160a01b031663ddca3f436040518163ffffffff1660e01b815260040160206040518083038186803b15801561354757600080fd5b505afa15801561355b573d6000803e3d6000fd5b505050506040513d602081101561357157600080fd5b505160408051630240bc6b60e21b8152905191925060009182916001600160a01b03891691630902f1ac91600480820192606092909190829003018186803b1580156135bc57600080fd5b505afa1580156135d0573d6000803e3d6000fd5b505050506040513d60608110156135e657600080fd5b5080516020909101516001600160701b0391821693501690506000806001600160a01b038b81169089161461361c57828461361f565b83835b91509150876001600160a01b03168b6001600160a01b03161461368a57613685838a6001600160a01b031663b5f96f4860016040518263ffffffff1660e01b81526004018082815260200191505060206040518083038186803b158015611b3e57600080fd5b6136d3565b6136d3848a6001600160a01b031663b5f96f4860006040518263ffffffff1660e01b81526004018082815260200191505060206040518083038186803b158015611b3e57600080fd5b96506136e18783838861436f565b95505050505050600080846001600160a01b0316886001600160a01b03161461370c57826000613710565b6000835b91509150600060028c51038a10613727578a613768565b6137687f0000000000000000000000000000000000000000000000000000000000000000898e8d6002018151811061375b57fe5b602002602001015161319a565b604080516000808252602082019283905263022c0d9f60e01b835260248201878152604483018790526001600160a01b038086166064850152608060848501908152845160a48601819052969750908d169563022c0d9f958a958a958a9591949193919260c486019290918190849084905b838110156137f25781810151838201526020016137da565b50505050905090810190601f16801561381f5780820380516001836020036101000a031916815260200191505b5095505050505050600060405180830381600087803b15801561384157600080fd5b505af1158015613855573d6000803e3d6000fd5b50506001909b019a5061348d9950505050505050505050565b505050565b604080516000808252602082019092526001600160a01b0384169083906040518082805190602001908083835b602083106138bf5780518252601f1990920191602091820191016138a0565b6001836020036101000a03801982511681845116808217855250505050505090500191505060006040518083038185875af1925050503d8060008114613921576040519150601f19603f3d011682016040523d82523d6000602084013e613926565b606091505b505090508061386e5760405162461bcd60e51b81526004018080602001828103825260228152602001806149e16022913960400191505060405180910390fd5b60606002825110156139bf576040805162461bcd60e51b815260206004820152601b60248201527f476f537761704c6962726172793a20494e56414c49445f504154480000000000604482015290519081900360640190fd5b815167ffffffffffffffff811180156139d757600080fd5b50604051908082528060200260200182016040528015613a01578160200160208202803683370190505b5090508281600081518110613a1257fe5b60200260200101818152505060005b6001835103811015613192576000806000613a5988878681518110613a4257fe5b602002602001015188876001018151811061313a57fe5b925092509250613a7e858581518110613a6e57fe5b602002602001015184848461436f565b858560010181518110613a8d57fe5b6020908102919091010152505050600101613a21565b60005b6001835103811015613ccd57600080848381518110613ac157fe5b6020026020010151858460010181518110613ad857fe5b6020026020010151915091506000613af083836141af565b5090506000878560010181518110613b0457fe5b60200260200101519050600080836001600160a01b0316866001600160a01b031614613b3257826000613b36565b6000835b91509150600060028a51038810613b4d5788613b81565b613b817f0000000000000000000000000000000000000000000000000000000000000000878c8b6002018151811061375b57fe5b9050613bae7f0000000000000000000000000000000000000000000000000000000000000000888861319a565b6001600160a01b031663022c0d9f84848460006040519080825280601f01601f191660200182016040528015613beb576020820181803683370190505b506040518563ffffffff1660e01b815260040180858152602001848152602001836001600160a01b0316815260200180602001828103825283818151815260200191508051906020019080838360005b83811015613c53578181015183820152602001613c3b565b50505050905090810190601f168015613c805780820380516001836020036101000a031916815260200191505b5095505050505050600060405180830381600087803b158015613ca257600080fd5b505af1158015613cb6573d6000803e3d6000fd5b505060019099019850613aa6975050505050505050565b50505050565b604080516001600160a01b038481166024830152604480830185905283518084039091018152606490920183526020820180516001600160e01b031663a9059cbb60e01b178152925182516000946060949389169392918291908083835b60208310613d505780518252601f199092019160209182019101613d31565b6001836020036101000a0380198251168184511680821785525050505050509050019150506000604051808303816000865af19150503d8060008114613db2576040519150601f19603f3d011682016040523d82523d6000602084013e613db7565b606091505b5091509150818015613de5575080511580613de55750808060200190516020811015613de257600080fd5b50515b613e36576040805162461bcd60e51b815260206004820152601f60248201527f5472616e7366657248656c7065723a205452414e534645525f4641494c454400604482015290519081900360640190fd5b5050505050565b6000610d0683836040518060400160405280601e81526020017f536166654d6174683a207375627472616374696f6e206f766572666c6f77000081525061458f565b60008060007f00000000000000000000000000000000000000000000000000000000000000006001600160a01b0316620cb7978a8a6040518363ffffffff1660e01b815260040180836001600160a01b03168152602001826001600160a01b031681526020019250505060206040518083038186803b158015613f0157600080fd5b505afa158015613f15573d6000803e3d6000fd5b505050506040513d6020811015613f2b57600080fd5b505190506001600160a01b038116613fea577f00000000000000000000000000000000000000000000000000000000000000006001600160a01b031663c9c653968a8a6040518363ffffffff1660e01b815260040180836001600160a01b03168152602001826001600160a01b0316815260200192505050602060405180830381600087803b158015613fbd57600080fd5b505af1158015613fd1573d6000803e3d6000fd5b505050506040513d6020811015613fe757600080fd5b50505b6000806140187f00000000000000000000000000000000000000000000000000000000000000008c8c614626565b509150915081600014801561402b575080155b1561403b578894508793506140fb565b60006140488a8484614109565b905088811161409b57868110156140905760405162461bcd60e51b81526004018080602001828103825260238152602001806149036023913960400191505060405180910390fd5b8995509350836140f9565b60006140a88a8486614109565b90508a8111156140b457fe5b888110156140f35760405162461bcd60e51b815260040180806020018281038252602381526020018061489e6023913960400191505060405180910390fd5b95508894505b505b505050965096945050505050565b60008084116141495760405162461bcd60e51b815260040180806020018281038252602281526020018061494e6022913960400191505060405180910390fd5b6000831180156141595750600082115b6141945760405162461bcd60e51b8152600401808060200182810382526025815260200180614a486025913960400191505060405180910390fd5b8261419f85846147ea565b816141a657fe5b04949350505050565b600080826001600160a01b0316846001600160a01b031614156142035760405162461bcd60e51b81526004018080602001828103825260228152602001806148e16022913960400191505060405180910390fd5b826001600160a01b0316846001600160a01b031610614223578284614226565b83835b90925090506001600160a01b038216614286576040805162461bcd60e51b815260206004820152601b60248201527f476f537761704c6962726172793a205a45524f5f414444524553530000000000604482015290519081900360640190fd5b9250929050565b60008085116142cd5760405162461bcd60e51b81526004018080602001828103825260298152602001806149b86029913960400191505060405180910390fd5b6000841180156142dd5750600083115b6143185760405162461bcd60e51b8152600401808060200182810382526025815260200180614a486025913960400191505060405180910390fd5b60006143306103e861432a87896147ea565b906147ea565b9050600061434d61ffff60ff86166103e8031661432a878a613e3d565b9050614364600182848161435d57fe5b0490614843565b979650505050505050565b60008085116143af5760405162461bcd60e51b81526004018080602001828103825260288152602001806149706028913960400191505060405180910390fd5b6000841180156143bf5750600083115b6143fa5760405162461bcd60e51b8152600401808060200182810382526025815260200180614a486025913960400191505060405180910390fd5b60006144118661ffff60ff86166103e803166147ea565b9050600061441f82866147ea565b9050600061443983614433896103e86147ea565b90614843565b905080828161444457fe5b0498975050505050505050565b60008060008061446186866141af565b50905060008061447289898961319a565b6001600160a01b0316630902f1ac6040518163ffffffff1660e01b815260040160606040518083038186803b1580156144aa57600080fd5b505afa1580156144be573d6000803e3d6000fd5b505050506040513d60608110156144d457600080fd5b5080516020909101516001600160701b0391821693501690506001600160a01b038881169084161461450757808261450a565b81815b909650945061451a89898961319a565b6001600160a01b031663ddca3f436040518163ffffffff1660e01b815260040160206040518083038186803b15801561455257600080fd5b505afa158015614566573d6000803e3d6000fd5b505050506040513d602081101561457c57600080fd5b5051959994985094965092945050505050565b6000818484111561461e5760405162461bcd60e51b81526004018080602001828103825283818151815260200191508051906020019080838360005b838110156145e35781810151838201526020016145cb565b50505050905090810190601f1680156146105780820380516001836020036101000a031916815260200191505b509250505060405180910390fd5b505050900390565b60008060008061463686866141af565b509050600061464688888861319a565b9050600080826001600160a01b0316630902f1ac6040518163ffffffff1660e01b815260040160606040518083038186803b15801561468457600080fd5b505afa158015614698573d6000803e3d6000fd5b505050506040513d60608110156146ae57600080fd5b508051602090910151604080516333d03f2760e21b815281516001600160701b03948516965093909216935060009283926001600160a01b0388169263cf40fc9c92600480840193829003018186803b15801561470a57600080fd5b505afa15801561471e573d6000803e3d6000fd5b505050506040513d604081101561473457600080fd5b5080516020909101519481900394938490039390925090506001600160a01b038b811690871614614766578284614769565b83835b809950819a505050846001600160a01b031663ddca3f436040518163ffffffff1660e01b815260040160206040518083038186803b1580156147aa57600080fd5b505afa1580156147be573d6000803e3d6000fd5b505050506040513d60208110156147d457600080fd5b5051989c979b5097995095975050505050505050565b6000826147f957506000610d09565b8282028284828161480657fe5b0414610d065760405162461bcd60e51b8152600401808060200182810382526021815260200180614a036021913960400191505060405180910390fd5b600082820183811015610d06576040805162461bcd60e51b815260206004820152601b60248201527f536166654d6174683a206164646974696f6e206f766572666c6f770000000000604482015290519081900360640190fdfe476f53776170526f757465723a20494e53554646494349454e545f415f414d4f554e54476f53776170526f757465723a20455850495245440000000000000000000000476f537761704c6962726172793a204944454e544943414c5f414444524553534553476f53776170526f757465723a20494e53554646494349454e545f425f414d4f554e54476f53776170526f757465723a20494e53554646494349454e545f4f55545055545f414d4f554e54476f537761704c6962726172793a20494e53554646494349454e545f414d4f554e54476f537761704c6962726172793a20494e53554646494349454e545f494e5055545f414d4f554e54476f53776170526f757465723a20494e56414c49445f50415448000000000000476f537761704c6962726172793a20494e53554646494349454e545f4f55545055545f414d4f554e545472616e7366657248656c7065723a2048545f5452414e534645525f4641494c4544536166654d6174683a206d756c7469706c69636174696f6e206f766572666c6f77476f53776170526f757465723a204558434553534956455f494e5055545f414d4f554e54476f537761704c6962726172793a20494e53554646494349454e545f4c49515549444954595472616e7366657248656c7065723a205452414e534645525f46524f4d5f4641494c4544a264697066735822122093d0672142991669c03227f18f4cd631f111a2610451e386dbd49dadf7930f7564736f6c634300060c0033",
  "immutableReferences": {
    "5523": [
      {
        "length": 32,
        "start": 3296
      },
      {
        "length": 32,
        "start": 3353
      },
      {
        "length": 32,
        "start": 3846
      },
      {
        "length": 32,
        "start": 4384
      },
      {
        "length": 32,
        "start": 4725
      },
      {
        "length": 32,
        "start": 4940
      },
      {
        "length": 32,
        "start": 5335
      },
      {
        "length": 32,
        "start": 6382
      },
      {
        "length": 32,
        "start": 7129
      },
      {
        "length": 32,
        "start": 7393
      },
      {
        "length": 32,
        "start": 7558
      },
      {
        "length": 32,
        "start": 8305
      },
      {
        "length": 32,
        "start": 8667
      },
      {
        "length": 32,
        "start": 9060
      },
      {
        "length": 32,
        "start": 9619
      },
      {
        "length": 32,
        "start": 10496
      },
      {
        "length": 32,
        "start": 11002
      },
      {
        "length": 32,
        "start": 11145
      },
      {
        "length": 32,
        "start": 11425
      },
      {
        "length": 32,
        "start": 11790
      },
      {
        "length": 32,
        "start": 12151
      },
      {
        "length": 32,
        "start": 13522
      },
      {
        "length": 32,
        "start": 14124
      },
      {
        "length": 32,
        "start": 15186
      },
      {
        "length": 32,
        "start": 15240
      },
      {
        "length": 32,
        "start": 16006
      },
      {
        "length": 32,
        "start": 16191
      },
      {
        "length": 32,
        "start": 16370
      }
    ],
    "5526": [
      {
        "length": 32,
        "start": 378
      },
      {
        "length": 32,
        "start": 3671
      },
      {
        "length": 32,
        "start": 4012
      },
      {
        "length": 32,
        "start": 4230
      },
      {
        "length": 32,
        "start": 4418
      },
      {
        "length": 32,
        "start": 5193
      },
      {
        "length": 32,
        "start": 5590
      },
      {
        "length": 32,
        "start": 5846
      },
      {
        "length": 32,
        "start": 6026
      },
      {
        "length": 32,
        "start": 6240
      },
      {
        "length": 32,
        "start": 7087
      },
      {
        "length": 32,
        "start": 7163
      },
      {
        "length": 32,
        "start": 7506
      },
      {
        "length": 32,
        "start": 7592
      },
      {
        "length": 32,
        "start": 7644
      },
      {
        "length": 32,
        "start": 7760
      },
      {
        "length": 32,
        "start": 8158
      },
      {
        "length": 32,
        "start": 8481
      },
      {
        "length": 32,
        "start": 8617
      },
      {
        "length": 32,
        "start": 9304
      },
      {
        "length": 32,
        "start": 9453
      },
      {
        "length": 32,
        "start": 9569
      },
      {
        "length": 32,
        "start": 10213
      },
      {
        "length": 32,
        "start": 10272
      },
      {
        "length": 32,
        "start": 11278
      },
      {
        "length": 32,
        "start": 11604
      },
      {
        "length": 32,
        "start": 11740
      }
    ]
  },
  "source": "// SPDX-License-Identifier: MIT\npragma solidity =0.6.12;\n\nimport '@openzeppelin/contracts/token/ERC20/SafeERC20.sol';\nimport './libraries/GoSwapLibrary.sol';\nimport './libraries/TransferHelper.sol';\nimport './interfaces/IGoSwapRouter.sol';\nimport './interfaces/IERC20GoSwap.sol';\nimport './interfaces/IWHT.sol';\n\n/**\n * @title GoSwap \n */\ncontract GoSwapRouter is IGoSwapRouter {\n    using SafeMath for uint256;\n\n    /// @notice pairForWHT\n    address public immutable override company;\n    address public immutable override WHT;\n\n    /**\n     * @dev :\n     */\n    modifier ensure(uint256 deadline) {\n        require(deadline >= block.timestamp, 'GoSwapRouter: EXPIRED');\n        _;\n    }\n\n    /**\n     * @dev ,\n     */\n    function factory() public view override returns (address) {\n        return IGoSwapCompany(company).factory();\n    }\n\n    /**\n     * @dev \n     * @param _company \n     * @param _WHT WHT \n     */\n    constructor(address _company, address _WHT) public {\n        company = _company;\n        WHT = _WHT;\n    }\n\n    /**\n     * @dev \n     */\n    receive() external payable {\n        //WHT\n        assert(msg.sender == WHT); // only accept HT via fallback from the WHT contract\n    }\n\n    // ****  ****\n    /**\n     * @dev \n     * @param tokenA tokenA\n     * @param tokenB tokenB\n     * @param amountADesired A\n     * @param amountBDesired B\n     * @param amountAMin A\n     * @param amountBMin B\n     * @return amountA   A\n     * @return amountB   B\n     */\n    function _addLiquidity(\n        address tokenA,\n        address tokenB,\n        uint256 amountADesired,\n        uint256 amountBDesired,\n        uint256 amountAMin,\n        uint256 amountBMin\n    ) internal virtual returns (uint256 amountA, uint256 amountB) {\n        // \n        address pairFactory = IGoSwapCompany(company).pairForFactory(tokenA, tokenB);\n        //,\n        if (pairFactory == address(0)) {\n            IGoSwapCompany(company).createPair(tokenA, tokenB);\n        }\n        //reserve{A,B}\n        (uint256 reserveA, uint256 reserveB, ) = GoSwapLibrary.getReservesWithoutDummy(company, tokenA, tokenB);\n        //reserve{A,B}==0\n        if (reserveA == 0 && reserveB == 0) {\n            //amount{A,B} = A,B\n            (amountA, amountB) = (amountADesired, amountBDesired);\n        } else {\n            //B = A * B / A\n            uint256 amountBOptimal = GoSwapLibrary.quote(amountADesired, reserveA, reserveB);\n            //B <= B\n            if (amountBOptimal <= amountBDesired) {\n                //B >= B\n                require(amountBOptimal >= amountBMin, 'GoSwapRouter: INSUFFICIENT_B_AMOUNT');\n                //amount{A,B} = A, B\n                (amountA, amountB) = (amountADesired, amountBOptimal);\n            } else {\n                //A = A * A / B\n                uint256 amountAOptimal = GoSwapLibrary.quote(amountBDesired, reserveB, reserveA);\n                //A <= A\n                assert(amountAOptimal <= amountADesired);\n                //A >= A\n                require(amountAOptimal >= amountAMin, 'GoSwapRouter: INSUFFICIENT_A_AMOUNT');\n                //amount{A,B} = A, B\n                (amountA, amountB) = (amountAOptimal, amountBDesired);\n            }\n        }\n    }\n\n    /**\n     * @dev *\n     * @param tokenA tokenA\n     * @param tokenB tokenB\n     * @param amountADesired A\n     * @param amountBDesired B\n     * @param amountAMin A\n     * @param amountBMin B\n     * @param to to\n     * @param deadline \n     * @return amountA   A\n     * @return amountB   B\n     * @return liquidity   \n     */\n    function addLiquidity(\n        address tokenA,\n        address tokenB,\n        uint256 amountADesired,\n        uint256 amountBDesired,\n        uint256 amountAMin,\n        uint256 amountBMin,\n        address to,\n        uint256 deadline\n    )\n        external\n        virtual\n        override\n        ensure(deadline)\n        returns (\n            uint256 amountA,\n            uint256 amountB,\n            uint256 liquidity\n        )\n    {\n        //,A,B\n        (amountA, amountB) = _addLiquidity(tokenA, tokenB, amountADesired, amountBDesired, amountAMin, amountBMin);\n        //TokenA,TokenB,`pair`\n        address pair = GoSwapLibrary.pairFor(company, tokenA, tokenB);\n        //amountAtokenAmsg.senderpair\n        TransferHelper.safeTransferFrom(tokenA, msg.sender, pair, amountA);\n        //amountBtokenBmsg.senderpair\n        TransferHelper.safeTransferFrom(tokenB, msg.sender, pair, amountB);\n        // = pairto\n        liquidity = IGoSwapPair(pair).mint(to);\n    }\n\n    /**\n     * @dev HT*\n     * @param token token\n     * @param amountTokenDesired Token\n     * @param amountTokenMin Token\n     * @param amountHTMin HT\n     * @param to to\n     * @param deadline \n     * @return amountToken   Token\n     * @return amountHT   ETH\n     * @return liquidity   \n     */\n    function addLiquidityHT(\n        address token,\n        uint256 amountTokenDesired,\n        uint256 amountTokenMin,\n        uint256 amountHTMin,\n        address to,\n        uint256 deadline\n    )\n        external\n        payable\n        virtual\n        override\n        ensure(deadline)\n        returns (\n            uint256 amountToken,\n            uint256 amountHT,\n            uint256 liquidity\n        )\n    {\n        //,Token,HT\n        (amountToken, amountHT) = _addLiquidity(token, WHT, amountTokenDesired, msg.value, amountTokenMin, amountHTMin);\n        //Token,WHT,`pair`\n        address pair = GoSwapLibrary.pairFor(company, token, WHT);\n        //`Token`tokenmsg.sender`pair`\n        TransferHelper.safeTransferFrom(token, msg.sender, pair, amountToken);\n        //`HT``HT`\n        IWHT(WHT).deposit{value: amountHT}();\n        //`HT``HT`token`pair`\n        assert(IWHT(WHT).transfer(pair, amountHT));\n        // = pair`to`\n        liquidity = IGoSwapPair(pair).mint(to);\n        //``>`HT` ``-`HT`\n        if (msg.value > amountHT) TransferHelper.safeTransferHT(msg.sender, msg.value - amountHT);\n    }\n\n    // ****  ****\n    /**\n     * @dev *\n     * @param tokenA tokenA\n     * @param tokenB tokenB\n     * @param liquidity \n     * @param amountAMin A\n     * @param amountBMin B\n     * @param to to\n     * @param deadline \n     * @return amountA   A\n     * @return amountB   B\n     */\n    function removeLiquidity(\n        address tokenA,\n        address tokenB,\n        uint256 liquidity,\n        uint256 amountAMin,\n        uint256 amountBMin,\n        address to,\n        uint256 deadline\n    ) public virtual override ensure(deadline) returns (uint256 amountA, uint256 amountB) {\n        //TokenA,TokenBCREATE2\n        address pair = GoSwapLibrary.pairFor(company, tokenA, tokenB);\n        //pair()\n        IERC20GoSwap(pair).transferFrom(msg.sender, pair, liquidity); // send liquidity to pair\n        //pair,0,1tokento\n        (uint256 amount0, uint256 amount1) = IGoSwapPair(pair).burn(to);\n        //tokenA,tokenB\n        (address token0, ) = GoSwapLibrary.sortTokens(tokenA, tokenB);\n        //tokenAB\n        (amountA, amountB) = tokenA == token0 ? (amount0, amount1) : (amount1, amount0);\n        //ABAB\n        require(amountA >= amountAMin, 'GoSwapRouter: INSUFFICIENT_A_AMOUNT');\n        require(amountB >= amountBMin, 'GoSwapRouter: INSUFFICIENT_B_AMOUNT');\n    }\n\n    /**\n     * @dev HT*\n     * @param token token\n     * @param liquidity \n     * @param amountTokenMin token\n     * @param amountHTMin HT\n     * @param to to\n     * @param deadline \n     * @return amountToken   token\n     * @return amountHT   HT\n     */\n    function removeLiquidityHT(\n        address token,\n        uint256 liquidity,\n        uint256 amountTokenMin,\n        uint256 amountHTMin,\n        address to,\n        uint256 deadline\n    ) public virtual override ensure(deadline) returns (uint256 amountToken, uint256 amountHT) {\n        //(token,HT) = (token,WHT,,token,HT,,)\n        (amountToken, amountHT) = removeLiquidity(\n            token,\n            WHT,\n            liquidity,\n            amountTokenMin,\n            amountHTMin,\n            address(this),\n            deadline\n        );\n        //tokentokento\n        TransferHelper.safeTransfer(token, to, amountToken);\n        //WHTHT\n        IWHT(WHT).withdraw(amountHT);\n        //HTHTto\n        TransferHelper.safeTransferHT(to, amountHT);\n    }\n\n    /**\n     * @dev *\n     * @param tokenA tokenA\n     * @param tokenB tokenB\n     * @param liquidity \n     * @param amountAMin A\n     * @param amountBMin B\n     * @param to to\n     * @param deadline \n     * @param approveMax \n     * @param v v\n     * @param r r\n     * @param s s\n     * @return amountA   A\n     * @return amountB   B\n     */\n    function removeLiquidityWithPermit(\n        address tokenA,\n        address tokenB,\n        uint256 liquidity,\n        uint256 amountAMin,\n        uint256 amountBMin,\n        address to,\n        uint256 deadline,\n        bool approveMax,\n        uint8 v,\n        bytes32 r,\n        bytes32 s\n    ) external virtual override returns (uint256 amountA, uint256 amountB) {\n        //TokenA,TokenBCREATE2\n        address pair = GoSwapLibrary.pairFor(company, tokenA, tokenB);\n        //,valueuint256,\n        uint256 value = approveMax ? uint256(-1) : liquidity;\n        //pair(,,,,v,r,s)\n        IERC20GoSwap(pair).permit(msg.sender, address(this), value, deadline, v, r, s);\n        //(A,B) = (tokenA,tokenB,,A,B,to,)\n        (amountA, amountB) = removeLiquidity(tokenA, tokenB, liquidity, amountAMin, amountBMin, to, deadline);\n    }\n\n    /**\n     * @dev HT*\n     * @param token token\n     * @param liquidity \n     * @param amountTokenMin token\n     * @param amountHTMin HT\n     * @param to to\n     * @param deadline \n     * @param approveMax \n     * @param v v\n     * @param r r\n     * @param s s\n     * @return amountToken   token\n     * @return amountHT   HT\n     */\n    function removeLiquidityHTWithPermit(\n        address token,\n        uint256 liquidity,\n        uint256 amountTokenMin,\n        uint256 amountHTMin,\n        address to,\n        uint256 deadline,\n        bool approveMax,\n        uint8 v,\n        bytes32 r,\n        bytes32 s\n    ) external virtual override returns (uint256 amountToken, uint256 amountHT) {\n        //Token,WETHCREATE2\n        address pair = GoSwapLibrary.pairFor(company, token, WHT);\n        //,valueuint256,\n        uint256 value = approveMax ? uint256(-1) : liquidity;\n        //pair(,,,,v,r,s)\n        IERC20GoSwap(pair).permit(msg.sender, address(this), value, deadline, v, r, s);\n        //(token,HT) = HT(token,,token,HT,to,)\n        (amountToken, amountHT) = removeLiquidityHT(token, liquidity, amountTokenMin, amountHTMin, to, deadline);\n    }\n\n    /**\n     * @dev Token*\n     * @param token token\n     * @param liquidity \n     * @param amountTokenMin token\n     * @param amountHTMin HT\n     * @param to to\n     * @param deadline \n     * @return amountHT   HT\n     */\n    function removeLiquidityHTSupportingFeeOnTransferTokens(\n        address token,\n        uint256 liquidity,\n        uint256 amountTokenMin,\n        uint256 amountHTMin,\n        address to,\n        uint256 deadline\n    ) public virtual override ensure(deadline) returns (uint256 amountHT) {\n        //(,HT) = (token,WHT,,token,HT,,)\n        (, amountHT) = removeLiquidity(token, WHT, liquidity, amountTokenMin, amountHTMin, address(this), deadline);\n        //tokentokento\n        TransferHelper.safeTransfer(token, to, IERC20GoSwap(token).balanceOf(address(this)));\n        //WHTHT\n        IWHT(WHT).withdraw(amountHT);\n        //HTHTto\n        TransferHelper.safeTransferHT(to, amountHT);\n    }\n\n    /**\n     * @dev ,Token*\n     * @param token token\n     * @param liquidity \n     * @param liquidity \n     * @param amountTokenMin token\n     * @param amountHTMin HT\n     * @param to to\n     * @param deadline \n     * @param approveMax \n     * @param v v\n     * @param r r\n     * @param s s\n     * @return amountHT   HT\n     */\n    function removeLiquidityHTWithPermitSupportingFeeOnTransferTokens(\n        address token,\n        uint256 liquidity,\n        uint256 amountTokenMin,\n        uint256 amountHTMin,\n        address to,\n        uint256 deadline,\n        bool approveMax,\n        uint8 v,\n        bytes32 r,\n        bytes32 s\n    ) external virtual override returns (uint256 amountHT) {\n        //Token,WHTCREATE2\n        address pair = GoSwapLibrary.pairFor(company, token, WHT);\n        //,valueuint256,\n        uint256 value = approveMax ? uint256(-1) : liquidity;\n        //pair(,,,,v,r,s)\n        IERC20GoSwap(pair).permit(msg.sender, address(this), value, deadline, v, r, s);\n        //(,HT) = Token(token,,Token,HT,to,)\n        amountHT = removeLiquidityHTSupportingFeeOnTransferTokens(\n            token,\n            liquidity,\n            amountTokenMin,\n            amountHTMin,\n            to,\n            deadline\n        );\n    }\n\n    // ****  ****\n    /**\n     * @dev *\n     * @notice \n     * @param amounts \n     * @param path \n     * @param _to to\n     */\n    function _swap(\n        uint256[] memory amounts,\n        address[] memory path,\n        address _to\n    ) internal virtual {\n        //\n        for (uint256 i; i < path.length - 1; i++) {\n            //(,) = (,)\n            (address input, address output) = (path[i], path[i + 1]);\n            //token0 = (,)\n            (address token0, ) = GoSwapLibrary.sortTokens(input, output);\n            // = \n            uint256 amountOut = amounts[i + 1];\n            //(0,1) = ==token0 ? (0,) : (,0)\n            (uint256 amount0Out, uint256 amount1Out) =\n                input == token0 ? (uint256(0), amountOut) : (amountOut, uint256(0));\n            //to = i<-2 ? (,)pair : to\n            address to = i < path.length - 2 ? GoSwapLibrary.pairFor(company, output, path[i + 2]) : _to;\n            //(,)pair(0,1,to,0x00)\n            IGoSwapPair(GoSwapLibrary.pairFor(company, input, output)).swap(\n                amount0Out,\n                amount1Out,\n                to,\n                new bytes(0)\n            );\n        }\n    }\n\n    /**\n     * @dev tokentoken*\n     * @param amountIn \n     * @param amountOutMin \n     * @param path \n     * @param to to\n     * @param deadline \n     * @return amounts  \n     */\n    function swapExactTokensForTokens(\n        uint256 amountIn,\n        uint256 amountOutMin,\n        address[] calldata path,\n        address to,\n        uint256 deadline\n    ) external virtual override ensure(deadline) returns (uint256[] memory amounts) {\n        //  (\n        //      ( * (1000-fee) * Out) /\n        //      (In * 1000 +  * (1000-fee)))\n        amounts = GoSwapLibrary.getAmountsOut(company, amountIn, path);\n        //>=\n        require(amounts[amounts.length - 1] >= amountOutMin, 'GoSwapRouter: INSUFFICIENT_OUTPUT_AMOUNT');\n        //[0][0]token0,1pair\n        TransferHelper.safeTransferFrom(\n            path[0],\n            msg.sender,\n            GoSwapLibrary.pairFor(company, path[0], path[1]),\n            amounts[0]\n        );\n        //(,,to)\n        _swap(amounts, path, to);\n    }\n\n    /**\n     * @dev tokentoken*\n     * @param amountOut \n     * @param amountInMax \n     * @param path \n     * @param to to\n     * @param deadline \n     * @return amounts  \n     */\n    function swapTokensForExactTokens(\n        uint256 amountOut,\n        uint256 amountInMax,\n        address[] calldata path,\n        address to,\n        uint256 deadline\n    ) external virtual override ensure(deadline) returns (uint256[] memory amounts) {\n        //  (\n        //      (In * Out * 1000) /\n        //      (Out -  * (1000-fee)) + 1)\n        amounts = GoSwapLibrary.getAmountsIn(company, amountOut, path);\n        //<=\n        require(amounts[0] <= amountInMax, 'GoSwapRouter: EXCESSIVE_INPUT_AMOUNT');\n        //[0][0]token0,1pair\n        TransferHelper.safeTransferFrom(\n            path[0],\n            msg.sender,\n            GoSwapLibrary.pairFor(company, path[0], path[1]),\n            amounts[0]\n        );\n        //(,,to)\n        _swap(amounts, path, to);\n    }\n\n    /**\n     * @dev ETHtoken*\n     * @param amountOutMin \n     * @param path \n     * @param to to\n     * @param deadline \n     * @return amounts  \n     */\n    function swapExactHTForTokens(\n        uint256 amountOutMin,\n        address[] calldata path,\n        address to,\n        uint256 deadline\n    ) external payable virtual override ensure(deadline) returns (uint256[] memory amounts) {\n        //WHT\n        require(path[0] == WHT, 'GoSwapRouter: INVALID_PATH');\n        //  (\n        //      (msg.value * (1000-fee) * Out) /\n        //      (In * 1000 + msg.value * (1000-fee)))\n        amounts = GoSwapLibrary.getAmountsOut(company, msg.value, path);\n        //>=\n        require(amounts[amounts.length - 1] >= amountOutMin, 'GoSwapRouter: INSUFFICIENT_OUTPUT_AMOUNT');\n        //[0]HTHT\n        IWHT(WHT).deposit{value: amounts[0]}();\n        //[0]HT(0,1)pair\n        assert(IWHT(WHT).transfer(GoSwapLibrary.pairFor(company, path[0], path[1]), amounts[0]));\n        //(,,to)\n        _swap(amounts, path, to);\n    }\n\n    /**\n     * @dev tokenHT*\n     * @param amountOut \n     * @param amountInMax \n     * @param path \n     * @param to to\n     * @param deadline \n     * @return amounts  \n     */\n    function swapTokensForExactHT(\n        uint256 amountOut,\n        uint256 amountInMax,\n        address[] calldata path,\n        address to,\n        uint256 deadline\n    ) external virtual override ensure(deadline) returns (uint256[] memory amounts) {\n        //WHT\n        require(path[path.length - 1] == WHT, 'GoSwapRouter: INVALID_PATH');\n        //  (\n        //      (In * Out * 1000) /\n        //      (Out -  * (1000-fee)) + 1)\n        amounts = GoSwapLibrary.getAmountsIn(company, amountOut, path);\n        //<=\n        require(amounts[0] <= amountInMax, 'GoSwapRouter: EXCESSIVE_INPUT_AMOUNT');\n        //[0][0]token0,1pair\n        TransferHelper.safeTransferFrom(\n            path[0],\n            msg.sender,\n            GoSwapLibrary.pairFor(company, path[0], path[1]),\n            amounts[0]\n        );\n        //(,,)\n        _swap(amounts, path, address(this));\n        //HTHT\n        IWHT(WHT).withdraw(amounts[amounts.length - 1]);\n        //ETHto\n        TransferHelper.safeTransferHT(to, amounts[amounts.length - 1]);\n    }\n\n    /**\n     * @dev tokenHT*\n     * @param amountIn \n     * @param amountOutMin \n     * @param path \n     * @param to to\n     * @param deadline \n     * @return amounts  \n     */\n    function swapExactTokensForHT(\n        uint256 amountIn,\n        uint256 amountOutMin,\n        address[] calldata path,\n        address to,\n        uint256 deadline\n    ) external virtual override ensure(deadline) returns (uint256[] memory amounts) {\n        //WHT\n        require(path[path.length - 1] == WHT, 'GoSwapRouter: INVALID_PATH');\n        //  (\n        //      ( * (1000-fee) * Out) /\n        //      (In * 1000 +  * (1000-fee))))\n        amounts = GoSwapLibrary.getAmountsOut(company, amountIn, path);\n        //>=\n        require(amounts[amounts.length - 1] >= amountOutMin, 'GoSwapRouter: INSUFFICIENT_OUTPUT_AMOUNT');\n        //[0][0]token0,1pair\n        TransferHelper.safeTransferFrom(\n            path[0],\n            msg.sender,\n            GoSwapLibrary.pairFor(company, path[0], path[1]),\n            amounts[0]\n        );\n        //(,,)\n        _swap(amounts, path, address(this));\n        //WHTHT\n        IWHT(WHT).withdraw(amounts[amounts.length - 1]);\n        //HTto\n        TransferHelper.safeTransferHT(to, amounts[amounts.length - 1]);\n    }\n\n    /**\n     * @dev HTtoken*\n     * @param amountOut \n     * @param path \n     * @param to to\n     * @param deadline \n     * @return amounts  \n     */\n    function swapHTForExactTokens(\n        uint256 amountOut,\n        address[] calldata path,\n        address to,\n        uint256 deadline\n    ) external payable virtual override ensure(deadline) returns (uint256[] memory amounts) {\n        //WHT\n        require(path[0] == WHT, 'GoSwapRouter: INVALID_PATH');\n        //  (\n        //      (In * Out * 1000) /\n        //      (Out -  * (1000-fee)) + 1)\n        amounts = GoSwapLibrary.getAmountsIn(company, amountOut, path);\n        //<=msg.value\n        require(amounts[0] <= msg.value, 'GoSwapRouter: EXCESSIVE_INPUT_AMOUNT');\n        //[0]ETHWHT\n        IWHT(WHT).deposit{value: amounts[0]}();\n        //[0]WHT(0,1)pair\n        assert(IWHT(WHT).transfer(GoSwapLibrary.pairFor(company, path[0], path[1]), amounts[0]));\n        //(,,to)\n        _swap(amounts, path, to);\n        //``>`[0]` ``-`[0]`\n        if (msg.value > amounts[0]) TransferHelper.safeTransferHT(msg.sender, msg.value - amounts[0]);\n    }\n\n    // ****  (Token) ****\n    // requires the initial amount to have already been sent to the first pair\n    /**\n     * @dev Token*\n     * @param path \n     * @param _to to\n     */\n    function _swapSupportingFeeOnTransferTokens(address[] memory path, address _to) internal virtual {\n        //\n        for (uint256 i; i < path.length - 1; i++) {\n            //(,) = (,)\n            (address input, address output) = (path[i], path[i + 1]);\n            // ,\n            IGoSwapPair pair = IGoSwapPair(GoSwapLibrary.pairFor(company, input, output));\n            //token0 = (,)\n            (address token0, ) = GoSwapLibrary.sortTokens(input, output);\n            // \n            uint256 amountInput;\n            uint256 amountOutput;\n            {\n                //\n                //\n                uint8 fee = pair.fee();\n                //0,1\n                (uint256 reserve0, uint256 reserve1, ) = pair.getReserves();\n                // \n                (uint256 reserveInput, uint256 reserveOutput) =\n                    input == token0 ? (reserve0, reserve1) : (reserve1, reserve0);\n                // 0,1,-\n                amountInput = input == token0\n                    ? pair.balanceOfIndex(0).sub(reserve0)\n                    : pair.balanceOfIndex(1).sub(reserve1);\n                //,,,\n                amountOutput = GoSwapLibrary.getAmountOut(amountInput, reserveInput, reserveOutput, fee);\n            }\n            // // 0,1\n            (uint256 amount0Out, uint256 amount1Out) =\n                input == token0 ? (uint256(0), amountOutput) : (amountOutput, uint256(0));\n            //to = i<-2 ? (,)pair : to\n            address to = i < path.length - 2 ? GoSwapLibrary.pairFor(company, output, path[i + 2]) : _to;\n            //pair(0,1,to,0x00)\n            pair.swap(amount0Out, amount1Out, to, new bytes(0));\n        }\n    }\n\n    /**\n     * @dev tokentoken,Token*\n     * @param amountIn \n     * @param amountOutMin \n     * @param path \n     * @param to to\n     * @param deadline \n     */\n    function swapExactTokensForTokensSupportingFeeOnTransferTokens(\n        uint256 amountIn,\n        uint256 amountOutMin,\n        address[] calldata path,\n        address to,\n        uint256 deadline\n    ) external virtual override ensure(deadline) {\n        //[0][0]token0,1pair\n        TransferHelper.safeTransferFrom(\n            path[0],\n            msg.sender,\n            GoSwapLibrary.pairFor(company, path[0], path[1]),\n            amountIn\n        );\n        // totoken\n        uint256 balanceBefore = IERC20GoSwap(path[path.length - 1]).balanceOf(to);\n        // Token\n        _swapSupportingFeeOnTransferTokens(path, to);\n        // totoken\n        require(\n            IERC20GoSwap(path[path.length - 1]).balanceOf(to).sub(balanceBefore) >= amountOutMin,\n            'GoSwapRouter: INSUFFICIENT_OUTPUT_AMOUNT'\n        );\n    }\n\n    /**\n     * @dev ETHtoken,Token*\n     * @param amountOutMin \n     * @param path \n     * @param to to\n     * @param deadline \n     */\n    function swapExactHTForTokensSupportingFeeOnTransferTokens(\n        uint256 amountOutMin,\n        address[] calldata path,\n        address to,\n        uint256 deadline\n    ) external payable virtual override ensure(deadline) {\n        //WHT\n        require(path[0] == WHT, 'GoSwapRouter: INVALID_PATH');\n        //=\n        uint256 amountIn = msg.value;\n        //WHTHT\n        IWHT(WHT).deposit{value: amountIn}();\n        //WHT0,1\n        assert(IWHT(WHT).transfer(GoSwapLibrary.pairFor(company, path[0], path[1]), amountIn));\n        // totoken\n        uint256 balanceBefore = IERC20GoSwap(path[path.length - 1]).balanceOf(to);\n        // Token\n        _swapSupportingFeeOnTransferTokens(path, to);\n        // totoken\n        require(\n            IERC20GoSwap(path[path.length - 1]).balanceOf(to).sub(balanceBefore) >= amountOutMin,\n            'GoSwapRouter: INSUFFICIENT_OUTPUT_AMOUNT'\n        );\n    }\n\n    /**\n     * @dev tokenHT,Token*\n     * @param amountIn \n     * @param amountOutMin \n     * @param path \n     * @param to to\n     * @param deadline \n     */\n    function swapExactTokensForHTSupportingFeeOnTransferTokens(\n        uint256 amountIn,\n        uint256 amountOutMin,\n        address[] calldata path,\n        address to,\n        uint256 deadline\n    ) external virtual override ensure(deadline) {\n        //WHT\n        require(path[path.length - 1] == WHT, 'GoSwapRouter: INVALID_PATH');\n        //0Token0,1\n        TransferHelper.safeTransferFrom(\n            path[0],\n            msg.sender,\n            GoSwapLibrary.pairFor(company, path[0], path[1]),\n            amountIn\n        );\n        //Token\n        _swapSupportingFeeOnTransferTokens(path, address(this));\n        //=WHT\n        uint256 amountOut = IERC20GoSwap(WHT).balanceOf(address(this));\n        //\n        require(amountOut >= amountOutMin, 'GoSwapRouter: INSUFFICIENT_OUTPUT_AMOUNT');\n        //WHT\n        IWHT(WHT).withdraw(amountOut);\n        //HTto\n        TransferHelper.safeTransferHT(to, amountOut);\n    }\n\n    // **** LIBRARY FUNCTIONS ****\n    function quote(\n        uint256 amountA,\n        uint256 reserveA,\n        uint256 reserveB\n    ) public pure virtual override returns (uint256 amountB) {\n        return GoSwapLibrary.quote(amountA, reserveA, reserveB);\n    }\n\n    function getAmountOut(\n        uint256 amountIn,\n        uint256 reserveIn,\n        uint256 reserveOut,\n        uint8 fee\n    ) public pure virtual override returns (uint256 amountOut) {\n        return GoSwapLibrary.getAmountOut(amountIn, reserveIn, reserveOut, fee);\n    }\n\n    function getAmountIn(\n        uint256 amountOut,\n        uint256 reserveIn,\n        uint256 reserveOut,\n        uint8 fee\n    ) public pure virtual override returns (uint256 amountIn) {\n        return GoSwapLibrary.getAmountIn(amountOut, reserveIn, reserveOut, fee);\n    }\n\n    function getAmountsOut(uint256 amountIn, address[] memory path)\n        public\n        view\n        virtual\n        override\n        returns (uint256[] memory amounts)\n    {\n        return GoSwapLibrary.getAmountsOut(company, amountIn, path);\n    }\n\n    function getAmountsIn(uint256 amountOut, address[] memory path)\n        public\n        view\n        virtual\n        override\n        returns (uint256[] memory amounts)\n    {\n        return GoSwapLibrary.getAmountsIn(company, amountOut, path);\n    }\n}\n",
  "sourcePath": "/home/cui/Documents/goswap/goswap-core/contracts/GoSwapRouter.sol",
  "compiler": {
    "name": "solc",
    "version": "0.6.12+commit.27d51765.Emscripten.clang"
  },
  "schemaVersion": "3.3.2",
  "updatedAt": "2021-01-22T03:09:30.321Z",
  "devdoc": {
    "kind": "dev",
    "methods": {
      "addLiquidity(address,address,uint256,uint256,uint256,uint256,address,uint256)": {
        "details": "*",
        "params": {
          "amountADesired": "A",
          "amountAMin": "A",
          "amountBDesired": "B",
          "amountBMin": "B",
          "deadline": "",
          "to": "to",
          "tokenA": "tokenA",
          "tokenB": "tokenB"
        },
        "returns": {
          "amountA": "  A",
          "amountB": "  B",
          "liquidity": "  "
        }
      },
      "addLiquidityHT(address,uint256,uint256,uint256,address,uint256)": {
        "details": "HT*",
        "params": {
          "amountHTMin": "HT",
          "amountTokenDesired": "Token",
          "amountTokenMin": "Token",
          "deadline": "",
          "to": "to",
          "token": "token"
        },
        "returns": {
          "amountHT": "  ETH",
          "amountToken": "  Token",
          "liquidity": "  "
        }
      },
      "constructor": {
        "details": "",
        "params": {
          "_WHT": "WHT ",
          "_company": ""
        }
      },
      "factory()": {
        "details": ","
      },
      "removeLiquidity(address,address,uint256,uint256,uint256,address,uint256)": {
        "details": "*",
        "params": {
          "amountAMin": "A",
          "amountBMin": "B",
          "deadline": "",
          "liquidity": "",
          "to": "to",
          "tokenA": "tokenA",
          "tokenB": "tokenB"
        },
        "returns": {
          "amountA": "  A",
          "amountB": "  B"
        }
      },
      "removeLiquidityHT(address,uint256,uint256,uint256,address,uint256)": {
        "details": "HT*",
        "params": {
          "amountHTMin": "HT",
          "amountTokenMin": "token",
          "deadline": "",
          "liquidity": "",
          "to": "to",
          "token": "token"
        },
        "returns": {
          "amountHT": "  HT",
          "amountToken": "  token"
        }
      },
      "removeLiquidityHTSupportingFeeOnTransferTokens(address,uint256,uint256,uint256,address,uint256)": {
        "details": "Token*",
        "params": {
          "amountHTMin": "HT",
          "amountTokenMin": "token",
          "deadline": "",
          "liquidity": "",
          "to": "to",
          "token": "token"
        },
        "returns": {
          "amountHT": "  HT"
        }
      },
      "removeLiquidityHTWithPermit(address,uint256,uint256,uint256,address,uint256,bool,uint8,bytes32,bytes32)": {
        "details": "HT*",
        "params": {
          "amountHTMin": "HT",
          "amountTokenMin": "token",
          "approveMax": "",
          "deadline": "",
          "liquidity": "",
          "r": "r",
          "s": "s",
          "to": "to",
          "token": "token",
          "v": "v"
        },
        "returns": {
          "amountHT": "  HT",
          "amountToken": "  token"
        }
      },
      "removeLiquidityHTWithPermitSupportingFeeOnTransferTokens(address,uint256,uint256,uint256,address,uint256,bool,uint8,bytes32,bytes32)": {
        "details": ",Token*",
        "params": {
          "amountHTMin": "HT",
          "amountTokenMin": "token",
          "approveMax": "",
          "deadline": "",
          "liquidity": "",
          "r": "r",
          "s": "s",
          "to": "to",
          "token": "token",
          "v": "v"
        },
        "returns": {
          "amountHT": "  HT"
        }
      },
      "removeLiquidityWithPermit(address,address,uint256,uint256,uint256,address,uint256,bool,uint8,bytes32,bytes32)": {
        "details": "*",
        "params": {
          "amountAMin": "A",
          "amountBMin": "B",
          "approveMax": "",
          "deadline": "",
          "liquidity": "",
          "r": "r",
          "s": "s",
          "to": "to",
          "tokenA": "tokenA",
          "tokenB": "tokenB",
          "v": "v"
        },
        "returns": {
          "amountA": "  A",
          "amountB": "  B"
        }
      },
      "swapExactHTForTokens(uint256,address[],address,uint256)": {
        "details": "ETHtoken*",
        "params": {
          "amountOutMin": "",
          "deadline": "",
          "path": "",
          "to": "to"
        },
        "returns": {
          "amounts": " "
        }
      },
      "swapExactHTForTokensSupportingFeeOnTransferTokens(uint256,address[],address,uint256)": {
        "details": "ETHtoken,Token*",
        "params": {
          "amountOutMin": "",
          "deadline": "",
          "path": "",
          "to": "to"
        }
      },
      "swapExactTokensForHT(uint256,uint256,address[],address,uint256)": {
        "details": "tokenHT*",
        "params": {
          "amountIn": "",
          "amountOutMin": "",
          "deadline": "",
          "path": "",
          "to": "to"
        },
        "returns": {
          "amounts": " "
        }
      },
      "swapExactTokensForHTSupportingFeeOnTransferTokens(uint256,uint256,address[],address,uint256)": {
        "details": "tokenHT,Token*",
        "params": {
          "amountIn": "",
          "amountOutMin": "",
          "deadline": "",
          "path": "",
          "to": "to"
        }
      },
      "swapExactTokensForTokens(uint256,uint256,address[],address,uint256)": {
        "details": "tokentoken*",
        "params": {
          "amountIn": "",
          "amountOutMin": "",
          "deadline": "",
          "path": "",
          "to": "to"
        },
        "returns": {
          "amounts": " "
        }
      },
      "swapExactTokensForTokensSupportingFeeOnTransferTokens(uint256,uint256,address[],address,uint256)": {
        "details": "tokentoken,Token*",
        "params": {
          "amountIn": "",
          "amountOutMin": "",
          "deadline": "",
          "path": "",
          "to": "to"
        }
      },
      "swapHTForExactTokens(uint256,address[],address,uint256)": {
        "details": "HTtoken*",
        "params": {
          "amountOut": "",
          "deadline": "",
          "path": "",
          "to": "to"
        },
        "returns": {
          "amounts": " "
        }
      },
      "swapTokensForExactHT(uint256,uint256,address[],address,uint256)": {
        "details": "tokenHT*",
        "params": {
          "amountInMax": "",
          "amountOut": "",
          "deadline": "",
          "path": "",
          "to": "to"
        },
        "returns": {
          "amounts": " "
        }
      },
      "swapTokensForExactTokens(uint256,uint256,address[],address,uint256)": {
        "details": "tokentoken*",
        "params": {
          "amountInMax": "",
          "amountOut": "",
          "deadline": "",
          "path": "",
          "to": "to"
        },
        "returns": {
          "amounts": " "
        }
      }
    },
    "title": "GoSwap ",
    "version": 1
  },
  "userdoc": {
    "kind": "user",
    "methods": {
      "company()": {
        "notice": "pairForWHT"
      }
    },
    "version": 1
  }
}