{
  "contractName": "GoSwapPair",
  "abi": [
    {
      "inputs": [],
      "stateMutability": "nonpayable",
      "type": "constructor"
    },
    {
      "anonymous": false,
      "inputs": [
        {
          "indexed": true,
          "internalType": "address",
          "name": "owner",
          "type": "address"
        },
        {
          "indexed": true,
          "internalType": "address",
          "name": "spender",
          "type": "address"
        },
        {
          "indexed": false,
          "internalType": "uint256",
          "name": "value",
          "type": "uint256"
        }
      ],
      "name": "Approval",
      "type": "event"
    },
    {
      "anonymous": false,
      "inputs": [
        {
          "indexed": true,
          "internalType": "address",
          "name": "sender",
          "type": "address"
        },
        {
          "indexed": false,
          "internalType": "uint256",
          "name": "amount0",
          "type": "uint256"
        },
        {
          "indexed": false,
          "internalType": "uint256",
          "name": "amount1",
          "type": "uint256"
        },
        {
          "indexed": true,
          "internalType": "address",
          "name": "to",
          "type": "address"
        }
      ],
      "name": "Burn",
      "type": "event"
    },
    {
      "anonymous": false,
      "inputs": [
        {
          "indexed": false,
          "internalType": "uint256",
          "name": "deposited0",
          "type": "uint256"
        },
        {
          "indexed": false,
          "internalType": "uint256",
          "name": "deposited1",
          "type": "uint256"
        }
      ],
      "name": "DepositedUpdated",
      "type": "event"
    },
    {
      "anonymous": false,
      "inputs": [
        {
          "indexed": false,
          "internalType": "uint256",
          "name": "amount0",
          "type": "uint256"
        },
        {
          "indexed": false,
          "internalType": "uint256",
          "name": "amount1",
          "type": "uint256"
        }
      ],
      "name": "DummyBurn",
      "type": "event"
    },
    {
      "anonymous": false,
      "inputs": [
        {
          "indexed": false,
          "internalType": "uint256",
          "name": "amount0",
          "type": "uint256"
        },
        {
          "indexed": false,
          "internalType": "uint256",
          "name": "amount1",
          "type": "uint256"
        }
      ],
      "name": "DummyMint",
      "type": "event"
    },
    {
      "anonymous": false,
      "inputs": [
        {
          "indexed": true,
          "internalType": "address",
          "name": "feeTo",
          "type": "address"
        }
      ],
      "name": "FeeToUpdated",
      "type": "event"
    },
    {
      "anonymous": false,
      "inputs": [
        {
          "indexed": false,
          "internalType": "uint8",
          "name": "fee",
          "type": "uint8"
        }
      ],
      "name": "FeeUpdated",
      "type": "event"
    },
    {
      "anonymous": false,
      "inputs": [
        {
          "indexed": true,
          "internalType": "address",
          "name": "sender",
          "type": "address"
        },
        {
          "indexed": false,
          "internalType": "uint256",
          "name": "amount0",
          "type": "uint256"
        },
        {
          "indexed": false,
          "internalType": "uint256",
          "name": "amount1",
          "type": "uint256"
        }
      ],
      "name": "Mint",
      "type": "event"
    },
    {
      "anonymous": false,
      "inputs": [
        {
          "indexed": false,
          "internalType": "uint8",
          "name": "tokenIndex",
          "type": "uint8"
        },
        {
          "indexed": false,
          "internalType": "uint16",
          "name": "ratio",
          "type": "uint16"
        }
      ],
      "name": "RedepositRatioUpdated",
      "type": "event"
    },
    {
      "anonymous": false,
      "inputs": [
        {
          "indexed": false,
          "internalType": "uint8",
          "name": "rootKmul",
          "type": "uint8"
        }
      ],
      "name": "RootKmulUpdated",
      "type": "event"
    },
    {
      "anonymous": false,
      "inputs": [
        {
          "indexed": true,
          "internalType": "address",
          "name": "sender",
          "type": "address"
        },
        {
          "indexed": false,
          "internalType": "uint256",
          "name": "amount0In",
          "type": "uint256"
        },
        {
          "indexed": false,
          "internalType": "uint256",
          "name": "amount1In",
          "type": "uint256"
        },
        {
          "indexed": false,
          "internalType": "uint256",
          "name": "amount0Out",
          "type": "uint256"
        },
        {
          "indexed": false,
          "internalType": "uint256",
          "name": "amount1Out",
          "type": "uint256"
        },
        {
          "indexed": true,
          "internalType": "address",
          "name": "to",
          "type": "address"
        }
      ],
      "name": "Swap",
      "type": "event"
    },
    {
      "anonymous": false,
      "inputs": [
        {
          "indexed": false,
          "internalType": "address",
          "name": "swapHookAddress",
          "type": "address"
        }
      ],
      "name": "SwapHookUpdated",
      "type": "event"
    },
    {
      "anonymous": false,
      "inputs": [
        {
          "indexed": false,
          "internalType": "uint112",
          "name": "reserve0",
          "type": "uint112"
        },
        {
          "indexed": false,
          "internalType": "uint112",
          "name": "reserve1",
          "type": "uint112"
        }
      ],
      "name": "Sync",
      "type": "event"
    },
    {
      "anonymous": false,
      "inputs": [
        {
          "indexed": true,
          "internalType": "address",
          "name": "from",
          "type": "address"
        },
        {
          "indexed": true,
          "internalType": "address",
          "name": "to",
          "type": "address"
        },
        {
          "indexed": false,
          "internalType": "uint256",
          "name": "value",
          "type": "uint256"
        }
      ],
      "name": "Transfer",
      "type": "event"
    },
    {
      "anonymous": false,
      "inputs": [
        {
          "indexed": false,
          "internalType": "uint8",
          "name": "tokenIndex",
          "type": "uint8"
        },
        {
          "indexed": true,
          "internalType": "address",
          "name": "vault",
          "type": "address"
        }
      ],
      "name": "VaultUpdated",
      "type": "event"
    },
    {
      "inputs": [],
      "name": "DOMAIN_SEPARATOR",
      "outputs": [
        {
          "internalType": "bytes32",
          "name": "",
          "type": "bytes32"
        }
      ],
      "stateMutability": "view",
      "type": "function"
    },
    {
      "inputs": [],
      "name": "MINIMUM_LIQUIDITY",
      "outputs": [
        {
          "internalType": "uint256",
          "name": "",
          "type": "uint256"
        }
      ],
      "stateMutability": "view",
      "type": "function"
    },
    {
      "inputs": [],
      "name": "PERMIT_TYPEHASH",
      "outputs": [
        {
          "internalType": "bytes32",
          "name": "",
          "type": "bytes32"
        }
      ],
      "stateMutability": "view",
      "type": "function"
    },
    {
      "inputs": [
        {
          "internalType": "address",
          "name": "",
          "type": "address"
        },
        {
          "internalType": "address",
          "name": "",
          "type": "address"
        }
      ],
      "name": "allowance",
      "outputs": [
        {
          "internalType": "uint256",
          "name": "",
          "type": "uint256"
        }
      ],
      "stateMutability": "view",
      "type": "function"
    },
    {
      "inputs": [
        {
          "internalType": "address",
          "name": "spender",
          "type": "address"
        },
        {
          "internalType": "uint256",
          "name": "value",
          "type": "uint256"
        }
      ],
      "name": "approve",
      "outputs": [
        {
          "internalType": "bool",
          "name": "",
          "type": "bool"
        }
      ],
      "stateMutability": "nonpayable",
      "type": "function"
    },
    {
      "inputs": [
        {
          "internalType": "address",
          "name": "",
          "type": "address"
        }
      ],
      "name": "balanceOf",
      "outputs": [
        {
          "internalType": "uint256",
          "name": "",
          "type": "uint256"
        }
      ],
      "stateMutability": "view",
      "type": "function"
    },
    {
      "inputs": [],
      "name": "birthday",
      "outputs": [
        {
          "internalType": "uint256",
          "name": "",
          "type": "uint256"
        }
      ],
      "stateMutability": "view",
      "type": "function"
    },
    {
      "inputs": [],
      "name": "creator",
      "outputs": [
        {
          "internalType": "address",
          "name": "",
          "type": "address"
        }
      ],
      "stateMutability": "view",
      "type": "function"
    },
    {
      "inputs": [],
      "name": "decimals",
      "outputs": [
        {
          "internalType": "uint8",
          "name": "",
          "type": "uint8"
        }
      ],
      "stateMutability": "view",
      "type": "function"
    },
    {
      "inputs": [
        {
          "internalType": "uint256",
          "name": "",
          "type": "uint256"
        }
      ],
      "name": "depositeds",
      "outputs": [
        {
          "internalType": "uint256",
          "name": "",
          "type": "uint256"
        }
      ],
      "stateMutability": "view",
      "type": "function"
    },
    {
      "inputs": [
        {
          "internalType": "uint256",
          "name": "",
          "type": "uint256"
        }
      ],
      "name": "dummys",
      "outputs": [
        {
          "internalType": "uint112",
          "name": "",
          "type": "uint112"
        }
      ],
      "stateMutability": "view",
      "type": "function"
    },
    {
      "inputs": [],
      "name": "factory",
      "outputs": [
        {
          "internalType": "address",
          "name": "",
          "type": "address"
        }
      ],
      "stateMutability": "view",
      "type": "function"
    },
    {
      "inputs": [],
      "name": "fee",
      "outputs": [
        {
          "internalType": "uint8",
          "name": "",
          "type": "uint8"
        }
      ],
      "stateMutability": "view",
      "type": "function"
    },
    {
      "inputs": [],
      "name": "feeTo",
      "outputs": [
        {
          "internalType": "address",
          "name": "",
          "type": "address"
        }
      ],
      "stateMutability": "view",
      "type": "function"
    },
    {
      "inputs": [],
      "name": "kLast",
      "outputs": [
        {
          "internalType": "uint256",
          "name": "",
          "type": "uint256"
        }
      ],
      "stateMutability": "view",
      "type": "function"
    },
    {
      "inputs": [],
      "name": "name",
      "outputs": [
        {
          "internalType": "string",
          "name": "",
          "type": "string"
        }
      ],
      "stateMutability": "view",
      "type": "function"
    },
    {
      "inputs": [
        {
          "internalType": "address",
          "name": "",
          "type": "address"
        }
      ],
      "name": "nonces",
      "outputs": [
        {
          "internalType": "uint256",
          "name": "",
          "type": "uint256"
        }
      ],
      "stateMutability": "view",
      "type": "function"
    },
    {
      "inputs": [
        {
          "internalType": "address",
          "name": "owner",
          "type": "address"
        },
        {
          "internalType": "address",
          "name": "spender",
          "type": "address"
        },
        {
          "internalType": "uint256",
          "name": "value",
          "type": "uint256"
        },
        {
          "internalType": "uint256",
          "name": "deadline",
          "type": "uint256"
        },
        {
          "internalType": "uint8",
          "name": "v",
          "type": "uint8"
        },
        {
          "internalType": "bytes32",
          "name": "r",
          "type": "bytes32"
        },
        {
          "internalType": "bytes32",
          "name": "s",
          "type": "bytes32"
        }
      ],
      "name": "permit",
      "outputs": [],
      "stateMutability": "nonpayable",
      "type": "function"
    },
    {
      "inputs": [
        {
          "internalType": "uint256",
          "name": "",
          "type": "uint256"
        }
      ],
      "name": "redepositRatios",
      "outputs": [
        {
          "internalType": "uint16",
          "name": "",
          "type": "uint16"
        }
      ],
      "stateMutability": "view",
      "type": "function"
    },
    {
      "inputs": [],
      "name": "rootKmul",
      "outputs": [
        {
          "internalType": "uint8",
          "name": "",
          "type": "uint8"
        }
      ],
      "stateMutability": "view",
      "type": "function"
    },
    {
      "inputs": [],
      "name": "swapHookAddress",
      "outputs": [
        {
          "internalType": "address",
          "name": "",
          "type": "address"
        }
      ],
      "stateMutability": "view",
      "type": "function"
    },
    {
      "inputs": [],
      "name": "symbol",
      "outputs": [
        {
          "internalType": "string",
          "name": "",
          "type": "string"
        }
      ],
      "stateMutability": "view",
      "type": "function"
    },
    {
      "inputs": [],
      "name": "totalSupply",
      "outputs": [
        {
          "internalType": "uint256",
          "name": "",
          "type": "uint256"
        }
      ],
      "stateMutability": "view",
      "type": "function"
    },
    {
      "inputs": [
        {
          "internalType": "address",
          "name": "to",
          "type": "address"
        },
        {
          "internalType": "uint256",
          "name": "value",
          "type": "uint256"
        }
      ],
      "name": "transfer",
      "outputs": [
        {
          "internalType": "bool",
          "name": "",
          "type": "bool"
        }
      ],
      "stateMutability": "nonpayable",
      "type": "function"
    },
    {
      "inputs": [
        {
          "internalType": "address",
          "name": "from",
          "type": "address"
        },
        {
          "internalType": "address",
          "name": "to",
          "type": "address"
        },
        {
          "internalType": "uint256",
          "name": "value",
          "type": "uint256"
        }
      ],
      "name": "transferFrom",
      "outputs": [
        {
          "internalType": "bool",
          "name": "",
          "type": "bool"
        }
      ],
      "stateMutability": "nonpayable",
      "type": "function"
    },
    {
      "inputs": [
        {
          "internalType": "uint256",
          "name": "",
          "type": "uint256"
        }
      ],
      "name": "vaults",
      "outputs": [
        {
          "internalType": "address",
          "name": "",
          "type": "address"
        }
      ],
      "stateMutability": "view",
      "type": "function"
    },
    {
      "inputs": [],
      "name": "token0",
      "outputs": [
        {
          "internalType": "address",
          "name": "",
          "type": "address"
        }
      ],
      "stateMutability": "view",
      "type": "function"
    },
    {
      "inputs": [],
      "name": "token1",
      "outputs": [
        {
          "internalType": "address",
          "name": "",
          "type": "address"
        }
      ],
      "stateMutability": "view",
      "type": "function"
    },
    {
      "inputs": [],
      "name": "price0CumulativeLast",
      "outputs": [
        {
          "internalType": "uint256",
          "name": "",
          "type": "uint256"
        }
      ],
      "stateMutability": "view",
      "type": "function"
    },
    {
      "inputs": [],
      "name": "price1CumulativeLast",
      "outputs": [
        {
          "internalType": "uint256",
          "name": "",
          "type": "uint256"
        }
      ],
      "stateMutability": "view",
      "type": "function"
    },
    {
      "inputs": [],
      "name": "getReserves",
      "outputs": [
        {
          "internalType": "uint112",
          "name": "_reserve0",
          "type": "uint112"
        },
        {
          "internalType": "uint112",
          "name": "_reserve1",
          "type": "uint112"
        },
        {
          "internalType": "uint32",
          "name": "_blockTimestampLast",
          "type": "uint32"
        }
      ],
      "stateMutability": "view",
      "type": "function"
    },
    {
      "inputs": [],
      "name": "getDeposited",
      "outputs": [
        {
          "internalType": "uint256",
          "name": "",
          "type": "uint256"
        },
        {
          "internalType": "uint256",
          "name": "",
          "type": "uint256"
        }
      ],
      "stateMutability": "view",
      "type": "function"
    },
    {
      "inputs": [],
      "name": "getDummy",
      "outputs": [
        {
          "internalType": "uint256",
          "name": "",
          "type": "uint256"
        },
        {
          "internalType": "uint256",
          "name": "",
          "type": "uint256"
        }
      ],
      "stateMutability": "view",
      "type": "function"
    },
    {
      "inputs": [
        {
          "internalType": "address",
          "name": "_token0",
          "type": "address"
        },
        {
          "internalType": "address",
          "name": "_token1",
          "type": "address"
        }
      ],
      "name": "initialize",
      "outputs": [],
      "stateMutability": "nonpayable",
      "type": "function"
    },
    {
      "inputs": [
        {
          "internalType": "address",
          "name": "_feeTo",
          "type": "address"
        }
      ],
      "name": "setFeeTo",
      "outputs": [],
      "stateMutability": "nonpayable",
      "type": "function"
    },
    {
      "inputs": [
        {
          "internalType": "uint8",
          "name": "_rootKmul",
          "type": "uint8"
        }
      ],
      "name": "setRootKmul",
      "outputs": [],
      "stateMutability": "nonpayable",
      "type": "function"
    },
    {
      "inputs": [
        {
          "internalType": "uint8",
          "name": "_fee",
          "type": "uint8"
        }
      ],
      "name": "setFee",
      "outputs": [],
      "stateMutability": "nonpayable",
      "type": "function"
    },
    {
      "inputs": [
        {
          "internalType": "address",
          "name": "_swapHookAddress",
          "type": "address"
        }
      ],
      "name": "setSwapHook",
      "outputs": [],
      "stateMutability": "nonpayable",
      "type": "function"
    },
    {
      "inputs": [],
      "name": "getFeeTo",
      "outputs": [
        {
          "internalType": "address",
          "name": "",
          "type": "address"
        }
      ],
      "stateMutability": "view",
      "type": "function"
    },
    {
      "inputs": [
        {
          "internalType": "address",
          "name": "to",
          "type": "address"
        }
      ],
      "name": "mint",
      "outputs": [
        {
          "internalType": "uint256",
          "name": "liquidity",
          "type": "uint256"
        }
      ],
      "stateMutability": "nonpayable",
      "type": "function"
    },
    {
      "inputs": [
        {
          "internalType": "address",
          "name": "to",
          "type": "address"
        }
      ],
      "name": "burn",
      "outputs": [
        {
          "internalType": "uint256",
          "name": "amount0",
          "type": "uint256"
        },
        {
          "internalType": "uint256",
          "name": "amount1",
          "type": "uint256"
        }
      ],
      "stateMutability": "nonpayable",
      "type": "function"
    },
    {
      "inputs": [
        {
          "internalType": "uint256",
          "name": "amount0",
          "type": "uint256"
        },
        {
          "internalType": "uint256",
          "name": "amount1",
          "type": "uint256"
        }
      ],
      "name": "dummyMint",
      "outputs": [],
      "stateMutability": "nonpayable",
      "type": "function"
    },
    {
      "inputs": [
        {
          "internalType": "uint256",
          "name": "amount0",
          "type": "uint256"
        },
        {
          "internalType": "uint256",
          "name": "amount1",
          "type": "uint256"
        }
      ],
      "name": "dummyBurn",
      "outputs": [],
      "stateMutability": "nonpayable",
      "type": "function"
    },
    {
      "inputs": [
        {
          "internalType": "uint256",
          "name": "amount0Out",
          "type": "uint256"
        },
        {
          "internalType": "uint256",
          "name": "amount1Out",
          "type": "uint256"
        },
        {
          "internalType": "address",
          "name": "to",
          "type": "address"
        },
        {
          "internalType": "bytes",
          "name": "data",
          "type": "bytes"
        }
      ],
      "name": "swap",
      "outputs": [],
      "stateMutability": "nonpayable",
      "type": "function"
    },
    {
      "inputs": [
        {
          "internalType": "address",
          "name": "to",
          "type": "address"
        }
      ],
      "name": "skim",
      "outputs": [],
      "stateMutability": "nonpayable",
      "type": "function"
    },
    {
      "inputs": [],
      "name": "sync",
      "outputs": [],
      "stateMutability": "nonpayable",
      "type": "function"
    },
    {
      "inputs": [
        {
          "internalType": "uint8",
          "name": "tokenIndex",
          "type": "uint8"
        }
      ],
      "name": "balanceOfIndex",
      "outputs": [
        {
          "internalType": "uint256",
          "name": "balance",
          "type": "uint256"
        }
      ],
      "stateMutability": "view",
      "type": "function"
    },
    {
      "inputs": [
        {
          "internalType": "uint8",
          "name": "tokenIndex",
          "type": "uint8"
        }
      ],
      "name": "approveByIndex",
      "outputs": [],
      "stateMutability": "nonpayable",
      "type": "function"
    },
    {
      "inputs": [
        {
          "internalType": "uint8",
          "name": "tokenIndex",
          "type": "uint8"
        }
      ],
      "name": "unApproveByIndex",
      "outputs": [],
      "stateMutability": "nonpayable",
      "type": "function"
    },
    {
      "inputs": [
        {
          "internalType": "uint8",
          "name": "tokenIndex",
          "type": "uint8"
        },
        {
          "internalType": "address",
          "name": "vault",
          "type": "address"
        }
      ],
      "name": "setVaults",
      "outputs": [],
      "stateMutability": "nonpayable",
      "type": "function"
    },
    {
      "inputs": [
        {
          "internalType": "uint8",
          "name": "tokenIndex",
          "type": "uint8"
        },
        {
          "internalType": "uint256",
          "name": "amount",
          "type": "uint256"
        }
      ],
      "name": "depositSome",
      "outputs": [],
      "stateMutability": "nonpayable",
      "type": "function"
    },
    {
      "inputs": [
        {
          "internalType": "uint8",
          "name": "tokenIndex",
          "type": "uint8"
        }
      ],
      "name": "depositAll",
      "outputs": [],
      "stateMutability": "nonpayable",
      "type": "function"
    },
    {
      "inputs": [
        {
          "internalType": "uint8",
          "name": "tokenIndex",
          "type": "uint8"
        },
        {
          "internalType": "uint16",
          "name": "_redpositRatio",
          "type": "uint16"
        }
      ],
      "name": "setRedepositRatio",
      "outputs": [],
      "stateMutability": "nonpayable",
      "type": "function"
    },
    {
      "inputs": [
        {
          "internalType": "uint8",
          "name": "tokenIndex",
          "type": "uint8"
        },
        {
          "internalType": "uint256",
          "name": "amount",
          "type": "uint256"
        }
      ],
      "name": "withdraw",
      "outputs": [],
      "stateMutability": "nonpayable",
      "type": "function"
    },
    {
      "inputs": [
        {
          "internalType": "uint8",
          "name": "tokenIndex",
          "type": "uint8"
        }
      ],
      "name": "withdrawAll",
      "outputs": [],
      "stateMutability": "nonpayable",
      "type": "function"
    }
  ],
  "bytecode": "0x60c060405260036080819052620474c560ec1b60a090815262000026916000919062000144565b5060188054600560ff199091161761ff00191661030017905560016019553480156200005157600080fd5b50604080518082018252600f81526e23b7a9bbb0b8102628102a37b5b2b760891b6020918201528151808301835260018152603160f81b9082015281517f8b73c3c69bb8fe3d512ecc4cf759cc79239f7b179b0ffacaa9a75d522b39400f818301527fde22e3c4214ec38270761c459fd5ec8df4a49276f3eb279cee5548bef4f3e075818401527fc89efdaa54c0f20c7adf612882df0950f5a951637e0307cdcb4c672f298b8bc660608201524660808201523060a0808301919091528351808303909101815260c09091019092528151910120600455600680546001600160a01b0319163317905542601455620001e0565b828054600181600116156101000203166002900490600052602060002090601f016020900481019282601f106200018757805160ff1916838001178555620001b7565b82800160010185558215620001b7579182015b82811115620001b75782518255916020019190600101906200019a565b50620001c5929150620001c9565b5090565b5b80821115620001c55760008155600101620001ca565b6144b480620001f06000396000f3fe608060405234801561001057600080fd5b506004361061035d5760003560e01c8063683ab406116101d3578063b944884111610104578063d21220a7116100a2578063ddca3f431161007c578063ddca3f4314610a0e578063f1461c5a14610a16578063f46901ed14610a4f578063fff6cae914610a755761035d565b8063d21220a714610987578063d505accf1461098f578063dd62ed3e146109e05761035d565b8063bf370195116100de578063bf37019514610937578063c45a015514610957578063cb122a091461095f578063cf40fc9c1461097f5761035d565b8063b944884114610901578063ba9a7a5614610909578063bc25cf77146109115761035d565b806389afcb441161017157806395d89b411161014b57806395d89b411461086a578063963d9d2714610872578063a6284b94146108a1578063a9059cbb146108d55761035d565b806389afcb44146108075780638c64ea4a1461082d5780638ccbb4e91461084a5761035d565b806370a08231116101ad57806370a082311461078d5780637464fc3d146107b35780637ecebe00146107bb57806386d7f6b9146107e15761035d565b8063683ab406146107355780636a6278421461073d5780636ae979c1146107635761035d565b806320721020116102ad57806340f680551161024b5780635909c0d5116102255780635909c0d5146107155780635a3d54931461071d5780635f9f4734146107255780636611f5281461072d5761035d565b806340f68055146106a7578063485cc955146106c757806353654e85146106f55761035d565b8063313ce56711610287578063313ce5671461063b5780633644e515146106595780633d0b985f146106615780633f489914146106815761035d565b806320721020146105d757806323b872dd146105fd57806330adf81f146106335761035d565b8063094992e81161031a5780630ead8227116102f45780630ead82271461056b5780631387c4fd1461058b5780631661874f146105ac57806318160ddd146105cf5761035d565b8063094992e814610500578063095ea7b3146105235780630dfe1681146105635761035d565b8063017e7e5814610362578063022c0d9f1461038657806302d05d3f1461041457806306fdde031461041c5780630902f1ac14610499578063093e6227146104d1575b600080fd5b61036a610a7d565b604080516001600160a01b039092168252519081900360200190f35b6104126004803603608081101561039c57600080fd5b8135916020810135916001600160a01b0360408301351691908101906080810160608201356401000000008111156103d357600080fd5b8201836020820111156103e557600080fd5b8035906020019184600183028401116401000000008311171561040757600080fd5b509092509050610a8c565b005b61036a610f76565b610424610f85565b6040805160208082528351818301528351919283929083019185019080838360005b8381101561045e578181015183820152602001610446565b50505050905090810190601f16801561048b5780820380516001836020036101000a031916815260200191505b509250505060405180910390f35b6104a1610fb0565b604080516001600160701b03948516815292909316602083015263ffffffff168183015290519081900360600190f35b6104ee600480360360208110156104e757600080fd5b5035610fd7565b60408051918252519081900360200190f35b6104126004803603604081101561051657600080fd5b5080359060200135610feb565b61054f6004803603604081101561053957600080fd5b506001600160a01b0381351690602001356111b4565b604080519115158252519081900360200190f35b61036a6111cb565b6104126004803603602081101561058157600080fd5b503560ff166111e2565b610593611359565b6040805192835260208301919091528051918290030190f35b610412600480360360408110156105c257600080fd5b5080359060200135611363565b6104ee61151a565b610412600480360360408110156105ed57600080fd5b5060ff8135169060200135611520565b61054f6004803603606081101561061357600080fd5b506001600160a01b038135811691602081013590911690604001356115f2565b6104ee611686565b6106436116aa565b6040805160ff9092168252519081900360200190f35b6104ee6116af565b6104126004803603602081101561067757600080fd5b503560ff166116b5565b6104126004803603604081101561069757600080fd5b5060ff813516906020013561180b565b6104ee600480360360208110156106bd57600080fd5b503560ff166118d9565b610412600480360360408110156106dd57600080fd5b506001600160a01b03813581169160200135166119bd565b6104126004803603602081101561070b57600080fd5b503560ff16611d65565b6104ee611e32565b6104ee611e3f565b6104ee611e4a565b61036a611e50565b610643611f28565b6104ee6004803603602081101561075357600080fd5b50356001600160a01b0316611f31565b6104126004803603604081101561077957600080fd5b50803560ff16906020013561ffff16612344565b6104ee600480360360208110156107a357600080fd5b50356001600160a01b03166124d5565b6104ee6124e7565b6104ee600480360360208110156107d157600080fd5b50356001600160a01b03166124ed565b610412600480360360208110156107f757600080fd5b50356001600160a01b03166124ff565b6105936004803603602081101561081d57600080fd5b50356001600160a01b031661261d565b61036a6004803603602081101561084357600080fd5b503561284f565b6104126004803603602081101561086057600080fd5b503560ff1661286c565b6104246129b1565b6104126004803603604081101561088857600080fd5b50803560ff1690602001356001600160a01b0316612a3f565b6108be600480360360208110156108b757600080fd5b5035612b82565b6040805161ffff9092168252519081900360200190f35b61054f600480360360408110156108eb57600080fd5b506001600160a01b038135169060200135612bad565b61036a612bba565b6104ee612bc9565b6104126004803603602081101561092757600080fd5b50356001600160a01b0316612bcf565b6104126004803603602081101561094d57600080fd5b503560ff16612c4c565b61036a612d58565b6104126004803603602081101561097557600080fd5b503560ff16612d67565b610593612e83565b61036a612e9e565b610412600480360360e08110156109a557600080fd5b506001600160a01b03813581169160208101359091169060408101359060608101359060ff6080820135169060a08101359060c00135612ea9565b6104ee600480360360408110156109f657600080fd5b506001600160a01b03813581169160200135166130a8565b6106436130c5565b610a3360048036036020811015610a2c57600080fd5b50356130d3565b604080516001600160701b039092168252519081900360200190f35b61041260048036036020811015610a6557600080fd5b50356001600160a01b0316613103565b610412613211565b600f546001600160a01b031681565b601954600114610ad4576040805162461bcd60e51b815260206004820152600e60248201526d11dbd4ddd85c0e881313d0d2d15160921b604482015290519081900360640190fd5b600060195584151580610ae75750600084115b610b225760405162461bcd60e51b81526004018080602001828103825260228152602001806143666022913960400191505060405180910390fd5b600080610b2d610fb0565b5091509150816001600160701b031687108015610b525750806001600160701b031686105b610ba3576040805162461bcd60e51b815260206004820152601e60248201527f476f537761703a20494e53554646494349454e545f4c49515549444954590000604482015290519081900360640190fd5b60075460085460009182916001600160a01b03918216919081169089168214801590610be15750806001600160a01b0316896001600160a01b031614155b610c27576040805162461bcd60e51b8152602060048201526012602482015271476f537761703a20494e56414c49445f544f60701b604482015290519081900360640190fd5b8a15610c3957610c3960008a8d61329b565b8915610c4b57610c4b60018a8c61329b565b8615610cfd57886001600160a01b03166339815037338d8d8c8c6040518663ffffffff1660e01b815260040180866001600160a01b03168152602001858152602001848152602001806020018281038252848482818152602001925080828437600081840152601f19601f8201169050808301925050509650505050505050600060405180830381600087803b158015610ce457600080fd5b505af1158015610cf8573d6000803e3d6000fd5b505050505b6011546001600160a01b031615610d8957601154604080516309718a2d60e41b8152336004820152602481018e9052604481018d90526001600160a01b038c8116606483015291519190921691639718a2d091608480830192600092919082900301818387803b158015610d7057600080fd5b505af1158015610d84573d6000803e3d6000fd5b505050505b610d9360006118d9565b9350610d9f60016118d9565b92505050600089856001600160701b0316038311610dbe576000610dcd565b89856001600160701b03160383035b9050600089856001600160701b0316038311610dea576000610df9565b89856001600160701b03160383035b90506000821180610e0a5750600081115b610e455760405162461bcd60e51b81526004018080602001828103825260218152602001806144396021913960400191505060405180910390fd5b601854600090610e7490610e62908590610100900460ff1661364d565b610e6e876103e861364d565b906136ad565b601854909150600090610e9490610e62908590610100900460ff1661364d565b9050610eb9620f4240610eb36001600160701b038b8116908b1661364d565b9061364d565b610ec3838361364d565b1015610f02576040805162461bcd60e51b8152602060048201526009602482015268476f537761703a204b60b81b604482015290519081900360640190fd5b5050610f10848488886136ef565b60408051838152602081018390528082018d9052606081018c905290516001600160a01b038b169133917fd78ad95fa46c994b6551d0da85fc275fe613ce37657fb8d5e3d130840159d8229181900360800190a350506001601955505050505050505050565b6010546001600160a01b031681565b6040518060400160405280600f81526020016e23b7a9bbb0b8102628102a37b5b2b760891b81525081565b6012546013546001600160701b0380831693600160701b909304169163ffffffff90911690565b600c8160028110610fe457fe5b0154905081565b600660009054906101000a90046001600160a01b03166001600160a01b031663094b74156040518163ffffffff1660e01b815260040160206040518083038186803b15801561103957600080fd5b505afa15801561104d573d6000803e3d6000fd5b505050506040513d602081101561106357600080fd5b50516001600160a01b031633146110af576040805162461bcd60e51b81526020600482015260116024820152600080516020614388833981519152604482015290519081900360640190fd5b6019546001146110f7576040805162461bcd60e51b815260206004820152600e60248201526d11dbd4ddd85c0e881313d0d2d15160921b604482015290519081900360640190fd5b6000601981905580611107610fb0565b50600e8054600160701b6001600160701b031982166001600160701b039283168a9003831617818104831689900390921602600160701b600160e01b0319909116179055909250905061116e61115d60006118d9565b61116760016118d9565b84846136ef565b604080518581526020810185905281517ff5fc0dcb1d0b0dbad6c5cc3af98509d190f8584ebdc6bd07a5412fd99f14a21e929181900390910190a1505060016019555050565b60006111c1338484613892565b5060015b92915050565b60006007815b01546001600160a01b031690505b90565b600660009054906101000a90046001600160a01b03166001600160a01b031663094b74156040518163ffffffff1660e01b815260040160206040518083038186803b15801561123057600080fd5b505afa158015611244573d6000803e3d6000fd5b505050506040513d602081101561125a57600080fd5b50516001600160a01b031633146112a6576040805162461bcd60e51b81526020600482015260116024820152600080516020614388833981519152604482015290519081900360640190fd5b60078160ff16600281106112b657fe5b01546001600160a01b031663095ea7b3600960ff8416600281106112d657fe5b0154604080516001600160e01b031960e085901b1681526001600160a01b03909216600483015260006024830181905290516044808401936020939083900390910190829087803b15801561132a57600080fd5b505af115801561133e573d6000803e3d6000fd5b505050506040513d602081101561135457600080fd5b505050565b600c54600d549091565b600660009054906101000a90046001600160a01b03166001600160a01b031663094b74156040518163ffffffff1660e01b815260040160206040518083038186803b1580156113b157600080fd5b505afa1580156113c5573d6000803e3d6000fd5b505050506040513d60208110156113db57600080fd5b50516001600160a01b03163314611427576040805162461bcd60e51b81526020600482015260116024820152600080516020614388833981519152604482015290519081900360640190fd5b60195460011461146f576040805162461bcd60e51b815260206004820152600e60248201526d11dbd4ddd85c0e881313d0d2d15160921b604482015290519081900360640190fd5b600060198190558061147f610fb0565b50600e8054600160701b600160e01b03196001600160701b031982166001600160701b039283168a01831617908116600160701b91829004831689019092160217905590925090506114d461115d60006118d9565b604080518581526020810185905281517f1849a2930e313b738ae415140756b184d8aa974b6776bf3ca1864c1b57eb7a19929181900390910190a1505060016019555050565b60015481565b600660009054906101000a90046001600160a01b03166001600160a01b031663094b74156040518163ffffffff1660e01b815260040160206040518083038186803b15801561156e57600080fd5b505afa158015611582573d6000803e3d6000fd5b505050506040513d602081101561159857600080fd5b50516001600160a01b031633146115e4576040805162461bcd60e51b81526020600482015260116024820152600080516020614388833981519152604482015290519081900360640190fd5b6115ee82826138f4565b5050565b6001600160a01b038316600090815260036020908152604080832033845290915281205460001914611671576001600160a01b038416600090815260036020908152604080832033845290915290205461164c90836136ad565b6001600160a01b03851660009081526003602090815260408083203384529091529020555b61167c848484613a25565b5060019392505050565b7f6e71edae12b1b97f4d1f60370fef10105fa2faae0126114a169c64845d6126c981565b601281565b60045481565b600660009054906101000a90046001600160a01b03166001600160a01b031663094b74156040518163ffffffff1660e01b815260040160206040518083038186803b15801561170357600080fd5b505afa158015611717573d6000803e3d6000fd5b505050506040513d602081101561172d57600080fd5b50516001600160a01b03163314611779576040805162461bcd60e51b81526020600482015260116024820152600080516020614388833981519152604482015290519081900360640190fd5b6118088160078360ff166002811061178d57fe5b0154604080516370a0823160e01b815230600482015290516001600160a01b03909216916370a0823191602480820192602092909190829003018186803b1580156117d757600080fd5b505afa1580156117eb573d6000803e3d6000fd5b505050506040513d602081101561180157600080fd5b50516138f4565b50565b600660009054906101000a90046001600160a01b03166001600160a01b031663094b74156040518163ffffffff1660e01b815260040160206040518083038186803b15801561185957600080fd5b505afa15801561186d573d6000803e3d6000fd5b505050506040513d602081101561188357600080fd5b50516001600160a01b031633146118cf576040805162461bcd60e51b81526020600482015260116024820152600080516020614388833981519152604482015290519081900360640190fd5b6115ee8282613ad3565b60006111c5600e8360ff16600281106118ee57fe5b60029182820401919006600e029054906101000a90046001600160701b03166001600160701b03166119b7600c8560ff166002811061192957fe5b015460078660ff166002811061193b57fe5b0154604080516370a0823160e01b815230600482015290516001600160a01b03909216916370a0823191602480820192602092909190829003018186803b15801561198557600080fd5b505afa158015611999573d6000803e3d6000fd5b505050506040513d60208110156119af57600080fd5b505190613d6a565b90613d6a565b6006546001600160a01b03163314611a0a576040805162461bcd60e51b81526020600482015260116024820152600080516020614388833981519152604482015290519081900360640190fd5b600780546001600160a01b038085166001600160a01b031992831681179093556008805491851691909216179055604080516395d89b4160e01b815290516395d89b4191600480820192600092909190829003018186803b158015611a6e57600080fd5b505afa158015611a82573d6000803e3d6000fd5b505050506040513d6000823e601f3d908101601f191682016040526020811015611aab57600080fd5b8101908080516040519392919084640100000000821115611acb57600080fd5b908301906020820185811115611ae057600080fd5b8251640100000000811182820188101715611afa57600080fd5b82525081516020918201929091019080838360005b83811015611b27578181015183820152602001611b0f565b50505050905090810190601f168015611b545780820380516001836020036101000a031916815260200191505b50604052505050816001600160a01b03166395d89b416040518163ffffffff1660e01b815260040160006040518083038186803b158015611b9457600080fd5b505afa158015611ba8573d6000803e3d6000fd5b505050506040513d6000823e601f3d908101601f191682016040526020811015611bd157600080fd5b8101908080516040519392919084640100000000821115611bf157600080fd5b908301906020820185811115611c0657600080fd5b8251640100000000811182820188101715611c2057600080fd5b82525081516020918201929091019080838360005b83811015611c4d578181015183820152602001611c35565b50505050905090810190601f168015611c7a5780820380516001836020036101000a031916815260200191505b5060405250505060405160200180806323a6281d60e11b81525060040183805190602001908083835b60208310611cc25780518252601f199092019160209182019101611ca3565b6001836020036101000a03801982511681845116808217855250505050505090500180602d60f81b81525060010182805190602001908083835b60208310611d1b5780518252601f199092019160209182019101611cfc565b6001836020036101000a03801982511681845116808217855250505050505090500192505050604051602081830303815290604052600090805190602001906113549291906142d2565b600660009054906101000a90046001600160a01b03166001600160a01b031663094b74156040518163ffffffff1660e01b815260040160206040518083038186803b158015611db357600080fd5b505afa158015611dc7573d6000803e3d6000fd5b505050506040513d6020811015611ddd57600080fd5b50516001600160a01b03163314611e29576040805162461bcd60e51b81526020600482015260116024820152600080516020614388833981519152604482015290519081900360640190fd5b61180881613dc4565b60006015815b0154905090565b600060156001611e38565b60145481565b600f546000906001600160a01b031615611e765750600f546001600160a01b03166111df565b62278d00611e8f601454426136ad90919063ffffffff16565b1115611f1657600660009054906101000a90046001600160a01b03166001600160a01b031663017e7e586040518163ffffffff1660e01b815260040160206040518083038186803b158015611ee357600080fd5b505afa158015611ef7573d6000803e3d6000fd5b505050506040513d6020811015611f0d57600080fd5b505190506111df565b506010546001600160a01b03166111df565b60185460ff1681565b6000601954600114611f7b576040805162461bcd60e51b815260206004820152600e60248201526d11dbd4ddd85c0e881313d0d2d15160921b604482015290519081900360640190fd5b6000601981905580611f8b610fb0565b50915091506000611f9c60006118d9565b90506000611faa60016118d9565b90506000611fc1836001600160701b0387166136ad565b90506000611fd8836001600160701b0387166136ad565b600e546001600160701b0380821690980397600160701b909104169095039490506120038686613e53565b600154806121f25760065460408051637cd07e4760e01b815290516000926001600160a01b031691637cd07e47916004808301926020929190829003018186803b15801561205057600080fd5b505afa158015612064573d6000803e3d6000fd5b505050506040513d602081101561207a57600080fd5b50519050336001600160a01b038216141561215557806001600160a01b03166340dc0e376040518163ffffffff1660e01b815260040160206040518083038186803b1580156120c857600080fd5b505afa1580156120dc573d6000803e3d6000fd5b505050506040513d60208110156120f257600080fd5b50519850881580159061210757506000198914155b612150576040805162461bcd60e51b81526020600482015260156024820152744261642064657369726564206c697175696469747960581b604482015290519081900360640190fd5b6121d1565b6001600160a01b038116156121aa576040805162461bcd60e51b815260206004820152601660248201527526bab9ba103737ba103430bb329036b4b3b930ba37b960511b604482015290519081900360640190fd5b6121c26103e8610e6e6121bd878761364d565b613f07565b98506121d160006103e8613f59565b50601080546001600160a01b0319166001600160a01b038b16179055612235565b6122326001600160701b038816612209858461364d565b8161221057fe5b046001600160701b038816612225858561364d565b8161222c57fe5b04613fe4565b97505b600088116122745760405162461bcd60e51b815260040180806020018281038252602581526020018061445a6025913960400191505060405180910390fd5b61227e8989613f59565b600e546001600160701b038082169890980197600160701b9091041695909501946122ab858589896136ef565b6122f5600e60015b600281049190910154601254600e80546001600160701b03908116818416038116946001169091026101000a9092048216600160701b9091048216031661364d565b6017556040805184815260208101849052815133927f4c209b5fc8ad50758f13e2e1088ba56a560dff690a1c6fef26394f4c03821c4f928290030190a250506001601955509395945050505050565b600660009054906101000a90046001600160a01b03166001600160a01b031663094b74156040518163ffffffff1660e01b815260040160206040518083038186803b15801561239257600080fd5b505afa1580156123a6573d6000803e3d6000fd5b505050506040513d60208110156123bc57600080fd5b50516001600160a01b03163314612408576040805162461bcd60e51b81526020600482015260116024820152600080516020614388833981519152604482015290519081900360640190fd5b6103e88161ffff161115612455576040805162461bcd60e51b815260206004820152600f60248201526e726174696f20746f6f206c6172676560881b604482015290519081900360640190fd5b80600b8360ff166002811061246657fe5b601091828204019190066002026101000a81548161ffff021916908361ffff1602179055507f96c0eef22a7bb295ea8c8b81d2d13df8b0014977980969a2869fc38f9ad6a2938282604051808360ff1681526020018261ffff1681526020019250505060405180910390a15050565b60026020526000908152604090205481565b60175481565b60056020526000908152604090205481565b600660009054906101000a90046001600160a01b03166001600160a01b031663094b74156040518163ffffffff1660e01b815260040160206040518083038186803b15801561254d57600080fd5b505afa158015612561573d6000803e3d6000fd5b505050506040513d602081101561257757600080fd5b50516001600160a01b031633146125c3576040805162461bcd60e51b81526020600482015260116024820152600080516020614388833981519152604482015290519081900360640190fd5b601180546001600160a01b0319166001600160a01b03838116919091179182905560408051929091168252517fe638462efc3e524a1f003c0ae818bf16b83413b4fa820e3ae464486d8fb65d37916020908290030190a150565b600080601954600114612668576040805162461bcd60e51b815260206004820152600e60248201526d11dbd4ddd85c0e881313d0d2d15160921b604482015290519081900360640190fd5b6000601981905580612678610fb0565b50909250905060006126b9600e825b60029182820401919006600e029054906101000a90046001600160701b03166001600160701b0316610e6e60006118d9565b905060006126ef600e60015b60028104909101546001600160701b03600e6001938416026101000a9091041690610e6e906118d9565b30600090815260026020526040902054600e5491925090612727906001600160701b03808216880391600160701b9004168603613e53565b60015480612735838661364d565b8161273c57fe5b0497508061274a838561364d565b8161275157fe5b0496506000881180156127645750600087115b61279f5760405162461bcd60e51b81526004018080602001828103825260258152602001806143c96025913960400191505060405180910390fd5b6127a93083613ffa565b6127b560008a8a61329b565b6127c160018a8961329b565b6127cb60006118d9565b93506127d760016118d9565b92506127e5848488886136ef565b6127f1600e60016122b3565b601755604080518981526020810189905281516001600160a01b038c169233927fdccd412f0b1252819cb1fd330b93224ca42612892bb3f4f789976e6d81936496929081900390910190a35050505050506001601981905550915091565b6009816002811061285c57fe5b01546001600160a01b0316905081565b600660009054906101000a90046001600160a01b03166001600160a01b031663094b74156040518163ffffffff1660e01b815260040160206040518083038186803b1580156128ba57600080fd5b505afa1580156128ce573d6000803e3d6000fd5b505050506040513d60208110156128e457600080fd5b50516001600160a01b03163314612930576040805162461bcd60e51b81526020600482015260116024820152600080516020614388833981519152604482015290519081900360640190fd5b60078160ff166002811061294057fe5b01546001600160a01b031663095ea7b3600960ff84166002811061296057fe5b0154604080516001600160e01b031960e085901b1681526001600160a01b03909216600483015260001960248301525160448083019260209291908290030181600087803b15801561132a57600080fd5b6000805460408051602060026001851615610100026000190190941693909304601f81018490048402820184019092528181529291830182828015612a375780601f10612a0c57610100808354040283529160200191612a37565b820191906000526020600020905b815481529060010190602001808311612a1a57829003601f168201915b505050505081565b600660009054906101000a90046001600160a01b03166001600160a01b031663094b74156040518163ffffffff1660e01b815260040160206040518083038186803b158015612a8d57600080fd5b505afa158015612aa1573d6000803e3d6000fd5b505050506040513d6020811015612ab757600080fd5b50516001600160a01b03163314612b03576040805162461bcd60e51b81526020600482015260116024820152600080516020614388833981519152604482015290519081900360640190fd5b8060098360ff1660028110612b1457fe5b0180546001600160a01b0319166001600160a01b0392909216919091179055612b3c8261286c565b6040805160ff8416815290516001600160a01b038316917fed5b80965e7914a23eed5a1477186006b58152a664148244bf6f59200ca72f94919081900360200190a25050565b600b8160028110612b8f57fe5b60109182820401919006600202915054906101000a900461ffff1681565b60006111c1338484613a25565b6011546001600160a01b031681565b6103e881565b601954600114612c17576040805162461bcd60e51b815260206004820152600e60248201526d11dbd4ddd85c0e881313d0d2d15160921b604482015290519081900360640190fd5b60006019819055612c339082612c2e601283612687565b61329b565b612c44600182612c2e6012836126c5565b506001601955565b600660009054906101000a90046001600160a01b03166001600160a01b031663094b74156040518163ffffffff1660e01b815260040160206040518083038186803b158015612c9a57600080fd5b505afa158015612cae573d6000803e3d6000fd5b505050506040513d6020811015612cc457600080fd5b50516001600160a01b03163314612d10576040805162461bcd60e51b81526020600482015260116024820152600080516020614388833981519152604482015290519081900360640190fd5b6018805460ff831660ff19909116811790915560408051918252517f9dfa9ec58cc7c3de445921f65dcb418d4dfa21c5d475f5f377abc6a02c325da39181900360200190a150565b6006546001600160a01b031681565b600660009054906101000a90046001600160a01b03166001600160a01b031663094b74156040518163ffffffff1660e01b815260040160206040518083038186803b158015612db557600080fd5b505afa158015612dc9573d6000803e3d6000fd5b505050506040513d6020811015612ddf57600080fd5b50516001600160a01b03163314612e2b576040805162461bcd60e51b81526020600482015260116024820152600080516020614388833981519152604482015290519081900360640190fd5b6018805460ff80841661010090810261ff00199093169290921792839055604080519290930416815290517f3417887ae5fbc941092ff601511bc0f4e3f14ae835bb881189b4c8148c6512699181900360200190a150565b600e546001600160701b0380821692600160701b9092041690565b6000600760016111d1565b42841015612ef0576040805162461bcd60e51b815260206004820152600f60248201526e11dbd4ddd85c0e8811561412549151608a1b604482015290519081900360640190fd5b6004546001600160a01b0380891660008181526005602090815260408083208054600180820190925582517f6e71edae12b1b97f4d1f60370fef10105fa2faae0126114a169c64845d6126c98186015280840196909652958d166060860152608085018c905260a085019590955260c08085018b90528151808603909101815260e08501825280519083012061190160f01b6101008601526101028501969096526101228085019690965280518085039096018652610142840180825286519683019690962095839052610162840180825286905260ff89166101828501526101a284018890526101c28401879052519193926101e280820193601f1981019281900390910190855afa15801561300b573d6000803e3d6000fd5b5050604051601f1901519150506001600160a01b038116158015906130415750886001600160a01b0316816001600160a01b0316145b613092576040805162461bcd60e51b815260206004820152601960248201527f476f537761703a20494e56414c49445f5349474e415455524500000000000000604482015290519081900360640190fd5b61309d898989613892565b505050505050505050565b600360209081526000928352604080842090915290825290205481565b601854610100900460ff1681565b600e81600281106130e057fe5b60029182820401919006600e02915054906101000a90046001600160701b031681565b600660009054906101000a90046001600160a01b03166001600160a01b031663094b74156040518163ffffffff1660e01b815260040160206040518083038186803b15801561315157600080fd5b505afa158015613165573d6000803e3d6000fd5b505050506040513d602081101561317b57600080fd5b50516001600160a01b031633146131c7576040805162461bcd60e51b81526020600482015260116024820152600080516020614388833981519152604482015290519081900360640190fd5b600f80546001600160a01b0319166001600160a01b0383169081179091556040517f9887df018dfa75103faf0f1388028e55a1124783c285d8d2cbcf62a067a6b84490600090a250565b601954600114613259576040805162461bcd60e51b815260206004820152600e60248201526d11dbd4ddd85c0e881313d0d2d15160921b604482015290519081900360640190fd5b600060198190555061329461326e60006118d9565b61327860016118d9565b6012546001600160701b0380821691600160701b9004166136ef565b6001601955565b600060078460ff16600281106132ad57fe5b0154604080516370a0823160e01b815230600482015290516001600160a01b03909216916370a0823191602480820192602092909190829003018186803b1580156132f757600080fd5b505afa15801561330b573d6000803e3d6000fd5b505050506040513d602081101561332157600080fd5b5051905060006060838310156134a45761333a86613dc4565b60078660ff166002811061334a57fe5b015460408051808201825260198152787472616e7366657228616464726573732c75696e743235362960381b60209182015281516001600160a01b03898116602483015260448083018a9052845180840390910181526064909201845291810180516001600160e01b031663a9059cbb60e01b178152925181519290941693909290918291908083835b602083106133f35780518252601f1990920191602091820191016133d4565b6001836020036101000a0380198251168184511680821785525050505050509050019150506000604051808303816000865af19150503d8060008114613455576040519150601f19603f3d011682016040523d82523d6000602084013e61345a565b606091505b5090925090506000600b60ff88166002811061347257fe5b601091828204019190066002029054906101000a900461ffff1661ffff16111561349f5761349f8661408b565b6135cb565b60078660ff16600281106134b457fe5b015460408051808201825260198152787472616e7366657228616464726573732c75696e743235362960381b60209182015281516001600160a01b03898116602483015260448083018a9052845180840390910181526064909201845291810180516001600160e01b031663a9059cbb60e01b178152925181519290941693909290918291908083835b6020831061355d5780518252601f19909201916020918201910161353e565b6001836020036101000a0380198251168184511680821785525050505050509050019150506000604051808303816000865af19150503d80600081146135bf576040519150601f19603f3d011682016040523d82523d6000602084013e6135c4565b606091505b5090925090505b8180156135f45750805115806135f457508080602001905160208110156135f157600080fd5b50515b613645576040805162461bcd60e51b815260206004820152601760248201527f476f537761703a205452414e534645525f4641494c4544000000000000000000604482015290519081900360640190fd5b505050505050565b60008261365c575060006111c5565b8282028284828161366957fe5b04146136a65760405162461bcd60e51b81526004018080602001828103825260218152602001806143a86021913960400191505060405180910390fd5b9392505050565b60006136a683836040518060400160405280601e81526020017f536166654d6174683a207375627472616374696f6e206f766572666c6f770000815250614162565b6001600160701b03841180159061370d57506001600160701b038311155b613751576040805162461bcd60e51b815260206004820152601060248201526f476f537761703a204f564552464c4f5760801b604482015290519081900360640190fd5b60135463ffffffff42811691811682039081161580159061377a57506001600160701b03841615155b801561378e57506001600160701b03831615155b156137f7578063ffffffff166137b6856137a7866141f9565b6001600160e01b03169061420b565b6001600160e01b03160260156000018054909101905563ffffffff81166137e0846137a7876141f9565b6001600160e01b0316026015600101805490910190555b601280546001600160701b0319166001600160701b0388811691909117600160701b600160e01b031916600160701b888316810291909117928390556013805463ffffffff191663ffffffff871617905560408051848416815291909304909116602082015281517f1c411e9a96e071241c2f21f7726b17ae89e3cab4c78be50e062b03a9fffbbad1929181900390910190a1505050505050565b6001600160a01b03808416600081815260036020908152604080832094871680845294825291829020859055815185815291517f8c5be1e5ebec7d5bd14f71427d1e84f3dd0314c0f7b2291e5b200ac8c7c3b9259281900390910190a3505050565b600081116139335760405162461bcd60e51b81526004018080602001828103825260258152602001806143ee6025913960400191505060405180910390fd5b61394f81600c8460ff166002811061394757fe5b015490613d6a565b600c8360ff166002811061395f57fe5b0155600960ff83166002811061397157fe5b01546040805163b6b55f2560e01b81526004810184905290516001600160a01b039092169163b6b55f259160248082019260009290919082900301818387803b1580156139bd57600080fd5b505af11580156139d1573d6000803e3d6000fd5b505050507f17026447a096c4e01a7a488bcd1fc234cfd1a7bff9bbcba205240548eb90a47f600c600060028110613a0457fe5b0154600d546040805192835260208301919091528051918290030190a15050565b6001600160a01b038316600090815260026020526040902054613a4890826136ad565b6001600160a01b038085166000908152600260205260408082209390935590841681522054613a779082613d6a565b6001600160a01b0380841660008181526002602090815260409182902094909455805185815290519193928716927fddf252ad1be2c89b69c2b068fc378daa952ba7f163c4a11628f55a4df523b3ef92918290030190a3505050565b60008111613b125760405162461bcd60e51b81526004018080602001828103825260268152602001806144136026913960400191505060405180910390fd5b600060078360ff1660028110613b2457fe5b0154604080516370a0823160e01b815230600482015290516001600160a01b03909216916370a0823191602480820192602092909190829003018186803b158015613b6e57600080fd5b505afa158015613b82573d6000803e3d6000fd5b505050506040513d6020811015613b9857600080fd5b50519050600960ff841660028110613bac57fe5b015460408051632e1a7d4d60e01b81526004810185905290516001600160a01b0390921691632e1a7d4d9160248082019260009290919082900301818387803b158015613bf857600080fd5b505af1158015613c0c573d6000803e3d6000fd5b505050506000613ca28260078660ff1660028110613c2657fe5b0154604080516370a0823160e01b815230600482015290516001600160a01b03909216916370a0823191602480820192602092909190829003018186803b158015613c7057600080fd5b505afa158015613c84573d6000803e3d6000fd5b505050506040513d6020811015613c9a57600080fd5b5051906136ad565b9050600c8460ff1660028110613cb457fe5b01548111613cdb5780600c8560ff1660028110613ccd57fe5b018054919091039055613d23565b6000613cf9600c8660ff1660028110613cf057fe5b015483906136ad565b90506000600c8660ff1660028110613d0d57fe5b0155613d2185613d1b611e50565b8361329b565b505b600c54600d5460408051928352602083019190915280517f17026447a096c4e01a7a488bcd1fc234cfd1a7bff9bbcba205240548eb90a47f9281900390910190a150505050565b6000828201838110156136a6576040805162461bcd60e51b815260206004820152601b60248201527f536166654d6174683a206164646974696f6e206f766572666c6f770000000000604482015290519081900360640190fd5b6118088160098360ff1660028110613dd857fe5b0154604080516370a0823160e01b815230600482015290516001600160a01b03909216916370a0823191602480820192602092909190829003018186803b158015613e2257600080fd5b505afa158015613e36573d6000803e3d6000fd5b505050506040513d6020811015613e4c57600080fd5b5051613ad3565b6017548015801590613e69575060185460ff1615155b15611354576000613e896121bd6001600160701b0386811690861661364d565b90506000613e9683613f07565b905080821115613f00576000613eb8613eaf84846136ad565b6001549061364d565b601854909150600090613ed59084906119b790879060ff1661364d565b90506000818381613ee257fe5b0490508015613efc57613efc613ef6611e50565b82613f59565b5050505b5050505050565b60006003821115613f4a575080600160028204015b81811015613f4457809150600281828581613f3357fe5b040181613f3c57fe5b049050613f1c565b50613f54565b8115613f54575060015b919050565b600154613f669082613d6a565b6001556001600160a01b038216600090815260026020526040902054613f8c9082613d6a565b6001600160a01b03831660008181526002602090815260408083209490945583518581529351929391927fddf252ad1be2c89b69c2b068fc378daa952ba7f163c4a11628f55a4df523b3ef9281900390910190a35050565b6000818310613ff357816136a6565b5090919050565b6001600160a01b03821660009081526002602052604090205461401d90826136ad565b6001600160a01b03831660009081526002602052604090205560015461404390826136ad565b6001556040805182815290516000916001600160a01b038516917fddf252ad1be2c89b69c2b068fc378daa952ba7f163c4a11628f55a4df523b3ef9181900360200190a35050565b60006141566103e8614150600b8560ff16600281106140a657fe5b601091828204019190066002029054906101000a900461ffff1661ffff1660078660ff16600281106140d457fe5b0154604080516370a0823160e01b815230600482015290516001600160a01b03909216916370a0823191602480820192602092909190829003018186803b15801561411e57600080fd5b505afa158015614132573d6000803e3d6000fd5b505050506040513d602081101561414857600080fd5b50519061364d565b90614230565b90506115ee82826138f4565b600081848411156141f15760405162461bcd60e51b81526004018080602001828103825283818151815260200191508051906020019080838360005b838110156141b657818101518382015260200161419e565b50505050905090810190601f1680156141e35780820380516001836020036101000a031916815260200191505b509250505060405180910390fd5b505050900390565b6001600160701b0316600160701b0290565b60006001600160701b0382166001600160e01b0384168161422857fe5b049392505050565b60006136a683836040518060400160405280601a81526020017f536166654d6174683a206469766973696f6e206279207a65726f000000000000815250600081836142bc5760405162461bcd60e51b81526020600482018181528351602484015283519092839260449091019190850190808383600083156141b657818101518382015260200161419e565b5060008385816142c857fe5b0495945050505050565b828054600181600116156101000203166002900490600052602060002090601f016020900481019282601f1061431357805160ff1916838001178555614340565b82800160010185558215614340579182015b82811115614340578251825591602001919060010190614325565b5061434c929150614350565b5090565b5b8082111561434c576000815560010161435156fe476f537761703a20494e53554646494349454e545f4f55545055545f414d4f554e54476f537761703a20464f5242494444454e000000000000000000000000000000536166654d6174683a206d756c7469706c69636174696f6e206f766572666c6f77476f537761703a20494e53554646494349454e545f4c49515549444954595f4255524e45446465706f73697420616d6f756e74206d7573742062652067726561746572207468616e2030776974686472617720616d6f756e74206d7573742062652067726561746572207468616e2030476f537761703a20494e53554646494349454e545f494e5055545f414d4f554e54476f537761703a20494e53554646494349454e545f4c49515549444954595f4d494e544544a2646970667358221220c4a619fe80d8fc5e6414df5f935b1c47df034a4b48ce23c1c557c272e073af4164736f6c634300060c0033",
  "immutableReferences": {},
  "source": "// SPDX-License-Identifier: MIT\npragma solidity =0.6.12;\n\nimport '@openzeppelin/contracts/token/ERC20/IERC20.sol';\nimport './GoSwapERC20.sol';\nimport './libraries/Math.sol';\nimport './libraries/UQ112x112.sol';\nimport './interfaces/IGoSwapFactory.sol';\nimport './interfaces/IGoSwapPair.sol';\nimport './interfaces/IGoSwapCallee.sol';\n\n/**\n * @title \n */\ninterface IMigrator {\n    // Return the desired amount of liquidity token that the migrator wants.\n    function desiredLiquidity() external view returns (uint256);\n}\n\n/**\n * @title \n */\ninterface IGoSwapHook {\n    function swapHook(\n        address sender,\n        uint256 amount0Out,\n        uint256 amount1Out,\n        address to\n    ) external;\n}\n\n/**\n * @title \n */\ninterface IVault {\n    function totalSupply() external view returns (uint256);\n\n    function balanceOf(address owner) external view returns (uint256);\n\n    function deposit(uint256) external;\n\n    function withdraw(uint256) external;\n\n    function balance() external view returns (uint256);\n}\n\n/**\n * @title GoSwap \n */\ncontract GoSwapPair is GoSwapERC20 {\n    using SafeMath for uint256;\n    using UQ112x112 for uint224;\n\n    /// @notice  = 1000\n    uint256 public constant MINIMUM_LIQUIDITY = 10**3;\n    /// @dev transferselector\n    bytes4 private constant SELECTOR = bytes4(keccak256(bytes('transfer(address,uint256)')));\n\n    /// @notice \n    address public factory;\n    /// @dev token\n    address[2] private tokens;\n\n    /// @notice \n    address[2] public vaults;\n    /// @notice \n    uint16[2] public redepositRatios;\n    /// @notice \n    uint256[2] public depositeds;\n    /// @notice \n    uint112[2] public dummys;\n\n    /// @notice \n    address public feeTo; // feeTo\n    /// @notice \n    address public creator; // creator\n    /// @notice \n    address public swapHookAddress;\n\n    /// @dev token\n    uint112[2] private reserves; // uses single storage slot, accessible via getReserves\n    /// @dev \n    uint32 private blockTimestampLast; // uses single storage slot, accessible via getReserves\n\n    /// @notice \n    uint256 public birthday;\n    /// @dev token\n    uint256[2] private priceCumulativeLasts;\n    /// @notice K,0*1\n    uint256 public kLast; // reserve0 * reserve1, as of immediately after the most recent liquidity event\n    /// @notice sqrtk1/6\n    uint8 public rootKmul = 5; // mint liquidity equivalent to 1/6th of the growth in sqrt(k)\n    /// @notice 0.3%\n    uint8 public fee = 3; // 0.3%\n\n    /// @dev \n    uint256 private unlocked = 1;\n\n    /**\n     * @dev :\n     * @param sender \n     * @param amount0 0\n     * @param amount1 1\n     */\n    event Mint(address indexed sender, uint256 amount0, uint256 amount1);\n    /**\n     * @dev :\n     * @param sender \n     * @param amount0 0\n     * @param amount1 1\n     * @param to to\n     */\n    event Burn(address indexed sender, uint256 amount0, uint256 amount1, address indexed to);\n    /**\n     * @dev :\n     * @param sender \n     * @param amount0In 0\n     * @param amount1In 1\n     * @param amount0Out 0\n     * @param amount1Out 1\n     * @param to to\n     */\n    event Swap(\n        address indexed sender,\n        uint256 amount0In,\n        uint256 amount1In,\n        uint256 amount0Out,\n        uint256 amount1Out,\n        address indexed to\n    );\n    /**\n     * @dev :\n     * @param reserve0 0\n     * @param reserve1 1\n     */\n    event Sync(uint112 reserve0, uint112 reserve1);\n\n    /**\n     * @dev :\n     * @param deposited0 0\n     * @param deposited1 1\n     */\n    event DepositedUpdated(uint256 deposited0, uint256 deposited1);\n\n    /**\n     * @dev :\n     * @param tokenIndex token\n     * @param vault \n     */\n    event VaultUpdated(uint8 tokenIndex, address indexed vault);\n    /**\n     * @dev :\n     * @param tokenIndex token\n     * @param ratio \n     */\n    event RedepositRatioUpdated(uint8 tokenIndex, uint16 ratio);\n\n    /**\n     * @dev :\n     * @param amount0 0\n     * @param amount1 1\n     */\n    event DummyMint(uint256 amount0, uint256 amount1);\n\n    /**\n     * @dev :\n     * @param amount0 0\n     * @param amount1 1\n     */\n    event DummyBurn(uint256 amount0, uint256 amount1);\n\n    /**\n     * @dev :\n     * @param feeTo \n     */\n    event FeeToUpdated(address indexed feeTo);\n\n    /**\n     * @dev :K\n     * @param rootKmul K\n     */\n    event RootKmulUpdated(uint8 rootKmul);\n\n    /**\n     * @dev :\n     * @param swapHookAddress \n     */\n    event SwapHookUpdated(address swapHookAddress);\n\n\n    /**\n     * @dev :\n     * @param fee \n     */\n    event FeeUpdated(uint8 fee);\n\n    /**\n     * @dev :\n     */\n    modifier lock() {\n        require(unlocked == 1, 'GoSwap: LOCKED');\n        unlocked = 0;\n        _;\n        unlocked = 1;\n    }\n\n    /**\n     * @dev :FeeToSetter\n     */\n    modifier onlyFeeToSetter() {\n        // FeeToSetter\n        require(msg.sender == IGoSwapFactory(factory).feeToSetter(), 'GoSwap: FORBIDDEN');\n        _;\n    }\n\n    /**\n     * @dev token0\n     */\n    function token0() public view returns (address) {\n        return tokens[0];\n    }\n\n    /**\n     * @dev token1\n     */\n    function token1() public view returns (address) {\n        return tokens[1];\n    }\n\n    /**\n     * @dev price0CumulativeLast\n     */\n    function price0CumulativeLast() public view returns (uint256) {\n        return priceCumulativeLasts[0];\n    }\n\n    /**\n     * @dev price1CumulativeLast\n     */\n    function price1CumulativeLast() public view returns (uint256) {\n        return priceCumulativeLasts[1];\n    }\n\n    /**\n     * @dev \n     * @return _reserve0 0\n     * @return _reserve1 1\n     * @return _blockTimestampLast \n     */\n    function getReserves()\n        public\n        view\n        returns (\n            uint112 _reserve0,\n            uint112 _reserve1,\n            uint32 _blockTimestampLast\n        )\n    {\n        _reserve0 = reserves[0];\n        _reserve1 = reserves[1];\n        _blockTimestampLast = blockTimestampLast;\n    }\n\n    /**\n     * @dev \n     * @return 0\n     * @return 1\n     */\n    function getDeposited() public view returns (uint256, uint256) {\n        return (depositeds[0], depositeds[1]);\n    }\n\n    /**\n     * @dev \n     * @return 0\n     * @return 1\n     */\n    function getDummy() public view returns (uint256, uint256) {\n        return (dummys[0], dummys[1]);\n    }\n\n    /**\n     * @dev \n     * @param tokenIndex token\n     * @param to    to\n     * @param value \n     */\n    function _safeTransfer(\n        uint8 tokenIndex,\n        address to,\n        uint256 value\n    ) private {\n        // token\n        uint256 balance = IERC20(tokens[tokenIndex]).balanceOf(address(this));\n        bool success;\n        bytes memory data;\n        // <\n        if (balance < value) {\n            // \n            _withdrawAll(tokenIndex);\n            //tokentransfer\n            (success, data) = tokens[tokenIndex].call(abi.encodeWithSelector(SELECTOR, to, value));\n            // >0\n            if (redepositRatios[tokenIndex] > 0) {\n                // \n                _redeposit(tokenIndex);\n            }\n        } else {\n            //tokentransfer\n            (success, data) = tokens[tokenIndex].call(abi.encodeWithSelector(SELECTOR, to, value));\n        }\n        //truedata0true\n        require(success && (data.length == 0 || abi.decode(data, (bool))), 'GoSwap: TRANSFER_FAILED');\n    }\n\n    /**\n     * @dev \n     */\n    constructor() public {\n        //factory\n        factory = msg.sender;\n        birthday = block.timestamp;\n    }\n\n    /**\n     * @dev ,\n     * @param _token0 token0\n     * @param _token1 token1\n     */\n    function initialize(address _token0, address _token1) external {\n        require(msg.sender == factory, 'GoSwap: FORBIDDEN'); // sufficient check\n        tokens[0] = _token0;\n        tokens[1] = _token1;\n        symbol = string(abi.encodePacked('GLP:', IERC20GoSwap(_token0).symbol(), '-', IERC20GoSwap(_token1).symbol()));\n    }\n\n    /**\n     * @dev \n     * @param _feeTo \n     */\n    function setFeeTo(address _feeTo) external onlyFeeToSetter {\n        feeTo = _feeTo;\n        emit FeeToUpdated(_feeTo);\n    }\n\n    /**\n     * @dev K\n     * @param _rootKmul K\n     */\n    function setRootKmul(uint8 _rootKmul) external onlyFeeToSetter {\n        rootKmul = _rootKmul;\n        emit RootKmulUpdated(_rootKmul);\n    }\n\n    /**\n     * @dev \n     * @param _fee \n     */\n    function setFee(uint8 _fee) external onlyFeeToSetter {\n        fee = _fee;\n        emit FeeUpdated(fee);\n    }\n\n    /**\n     * @dev \n     * @param _swapHookAddress \n     */\n    function setSwapHook(address _swapHookAddress) external onlyFeeToSetter {\n        swapHookAddress = _swapHookAddress;\n        emit SwapHookUpdated(swapHookAddress);\n    }\n\n    /**\n     * @dev \n     * @return \n     */\n    function getFeeTo() public view returns (address) {\n        // feeTo0,feeTo\n        if (feeTo != address(0)) {\n            return feeTo;\n            // 30,feeTo\n        } else if (block.timestamp.sub(birthday) > 30 days) {\n            return IGoSwapFactory(factory).feeTo();\n            // feeTo\n        } else {\n            return creator;\n        }\n    }\n\n    /**\n     * @dev \n     * @param balance0 0\n     * @param balance1  1\n     * @param _reserve0 0\n     * @param _reserve1 1\n     */\n    function _update(\n        uint256 balance0,\n        uint256 balance1,\n        uint112 _reserve0,\n        uint112 _reserve1\n    ) private {\n        //01uint112\n        require(balance0 <= uint112(-1) && balance1 <= uint112(-1), 'GoSwap: OVERFLOW');\n        //,uint32\n        uint32 blockTimestamp = uint32(block.timestamp % 2**32);\n        //\n        uint32 timeElapsed = blockTimestamp - blockTimestampLast; // overflow is desired\n        //>0  0,10\n        if (timeElapsed > 0 && _reserve0 != 0 && _reserve1 != 0) {\n            // * never overflows, and + overflow is desired\n            //0 += 1 * 2**112 / 0 * \n            priceCumulativeLasts[0] += uint256(UQ112x112.encode(_reserve1).uqdiv(_reserve0)) * timeElapsed;\n            //1 += 0 * 2**112 / 1 * \n            priceCumulativeLasts[1] += uint256(UQ112x112.encode(_reserve0).uqdiv(_reserve1)) * timeElapsed;\n        }\n        //0,10,1\n        reserves[0] = uint112(balance0);\n        reserves[1] = uint112(balance1);\n        //\n        blockTimestampLast = blockTimestamp;\n        //\n        emit Sync(reserves[0], reserves[1]);\n    }\n\n    /**\n     * @dev 1/6sqrtk\n     * @param _reserve0 0\n     * @param _reserve1 1\n     */\n    function _mintFee(uint112 _reserve0, uint112 _reserve1) private {\n        //k\n        uint256 _kLast = kLast; // gas savings\n        //k0\n        if (_kLast != 0 && rootKmul > 0) {\n            //(_reserve0*_reserve1)\n            uint256 rootK = Math.sqrt(uint256(_reserve0).mul(_reserve1));\n            //k\n            uint256 rootKLast = Math.sqrt(_kLast);\n            //rootK>rootKLast\n            if (rootK > rootKLast) {\n                // = erc20 * (rootK - rootKLast)\n                uint256 numerator = totalSupply.mul(rootK.sub(rootKLast));\n                // = rootK * 5 + rootKLast\n                uint256 denominator = rootK.mul(rootKmul).add(rootKLast);\n                // =  / \n                uint256 liquidity = numerator / denominator;\n                //  > 0 feeTo\n                if (liquidity > 0) _mint(getFeeTo(), liquidity);\n            }\n        }\n    }\n\n    /**\n     * @dev \n     * @param to to\n     * @return liquidity \n     * @notice \n     */\n    function mint(address to) external lock returns (uint256 liquidity) {\n        //`0`,`1`\n        (uint112 _reserve0, uint112 _reserve1, ) = getReserves(); // gas savings\n        //token0\n        uint256 balance0 = balanceOfIndex(0);\n        //token1\n        uint256 balance1 = balanceOfIndex(1);\n        //amount0 = 0\n        uint256 amount0 = balance0.sub(_reserve0);\n        //amount1 = 1\n        uint256 amount1 = balance1.sub(_reserve1);\n        // 0 - 0\n        _reserve0 -= dummys[0];\n        // 1 - 1\n        _reserve1 -= dummys[1];\n\n        //\n        _mintFee(_reserve0, _reserve1);\n        //totalSupply,totalSupplymintFee\n        uint256 _totalSupply = totalSupply; // gas savings, must be defined here since totalSupply can update in _mintFee\n        //_totalSupply0,\n        if (_totalSupply == 0) {\n            // ,\n            address migrator = IGoSwapFactory(factory).migrator();\n            // ()\n            if (msg.sender == migrator) {\n                //  = ``,,lpToken,\n                liquidity = IMigrator(migrator).desiredLiquidity();\n                // 0\n                require(liquidity > 0 && liquidity != uint256(-1), 'Bad desired liquidity');\n                // \n            } else {\n                // 0(,)\n                require(migrator == address(0), 'Must not have migrator');\n                // = (0 * 1) - 1000\n                liquidity = Math.sqrt(amount0.mul(amount1)).sub(MINIMUM_LIQUIDITY);\n                //0,\n                _mint(address(0), MINIMUM_LIQUIDITY); // permanently lock the first MINIMUM_LIQUIDITY tokens\n            }\n            // to\n            creator = to; // set creator\n        } else {\n            // =  (amount0 * _totalSupply / _reserve0)  (amount1 * _totalSupply / _reserve1)\n            liquidity = Math.min(amount0.mul(_totalSupply) / _reserve0, amount1.mul(_totalSupply) / _reserve1);\n        }\n        // > 0\n        require(liquidity > 0, 'GoSwap: INSUFFICIENT_LIQUIDITY_MINTED');\n        //to\n        _mint(to, liquidity);\n        // 0 + 0\n        _reserve0 += dummys[0];\n        // 1 + 1\n        _reserve1 += dummys[1];\n\n        //\n        _update(balance0, balance1, _reserve0, _reserve1);\n        //k = 0 * 1,,\n        kLast = uint256(reserves[0] - dummys[0]).mul(reserves[1] - dummys[1]); // reserve0 and reserve1 are up-to-date\n        //\n        emit Mint(msg.sender, amount0, amount1);\n    }\n\n    /**\n     * @dev \n     * @param to to\n     * @return amount0\n     * @return amount1\n     * @notice \n     */\n    function burn(address to) external lock returns (uint256 amount0, uint256 amount1) {\n        //`0`,`1`\n        (uint112 _reserve0, uint112 _reserve1, ) = getReserves(); // gas savings\n        //token0\n        uint256 balance0 = balanceOfIndex(0).sub(dummys[0]);\n        //token1\n        uint256 balance1 = balanceOfIndex(1).sub(dummys[1]);\n        //balanceOf,lptoken\n        uint256 liquidity = balanceOf[address(this)];\n\n        //\n        _mintFee(_reserve0 - dummys[0], _reserve1 - dummys[1]);\n        //totalSupply,totalSupplymintFee\n        uint256 _totalSupply = totalSupply; // gas savings, must be defined here since totalSupply can update in _mintFee\n        //amount0 =  * 0 / totalSupply   \n        amount0 = liquidity.mul(balance0) / _totalSupply; // using balances ensures pro-rata distribution\n        //amount1 =  * 1 / totalSupply   \n        amount1 = liquidity.mul(balance1) / _totalSupply; // using balances ensures pro-rata distribution\n        //amount0amount10\n        require(amount0 > 0 && amount1 > 0, 'GoSwap: INSUFFICIENT_LIQUIDITY_BURNED');\n        //\n        _burn(address(this), liquidity);\n        //amount0_token0to\n        _safeTransfer(0, to, amount0);\n        //amount1_token1to\n        _safeTransfer(1, to, amount1);\n        //balance0\n        balance0 = balanceOfIndex(0);\n        //balance1\n        balance1 = balanceOfIndex(1);\n\n        //\n        _update(balance0, balance1, _reserve0, _reserve1);\n        //k = 0 * 1,,\n        kLast = uint256(reserves[0] - dummys[0]).mul(reserves[1] - dummys[1]); // reserve0 and reserve1 are up-to-date\n        //\n        emit Burn(msg.sender, amount0, amount1, to);\n    }\n\n    /**\n     * @dev \n     * @param amount0 0\n     * @param amount1 1\n     */\n    function dummyMint(uint256 amount0, uint256 amount1) external onlyFeeToSetter lock {\n        // \n        (uint112 _reserve0, uint112 _reserve1, ) = getReserves(); // gas savings\n        // 0 + 0\n        dummys[0] += uint112(amount0);\n        // 1 + 1\n        dummys[1] += uint112(amount1);\n        //\n        _update(balanceOfIndex(0), balanceOfIndex(1), _reserve0, _reserve1);\n        emit DummyMint(amount0, amount1);\n    }\n\n    /**\n     * @dev \n     * @param amount0 0\n     * @param amount1 1\n     */\n    function dummyBurn(uint256 amount0, uint256 amount1) external onlyFeeToSetter lock {\n        // \n        (uint112 _reserve0, uint112 _reserve1, ) = getReserves(); // gas savings\n        // 0 - 0\n        dummys[0] -= uint112(amount0);\n        // 1 - 1\n        dummys[1] -= uint112(amount1);\n        //\n        _update(balanceOfIndex(0), balanceOfIndex(1), _reserve0, _reserve1);\n        emit DummyBurn(amount0, amount1);\n    }\n\n    /**\n     * @dev \n     * @param amount0Out 0\n     * @param amount1Out 1\n     * @param to    to\n     * @param data  \n     * @notice \n     */\n    function swap(\n        uint256 amount0Out,\n        uint256 amount1Out,\n        address to,\n        bytes calldata data\n    ) external lock {\n        //amount0Outamount1Out0\n        require(amount0Out > 0 || amount1Out > 0, 'GoSwap: INSUFFICIENT_OUTPUT_AMOUNT');\n        //`0`,`1`\n        (uint112 _reserve0, uint112 _reserve1, ) = getReserves(); // gas savings\n        //`0,1` < `0,1`\n        require(amount0Out < _reserve0 && amount1Out < _reserve1, 'GoSwap: INSUFFICIENT_LIQUIDITY');\n\n        //\n        uint256 balance0;\n        uint256 balance1;\n        {\n            //_token{0,1}\n            // scope for _token{0,1}, avoids stack too deep errors\n            address _token0 = tokens[0];\n            address _token1 = tokens[1];\n            //to_token0_token1\n            require(to != _token0 && to != _token1, 'GoSwap: INVALID_TO');\n            //`0` > 0 `0`token0to\n            if (amount0Out > 0) _safeTransfer(0, to, amount0Out); // optimistically transfer tokens\n            //`1` > 0 `1`token1to\n            if (amount1Out > 0) _safeTransfer(1, to, amount1Out); // optimistically transfer tokens\n            //data0 to,!\n            if (data.length > 0) IGoSwapCallee(to).goswapCall(msg.sender, amount0Out, amount1Out, data);\n            //\n            if (swapHookAddress != address(0))\n                IGoSwapHook(swapHookAddress).swapHook(msg.sender, amount0Out, amount1Out, to);\n            //token0\n            balance0 = balanceOfIndex(0);\n            //token1\n            balance1 = balanceOfIndex(1);\n        }\n        // 0 > 0 - amount0Out  amount0In = 0 - (0 - amount0Out)  amount0In = 0\n        uint256 amount0In = balance0 > _reserve0 - amount0Out ? balance0 - (_reserve0 - amount0Out) : 0;\n        // 1 > 1 - amount1Out  amount1In = 1 - (1 - amount1Out)  amount1In = 0\n        uint256 amount1In = balance1 > _reserve1 - amount1Out ? balance1 - (_reserve1 - amount1Out) : 0;\n        //`0||1`0\n        require(amount0In > 0 || amount1In > 0, 'GoSwap: INSUFFICIENT_INPUT_AMOUNT');\n        {\n            //reserve{0,1}\n            // scope for reserve{0,1}Adjusted, avoids stack too deep errors\n            //0 = 0 * 1000 - (amount0In * fee)\n            uint256 balance0Adjusted = balance0.mul(1000).sub(amount0In.mul(fee));\n            //1 = 1 * 1000 - (amount1In * fee)\n            uint256 balance1Adjusted = balance1.mul(1000).sub(amount1In.mul(fee));\n            //balance0Adjusted * balance1Adjusted >= 0 * 1 * 1000000\n            require(\n                balance0Adjusted.mul(balance1Adjusted) >= uint256(_reserve0).mul(_reserve1).mul(1000**2),\n                'GoSwap: K'\n            );\n        }\n\n        //\n        _update(balance0, balance1, _reserve0, _reserve1);\n        //\n        emit Swap(msg.sender, amount0In, amount1In, amount0Out, amount1Out, to);\n    }\n\n    /**\n     * @dev \n     * @param to to\n     */\n    function skim(address to) external lock {\n        //`token0,1`-`0,1`to\n        _safeTransfer(0, to, balanceOfIndex(0).sub(reserves[0]));\n        _safeTransfer(1, to, balanceOfIndex(1).sub(reserves[1]));\n    }\n\n    /**\n     * @dev \n     */\n    function sync() external lock {\n        _update(balanceOfIndex(0), balanceOfIndex(1), reserves[0], reserves[1]);\n    }\n\n    /**\n     * @dev \n     * @param tokenIndex token\n     * @return balance \n     */\n    function balanceOfIndex(uint8 tokenIndex) public view returns (uint256 balance) {\n        //  = token +  + \n        balance = IERC20(tokens[tokenIndex]).balanceOf(address(this)).add(depositeds[tokenIndex]).add(\n            dummys[tokenIndex]\n        );\n    }\n\n    /**\n     * @dev \n     * @param tokenIndex token\n     */\n    function approveByIndex(uint8 tokenIndex) public onlyFeeToSetter {\n        // Tokenapprove\n        IERC20(tokens[tokenIndex]).approve(vaults[tokenIndex], uint256(-1));\n    }\n\n    /**\n     * @dev \n     * @param tokenIndex token\n     */\n    function unApproveByIndex(uint8 tokenIndex) public onlyFeeToSetter {\n        // Tokenapprove0\n        IERC20(tokens[tokenIndex]).approve(vaults[tokenIndex], 0);\n    }\n\n    /**\n     * @dev \n     * @param tokenIndex token\n     * @param vault \n     */\n    function setVaults(uint8 tokenIndex, address vault) public onlyFeeToSetter {\n        // \n        vaults[tokenIndex] = vault;\n        // \n        approveByIndex(tokenIndex);\n        // \n        emit VaultUpdated(tokenIndex, vault);\n    }\n\n    /**\n     * @dev \n     * @param tokenIndex token\n     * @param amount \n     */\n    function _deposit(uint8 tokenIndex, uint256 amount) internal {\n        // 0\n        require(amount > 0, 'deposit amount must be greater than 0');\n        // \n        depositeds[tokenIndex] = depositeds[tokenIndex].add(amount);\n        // \n        IVault(vaults[tokenIndex]).deposit(amount);\n        // \n        emit DepositedUpdated(depositeds[0], depositeds[1]);\n    }\n\n    /**\n     * @dev \n     * @param tokenIndex token\n     * @param amount \n     */\n    function depositSome(uint8 tokenIndex, uint256 amount) external onlyFeeToSetter {\n        // \n        _deposit(tokenIndex, amount);\n    }\n\n    /**\n     * @dev \n     * @param tokenIndex token\n     */\n    function depositAll(uint8 tokenIndex) external onlyFeeToSetter {\n        // \n        _deposit(tokenIndex, IERC20(tokens[tokenIndex]).balanceOf(address(this)));\n    }\n\n    /**\n     * @dev \n     * @param tokenIndex token\n     */\n    function _redeposit(uint8 tokenIndex) internal {\n        //  = token *  / 1000\n        uint256 amount = IERC20(tokens[tokenIndex]).balanceOf(address(this)).mul(redepositRatios[tokenIndex]).div(1000);\n        // \n        _deposit(tokenIndex, amount);\n    }\n\n    /**\n     * @dev \n     * @param tokenIndex token\n     * @param _redpositRatio token\n     */\n    function setRedepositRatio(uint8 tokenIndex, uint16 _redpositRatio) external onlyFeeToSetter {\n        // 1000\n        require(_redpositRatio <= 1000, 'ratio too large');\n        // \n        redepositRatios[tokenIndex] = _redpositRatio;\n        // \n        emit RedepositRatioUpdated(tokenIndex, _redpositRatio);\n    }\n\n    /**\n     * @dev \n     * @param tokenIndex token\n     * @param amount \n     */\n    function _withdraw(uint8 tokenIndex, uint256 amount) internal {\n        // 0\n        require(amount > 0, 'withdraw amount must be greater than 0');\n        // token\n        uint256 before = IERC20(tokens[tokenIndex]).balanceOf(address(this));\n        // amount\n        IVault(vaults[tokenIndex]).withdraw(amount);\n        // \n        uint256 received = IERC20(tokens[tokenIndex]).balanceOf(address(this)).sub(before);\n        // <=\n        if (received <= depositeds[tokenIndex]) {\n            // \n            depositeds[tokenIndex] -= received;\n        } else {\n            // ,\n            uint256 reward = received.sub(depositeds[tokenIndex]);\n            // \n            depositeds[tokenIndex] = 0;\n            // feeTo\n            _safeTransfer(tokenIndex, getFeeTo(), reward);\n        }\n\n        emit DepositedUpdated(depositeds[0], depositeds[1]);\n    }\n\n    /**\n     * @dev \n     * @param tokenIndex token\n     */\n    function _withdrawAll(uint8 tokenIndex) internal {\n        // tokens[tokenIndex]\n        _withdraw(tokenIndex, IERC20(vaults[tokenIndex]).balanceOf(address(this)));\n    }\n\n    /**\n     * @dev \n     * @param tokenIndex token\n     * @param amount \n     */\n    function withdraw(uint8 tokenIndex, uint256 amount) external onlyFeeToSetter {\n        _withdraw(tokenIndex, amount);\n    }\n\n    /**\n     * @dev \n     * @param tokenIndex token\n     */\n    function withdrawAll(uint8 tokenIndex) external onlyFeeToSetter {\n        _withdrawAll(tokenIndex);\n    }\n}\n",
  "sourcePath": "/home/cui/Documents/goswap/goswap-core/contracts/GoSwapPair.sol",
  "compiler": {
    "name": "solc",
    "version": "0.6.12+commit.27d51765.Emscripten.clang"
  },
  "schemaVersion": "3.3.2",
  "updatedAt": "2021-01-22T03:09:30.019Z",
  "devdoc": {
    "events": {
      "Burn(address,uint256,uint256,address)": {
        "details": ":",
        "params": {
          "amount0": "0",
          "amount1": "1",
          "sender": "",
          "to": "to"
        }
      },
      "DepositedUpdated(uint256,uint256)": {
        "details": ":",
        "params": {
          "deposited0": "0",
          "deposited1": "1"
        }
      },
      "DummyBurn(uint256,uint256)": {
        "details": ":",
        "params": {
          "amount0": "0",
          "amount1": "1"
        }
      },
      "DummyMint(uint256,uint256)": {
        "details": ":",
        "params": {
          "amount0": "0",
          "amount1": "1"
        }
      },
      "FeeToUpdated(address)": {
        "details": ":",
        "params": {
          "feeTo": ""
        }
      },
      "FeeUpdated(uint8)": {
        "details": ":",
        "params": {
          "fee": ""
        }
      },
      "Mint(address,uint256,uint256)": {
        "details": ":",
        "params": {
          "amount0": "0",
          "amount1": "1",
          "sender": ""
        }
      },
      "RedepositRatioUpdated(uint8,uint16)": {
        "details": ":",
        "params": {
          "ratio": "",
          "tokenIndex": "token"
        }
      },
      "RootKmulUpdated(uint8)": {
        "details": ":K",
        "params": {
          "rootKmul": "K"
        }
      },
      "Swap(address,uint256,uint256,uint256,uint256,address)": {
        "details": ":",
        "params": {
          "amount0In": "0",
          "amount0Out": "0",
          "amount1In": "1",
          "amount1Out": "1",
          "sender": "",
          "to": "to"
        }
      },
      "SwapHookUpdated(address)": {
        "details": ":",
        "params": {
          "swapHookAddress": ""
        }
      },
      "Sync(uint112,uint112)": {
        "details": ":",
        "params": {
          "reserve0": "0",
          "reserve1": "1"
        }
      },
      "VaultUpdated(uint8,address)": {
        "details": ":",
        "params": {
          "tokenIndex": "token",
          "vault": ""
        }
      }
    },
    "kind": "dev",
    "methods": {
      "approveByIndex(uint8)": {
        "details": "",
        "params": {
          "tokenIndex": "token"
        }
      },
      "balanceOfIndex(uint8)": {
        "details": "",
        "params": {
          "tokenIndex": "token"
        },
        "returns": {
          "balance": ""
        }
      },
      "burn(address)": {
        "details": "",
        "params": {
          "to": "to"
        },
        "returns": {
          "amount0": "amount0",
          "amount1": "amount1"
        }
      },
      "constructor": {
        "details": ""
      },
      "depositAll(uint8)": {
        "details": "",
        "params": {
          "tokenIndex": "token"
        }
      },
      "depositSome(uint8,uint256)": {
        "details": "",
        "params": {
          "amount": "",
          "tokenIndex": "token"
        }
      },
      "dummyBurn(uint256,uint256)": {
        "details": "",
        "params": {
          "amount0": "0",
          "amount1": "1"
        }
      },
      "dummyMint(uint256,uint256)": {
        "details": "",
        "params": {
          "amount0": "0",
          "amount1": "1"
        }
      },
      "getDeposited()": {
        "details": "",
        "returns": {
          "_0": "0",
          "_1": "1"
        }
      },
      "getDummy()": {
        "details": "",
        "returns": {
          "_0": "0",
          "_1": "1"
        }
      },
      "getFeeTo()": {
        "details": "",
        "returns": {
          "_0": ""
        }
      },
      "getReserves()": {
        "details": "",
        "returns": {
          "_blockTimestampLast": "",
          "_reserve0": "0",
          "_reserve1": "1"
        }
      },
      "initialize(address,address)": {
        "details": ",",
        "params": {
          "_token0": "token0",
          "_token1": "token1"
        }
      },
      "mint(address)": {
        "details": "",
        "params": {
          "to": "to"
        },
        "returns": {
          "liquidity": ""
        }
      },
      "price0CumulativeLast()": {
        "details": "price0CumulativeLast"
      },
      "price1CumulativeLast()": {
        "details": "price1CumulativeLast"
      },
      "setFee(uint8)": {
        "details": "",
        "params": {
          "_fee": ""
        }
      },
      "setFeeTo(address)": {
        "details": "",
        "params": {
          "_feeTo": ""
        }
      },
      "setRedepositRatio(uint8,uint16)": {
        "details": "",
        "params": {
          "_redpositRatio": "token",
          "tokenIndex": "token"
        }
      },
      "setRootKmul(uint8)": {
        "details": "K",
        "params": {
          "_rootKmul": "K"
        }
      },
      "setSwapHook(address)": {
        "details": "",
        "params": {
          "_swapHookAddress": ""
        }
      },
      "setVaults(uint8,address)": {
        "details": "",
        "params": {
          "tokenIndex": "token",
          "vault": ""
        }
      },
      "skim(address)": {
        "details": "",
        "params": {
          "to": "to"
        }
      },
      "swap(uint256,uint256,address,bytes)": {
        "details": "",
        "params": {
          "amount0Out": "0",
          "amount1Out": "1",
          "data": "",
          "to": "to"
        }
      },
      "sync()": {
        "details": ""
      },
      "token0()": {
        "details": "token0"
      },
      "token1()": {
        "details": "token1"
      },
      "unApproveByIndex(uint8)": {
        "details": "",
        "params": {
          "tokenIndex": "token"
        }
      },
      "withdraw(uint8,uint256)": {
        "details": "",
        "params": {
          "amount": "",
          "tokenIndex": "token"
        }
      },
      "withdrawAll(uint8)": {
        "details": "",
        "params": {
          "tokenIndex": "token"
        }
      }
    },
    "stateVariables": {
      "SELECTOR": {
        "details": "transferselector"
      },
      "blockTimestampLast": {
        "details": ""
      },
      "priceCumulativeLasts": {
        "details": "token"
      },
      "reserves": {
        "details": "token"
      },
      "tokens": {
        "details": "token"
      },
      "unlocked": {
        "details": ""
      }
    },
    "title": "GoSwap ",
    "version": 1
  },
  "userdoc": {
    "events": {
      "Approval(address,address,uint256)": {
        "notice": ""
      },
      "Transfer(address,address,uint256)": {
        "notice": ""
      }
    },
    "kind": "user",
    "methods": {
      "DOMAIN_SEPARATOR()": {
        "notice": ""
      },
      "MINIMUM_LIQUIDITY()": {
        "notice": " = 1000"
      },
      "PERMIT_TYPEHASH()": {
        "notice": "The EIP-712 typehash for the contract's domain"
      },
      "allowance(address,address)": {
        "notice": ""
      },
      "balanceOf(address)": {
        "notice": ""
      },
      "birthday()": {
        "notice": ""
      },
      "burn(address)": {
        "notice": ""
      },
      "creator()": {
        "notice": ""
      },
      "decimals()": {
        "notice": ""
      },
      "depositeds(uint256)": {
        "notice": ""
      },
      "dummys(uint256)": {
        "notice": ""
      },
      "factory()": {
        "notice": ""
      },
      "fee()": {
        "notice": "0.3%"
      },
      "feeTo()": {
        "notice": ""
      },
      "kLast()": {
        "notice": "K,0*1"
      },
      "mint(address)": {
        "notice": ""
      },
      "name()": {
        "notice": "token"
      },
      "nonces(address)": {
        "notice": "nonces"
      },
      "redepositRatios(uint256)": {
        "notice": ""
      },
      "rootKmul()": {
        "notice": "sqrtk1/6"
      },
      "swap(uint256,uint256,address,bytes)": {
        "notice": ""
      },
      "swapHookAddress()": {
        "notice": ""
      },
      "symbol()": {
        "notice": "token"
      },
      "totalSupply()": {
        "notice": ""
      },
      "vaults(uint256)": {
        "notice": ""
      }
    },
    "version": 1
  }
}