{
  "contractName": "GoSwapCompany",
  "abi": [
    {
      "anonymous": false,
      "inputs": [
        {
          "indexed": true,
          "internalType": "address",
          "name": "account",
          "type": "address"
        }
      ],
      "name": "AdminAdded",
      "type": "event"
    },
    {
      "anonymous": false,
      "inputs": [
        {
          "indexed": true,
          "internalType": "address",
          "name": "account",
          "type": "address"
        }
      ],
      "name": "AdminRemoved",
      "type": "event"
    },
    {
      "inputs": [
        {
          "internalType": "address",
          "name": "account",
          "type": "address"
        }
      ],
      "name": "addAdmin",
      "outputs": [],
      "stateMutability": "nonpayable",
      "type": "function"
    },
    {
      "inputs": [],
      "name": "allAdmins",
      "outputs": [
        {
          "internalType": "address[]",
          "name": "admins",
          "type": "address[]"
        }
      ],
      "stateMutability": "view",
      "type": "function"
    },
    {
      "inputs": [],
      "name": "factory",
      "outputs": [
        {
          "internalType": "address",
          "name": "",
          "type": "address"
        }
      ],
      "stateMutability": "view",
      "type": "function"
    },
    {
      "inputs": [
        {
          "internalType": "address",
          "name": "account",
          "type": "address"
        }
      ],
      "name": "isAdmin",
      "outputs": [
        {
          "internalType": "bool",
          "name": "",
          "type": "bool"
        }
      ],
      "stateMutability": "view",
      "type": "function"
    },
    {
      "inputs": [
        {
          "internalType": "address",
          "name": "",
          "type": "address"
        },
        {
          "internalType": "address",
          "name": "",
          "type": "address"
        }
      ],
      "name": "pairForFactory",
      "outputs": [
        {
          "internalType": "address",
          "name": "",
          "type": "address"
        }
      ],
      "stateMutability": "view",
      "type": "function"
    },
    {
      "inputs": [
        {
          "internalType": "address",
          "name": "account",
          "type": "address"
        }
      ],
      "name": "removeAdmin",
      "outputs": [],
      "stateMutability": "nonpayable",
      "type": "function"
    },
    {
      "inputs": [],
      "name": "renounceAdmin",
      "outputs": [],
      "stateMutability": "nonpayable",
      "type": "function"
    },
    {
      "inputs": [
        {
          "internalType": "address",
          "name": "tokenA",
          "type": "address"
        },
        {
          "internalType": "address",
          "name": "tokenB",
          "type": "address"
        }
      ],
      "name": "createPair",
      "outputs": [
        {
          "internalType": "address",
          "name": "pair",
          "type": "address"
        }
      ],
      "stateMutability": "nonpayable",
      "type": "function"
    },
    {
      "inputs": [
        {
          "internalType": "address",
          "name": "_factory",
          "type": "address"
        }
      ],
      "name": "setNewFactory",
      "outputs": [],
      "stateMutability": "nonpayable",
      "type": "function"
    },
    {
      "inputs": [],
      "name": "factoryLength",
      "outputs": [
        {
          "internalType": "uint256",
          "name": "",
          "type": "uint256"
        }
      ],
      "stateMutability": "view",
      "type": "function"
    },
    {
      "inputs": [
        {
          "internalType": "uint256",
          "name": "index",
          "type": "uint256"
        }
      ],
      "name": "getFactoryByIndex",
      "outputs": [
        {
          "internalType": "address",
          "name": "",
          "type": "address"
        }
      ],
      "stateMutability": "view",
      "type": "function"
    }
  ],
  "bytecode": "0x608060405234801561001057600080fd5b5061001a3361001f565b6100ef565b61003781600061006f60201b6106471790919060201c565b506040516001600160a01b038216907f44d6d25963f097ad14f29f06854a01f575648a1ef82f30e562ccd3889717e33990600090a250565b6000610084836001600160a01b03841661008d565b90505b92915050565b600061009983836100d7565b6100cf57508154600181810184556000848152602080822090930184905584548482528286019093526040902091909155610087565b506000610087565b60009081526001919091016020526040902054151590565b610940806100fe6000396000f3fe608060405234801561001057600080fd5b50600436106100a85760003560e01c8063704802751161007157806370480275146101cb5780638bad0c0a146101f15780638c9224f7146101f9578063a7fb7e261461021f578063c45a01551461023c578063c9c6539614610244576100a8565b80620cb797146100ad5780631785f53c146100f757806324d7806c1461011f57806340f32be614610159578063470f4985146101b1575b600080fd5b6100db600480360360408110156100c357600080fd5b506001600160a01b0381358116916020013516610272565b604080516001600160a01b039092168252519081900360200190f35b61011d6004803603602081101561010d57600080fd5b50356001600160a01b0316610298565b005b6101456004803603602081101561013557600080fd5b50356001600160a01b03166102e8565b604080519115158252519081900360200190f35b6101616102fa565b60408051602080825283518183015283519192839290830191858101910280838360005b8381101561019d578181015183820152602001610185565b505050509050019250505060405180910390f35b6101b9610398565b60408051918252519081900360200190f35b61011d600480360360208110156101e157600080fd5b50356001600160a01b03166103a9565b61011d6103f6565b61011d6004803603602081101561020f57600080fd5b50356001600160a01b0316610401565b6100db6004803603602081101561023557600080fd5b50356104c1565b6100db6104ce565b6100db6004803603604081101561025a57600080fd5b506001600160a01b03813581169160200135166104dd565b60056020908152600092835260408084209091529082529020546001600160a01b031681565b6102a1336102e8565b6102dc5760405162461bcd60e51b815260040180806020018281038252602e8152602001806108dd602e913960400191505060405180910390fd5b6102e581610663565b50565b60006102f481836106a6565b92915050565b606061030660006106bb565b67ffffffffffffffff8111801561031c57600080fd5b50604051908082528060200260200182016040528015610346578160200160208202803683370190505b50905060005b61035660006106bb565b811015610394576103686000826106c6565b82828151811061037457fe5b6001600160a01b039092166020928302919091019091015260010161034c565b5090565b60006103a460036106bb565b905090565b6103b2336102e8565b6103ed5760405162461bcd60e51b815260040180806020018281038252602e8152602001806108dd602e913960400191505060405180910390fd5b6102e5816106d2565b6103ff33610663565b565b61040a336102e8565b6104455760405162461bcd60e51b815260040180806020018281038252602e8152602001806108dd602e913960400191505060405180910390fd5b6104506003826106a6565b15610493576040805162461bcd60e51b815260206004820152600e60248201526d666163746f72792065786973742160901b604482015290519081900360640190fd5b61049e600382610647565b50600280546001600160a01b0319166001600160a01b0392909216919091179055565b60006102f46003836106c6565b6002546001600160a01b031681565b6001600160a01b038281166000908152600560209081526040808320858516845290915281205490911615806105175750610517336102e8565b61055e576040805162461bcd60e51b8152602060048201526013602482015272476f537761703a20504149525f45584953545360681b604482015290519081900360640190fd5b600254604080516364e329cb60e11b81526001600160a01b03868116600483015285811660248301529151919092169163c9c653969160448083019260209291908290030181600087803b1580156105b557600080fd5b505af11580156105c9573d6000803e3d6000fd5b505050506040513d60208110156105df57600080fd5b5051600280546001600160a01b039586166000818152600560208181526040808420998b1684529881528883208054958b166001600160a01b031996871617905594549085528782209282529190935294909120805494909516931692909217909255919050565b600061065c836001600160a01b038416610715565b9392505050565b61066e60008261075f565b506040516001600160a01b038216907fa3b62bc36326052d97ea62d63c3d60308ed4c3ea8ac079dd8499f1e9c4f80c0f90600090a250565b600061065c836001600160a01b038416610774565b60006102f48261078c565b600061065c8383610790565b6106dd600082610647565b506040516001600160a01b038216907f44d6d25963f097ad14f29f06854a01f575648a1ef82f30e562ccd3889717e33990600090a250565b60006107218383610774565b610757575081546001818101845560008481526020808220909301849055845484825282860190935260409020919091556102f4565b5060006102f4565b600061065c836001600160a01b0384166107f4565b60009081526001919091016020526040902054151590565b5490565b815460009082106107d25760405162461bcd60e51b81526004018080602001828103825260228152602001806108bb6022913960400191505060405180910390fd5b8260000182815481106107e157fe5b9060005260206000200154905092915050565b600081815260018301602052604081205480156108b0578354600019808301919081019060009087908390811061082757fe5b906000526020600020015490508087600001848154811061084457fe5b60009182526020808320909101929092558281526001898101909252604090209084019055865487908061087457fe5b600190038181906000526020600020016000905590558660010160008781526020019081526020016000206000905560019450505050506102f4565b60009150506102f456fe456e756d657261626c655365743a20696e646578206f7574206f6620626f756e647341646d696e526f6c653a2063616c6c657220646f6573206e6f742068617665207468652041646d696e20726f6c65a2646970667358221220a779c1ddb34a40bd413c3755ea69701c20c8e67650b774d2d32f8e8f93a75bf964736f6c634300060c0033",
  "immutableReferences": {},
  "source": "// SPDX-License-Identifier: MIT\npragma solidity =0.6.12;\n\nimport '@openzeppelin/contracts/utils/EnumerableSet.sol';\nimport './interfaces/IGoSwapFactory.sol';\nimport './interfaces/IGoSwapCompany.sol';\nimport './libraries/AdminRole.sol';\n\ncontract GoSwapCompany is AdminRole, IGoSwapCompany {\n    using EnumerableSet for EnumerableSet.AddressSet;\n    /// @notice 当前工厂合约\n    address public override factory;\n    /// @dev 工厂合约列表\n    EnumerableSet.AddressSet private factorys;\n\n    /// @notice 配对寻找工厂的映射,地址=>(地址=>地址)\n    mapping(address => mapping(address => address)) public override pairForFactory;\n\n    /**\n     * @dev 创建配对\n     * @param tokenA TokenA\n     * @param tokenB TokenB\n     * @return pair 配对地址\n     */\n    function createPair(address tokenA, address tokenB) external override returns (address pair) {\n        // 确认token没有过对应的工厂,或者是管理员创建的配对,可以强制更新工厂合约\n        require(pairForFactory[tokenA][tokenB] == address(0) || isAdmin(msg.sender), 'GoSwap: PAIR_EXISTS');\n        // 调用工厂合约的创建配对方法\n        pair = IGoSwapFactory(factory).createPair(tokenA, tokenB);\n        // 记录token对应的工厂合约地址\n        pairForFactory[tokenA][tokenB] = factory;\n        pairForFactory[tokenB][tokenA] = factory;\n    }\n\n    /**\n     * @dev 设置新工厂合约\n     * @param _factory 新工厂合约地址\n     */\n    function setNewFactory(address _factory) public onlyAdmin {\n        require(!factorys.contains(_factory), 'factory exist!');\n        factorys.add(_factory);\n        factory = _factory;\n    }\n\n    /**\n     * @dev 返回工厂合约数量\n     * @return 工厂合约数量\n     */\n    function factoryLength() public view returns (uint256) {\n        return factorys.length();\n    }\n\n    /**\n     * @dev 根据索引查询工厂合约地址\n     * @param index 索引\n     * @return 工厂合约地址\n     */\n    function getFactoryByIndex(uint256 index) public view returns (address) {\n        return factorys.at(index);\n    }\n}\n",
  "sourcePath": "/home/cui/Documents/goswap/goswap-core/contracts/GoSwapCompany.sol",
  "compiler": {
    "name": "solc",
    "version": "0.6.12+commit.27d51765.Emscripten.clang"
  },
  "schemaVersion": "3.3.2",
  "updatedAt": "2021-01-12T11:17:52.859Z",
  "devdoc": {
    "kind": "dev",
    "methods": {
      "addAdmin(address)": {
        "details": "添加管理员",
        "params": {
          "account": "帐号地址"
        }
      },
      "allAdmins()": {
        "details": "返回所有管理员",
        "returns": {
          "admins": "管理员数组"
        }
      },
      "createPair(address,address)": {
        "details": "创建配对",
        "params": {
          "tokenA": "TokenA",
          "tokenB": "TokenB"
        },
        "returns": {
          "pair": "配对地址"
        }
      },
      "factoryLength()": {
        "details": "返回工厂合约数量",
        "returns": {
          "_0": "工厂合约数量"
        }
      },
      "getFactoryByIndex(uint256)": {
        "details": "根据索引查询工厂合约地址",
        "params": {
          "index": "索引"
        },
        "returns": {
          "_0": "工厂合约地址"
        }
      },
      "isAdmin(address)": {
        "details": "判断是否是管理员",
        "params": {
          "account": "帐号地址"
        },
        "returns": {
          "_0": "是否是管理员"
        }
      },
      "removeAdmin(address)": {
        "details": "移除管理员",
        "params": {
          "account": "帐号地址"
        }
      },
      "renounceAdmin()": {
        "details": "撤销管理员"
      },
      "setNewFactory(address)": {
        "details": "设置新工厂合约",
        "params": {
          "_factory": "新工厂合约地址"
        }
      }
    },
    "stateVariables": {
      "factorys": {
        "details": "工厂合约列表"
      }
    },
    "version": 1
  },
  "userdoc": {
    "kind": "user",
    "methods": {
      "factory()": {
        "notice": "当前工厂合约"
      },
      "pairForFactory(address,address)": {
        "notice": "配对寻找工厂的映射,地址=>(地址=>地址)"
      }
    },
    "version": 1
  }
}