{
  "contractName": "GoSwapHook",
  "abi": [
    {
      "inputs": [
        {
          "internalType": "address",
          "name": "_token",
          "type": "address"
        }
      ],
      "stateMutability": "nonpayable",
      "type": "constructor"
    },
    {
      "anonymous": false,
      "inputs": [
        {
          "indexed": true,
          "internalType": "address",
          "name": "account",
          "type": "address"
        }
      ],
      "name": "AdminAdded",
      "type": "event"
    },
    {
      "anonymous": false,
      "inputs": [
        {
          "indexed": true,
          "internalType": "address",
          "name": "account",
          "type": "address"
        }
      ],
      "name": "AdminRemoved",
      "type": "event"
    },
    {
      "anonymous": false,
      "inputs": [
        {
          "indexed": true,
          "internalType": "address",
          "name": "pair",
          "type": "address"
        },
        {
          "indexed": true,
          "internalType": "address",
          "name": "sender",
          "type": "address"
        },
        {
          "indexed": false,
          "internalType": "uint256",
          "name": "amount0Out",
          "type": "uint256"
        },
        {
          "indexed": false,
          "internalType": "uint256",
          "name": "amount1Out",
          "type": "uint256"
        },
        {
          "indexed": true,
          "internalType": "address",
          "name": "to",
          "type": "address"
        }
      ],
      "name": "Swap",
      "type": "event"
    },
    {
      "inputs": [
        {
          "internalType": "address",
          "name": "account",
          "type": "address"
        }
      ],
      "name": "addAdmin",
      "outputs": [],
      "stateMutability": "nonpayable",
      "type": "function"
    },
    {
      "inputs": [],
      "name": "allAdmins",
      "outputs": [
        {
          "internalType": "address[]",
          "name": "admins",
          "type": "address[]"
        }
      ],
      "stateMutability": "view",
      "type": "function"
    },
    {
      "inputs": [
        {
          "internalType": "address",
          "name": "account",
          "type": "address"
        }
      ],
      "name": "isAdmin",
      "outputs": [
        {
          "internalType": "bool",
          "name": "",
          "type": "bool"
        }
      ],
      "stateMutability": "view",
      "type": "function"
    },
    {
      "inputs": [
        {
          "internalType": "address",
          "name": "account",
          "type": "address"
        }
      ],
      "name": "removeAdmin",
      "outputs": [],
      "stateMutability": "nonpayable",
      "type": "function"
    },
    {
      "inputs": [],
      "name": "renounceAdmin",
      "outputs": [],
      "stateMutability": "nonpayable",
      "type": "function"
    },
    {
      "inputs": [],
      "name": "token",
      "outputs": [
        {
          "internalType": "address",
          "name": "",
          "type": "address"
        }
      ],
      "stateMutability": "view",
      "type": "function"
    },
    {
      "inputs": [],
      "name": "allPairs",
      "outputs": [
        {
          "internalType": "address[]",
          "name": "pairs",
          "type": "address[]"
        }
      ],
      "stateMutability": "view",
      "type": "function"
    },
    {
      "inputs": [
        {
          "internalType": "address",
          "name": "pair",
          "type": "address"
        }
      ],
      "name": "addPair",
      "outputs": [],
      "stateMutability": "nonpayable",
      "type": "function"
    },
    {
      "inputs": [
        {
          "internalType": "address",
          "name": "pair",
          "type": "address"
        }
      ],
      "name": "removePair",
      "outputs": [],
      "stateMutability": "nonpayable",
      "type": "function"
    },
    {
      "inputs": [
        {
          "internalType": "address",
          "name": "sender",
          "type": "address"
        },
        {
          "internalType": "uint256",
          "name": "amount0Out",
          "type": "uint256"
        },
        {
          "internalType": "uint256",
          "name": "amount1Out",
          "type": "uint256"
        },
        {
          "internalType": "address",
          "name": "to",
          "type": "address"
        }
      ],
      "name": "swapHook",
      "outputs": [],
      "stateMutability": "nonpayable",
      "type": "function"
    }
  ],
  "bytecode": "0x608060405234801561001057600080fd5b50604051610a53380380610a538339818101604052602081101561003357600080fd5b505161003e33610063565b600280546001600160a01b0319166001600160a01b0392909216919091179055610133565b61007b8160006100b360201b6106181790919060201c565b506040516001600160a01b038216907f44d6d25963f097ad14f29f06854a01f575648a1ef82f30e562ccd3889717e33990600090a250565b60006100c8836001600160a01b0384166100d1565b90505b92915050565b60006100dd838361011b565b610113575081546001818101845560008481526020808220909301849055845484825282860190935260409020919091556100cb565b5060006100cb565b60009081526001919091016020526040902054151590565b610911806101426000396000f3fe608060405234801561001057600080fd5b506004361061009e5760003560e01c80639718a2d0116100665780639718a2d01461018b578063af6c9c1d146101c5578063c2b7bbb6146101eb578063c97682f814610211578063fc0c546a146102195761009e565b80631785f53c146100a357806324d7806c146100cb57806340f32be614610105578063704802751461015d5780638bad0c0a14610183575b600080fd5b6100c9600480360360208110156100b957600080fd5b50356001600160a01b031661023d565b005b6100f1600480360360208110156100e157600080fd5b50356001600160a01b031661028d565b604080519115158252519081900360200190f35b61010d61029f565b60408051602080825283518183015283519192839290830191858101910280838360005b83811015610149578181015183820152602001610131565b505050509050019250505060405180910390f35b6100c96004803603602081101561017357600080fd5b50356001600160a01b031661033d565b6100c961038a565b6100c9600480360360808110156101a157600080fd5b506001600160a01b0381358116916020810135916040820135916060013516610395565b6100c9600480360360208110156101db57600080fd5b50356001600160a01b03166104cd565b6100c96004803603602081101561020157600080fd5b50356001600160a01b0316610520565b61010d61056f565b610221610609565b604080516001600160a01b039092168252519081900360200190f35b6102463361028d565b6102815760405162461bcd60e51b815260040180806020018281038252602e8152602001806108ae602e913960400191505060405180910390fd5b61028a81610634565b50565b60006102998183610677565b92915050565b60606102ab600061068c565b67ffffffffffffffff811180156102c157600080fd5b506040519080825280602002602001820160405280156102eb578160200160208202803683370190505b50905060005b6102fb600061068c565b8110156103395761030d600082610697565b82828151811061031957fe5b6001600160a01b03909216602092830291909101909101526001016102f1565b5090565b6103463361028d565b6103815760405162461bcd60e51b815260040180806020018281038252602e8152602001806108ae602e913960400191505060405180910390fd5b61028a816106a3565b61039333610634565b565b6103a0600333610677565b6103f1576040805162461bcd60e51b815260206004820152601760248201527f4f6e6c7920506169722063616e2063616c6c2074686973000000000000000000604482015290519081900360640190fd5b600254604080516340c10f1960e01b81526001600160a01b038481166004830152670de0b6b3a76400006024830152915191909216916340c10f199160448083019260209291908290030181600087803b15801561044e57600080fd5b505af1158015610462573d6000803e3d6000fd5b505050506040513d602081101561047857600080fd5b5050604080518481526020810184905281516001600160a01b03808516939088169233927fb39c9bc43f811e1a7ce159c5f147458fdb80266bf23c17322013316e27e086d0929181900390910190a450505050565b6104d63361028d565b6105115760405162461bcd60e51b815260040180806020018281038252602e8152602001806108ae602e913960400191505060405180910390fd5b61051c6003826106e6565b5050565b6105293361028d565b6105645760405162461bcd60e51b815260040180806020018281038252602e8152602001806108ae602e913960400191505060405180910390fd5b61051c600382610618565b606061057b600361068c565b67ffffffffffffffff8111801561059157600080fd5b506040519080825280602002602001820160405280156105bb578160200160208202803683370190505b50905060005b6105cb600361068c565b811015610339576105dd600382610697565b8282815181106105e957fe5b6001600160a01b03909216602092830291909101909101526001016105c1565b6002546001600160a01b031681565b600061062d836001600160a01b0384166106fb565b9392505050565b61063f6000826106e6565b506040516001600160a01b038216907fa3b62bc36326052d97ea62d63c3d60308ed4c3ea8ac079dd8499f1e9c4f80c0f90600090a250565b600061062d836001600160a01b038416610745565b60006102998261075d565b600061062d8383610761565b6106ae600082610618565b506040516001600160a01b038216907f44d6d25963f097ad14f29f06854a01f575648a1ef82f30e562ccd3889717e33990600090a250565b600061062d836001600160a01b0384166107c5565b60006107078383610745565b61073d57508154600181810184556000848152602080822090930184905584548482528286019093526040902091909155610299565b506000610299565b60009081526001919091016020526040902054151590565b5490565b815460009082106107a35760405162461bcd60e51b815260040180806020018281038252602281526020018061088c6022913960400191505060405180910390fd5b8260000182815481106107b257fe5b9060005260206000200154905092915050565b6000818152600183016020526040812054801561088157835460001980830191908101906000908790839081106107f857fe5b906000526020600020015490508087600001848154811061081557fe5b60009182526020808320909101929092558281526001898101909252604090209084019055865487908061084557fe5b60019003818190600052602060002001600090559055866001016000878152602001908152602001600020600090556001945050505050610299565b600091505061029956fe456e756d657261626c655365743a20696e646578206f7574206f6620626f756e647341646d696e526f6c653a2063616c6c657220646f6573206e6f742068617665207468652041646d696e20726f6c65a264697066735822122095f9a65888698ca2ef09070f201c9ed6e7d20e3df51a47bdbfd1477fac61402b64736f6c634300060c0033",
  "immutableReferences": {},
  "source": "// SPDX-License-Identifier: MIT\npragma solidity =0.6.12;\nimport \"./libraries/AdminRole.sol\";\nimport '@openzeppelin/contracts/utils/EnumerableSet.sol';\n\ninterface ITOKEN {\n    function mint(address recipient_, uint256 amount_) external returns (bool);\n}\n\n/**\n* @title 交易钩子合约,替换这个合约可以在swap交易过程中插入操作\n */\ncontract GoSwapHook is AdminRole {\n    using EnumerableSet for EnumerableSet.AddressSet;\n    address public token;\n    \n    /// @dev 配对合约set\n    EnumerableSet.AddressSet private _pairs;\n    /**\n     * @dev 事件:交换\n     * @param sender 发送者\n     * @param amount0Out 输出金额0\n     * @param amount1Out 输出金额1\n     * @param to to地址\n     */\n    event Swap(\n        address indexed pair,\n        address indexed sender,\n        uint256 amount0Out,\n        uint256 amount1Out,\n        address indexed to\n    );\n\n    constructor (address _token) public{\n        token = _token;\n    }\n\n    /**\n     * @dev 返回所有配对合约\n     * @return pairs 配对合约数组\n     */\n    function allPairs() public view returns (address[] memory pairs) {\n        pairs = new address[](_pairs.length());\n        for(uint256 i=0;i<_pairs.length();i++){\n            pairs[i] = _pairs.at(i);\n        }\n    }\n\n    /**\n     * @dev 添加配对合约\n     * @param pair 帐号地址\n     */\n    function addPair(address pair) public onlyAdmin {\n        _pairs.add(pair);\n    }\n\n    /**\n     * @dev 移除配对合约\n     * @param pair 帐号地址\n     */\n    function removePair(address pair) public onlyAdmin {\n        _pairs.remove(pair);\n    }\n\n    /**\n     * @dev 修改器:只能通过配对合约调用\n     */\n    modifier onlyPair() {\n        require(_pairs.contains(msg.sender), \"Only Pair can call this\");\n        _;\n    }\n\n\n    /**\n     * @dev 交换钩子\n     * @param sender 发送者\n     * @param amount0Out 输出金额0\n     * @param amount1Out 输出金额1\n     * @param to to地址\n     */\n    function swapHook(\n        address sender,\n        uint256 amount0Out,\n        uint256 amount1Out,\n        address to\n    ) public onlyPair {\n        ITOKEN(token).mint(to,1 * 10**18);\n        //触发交换事件\n        emit Swap(msg.sender, sender, amount0Out, amount1Out, to);\n    }\n}\n",
  "sourcePath": "/home/cui/Documents/goswap/goswap-core/contracts/GoSwapHook.sol",
  "compiler": {
    "name": "solc",
    "version": "0.6.12+commit.27d51765.Emscripten.clang"
  },
  "schemaVersion": "3.3.2",
  "updatedAt": "2021-01-12T07:30:41.597Z",
  "devdoc": {
    "events": {
      "Swap(address,address,uint256,uint256,address)": {
        "details": "事件:交换",
        "params": {
          "amount0Out": "输出金额0",
          "amount1Out": "输出金额1",
          "sender": "发送者",
          "to": "to地址"
        }
      }
    },
    "kind": "dev",
    "methods": {
      "addAdmin(address)": {
        "details": "添加管理员",
        "params": {
          "account": "帐号地址"
        }
      },
      "addPair(address)": {
        "details": "添加配对合约",
        "params": {
          "pair": "帐号地址"
        }
      },
      "allAdmins()": {
        "details": "返回所有管理员",
        "returns": {
          "admins": "管理员数组"
        }
      },
      "allPairs()": {
        "details": "返回所有配对合约",
        "returns": {
          "pairs": "配对合约数组"
        }
      },
      "isAdmin(address)": {
        "details": "判断是否是管理员",
        "params": {
          "account": "帐号地址"
        },
        "returns": {
          "_0": "是否是管理员"
        }
      },
      "removeAdmin(address)": {
        "details": "移除管理员",
        "params": {
          "account": "帐号地址"
        }
      },
      "removePair(address)": {
        "details": "移除配对合约",
        "params": {
          "pair": "帐号地址"
        }
      },
      "renounceAdmin()": {
        "details": "撤销管理员"
      },
      "swapHook(address,uint256,uint256,address)": {
        "details": "交换钩子",
        "params": {
          "amount0Out": "输出金额0",
          "amount1Out": "输出金额1",
          "sender": "发送者",
          "to": "to地址"
        }
      }
    },
    "stateVariables": {
      "_pairs": {
        "details": "配对合约set"
      }
    },
    "title": "交易钩子合约,替换这个合约可以在swap交易过程中插入操作",
    "version": 1
  },
  "userdoc": {
    "kind": "user",
    "methods": {},
    "version": 1
  }
}