{
  "contractName": "GoSwapCash",
  "abi": [
    {
      "inputs": [],
      "stateMutability": "nonpayable",
      "type": "constructor"
    },
    {
      "anonymous": false,
      "inputs": [
        {
          "indexed": true,
          "internalType": "address",
          "name": "account",
          "type": "address"
        }
      ],
      "name": "AdminAdded",
      "type": "event"
    },
    {
      "anonymous": false,
      "inputs": [
        {
          "indexed": true,
          "internalType": "address",
          "name": "account",
          "type": "address"
        }
      ],
      "name": "AdminRemoved",
      "type": "event"
    },
    {
      "anonymous": false,
      "inputs": [
        {
          "indexed": true,
          "internalType": "address",
          "name": "owner",
          "type": "address"
        },
        {
          "indexed": true,
          "internalType": "address",
          "name": "spender",
          "type": "address"
        },
        {
          "indexed": false,
          "internalType": "uint256",
          "name": "value",
          "type": "uint256"
        }
      ],
      "name": "Approval",
      "type": "event"
    },
    {
      "anonymous": false,
      "inputs": [
        {
          "indexed": true,
          "internalType": "address",
          "name": "from",
          "type": "address"
        },
        {
          "indexed": true,
          "internalType": "address",
          "name": "to",
          "type": "address"
        },
        {
          "indexed": false,
          "internalType": "uint256",
          "name": "value",
          "type": "uint256"
        }
      ],
      "name": "Transfer",
      "type": "event"
    },
    {
      "inputs": [
        {
          "internalType": "address",
          "name": "account",
          "type": "address"
        }
      ],
      "name": "addAdmin",
      "outputs": [],
      "stateMutability": "nonpayable",
      "type": "function"
    },
    {
      "inputs": [],
      "name": "allAdmins",
      "outputs": [
        {
          "internalType": "address[]",
          "name": "admins",
          "type": "address[]"
        }
      ],
      "stateMutability": "view",
      "type": "function"
    },
    {
      "inputs": [
        {
          "internalType": "address",
          "name": "owner",
          "type": "address"
        },
        {
          "internalType": "address",
          "name": "spender",
          "type": "address"
        }
      ],
      "name": "allowance",
      "outputs": [
        {
          "internalType": "uint256",
          "name": "",
          "type": "uint256"
        }
      ],
      "stateMutability": "view",
      "type": "function"
    },
    {
      "inputs": [
        {
          "internalType": "address",
          "name": "spender",
          "type": "address"
        },
        {
          "internalType": "uint256",
          "name": "amount",
          "type": "uint256"
        }
      ],
      "name": "approve",
      "outputs": [
        {
          "internalType": "bool",
          "name": "",
          "type": "bool"
        }
      ],
      "stateMutability": "nonpayable",
      "type": "function"
    },
    {
      "inputs": [
        {
          "internalType": "address",
          "name": "account",
          "type": "address"
        }
      ],
      "name": "balanceOf",
      "outputs": [
        {
          "internalType": "uint256",
          "name": "",
          "type": "uint256"
        }
      ],
      "stateMutability": "view",
      "type": "function"
    },
    {
      "inputs": [],
      "name": "decimals",
      "outputs": [
        {
          "internalType": "uint8",
          "name": "",
          "type": "uint8"
        }
      ],
      "stateMutability": "view",
      "type": "function"
    },
    {
      "inputs": [
        {
          "internalType": "address",
          "name": "spender",
          "type": "address"
        },
        {
          "internalType": "uint256",
          "name": "subtractedValue",
          "type": "uint256"
        }
      ],
      "name": "decreaseAllowance",
      "outputs": [
        {
          "internalType": "bool",
          "name": "",
          "type": "bool"
        }
      ],
      "stateMutability": "nonpayable",
      "type": "function"
    },
    {
      "inputs": [
        {
          "internalType": "address",
          "name": "spender",
          "type": "address"
        },
        {
          "internalType": "uint256",
          "name": "addedValue",
          "type": "uint256"
        }
      ],
      "name": "increaseAllowance",
      "outputs": [
        {
          "internalType": "bool",
          "name": "",
          "type": "bool"
        }
      ],
      "stateMutability": "nonpayable",
      "type": "function"
    },
    {
      "inputs": [
        {
          "internalType": "address",
          "name": "account",
          "type": "address"
        }
      ],
      "name": "isAdmin",
      "outputs": [
        {
          "internalType": "bool",
          "name": "",
          "type": "bool"
        }
      ],
      "stateMutability": "view",
      "type": "function"
    },
    {
      "inputs": [],
      "name": "name",
      "outputs": [
        {
          "internalType": "string",
          "name": "",
          "type": "string"
        }
      ],
      "stateMutability": "view",
      "type": "function"
    },
    {
      "inputs": [
        {
          "internalType": "address",
          "name": "account",
          "type": "address"
        }
      ],
      "name": "removeAdmin",
      "outputs": [],
      "stateMutability": "nonpayable",
      "type": "function"
    },
    {
      "inputs": [],
      "name": "renounceAdmin",
      "outputs": [],
      "stateMutability": "nonpayable",
      "type": "function"
    },
    {
      "inputs": [],
      "name": "symbol",
      "outputs": [
        {
          "internalType": "string",
          "name": "",
          "type": "string"
        }
      ],
      "stateMutability": "view",
      "type": "function"
    },
    {
      "inputs": [],
      "name": "totalSupply",
      "outputs": [
        {
          "internalType": "uint256",
          "name": "",
          "type": "uint256"
        }
      ],
      "stateMutability": "view",
      "type": "function"
    },
    {
      "inputs": [
        {
          "internalType": "address",
          "name": "recipient",
          "type": "address"
        },
        {
          "internalType": "uint256",
          "name": "amount",
          "type": "uint256"
        }
      ],
      "name": "transfer",
      "outputs": [
        {
          "internalType": "bool",
          "name": "",
          "type": "bool"
        }
      ],
      "stateMutability": "nonpayable",
      "type": "function"
    },
    {
      "inputs": [
        {
          "internalType": "address",
          "name": "sender",
          "type": "address"
        },
        {
          "internalType": "address",
          "name": "recipient",
          "type": "address"
        },
        {
          "internalType": "uint256",
          "name": "amount",
          "type": "uint256"
        }
      ],
      "name": "transferFrom",
      "outputs": [
        {
          "internalType": "bool",
          "name": "",
          "type": "bool"
        }
      ],
      "stateMutability": "nonpayable",
      "type": "function"
    },
    {
      "inputs": [
        {
          "internalType": "address",
          "name": "recipient_",
          "type": "address"
        },
        {
          "internalType": "uint256",
          "name": "amount_",
          "type": "uint256"
        }
      ],
      "name": "mint",
      "outputs": [
        {
          "internalType": "bool",
          "name": "",
          "type": "bool"
        }
      ],
      "stateMutability": "nonpayable",
      "type": "function"
    },
    {
      "inputs": [
        {
          "internalType": "uint256",
          "name": "amount",
          "type": "uint256"
        }
      ],
      "name": "burn",
      "outputs": [],
      "stateMutability": "nonpayable",
      "type": "function"
    },
    {
      "inputs": [
        {
          "internalType": "address",
          "name": "account",
          "type": "address"
        },
        {
          "internalType": "uint256",
          "name": "amount",
          "type": "uint256"
        }
      ],
      "name": "burnFrom",
      "outputs": [],
      "stateMutability": "nonpayable",
      "type": "function"
    }
  ],
  "bytecode": "0x60806040523480156200001157600080fd5b506040518060400160405280600b81526020016a08edea6eec2e04086c2e6d60ab1b81525060405180604001604052806003815260200162474f4360e81b81525081600390805190602001906200006a929190620002fe565b50805162000080906004906020840190620002fe565b50506005805460ff19166012179055506200009b33620000b5565b620000af33670de0b6b3a764000062000108565b6200039a565b620000d08160066200021760201b6200099b1790919060201c565b506040516001600160a01b038216907f44d6d25963f097ad14f29f06854a01f575648a1ef82f30e562ccd3889717e33990600090a250565b6001600160a01b03821662000164576040805162461bcd60e51b815260206004820152601f60248201527f45524332303a206d696e7420746f20746865207a65726f206164647265737300604482015290519081900360640190fd5b620001726000838362000237565b6200018e816002546200023c60201b620009b71790919060201c565b6002556001600160a01b03821660009081526020818152604090912054620001c1918390620009b76200023c821b17901c565b6001600160a01b0383166000818152602081815260408083209490945583518581529351929391927fddf252ad1be2c89b69c2b068fc378daa952ba7f163c4a11628f55a4df523b3ef9281900390910190a35050565b60006200022e836001600160a01b03841662000297565b90505b92915050565b505050565b6000828201838110156200022e576040805162461bcd60e51b815260206004820152601b60248201527f536166654d6174683a206164646974696f6e206f766572666c6f770000000000604482015290519081900360640190fd5b6000620002a58383620002e6565b620002dd5750815460018181018455600084815260208082209093018490558454848252828601909352604090209190915562000231565b50600062000231565b60009081526001919091016020526040902054151590565b828054600181600116156101000203166002900490600052602060002090601f016020900481019282601f106200034157805160ff191683800117855562000371565b8280016001018555821562000371579182015b828111156200037157825182559160200191906001019062000354565b506200037f92915062000383565b5090565b5b808211156200037f576000815560010162000384565b6113d180620003aa6000396000f3fe608060405234801561001057600080fd5b50600436106101215760003560e01c806340f32be6116100ad5780638bad0c0a116100715780638bad0c0a146103e457806395d89b41146103ec578063a457c2d7146103f4578063a9059cbb14610420578063dd62ed3e1461044c57610121565b806340f32be6146102f757806342966c681461034f578063704802751461036c57806370a082311461039257806379cc6790146103b857610121565b806323b872dd116100f457806323b872dd1461022557806324d7806c1461025b578063313ce56714610281578063395093511461029f57806340c10f19146102cb57610121565b806306fdde0314610126578063095ea7b3146101a35780631785f53c146101e357806318160ddd1461020b575b600080fd5b61012e61047a565b6040805160208082528351818301528351919283929083019185019080838360005b83811015610168578181015183820152602001610150565b50505050905090810190601f1680156101955780820380516001836020036101000a031916815260200191505b509250505060405180910390f35b6101cf600480360360408110156101b957600080fd5b506001600160a01b038135169060200135610510565b604080519115158252519081900360200190f35b610209600480360360208110156101f957600080fd5b50356001600160a01b031661052e565b005b61021361057e565b60408051918252519081900360200190f35b6101cf6004803603606081101561023b57600080fd5b506001600160a01b03813581169160208101359091169060400135610584565b6101cf6004803603602081101561027157600080fd5b50356001600160a01b031661060b565b610289610618565b6040805160ff9092168252519081900360200190f35b6101cf600480360360408110156102b557600080fd5b506001600160a01b038135169060200135610621565b6101cf600480360360408110156102e157600080fd5b506001600160a01b03813516906020013561066f565b6102ff6106e3565b60408051602080825283518183015283519192839290830191858101910280838360005b8381101561033b578181015183820152602001610323565b505050509050019250505060405180910390f35b6102096004803603602081101561036557600080fd5b5035610781565b6102096004803603602081101561038257600080fd5b50356001600160a01b03166107ce565b610213600480360360208110156103a857600080fd5b50356001600160a01b031661081b565b610209600480360360408110156103ce57600080fd5b506001600160a01b038135169060200135610836565b610209610888565b61012e610893565b6101cf6004803603604081101561040a57600080fd5b506001600160a01b0381351690602001356108f4565b6101cf6004803603604081101561043657600080fd5b506001600160a01b03813516906020013561095c565b6102136004803603604081101561046257600080fd5b506001600160a01b0381358116916020013516610970565b60038054604080516020601f60026000196101006001881615020190951694909404938401819004810282018101909252828152606093909290918301828280156105065780601f106104db57610100808354040283529160200191610506565b820191906000526020600020905b8154815290600101906020018083116104e957829003601f168201915b5050505050905090565b600061052461051d610a11565b8484610a15565b5060015b92915050565b6105373361060b565b6105725760405162461bcd60e51b815260040180806020018281038252602e815260200180611300602e913960400191505060405180910390fd5b61057b81610b01565b50565b60025490565b6000610591848484610b44565b6106018461059d610a11565b6105fc85604051806060016040528060288152602001611293602891396001600160a01b038a166000908152600160205260408120906105db610a11565b6001600160a01b031681526020810191909152604001600020549190610c9f565b610a15565b5060019392505050565b6000610528600683610d36565b60055460ff1690565b600061052461062e610a11565b846105fc856001600061063f610a11565b6001600160a01b03908116825260208083019390935260409182016000908120918c1681529252902054906109b7565b600061067a3361060b565b6106b55760405162461bcd60e51b815260040180806020018281038252602e815260200180611300602e913960400191505060405180910390fd5b60006106c08461081b565b90506106cc8484610d4b565b60006106d78561081b565b91909111949350505050565b60606106ef6006610e3b565b67ffffffffffffffff8111801561070557600080fd5b5060405190808252806020026020018201604052801561072f578160200160208202803683370190505b50905060005b61073f6006610e3b565b81101561077d57610751600682610e46565b82828151811061075d57fe5b6001600160a01b0390921660209283029190910190910152600101610735565b5090565b61078a3361060b565b6107c55760405162461bcd60e51b815260040180806020018281038252602e815260200180611300602e913960400191505060405180910390fd5b61057b81610e52565b6107d73361060b565b6108125760405162461bcd60e51b815260040180806020018281038252602e815260200180611300602e913960400191505060405180910390fd5b61057b81610e63565b6001600160a01b031660009081526020819052604090205490565b61083f3361060b565b61087a5760405162461bcd60e51b815260040180806020018281038252602e815260200180611300602e913960400191505060405180910390fd5b6108848282610ea6565b5050565b61089133610b01565b565b60048054604080516020601f60026000196101006001881615020190951694909404938401819004810282018101909252828152606093909290918301828280156105065780601f106104db57610100808354040283529160200191610506565b6000610524610901610a11565b846105fc85604051806060016040528060258152602001611377602591396001600061092b610a11565b6001600160a01b03908116825260208083019390935260409182016000908120918d16815292529020549190610c9f565b6000610524610969610a11565b8484610b44565b6001600160a01b03918216600090815260016020908152604080832093909416825291909152205490565b60006109b0836001600160a01b038416610f00565b9392505050565b6000828201838110156109b0576040805162461bcd60e51b815260206004820152601b60248201527f536166654d6174683a206164646974696f6e206f766572666c6f770000000000604482015290519081900360640190fd5b3390565b6001600160a01b038316610a5a5760405162461bcd60e51b81526004018080602001828103825260248152602001806113536024913960400191505060405180910390fd5b6001600160a01b038216610a9f5760405162461bcd60e51b815260040180806020018281038252602281526020018061124b6022913960400191505060405180910390fd5b6001600160a01b03808416600081815260016020908152604080832094871680845294825291829020859055815185815291517f8c5be1e5ebec7d5bd14f71427d1e84f3dd0314c0f7b2291e5b200ac8c7c3b9259281900390910190a3505050565b610b0c600682610f4a565b506040516001600160a01b038216907fa3b62bc36326052d97ea62d63c3d60308ed4c3ea8ac079dd8499f1e9c4f80c0f90600090a250565b6001600160a01b038316610b895760405162461bcd60e51b815260040180806020018281038252602581526020018061132e6025913960400191505060405180910390fd5b6001600160a01b038216610bce5760405162461bcd60e51b81526004018080602001828103825260238152602001806112066023913960400191505060405180910390fd5b610bd9838383610efb565b610c168160405180606001604052806026815260200161126d602691396001600160a01b0386166000908152602081905260409020549190610c9f565b6001600160a01b038085166000908152602081905260408082209390935590841681522054610c4590826109b7565b6001600160a01b038084166000818152602081815260409182902094909455805185815290519193928716927fddf252ad1be2c89b69c2b068fc378daa952ba7f163c4a11628f55a4df523b3ef92918290030190a3505050565b60008184841115610d2e5760405162461bcd60e51b81526004018080602001828103825283818151815260200191508051906020019080838360005b83811015610cf3578181015183820152602001610cdb565b50505050905090810190601f168015610d205780820380516001836020036101000a031916815260200191505b509250505060405180910390fd5b505050900390565b60006109b0836001600160a01b038416610f5f565b6001600160a01b038216610da6576040805162461bcd60e51b815260206004820152601f60248201527f45524332303a206d696e7420746f20746865207a65726f206164647265737300604482015290519081900360640190fd5b610db260008383610efb565b600254610dbf90826109b7565b6002556001600160a01b038216600090815260208190526040902054610de590826109b7565b6001600160a01b0383166000818152602081815260408083209490945583518581529351929391927fddf252ad1be2c89b69c2b068fc378daa952ba7f163c4a11628f55a4df523b3ef9281900390910190a35050565b600061052882610f77565b60006109b08383610f7b565b61057b610e5d610a11565b82610fdf565b610e6e60068261099b565b506040516001600160a01b038216907f44d6d25963f097ad14f29f06854a01f575648a1ef82f30e562ccd3889717e33990600090a250565b6000610edd826040518060600160405280602481526020016112bb60249139610ed686610ed1610a11565b610970565b9190610c9f565b9050610ef183610eeb610a11565b83610a15565b610efb8383610fdf565b505050565b6000610f0c8383610f5f565b610f4257508154600181810184556000848152602080822090930184905584548482528286019093526040902091909155610528565b506000610528565b60006109b0836001600160a01b0384166110db565b60009081526001919091016020526040902054151590565b5490565b81546000908210610fbd5760405162461bcd60e51b81526004018080602001828103825260228152602001806111e46022913960400191505060405180910390fd5b826000018281548110610fcc57fe5b9060005260206000200154905092915050565b6001600160a01b0382166110245760405162461bcd60e51b81526004018080602001828103825260218152602001806112df6021913960400191505060405180910390fd5b61103082600083610efb565b61106d81604051806060016040528060228152602001611229602291396001600160a01b0385166000908152602081905260409020549190610c9f565b6001600160a01b03831660009081526020819052604090205560025461109390826111a1565b6002556040805182815290516000916001600160a01b038516917fddf252ad1be2c89b69c2b068fc378daa952ba7f163c4a11628f55a4df523b3ef9181900360200190a35050565b60008181526001830160205260408120548015611197578354600019808301919081019060009087908390811061110e57fe5b906000526020600020015490508087600001848154811061112b57fe5b60009182526020808320909101929092558281526001898101909252604090209084019055865487908061115b57fe5b60019003818190600052602060002001600090559055866001016000878152602001908152602001600020600090556001945050505050610528565b6000915050610528565b60006109b083836040518060400160405280601e81526020017f536166654d6174683a207375627472616374696f6e206f766572666c6f770000815250610c9f56fe456e756d657261626c655365743a20696e646578206f7574206f6620626f756e647345524332303a207472616e7366657220746f20746865207a65726f206164647265737345524332303a206275726e20616d6f756e7420657863656564732062616c616e636545524332303a20617070726f766520746f20746865207a65726f206164647265737345524332303a207472616e7366657220616d6f756e7420657863656564732062616c616e636545524332303a207472616e7366657220616d6f756e74206578636565647320616c6c6f77616e636545524332303a206275726e20616d6f756e74206578636565647320616c6c6f77616e636545524332303a206275726e2066726f6d20746865207a65726f206164647265737341646d696e526f6c653a2063616c6c657220646f6573206e6f742068617665207468652041646d696e20726f6c6545524332303a207472616e736665722066726f6d20746865207a65726f206164647265737345524332303a20617070726f76652066726f6d20746865207a65726f206164647265737345524332303a2064656372656173656420616c6c6f77616e63652062656c6f77207a65726fa2646970667358221220155dd3913f03944539329c10801dcadb10c3e5db9fa5863ce6bf1d1ee4da559e64736f6c634300060c0033",
  "immutableReferences": {},
  "source": "// SPDX-License-Identifier: MIT\npragma solidity ^0.6.0;\n\nimport '@openzeppelin/contracts/token/ERC20/ERC20Burnable.sol';\nimport './libraries/AdminRole.sol';\n\ncontract GoSwapCash is ERC20Burnable, AdminRole {\n    /**\n     * @notice Constructs the GoSwap Cash ERC-20 contract.\n     */\n    constructor() public ERC20('GoSwap Cash', 'GOC') {\n        // Mints 1 GoSwap Cash to contract creator for initial Uniswap oracle deployment.\n        // Will be burned after oracle deployment\n        _mint(msg.sender, 1 * 10**18);\n    }\n\n    /**\n     * @notice Operator mints GoSwap cash to a recipient\n     * @param recipient_ The address of recipient\n     * @param amount_ The amount of GoSwap cash to mint to\n     * @return whether the process has been done\n     */\n    function mint(address recipient_, uint256 amount_) public onlyAdmin returns (bool) {\n        uint256 balanceBefore = balanceOf(recipient_);\n        _mint(recipient_, amount_);\n        uint256 balanceAfter = balanceOf(recipient_);\n\n        return balanceAfter > balanceBefore;\n    }\n\n    function burn(uint256 amount) public override onlyAdmin {\n        super.burn(amount);\n    }\n\n    function burnFrom(address account, uint256 amount) public override onlyAdmin {\n        super.burnFrom(account, amount);\n    }\n}\n",
  "sourcePath": "/home/cui/Documents/goswap/goswap-core/contracts/GoSwapCash.sol",
  "compiler": {
    "name": "solc",
    "version": "0.6.12+commit.27d51765.Emscripten.clang"
  },
  "schemaVersion": "3.3.2",
  "updatedAt": "2021-01-18T03:20:28.249Z",
  "devdoc": {
    "kind": "dev",
    "methods": {
      "addAdmin(address)": {
        "details": "",
        "params": {
          "account": ""
        }
      },
      "allAdmins()": {
        "details": "",
        "returns": {
          "admins": ""
        }
      },
      "allowance(address,address)": {
        "details": "See {IERC20-allowance}."
      },
      "approve(address,uint256)": {
        "details": "See {IERC20-approve}. Requirements: - `spender` cannot be the zero address."
      },
      "balanceOf(address)": {
        "details": "See {IERC20-balanceOf}."
      },
      "burn(uint256)": {
        "details": "Destroys `amount` tokens from the caller. See {ERC20-_burn}."
      },
      "burnFrom(address,uint256)": {
        "details": "Destroys `amount` tokens from `account`, deducting from the caller's allowance. See {ERC20-_burn} and {ERC20-allowance}. Requirements: - the caller must have allowance for ``accounts``'s tokens of at least `amount`."
      },
      "decimals()": {
        "details": "Returns the number of decimals used to get its user representation. For example, if `decimals` equals `2`, a balance of `505` tokens should be displayed to a user as `5,05` (`505 / 10 ** 2`). Tokens usually opt for a value of 18, imitating the relationship between Ether and Wei. This is the value {ERC20} uses, unless {_setupDecimals} is called. NOTE: This information is only used for _display_ purposes: it in no way affects any of the arithmetic of the contract, including {IERC20-balanceOf} and {IERC20-transfer}."
      },
      "decreaseAllowance(address,uint256)": {
        "details": "Atomically decreases the allowance granted to `spender` by the caller. This is an alternative to {approve} that can be used as a mitigation for problems described in {IERC20-approve}. Emits an {Approval} event indicating the updated allowance. Requirements: - `spender` cannot be the zero address. - `spender` must have allowance for the caller of at least `subtractedValue`."
      },
      "increaseAllowance(address,uint256)": {
        "details": "Atomically increases the allowance granted to `spender` by the caller. This is an alternative to {approve} that can be used as a mitigation for problems described in {IERC20-approve}. Emits an {Approval} event indicating the updated allowance. Requirements: - `spender` cannot be the zero address."
      },
      "isAdmin(address)": {
        "details": "",
        "params": {
          "account": ""
        },
        "returns": {
          "_0": ""
        }
      },
      "mint(address,uint256)": {
        "params": {
          "amount_": "The amount of GoSwap cash to mint to",
          "recipient_": "The address of recipient"
        },
        "returns": {
          "_0": "whether the process has been done"
        }
      },
      "name()": {
        "details": "Returns the name of the token."
      },
      "removeAdmin(address)": {
        "details": "",
        "params": {
          "account": ""
        }
      },
      "renounceAdmin()": {
        "details": ""
      },
      "symbol()": {
        "details": "Returns the symbol of the token, usually a shorter version of the name."
      },
      "totalSupply()": {
        "details": "See {IERC20-totalSupply}."
      },
      "transfer(address,uint256)": {
        "details": "See {IERC20-transfer}. Requirements: - `recipient` cannot be the zero address. - the caller must have a balance of at least `amount`."
      },
      "transferFrom(address,address,uint256)": {
        "details": "See {IERC20-transferFrom}. Emits an {Approval} event indicating the updated allowance. This is not required by the EIP. See the note at the beginning of {ERC20}; Requirements: - `sender` and `recipient` cannot be the zero address. - `sender` must have a balance of at least `amount`. - the caller must have allowance for ``sender``'s tokens of at least `amount`."
      }
    },
    "version": 1
  },
  "userdoc": {
    "kind": "user",
    "methods": {
      "constructor": "Constructs the GoSwap Cash ERC-20 contract.",
      "mint(address,uint256)": {
        "notice": "Operator mints GoSwap cash to a recipient"
      }
    },
    "version": 1
  }
}