{
  "contractName": "GoSwapOracle",
  "abi": [
    {
      "inputs": [
        {
          "internalType": "address",
          "name": "_company",
          "type": "address"
        },
        {
          "internalType": "address",
          "name": "_tokenA",
          "type": "address"
        },
        {
          "internalType": "address",
          "name": "_tokenB",
          "type": "address"
        },
        {
          "internalType": "uint256",
          "name": "_period",
          "type": "uint256"
        },
        {
          "internalType": "uint256",
          "name": "_startTime",
          "type": "uint256"
        }
      ],
      "stateMutability": "nonpayable",
      "type": "constructor"
    },
    {
      "anonymous": false,
      "inputs": [
        {
          "indexed": true,
          "internalType": "address",
          "name": "account",
          "type": "address"
        }
      ],
      "name": "AdminAdded",
      "type": "event"
    },
    {
      "anonymous": false,
      "inputs": [
        {
          "indexed": true,
          "internalType": "address",
          "name": "account",
          "type": "address"
        }
      ],
      "name": "AdminRemoved",
      "type": "event"
    },
    {
      "anonymous": false,
      "inputs": [
        {
          "indexed": false,
          "internalType": "uint256",
          "name": "price0CumulativeLast",
          "type": "uint256"
        },
        {
          "indexed": false,
          "internalType": "uint256",
          "name": "price1CumulativeLast",
          "type": "uint256"
        }
      ],
      "name": "Updated",
      "type": "event"
    },
    {
      "inputs": [
        {
          "internalType": "address",
          "name": "account",
          "type": "address"
        }
      ],
      "name": "addAdmin",
      "outputs": [],
      "stateMutability": "nonpayable",
      "type": "function"
    },
    {
      "inputs": [],
      "name": "allAdmins",
      "outputs": [
        {
          "internalType": "address[]",
          "name": "admins",
          "type": "address[]"
        }
      ],
      "stateMutability": "view",
      "type": "function"
    },
    {
      "inputs": [],
      "name": "blockTimestampLast",
      "outputs": [
        {
          "internalType": "uint32",
          "name": "",
          "type": "uint32"
        }
      ],
      "stateMutability": "view",
      "type": "function"
    },
    {
      "inputs": [],
      "name": "getCurrentEpoch",
      "outputs": [
        {
          "internalType": "uint256",
          "name": "",
          "type": "uint256"
        }
      ],
      "stateMutability": "view",
      "type": "function"
    },
    {
      "inputs": [],
      "name": "getLastEpoch",
      "outputs": [
        {
          "internalType": "uint256",
          "name": "",
          "type": "uint256"
        }
      ],
      "stateMutability": "view",
      "type": "function"
    },
    {
      "inputs": [],
      "name": "getNextEpoch",
      "outputs": [
        {
          "internalType": "uint256",
          "name": "",
          "type": "uint256"
        }
      ],
      "stateMutability": "view",
      "type": "function"
    },
    {
      "inputs": [],
      "name": "getPeriod",
      "outputs": [
        {
          "internalType": "uint256",
          "name": "",
          "type": "uint256"
        }
      ],
      "stateMutability": "view",
      "type": "function"
    },
    {
      "inputs": [],
      "name": "getStartTime",
      "outputs": [
        {
          "internalType": "uint256",
          "name": "",
          "type": "uint256"
        }
      ],
      "stateMutability": "view",
      "type": "function"
    },
    {
      "inputs": [
        {
          "internalType": "address",
          "name": "account",
          "type": "address"
        }
      ],
      "name": "isAdmin",
      "outputs": [
        {
          "internalType": "bool",
          "name": "",
          "type": "bool"
        }
      ],
      "stateMutability": "view",
      "type": "function"
    },
    {
      "inputs": [],
      "name": "nextEpochPoint",
      "outputs": [
        {
          "internalType": "uint256",
          "name": "",
          "type": "uint256"
        }
      ],
      "stateMutability": "view",
      "type": "function"
    },
    {
      "inputs": [],
      "name": "pair",
      "outputs": [
        {
          "internalType": "contract IGoSwapPair",
          "name": "",
          "type": "address"
        }
      ],
      "stateMutability": "view",
      "type": "function"
    },
    {
      "inputs": [],
      "name": "price0Average",
      "outputs": [
        {
          "internalType": "uint224",
          "name": "_x",
          "type": "uint224"
        }
      ],
      "stateMutability": "view",
      "type": "function"
    },
    {
      "inputs": [],
      "name": "price0CumulativeLast",
      "outputs": [
        {
          "internalType": "uint256",
          "name": "",
          "type": "uint256"
        }
      ],
      "stateMutability": "view",
      "type": "function"
    },
    {
      "inputs": [],
      "name": "price1Average",
      "outputs": [
        {
          "internalType": "uint224",
          "name": "_x",
          "type": "uint224"
        }
      ],
      "stateMutability": "view",
      "type": "function"
    },
    {
      "inputs": [],
      "name": "price1CumulativeLast",
      "outputs": [
        {
          "internalType": "uint256",
          "name": "",
          "type": "uint256"
        }
      ],
      "stateMutability": "view",
      "type": "function"
    },
    {
      "inputs": [
        {
          "internalType": "address",
          "name": "account",
          "type": "address"
        }
      ],
      "name": "removeAdmin",
      "outputs": [],
      "stateMutability": "nonpayable",
      "type": "function"
    },
    {
      "inputs": [],
      "name": "renounceAdmin",
      "outputs": [],
      "stateMutability": "nonpayable",
      "type": "function"
    },
    {
      "inputs": [
        {
          "internalType": "uint256",
          "name": "_period",
          "type": "uint256"
        }
      ],
      "name": "setPeriod",
      "outputs": [],
      "stateMutability": "nonpayable",
      "type": "function"
    },
    {
      "inputs": [],
      "name": "token0",
      "outputs": [
        {
          "internalType": "address",
          "name": "",
          "type": "address"
        }
      ],
      "stateMutability": "view",
      "type": "function"
    },
    {
      "inputs": [],
      "name": "token1",
      "outputs": [
        {
          "internalType": "address",
          "name": "",
          "type": "address"
        }
      ],
      "stateMutability": "view",
      "type": "function"
    },
    {
      "inputs": [],
      "name": "update",
      "outputs": [],
      "stateMutability": "nonpayable",
      "type": "function"
    },
    {
      "inputs": [
        {
          "internalType": "address",
          "name": "token",
          "type": "address"
        },
        {
          "internalType": "uint256",
          "name": "amountIn",
          "type": "uint256"
        }
      ],
      "name": "consult",
      "outputs": [
        {
          "internalType": "uint144",
          "name": "amountOut",
          "type": "uint144"
        }
      ],
      "stateMutability": "view",
      "type": "function"
    },
    {
      "inputs": [
        {
          "internalType": "address",
          "name": "token",
          "type": "address"
        },
        {
          "internalType": "uint256",
          "name": "amountIn",
          "type": "uint256"
        }
      ],
      "name": "expectedPrice",
      "outputs": [
        {
          "internalType": "uint224",
          "name": "amountOut",
          "type": "uint224"
        }
      ],
      "stateMutability": "view",
      "type": "function"
    },
    {
      "inputs": [
        {
          "internalType": "address",
          "name": "company",
          "type": "address"
        },
        {
          "internalType": "address",
          "name": "tokenA",
          "type": "address"
        },
        {
          "internalType": "address",
          "name": "tokenB",
          "type": "address"
        }
      ],
      "name": "pairFor",
      "outputs": [
        {
          "internalType": "address",
          "name": "lpt",
          "type": "address"
        }
      ],
      "stateMutability": "pure",
      "type": "function"
    }
  ],
  "bytecode": "0x60806040523480156200001157600080fd5b5060405162001ed338038062001ed3833981810160405260a08110156200003757600080fd5b5080516020820151604083015160608401516080909401519293919290919081816000620000653362000453565b428211620000ba576040805162461bcd60e51b815260206004820152601960248201527f45706f63683a20696e76616c69642073746172742074696d6500000000000000604482015290519081900360640190fd5b60028390556003829055620000f7620000e08285620004a6602090811b62000ac317901c565b6003546200050d60201b62000b1c1790919060201c565b60048190555050505060006200011a8686866200056860201b62000b761760201c565b905080600760006101000a8154816001600160a01b0302191690836001600160a01b03160217905550806001600160a01b0316630dfe16816040518163ffffffff1660e01b815260040160206040518083038186803b1580156200017d57600080fd5b505afa15801562000192573d6000803e3d6000fd5b505050506040513d6020811015620001a957600080fd5b5051600580546001600160a01b0319166001600160a01b039283161790556040805163d21220a760e01b815290519183169163d21220a791600480820192602092909190829003018186803b1580156200020257600080fd5b505afa15801562000217573d6000803e3d6000fd5b505050506040513d60208110156200022e57600080fd5b5051600680546001600160a01b0319166001600160a01b0392831617905560408051635909c0d560e01b8152905191831691635909c0d591600480820192602092909190829003018186803b1580156200028757600080fd5b505afa1580156200029c573d6000803e3d6000fd5b505050506040513d6020811015620002b357600080fd5b505160085560408051635a3d549360e01b815290516001600160a01b03831691635a3d5493916004808301926020929190829003018186803b158015620002f957600080fd5b505afa1580156200030e573d6000803e3d6000fd5b505050506040513d60208110156200032557600080fd5b505160095560408051630240bc6b60e21b8152905160009182916001600160a01b03851691630902f1ac916004808301926060929190829003018186803b1580156200037057600080fd5b505afa15801562000385573d6000803e3d6000fd5b505050506040513d60608110156200039c57600080fd5b50805160208201516040909201516007805463ffffffff909216600160a01b0263ffffffff60a01b19909216919091179055925090506001600160701b03821615801590620003f357506001600160701b03811615155b62000445576040805162461bcd60e51b815260206004820152601360248201527f4f7261636c653a204e4f5f524553455256455300000000000000000000000000604482015290519081900360640190fd5b505050505050505062000877565b6200046e8160006200071660201b62000d091790919060201c565b506040516001600160a01b038216907f44d6d25963f097ad14f29f06854a01f575648a1ef82f30e562ccd3889717e33990600090a250565b600082620004b75750600062000507565b82820282848281620004c557fe5b0414620005045760405162461bcd60e51b815260040180806020018281038252602181526020018062001eb26021913960400191505060405180910390fd5b90505b92915050565b60008282018381101562000504576040805162461bcd60e51b815260206004820152601b60248201527f536166654d6174683a206164646974696f6e206f766572666c6f770000000000604482015290519081900360640190fd5b600080846001600160a01b0316620cb79785856040518363ffffffff1660e01b815260040180836001600160a01b03168152602001826001600160a01b031681526020019250505060206040518083038186803b158015620005c957600080fd5b505afa158015620005de573d6000803e3d6000fd5b505050506040513d6020811015620005f557600080fd5b505190506000806200060886866200072d565b915091506000836001600160a01b0316639aab92486040518163ffffffff1660e01b815260040160206040518083038186803b1580156200064857600080fd5b505afa1580156200065d573d6000803e3d6000fd5b505050506040513d60208110156200067457600080fd5b5051604080516001600160601b0319606096871b811660208381019190915295871b81166034830152825160288184030181526048830184528051908701207fff0000000000000000000000000000000000000000000000000000000000000060688401529790961b9095166069860152607d850195909552609d808501919091528451808503909101815260bd909301909352815191012095945050505050565b600062000504836001600160a01b03841662000810565b600080826001600160a01b0316846001600160a01b03161415620007835760405162461bcd60e51b815260040180806020018281038252602281526020018062001e906022913960400191505060405180910390fd5b826001600160a01b0316846001600160a01b031610620007a5578284620007a8565b83835b90925090506001600160a01b03821662000809576040805162461bcd60e51b815260206004820152601b60248201527f476f537761704c6962726172793a205a45524f5f414444524553530000000000604482015290519081900360640190fd5b9250929050565b60006200081e83836200085f565b620008565750815460018181018455600084815260208082209093018490558454848252828601909352604090209190915562000507565b50600062000507565b60009081526001919091016020526040902054151590565b61160980620008876000396000f3fe608060405234801561001057600080fd5b50600436106101585760003560e01c806370480275116100c3578063c5700a021161007c578063c5700a021461037c578063c5967c261461039d578063c828371e146103a5578063d21220a7146103ad578063efe97d05146103b5578063f00d371c146103bd57610158565b8063704802751461032e5780638bad0c0a14610354578063a2e620451461035c578063a6bb453914610364578063a8aa1b311461036c578063b97dd9e21461037457610158565b80633ddac953116101155780633ddac9531461022257806340f32be61461026a5780635909c0d5146102c25780635a3d5493146102ca5780635e6aaf2c146102d25780636d91c0e2146102f657610158565b80630dfe16811461015d5780630f3a9f65146101815780631785f53c146101a05780631ed24195146101c657806324d7806c146101e0578063398bac631461021a575b600080fd5b6101656103e9565b604080516001600160a01b039092168252519081900360200190f35b61019e6004803603602081101561019757600080fd5b50356103f8565b005b61019e600480360360208110156101b657600080fd5b50356001600160a01b0316610441565b6101ce610491565b60408051918252519081900360200190f35b610206600480360360208110156101f657600080fd5b50356001600160a01b0316610498565b604080519115158252519081900360200190f35b6101ce6104aa565b61024e6004803603604081101561023857600080fd5b506001600160a01b0381351690602001356104d4565b604080516001600160901b039092168252519081900360200190f35b6102726105a8565b60408051602080825283518183015283519192839290830191858101910280838360005b838110156102ae578181015183820152602001610296565b505050509050019250505060405180910390f35b6101ce610646565b6101ce61064c565b6102da610652565b604080516001600160e01b039092168252519081900360200190f35b6101656004803603606081101561030c57600080fd5b506001600160a01b038135811691602081013582169160409091013516610661565b61019e6004803603602081101561034457600080fd5b50356001600160a01b0316610676565b61019e6106c3565b61019e6106ce565b6102da6108b6565b6101656108c5565b6101ce6108d4565b6103846108f4565b6040805163ffffffff9092168252519081900360200190f35b6101ce610907565b6101ce610929565b61016561092f565b6101ce61093e565b6102da600480360360408110156103d357600080fd5b506001600160a01b03813516906020013561096e565b6005546001600160a01b031681565b61040133610498565b61043c5760405162461bcd60e51b815260040180806020018281038252602e815260200180611583602e913960400191505060405180910390fd5b600255565b61044a33610498565b6104855760405162461bcd60e51b815260040180806020018281038252602e815260200180611583602e913960400191505060405180910390fd5b61048e81610d1e565b50565b6002545b90565b60006104a48183610d61565b92915050565b60006104cf6002546104c9600354600454610d7690919063ffffffff16565b90610db8565b905090565b6005546000906001600160a01b0384811691161415610520576040805160208101909152600a546001600160e01b03168152610519906105149084610dfa565b610e78565b90506104a4565b6006546001600160a01b0384811691161461057a576040805162461bcd60e51b815260206004820152601560248201527427b930b1b6329d1024a72b20a624a22faa27a5a2a760591b604482015290519081900360640190fd5b6040805160208101909152600b546001600160e01b031681526105a1906105149084610dfa565b9392505050565b60606105b46000610e7f565b67ffffffffffffffff811180156105ca57600080fd5b506040519080825280602002602001820160405280156105f4578160200160208202803683370190505b50905060005b6106046000610e7f565b81101561064257610616600082610e8a565b82828151811061062257fe5b6001600160a01b03909216602092830291909101909101526001016105fa565b5090565b60085481565b60095481565b600b546001600160e01b031681565b600061066e848484610b76565b949350505050565b61067f33610498565b6106ba5760405162461bcd60e51b815260040180806020018281038252602e815260200180611583602e913960400191505060405180910390fd5b61048e81610e96565b6106cc33610d1e565b565b600354421161071d576040805162461bcd60e51b8152602060048201526016602482015275115c1bd8da0e881b9bdd081cdd185c9d1959081e595d60521b604482015290519081900360640190fd5b61072561093e565b61072d6108d4565b1015610775576040805162461bcd60e51b8152602060048201526012602482015271115c1bd8da0e881b9bdd08185b1b1bddd95960721b604482015290519081900360640190fd5b60075460009081908190610791906001600160a01b0316610ed9565b600754929550909350915063ffffffff600160a01b909104811682039081166107bd57505050506108b0565b60405180602001604052808263ffffffff166008548703816107db57fe5b046001600160e01b039081169091529051600a80546001600160e01b031916919092161790556040805160208101909152600954819063ffffffff84169086038161082257fe5b046001600160e01b039081169091529051600b80546001600160e01b03191691909216179055600884905560098390556007805463ffffffff60a01b1916600160a01b63ffffffff851602179055604080518581526020810185905281517fd78a0cb8bb633d06981248b816e7bd33c2a35a6089241d099fa519e361cab902929181900390910190a1505050505b42600455565b600a546001600160e01b031681565b6007546001600160a01b031681565b60006104cf6002546104c96003546108ee600354426110a8565b90610d76565b600754600160a01b900463ffffffff1681565b60006104cf61092060025461091a61093e565b90610ac3565b60035490610b1c565b60035490565b6006546001600160a01b031681565b6000600454600354141561095b576109546104aa565b9050610495565b6104cf60016109686104aa565b90610b1c565b60075460009081908190819061098c906001600160a01b0316610ed9565b6007549295509093509150600160a01b900463ffffffff1681036109ae6114f8565b60405180602001604052808363ffffffff166008548803816109cc57fe5b046001600160e01b031681525090506109e36114f8565b60405180602001604052808463ffffffff16600954880381610a0157fe5b046001600160e01b031690526005549091506001600160a01b03908116908a161415610a4457610a34610514838a610dfa565b6001600160901b03169650610ab7565b6006546001600160a01b038a8116911614610a9e576040805162461bcd60e51b815260206004820152601560248201527427b930b1b6329d1024a72b20a624a22faa27a5a2a760591b604482015290519081900360640190fd5b610aab610514828a610dfa565b6001600160901b031696505b50505050505092915050565b600082610ad2575060006104a4565b82820282848281610adf57fe5b04146105a15760405162461bcd60e51b81526004018080602001828103825260218152602001806115626021913960400191505060405180910390fd5b6000828201838110156105a1576040805162461bcd60e51b815260206004820152601b60248201527f536166654d6174683a206164646974696f6e206f766572666c6f770000000000604482015290519081900360640190fd5b600080846001600160a01b0316620cb79785856040518363ffffffff1660e01b815260040180836001600160a01b03168152602001826001600160a01b031681526020019250505060206040518083038186803b158015610bd657600080fd5b505afa158015610bea573d6000803e3d6000fd5b505050506040513d6020811015610c0057600080fd5b50519050600080610c1186866110bf565b915091506000836001600160a01b0316639aab92486040518163ffffffff1660e01b815260040160206040518083038186803b158015610c5057600080fd5b505afa158015610c64573d6000803e3d6000fd5b505050506040513d6020811015610c7a57600080fd5b5051604080516bffffffffffffffffffffffff19606096871b811660208381019190915295871b81166034830152825160288184030181526048830184528051908701206001600160f81b031960688401529790961b9095166069860152607d850195909552609d808501919091528451808503909101815260bd909301909352815191012095945050505050565b60006105a1836001600160a01b03841661119d565b610d296000826111e7565b506040516001600160a01b038216907fa3b62bc36326052d97ea62d63c3d60308ed4c3ea8ac079dd8499f1e9c4f80c0f90600090a250565b60006105a1836001600160a01b0384166111fc565b60006105a183836040518060400160405280601e81526020017f536166654d6174683a207375627472616374696f6e206f766572666c6f770000815250611214565b60006105a183836040518060400160405280601a81526020017f536166654d6174683a206469766973696f6e206279207a65726f0000000000008152506112ab565b610e0261150a565b6000821580610e2857505082516001600160e01b031682810290838281610e2557fe5b04145b610e635760405162461bcd60e51b81526004018080602001828103825260238152602001806115b16023913960400191505060405180910390fd5b60408051602081019091529081529392505050565b5160701c90565b60006104a482611310565b60006105a18383611314565b610ea1600082610d09565b506040516001600160a01b038216907f44d6d25963f097ad14f29f06854a01f575648a1ef82f30e562ccd3889717e33990600090a250565b6000806000610ee6611378565b9050836001600160a01b0316635909c0d56040518163ffffffff1660e01b815260040160206040518083038186803b158015610f2157600080fd5b505afa158015610f35573d6000803e3d6000fd5b505050506040513d6020811015610f4b57600080fd5b505160408051635a3d549360e01b815290519194506001600160a01b03861691635a3d549391600480820192602092909190829003018186803b158015610f9157600080fd5b505afa158015610fa5573d6000803e3d6000fd5b505050506040513d6020811015610fbb57600080fd5b505160408051630240bc6b60e21b81529051919350600091829182916001600160a01b03891691630902f1ac916004808301926060929190829003018186803b15801561100757600080fd5b505afa15801561101b573d6000803e3d6000fd5b505050506040513d606081101561103157600080fd5b5080516020820151604090920151909450909250905063ffffffff8082169085161461109e5780840363ffffffff811661106b8486611382565b516001600160e01b031602969096019563ffffffff811661108c8585611382565b516001600160e01b0316029590950194505b5050509193909250565b6000818310156110b857816105a1565b5090919050565b600080826001600160a01b0316846001600160a01b031614156111135760405162461bcd60e51b81526004018080602001828103825260228152602001806115406022913960400191505060405180910390fd5b826001600160a01b0316846001600160a01b031610611133578284611136565b83835b90925090506001600160a01b038216611196576040805162461bcd60e51b815260206004820152601b60248201527f476f537761704c6962726172793a205a45524f5f414444524553530000000000604482015290519081900360640190fd5b9250929050565b60006111a983836111fc565b6111df575081546001818101845560008481526020808220909301849055845484825282860190935260409020919091556104a4565b5060006104a4565b60006105a1836001600160a01b038416611432565b60009081526001919091016020526040902054151590565b600081848411156112a35760405162461bcd60e51b81526004018080602001828103825283818151815260200191508051906020019080838360005b83811015611268578181015183820152602001611250565b50505050905090810190601f1680156112955780820380516001836020036101000a031916815260200191505b509250505060405180910390fd5b505050900390565b600081836112fa5760405162461bcd60e51b8152602060048201818152835160248401528351909283926044909101919085019080838360008315611268578181015183820152602001611250565b50600083858161130657fe5b0495945050505050565b5490565b815460009082106113565760405162461bcd60e51b815260040180806020018281038252602281526020018061151e6022913960400191505060405180910390fd5b82600001828154811061136557fe5b9060005260206000200154905092915050565b63ffffffff421690565b61138a6114f8565b6000826001600160701b0316116113e8576040805162461bcd60e51b815260206004820152601760248201527f4669786564506f696e743a204449565f42595f5a45524f000000000000000000604482015290519081900360640190fd5b6040805160208101909152806001600160701b0384166dffffffffffffffffffffffffffff60701b607087901b168161141d57fe5b046001600160e01b0316815250905092915050565b600081815260018301602052604081205480156114ee578354600019808301919081019060009087908390811061146557fe5b906000526020600020015490508087600001848154811061148257fe5b6000918252602080832090910192909255828152600189810190925260409020908401905586548790806114b257fe5b600190038181906000526020600020016000905590558660010160008781526020019081526020016000206000905560019450505050506104a4565b60009150506104a4565b60408051602081019091526000815290565b604051806020016040528060008152509056fe456e756d657261626c655365743a20696e646578206f7574206f6620626f756e6473476f537761704c6962726172793a204944454e544943414c5f414444524553534553536166654d6174683a206d756c7469706c69636174696f6e206f766572666c6f7741646d696e526f6c653a2063616c6c657220646f6573206e6f742068617665207468652041646d696e20726f6c654669786564506f696e743a204d554c5449504c49434154494f4e5f4f564552464c4f57a2646970667358221220628b01ffeb02355934960bc2d76e6eb0ddaa60cbb11db052a386f0914bce1c7e64736f6c634300060c0033476f537761704c6962726172793a204944454e544943414c5f414444524553534553536166654d6174683a206d756c7469706c69636174696f6e206f766572666c6f77",
  "immutableReferences": {},
  "source": "// SPDX-License-Identifier: MIT\npragma solidity ^0.6.0;\n\nimport '@openzeppelin/contracts/math/SafeMath.sol';\n\nimport './libraries/FixedPoint.sol';\nimport './libraries/GoSwapLibrary.sol';\nimport './libraries/GoSwapOracleLibrary.sol';\nimport './libraries/Epoch.sol';\nimport './interfaces/IGoSwapPair.sol';\n\n// fixed window oracle that recomputes the average price for the entire period once every period\n// note that the price average is only guaranteed to be over at least 1 period, but may be over a longer period\ncontract GoSwapOracle is Epoch {\n    using FixedPoint for *;\n    using SafeMath for uint256;\n\n    /* ========== STATE VARIABLES ========== */\n\n    // uniswap\n    /// @notice token0\n    address public token0;\n    /// @notice token1\n    address public token1;\n    /// @notice \n    IGoSwapPair public pair;\n\n    // oracle\n    /// @notice \n    uint32 public blockTimestampLast;\n    /// @notice 0\n    uint256 public price0CumulativeLast;\n    /// @notice 1\n    uint256 public price1CumulativeLast;\n    /// @notice 0\n    FixedPoint.uq112x112 public price0Average;\n    /// @notice 1\n    FixedPoint.uq112x112 public price1Average;\n\n    /* ========== CONSTRUCTOR ========== */\n    /**\n     * @dev \n     * @param _company \n     * @param _tokenA TokenA\n     * @param _tokenB TokenB\n     * @param _period \n     * @param _startTime \n     */\n    constructor(\n        address _company,\n        address _tokenA,\n        address _tokenB,\n        uint256 _period,\n        uint256 _startTime\n    ) public Epoch(_period, _startTime, 0) {\n        // \n        IGoSwapPair _pair = IGoSwapPair(GoSwapLibrary.pairFor(_company, _tokenA, _tokenB));\n        pair = _pair;\n        token0 = _pair.token0();\n        token1 = _pair.token1();\n        // 0,1\n        price0CumulativeLast = _pair.price0CumulativeLast(); // fetch the current accumulated price value (1 / 0)\n        price1CumulativeLast = _pair.price1CumulativeLast(); // fetch the current accumulated price value (0 / 1)\n        // 0,1\n        uint112 reserve0;\n        uint112 reserve1;\n        // 0,1\n        (reserve0, reserve1, blockTimestampLast) = _pair.getReserves();\n        require(reserve0 != 0 && reserve1 != 0, 'Oracle: NO_RESERVES'); // ensure that there's liquidity in the pair\n    }\n\n    /* ========== MUTABLE FUNCTIONS ========== */\n\n    /**\n     * @dev Updates 1-day EMA price from GoSwap.\n     * @dev \n     */\n    function update() external checkEpoch {\n        // \n        (uint256 price0Cumulative, uint256 price1Cumulative, uint32 blockTimestamp) =\n            GoSwapOracleLibrary.currentCumulativePrices(address(pair));\n        //  =  -  ()\n        uint32 timeElapsed = blockTimestamp - blockTimestampLast; // overflow is desired\n        //  = 0 \n        if (timeElapsed == 0) {\n            // prevent divided by zero\n            return;\n        }\n\n        // overflow is desired, casting never truncates\n        // cumulative price is in (uq112x112 price * seconds) units so we simply wrap it after division by time elapsed\n        // uq112x112*\n        // 0 = ( - ) / \n        price0Average = FixedPoint.uq112x112(uint224((price0Cumulative - price0CumulativeLast) / timeElapsed));\n        // 1 = ( - ) / \n        price1Average = FixedPoint.uq112x112(uint224((price1Cumulative - price1CumulativeLast) / timeElapsed));\n        // \n        price0CumulativeLast = price0Cumulative;\n        price1CumulativeLast = price1Cumulative;\n        // \n        blockTimestampLast = blockTimestamp;\n        // \n        emit Updated(price0Cumulative, price1Cumulative);\n    }\n\n    /**\n     * @dev \n     * @param token token\n     * @param amountIn \n     * @return amountOut \n     * @notice 0\n     */\n    // note this will always return 0 before update has been called successfully for the first time.\n    function consult(address token, uint256 amountIn) external view returns (uint144 amountOut) {\n        // tokentoken0\n        if (token == token0) {\n            //  = 0 *  / 2**112\n            amountOut = price0Average.mul(amountIn).decode144();\n        } else {\n            // tokentoken1\n            require(token == token1, 'Oracle: INVALID_TOKEN');\n            //  = 1 *  / 2**112\n            amountOut = price1Average.mul(amountIn).decode144();\n        }\n    }\n\n    /**\n     * @dev \n     * @param token token\n     * @param amountIn \n     * @return amountOut \n     * @notice 0\n     */\n    // collaboration of update / consult\n    function expectedPrice(address token, uint256 amountIn)\n        external\n        view\n        returns (uint224 amountOut)\n    {\n        // \n        (\n            uint256 price0Cumulative,\n            uint256 price1Cumulative,\n            uint32 blockTimestamp\n        ) = GoSwapOracleLibrary.currentCumulativePrices(address(pair));\n        //  =  -  ()\n        uint32 timeElapsed = blockTimestamp - blockTimestampLast; // overflow is desired\n\n        // 0 = ( - ) / \n        FixedPoint.uq112x112 memory avg0 =\n            FixedPoint.uq112x112(\n                uint224((price0Cumulative - price0CumulativeLast) / timeElapsed)\n            );\n        // 1 = ( - ) / \n        FixedPoint.uq112x112 memory avg1 =\n            FixedPoint.uq112x112(\n                uint224((price1Cumulative - price1CumulativeLast) / timeElapsed)\n            );\n\n        if (token == token0) {\n            //  = 0 *  / 2**112\n            amountOut = avg0.mul(amountIn).decode144();\n        } else {\n            require(token == token1, 'Oracle: INVALID_TOKEN');\n            //  = 1 *  / 2**112\n            amountOut = avg1.mul(amountIn).decode144();\n        }\n        return amountOut;\n    }\n\n    /**\n     * @dev \n     * @param company \n     * @param tokenA tokenA\n     * @param tokenB tokenB\n     * @return lpt lp Token\n     */\n    function pairFor(\n        address company,\n        address tokenA,\n        address tokenB\n    ) external pure returns (address lpt) {\n        // tokenA tokenB\n        return GoSwapLibrary.pairFor(company, tokenA, tokenB);\n    }\n\n    /**\n     * @dev :\n     * @param price0CumulativeLast 0\n     * @param price1CumulativeLast 1\n     */\n    event Updated(uint256 price0CumulativeLast, uint256 price1CumulativeLast);\n}\n",
  "sourcePath": "/home/cui/Documents/goswap/goswap-core/contracts/GoSwapOracle.sol",
  "compiler": {
    "name": "solc",
    "version": "0.6.12+commit.27d51765.Emscripten.clang"
  },
  "schemaVersion": "3.3.2",
  "updatedAt": "2021-01-18T03:20:28.269Z",
  "devdoc": {
    "events": {
      "Updated(uint256,uint256)": {
        "details": ":",
        "params": {
          "price0CumulativeLast": "0",
          "price1CumulativeLast": "1"
        }
      }
    },
    "kind": "dev",
    "methods": {
      "addAdmin(address)": {
        "details": "",
        "params": {
          "account": ""
        }
      },
      "allAdmins()": {
        "details": "",
        "returns": {
          "admins": ""
        }
      },
      "constructor": {
        "details": "",
        "params": {
          "_company": "",
          "_period": "",
          "_startTime": "",
          "_tokenA": "TokenA",
          "_tokenB": "TokenB"
        }
      },
      "consult(address,uint256)": {
        "details": "",
        "params": {
          "amountIn": "",
          "token": "token"
        },
        "returns": {
          "amountOut": ""
        }
      },
      "expectedPrice(address,uint256)": {
        "details": "",
        "params": {
          "amountIn": "",
          "token": "token"
        },
        "returns": {
          "amountOut": ""
        }
      },
      "getCurrentEpoch()": {
        "details": ""
      },
      "getLastEpoch()": {
        "details": ""
      },
      "getNextEpoch()": {
        "details": ""
      },
      "getPeriod()": {
        "details": ""
      },
      "getStartTime()": {
        "details": ""
      },
      "isAdmin(address)": {
        "details": "",
        "params": {
          "account": ""
        },
        "returns": {
          "_0": ""
        }
      },
      "nextEpochPoint()": {
        "details": ""
      },
      "pairFor(address,address,address)": {
        "details": "",
        "params": {
          "company": "",
          "tokenA": "tokenA",
          "tokenB": "tokenB"
        },
        "returns": {
          "lpt": "lp Token"
        }
      },
      "removeAdmin(address)": {
        "details": "",
        "params": {
          "account": ""
        }
      },
      "renounceAdmin()": {
        "details": ""
      },
      "setPeriod(uint256)": {
        "details": "",
        "params": {
          "_period": ""
        }
      },
      "update()": {
        "details": "Updates 1-day EMA price from GoSwap."
      }
    },
    "version": 1
  },
  "userdoc": {
    "kind": "user",
    "methods": {
      "blockTimestampLast()": {
        "notice": ""
      },
      "consult(address,uint256)": {
        "notice": "0"
      },
      "expectedPrice(address,uint256)": {
        "notice": "0"
      },
      "pair()": {
        "notice": ""
      },
      "price0Average()": {
        "notice": "0"
      },
      "price0CumulativeLast()": {
        "notice": "0"
      },
      "price1Average()": {
        "notice": "1"
      },
      "price1CumulativeLast()": {
        "notice": "1"
      },
      "token0()": {
        "notice": "token0"
      },
      "token1()": {
        "notice": "token1"
      }
    },
    "version": 1
  }
}