{
  "contractName": "GoSwapBuyGOT",
  "abi": [
    {
      "anonymous": false,
      "inputs": [
        {
          "indexed": true,
          "internalType": "address",
          "name": "previousOwner",
          "type": "address"
        },
        {
          "indexed": true,
          "internalType": "address",
          "name": "newOwner",
          "type": "address"
        }
      ],
      "name": "OwnershipTransferred",
      "type": "event"
    },
    {
      "inputs": [],
      "name": "GOC",
      "outputs": [
        {
          "internalType": "address",
          "name": "",
          "type": "address"
        }
      ],
      "stateMutability": "view",
      "type": "function"
    },
    {
      "inputs": [],
      "name": "GOT",
      "outputs": [
        {
          "internalType": "address",
          "name": "",
          "type": "address"
        }
      ],
      "stateMutability": "view",
      "type": "function"
    },
    {
      "inputs": [],
      "name": "factory",
      "outputs": [
        {
          "internalType": "contract IGoSwapFactory",
          "name": "",
          "type": "address"
        }
      ],
      "stateMutability": "view",
      "type": "function"
    },
    {
      "inputs": [],
      "name": "owner",
      "outputs": [
        {
          "internalType": "address",
          "name": "",
          "type": "address"
        }
      ],
      "stateMutability": "view",
      "type": "function"
    },
    {
      "inputs": [],
      "name": "renounceOwnership",
      "outputs": [],
      "stateMutability": "nonpayable",
      "type": "function"
    },
    {
      "inputs": [],
      "name": "sGOT",
      "outputs": [
        {
          "internalType": "address",
          "name": "",
          "type": "address"
        }
      ],
      "stateMutability": "view",
      "type": "function"
    },
    {
      "inputs": [
        {
          "internalType": "address",
          "name": "newOwner",
          "type": "address"
        }
      ],
      "name": "transferOwnership",
      "outputs": [],
      "stateMutability": "nonpayable",
      "type": "function"
    },
    {
      "inputs": [
        {
          "internalType": "contract IGoSwapFactory",
          "name": "_factory",
          "type": "address"
        }
      ],
      "name": "setFactory",
      "outputs": [],
      "stateMutability": "nonpayable",
      "type": "function"
    },
    {
      "inputs": [
        {
          "internalType": "address",
          "name": "_sGOT",
          "type": "address"
        }
      ],
      "name": "setSGOT",
      "outputs": [],
      "stateMutability": "nonpayable",
      "type": "function"
    },
    {
      "inputs": [
        {
          "internalType": "address",
          "name": "_GOT",
          "type": "address"
        }
      ],
      "name": "setGOT",
      "outputs": [],
      "stateMutability": "nonpayable",
      "type": "function"
    },
    {
      "inputs": [
        {
          "internalType": "address",
          "name": "_GOC",
          "type": "address"
        }
      ],
      "name": "setGOC",
      "outputs": [],
      "stateMutability": "nonpayable",
      "type": "function"
    },
    {
      "inputs": [
        {
          "internalType": "address",
          "name": "token0",
          "type": "address"
        },
        {
          "internalType": "address",
          "name": "token1",
          "type": "address"
        }
      ],
      "name": "convert",
      "outputs": [],
      "stateMutability": "nonpayable",
      "type": "function"
    }
  ],
  "bytecode": "0x608060405234801561001057600080fd5b50600061001b61006a565b600080546001600160a01b0319166001600160a01b0383169081178255604051929350917f8be0079c531659141344cd1fd0a4f28419497f9722a3daafe3b4186f6b6457e0908290a35061006e565b3390565b6115f98061007d6000396000f3fe608060405234801561001057600080fd5b50600436106100b45760003560e01c8063bd1b820c11610071578063bd1b820c14610161578063c45a01551461018f578063c4dd5cef14610197578063eb46034d1461019f578063f0520fe7146101a7578063f2fde38b146101cd576100b4565b80633061d568146100b95780635142708d146100dd5780635bb478081461010557806362373e661461012b578063715018a6146101515780638da5cb5b14610159575b600080fd5b6100c16101f3565b604080516001600160a01b039092168252519081900360200190f35b610103600480360360208110156100f357600080fd5b50356001600160a01b0316610202565b005b6101036004803603602081101561011b57600080fd5b50356001600160a01b031661027c565b6101036004803603602081101561014157600080fd5b50356001600160a01b03166102f6565b610103610370565b6100c1610412565b6101036004803603604081101561017757600080fd5b506001600160a01b0381358116916020013516610421565b6100c161071c565b6100c161072b565b6100c161073a565b610103600480360360208110156101bd57600080fd5b50356001600160a01b0316610749565b610103600480360360208110156101e357600080fd5b50356001600160a01b03166107c3565b6004546001600160a01b031681565b61020a6108bb565b6000546001600160a01b0390811691161461025a576040805162461bcd60e51b8152602060048201819052602482015260008051602061157a833981519152604482015290519081900360640190fd5b600380546001600160a01b0319166001600160a01b0392909216919091179055565b6102846108bb565b6000546001600160a01b039081169116146102d4576040805162461bcd60e51b8152602060048201819052602482015260008051602061157a833981519152604482015290519081900360640190fd5b600180546001600160a01b0319166001600160a01b0392909216919091179055565b6102fe6108bb565b6000546001600160a01b0390811691161461034e576040805162461bcd60e51b8152602060048201819052602482015260008051602061157a833981519152604482015290519081900360640190fd5b600480546001600160a01b0319166001600160a01b0392909216919091179055565b6103786108bb565b6000546001600160a01b039081169116146103c8576040805162461bcd60e51b8152602060048201819052602482015260008051602061157a833981519152604482015290519081900360640190fd5b600080546040516001600160a01b03909116907f8be0079c531659141344cd1fd0a4f28419497f9722a3daafe3b4186f6b6457e0908390a3600080546001600160a01b0319169055565b6000546001600160a01b031690565b333214610475576040805162461bcd60e51b815260206004820152601c60248201527f646f206e6f7420636f6e766572742066726f6d20636f6e747261637400000000604482015290519081900360640190fd5b6001546040805163e6a4390560e01b81526001600160a01b03858116600483015284811660248301529151600093929092169163e6a4390591604480820192602092909190829003018186803b1580156104ce57600080fd5b505afa1580156104e2573d6000803e3d6000fd5b505050506040513d60208110156104f857600080fd5b5051604080516370a0823160e01b815230600482015290519192506001600160a01b0383169163a9059cbb91849184916370a08231916024808301926020929190829003018186803b15801561054d57600080fd5b505afa158015610561573d6000803e3d6000fd5b505050506040513d602081101561057757600080fd5b5051604080516001600160e01b031960e086901b1681526001600160a01b03909316600484015260248301919091525160448083019260209291908290030181600087803b1580156105c857600080fd5b505af11580156105dc573d6000803e3d6000fd5b505050506040513d60208110156105f257600080fd5b50506040805163226bf2d160e21b8152306004820152815160009283926001600160a01b038616926389afcb449260248084019391929182900301818787803b15801561063e57600080fd5b505af1158015610652573d6000803e3d6000fd5b505050506040513d604081101561066857600080fd5b50805160209182015160408051630dfe168160e01b815290519295509093506001600160a01b03861692630dfe168192600480840193829003018186803b1580156106b257600080fd5b505afa1580156106c6573d6000803e3d6000fd5b505050506040513d60208110156106dc57600080fd5b50516001600160a01b038681169116146106f257905b60006106fe85836108bf565b61070887856108bf565b01905061071481610dd9565b505050505050565b6001546001600160a01b031681565b6003546001600160a01b031681565b6002546001600160a01b031681565b6107516108bb565b6000546001600160a01b039081169116146107a1576040805162461bcd60e51b8152602060048201819052602482015260008051602061157a833981519152604482015290519081900360640190fd5b600280546001600160a01b0319166001600160a01b0392909216919091179055565b6107cb6108bb565b6000546001600160a01b0390811691161461081b576040805162461bcd60e51b8152602060048201819052602482015260008051602061157a833981519152604482015290519081900360640190fd5b6001600160a01b0381166108605760405162461bcd60e51b81526004018080602001828103825260268152602001806115336026913960400191505060405180910390fd5b600080546040516001600160a01b03808516939216917f8be0079c531659141344cd1fd0a4f28419497f9722a3daafe3b4186f6b6457e091a3600080546001600160a01b0319166001600160a01b0392909216919091179055565b3390565b6003546000906001600160a01b03848116911614156108f8576002546108f09084906001600160a01b031684611199565b506000610dd3565b6004546001600160a01b03848116911614156109a857600154600480546003546040805163e6a4390560e01b81526001600160a01b03938416948101949094529082166024840152516109a193879392169163e6a43905916044808301926020929190829003018186803b15801561096f57600080fd5b505afa158015610983573d6000803e3d6000fd5b505050506040513d602081101561099957600080fd5b505184611199565b5080610dd3565b600154600480546040805163e6a4390560e01b81526001600160a01b0388811694820194909452918316602483015251600093929092169163e6a4390591604480820192602092909190829003018186803b158015610a0657600080fd5b505afa158015610a1a573d6000803e3d6000fd5b505050506040513d6020811015610a3057600080fd5b505190506001600160a01b038116610a4c576000915050610dd3565b600080826001600160a01b0316630902f1ac6040518163ffffffff1660e01b815260040160606040518083038186803b158015610a8857600080fd5b505afa158015610a9c573d6000803e3d6000fd5b505050506040513d6060811015610ab257600080fd5b50805160209182015160408051630dfe168160e01b815290516001600160701b0393841696509290911693506000926001600160a01b03871692630dfe1681926004808201939291829003018186803b158015610b0e57600080fd5b505afa158015610b22573d6000803e3d6000fd5b505050506040513d6020811015610b3857600080fd5b50516040805163ddca3f4360e01b815290519192506000916001600160a01b0387169163ddca3f43916004808301926020929190829003018186803b158015610b8057600080fd5b505afa158015610b94573d6000803e3d6000fd5b505050506040513d6020811015610baa57600080fd5b505190506000806001600160a01b03848116908b1614610bcb578486610bce565b85855b90925090506000610bea8a61ffff60ff87166103e803166111b2565b90506000610c0482610bfe866103e86111b2565b90611212565b610c0e83856111b2565b81610c1557fe5b0490506000808d6001600160a01b0316886001600160a01b031614610c3c57826000610c40565b6000835b91509150610c4f8e8c8f611199565b600154600480546003546040805163e6a4390560e01b81526001600160a01b0393841694810194909452908216602484015251818f169363022c0d9f938793879392169163e6a4390591604480820192602092909190829003018186803b158015610cb957600080fd5b505afa158015610ccd573d6000803e3d6000fd5b505050506040513d6020811015610ce357600080fd5b50516040805160008082526020820190925290506040518563ffffffff1660e01b815260040180858152602001848152602001836001600160a01b0316815260200180602001828103825283818151815260200191508051906020019080838360005b83811015610d5e578181015183820152602001610d46565b50505050905090810190601f168015610d8b5780820380516001836020036101000a031916815260200191505b5095505050505050600060405180830381600087803b158015610dad57600080fd5b505af1158015610dc1573d6000803e3d6000fd5b50949d50505050505050505050505050505b92915050565b600154600480546003546040805163e6a4390560e01b81526001600160a01b0393841694810194909452908216602484015251600093919091169163e6a43905916044808301926020929190829003018186803b158015610e3957600080fd5b505afa158015610e4d573d6000803e3d6000fd5b505050506040513d6020811015610e6357600080fd5b505160408051630240bc6b60e21b8152905191925060009182916001600160a01b03851691630902f1ac91600480820192606092909190829003018186803b158015610eae57600080fd5b505afa158015610ec2573d6000803e3d6000fd5b505050506040513d6060811015610ed857600080fd5b50805160209182015160408051630dfe168160e01b815290516001600160701b0393841696509290911693506000926001600160a01b03871692630dfe1681926004808201939291829003018186803b158015610f3457600080fd5b505afa158015610f48573d6000803e3d6000fd5b505050506040513d6020811015610f5e57600080fd5b50516040805163ddca3f4360e01b815290519192506000916001600160a01b0387169163ddca3f43916004808301926020929190829003018186803b158015610fa657600080fd5b505afa158015610fba573d6000803e3d6000fd5b505050506040513d6020811015610fd057600080fd5b505160045490915060009081906001600160a01b03858116911614610ff6578486610ff9565b85855b909250905060006110158961ffff60ff87166103e803166111b2565b9050600061102382846111b2565b9050600061103783610bfe876103e86111b2565b9050600081838161104457fe5b600454919004915060009081906001600160a01b038b811691161461106b5782600061106f565b6000835b60025491935091506001600160a01b03808f169163022c0d9f91859185911660006040519080825280601f01601f1916602001820160405280156110ba576020820181803683370190505b506040518563ffffffff1660e01b815260040180858152602001848152602001836001600160a01b0316815260200180602001828103825283818151815260200191508051906020019080838360005b8381101561112257818101518382015260200161110a565b50505050905090810190601f16801561114f5780820380516001836020036101000a031916815260200191505b5095505050505050600060405180830381600087803b15801561117157600080fd5b505af1158015611185573d6000803e3d6000fd5b505050505050505050505050505050505050565b6111ad6001600160a01b038416838361126c565b505050565b6000826111c157506000610dd3565b828202828482816111ce57fe5b041461120b5760405162461bcd60e51b81526004018080602001828103825260218152602001806115596021913960400191505060405180910390fd5b9392505050565b60008282018381101561120b576040805162461bcd60e51b815260206004820152601b60248201527f536166654d6174683a206164646974696f6e206f766572666c6f770000000000604482015290519081900360640190fd5b604080516001600160a01b038416602482015260448082018490528251808303909101815260649091019091526020810180516001600160e01b031663a9059cbb60e01b1790526111ad908490606061130e826040518060400160405280602081526020017f5361666545524332303a206c6f772d6c6576656c2063616c6c206661696c6564815250856001600160a01b031661136a9092919063ffffffff16565b8051909150156111ad5780806020019051602081101561132d57600080fd5b50516111ad5760405162461bcd60e51b815260040180806020018281038252602a81526020018061159a602a913960400191505060405180910390fd5b60606113798484600085611381565b949350505050565b606061138c8561152c565b6113dd576040805162461bcd60e51b815260206004820152601d60248201527f416464726573733a2063616c6c20746f206e6f6e2d636f6e7472616374000000604482015290519081900360640190fd5b60006060866001600160a01b031685876040518082805190602001908083835b6020831061141c5780518252601f1990920191602091820191016113fd565b6001836020036101000a03801982511681845116808217855250505050505090500191505060006040518083038185875af1925050503d806000811461147e576040519150601f19603f3d011682016040523d82523d6000602084013e611483565b606091505b509150915081156114975791506113799050565b8051156114a75780518082602001fd5b8360405162461bcd60e51b81526004018080602001828103825283818151815260200191508051906020019080838360005b838110156114f15781810151838201526020016114d9565b50505050905090810190601f16801561151e5780820380516001836020036101000a031916815260200191505b509250505060405180910390fd5b3b15159056fe4f776e61626c653a206e6577206f776e657220697320746865207a65726f2061646472657373536166654d6174683a206d756c7469706c69636174696f6e206f766572666c6f774f776e61626c653a2063616c6c6572206973206e6f7420746865206f776e65725361666545524332303a204552433230206f7065726174696f6e20646964206e6f742073756363656564a26469706673582212204f81726a1fabb9820bc16d0c2427bba9786dccbb3fdb93d7af306576b0a8bd9d64736f6c634300060c0033",
  "immutableReferences": {},
  "source": "// SPDX-License-Identifier: MIT\npragma solidity 0.6.12;\n\nimport \"@openzeppelin/contracts/token/ERC20/IERC20.sol\";\nimport \"@openzeppelin/contracts/token/ERC20/SafeERC20.sol\";\nimport \"@openzeppelin/contracts/math/SafeMath.sol\";\nimport \"@openzeppelin/contracts/access/Ownable.sol\";\nimport \"./interfaces/IGoSwapPair.sol\";\nimport \"./interfaces/IGoSwapFactory.sol\";\n\n/**\n * @title 通过手续费回购GOT的合约\n */\ncontract GoSwapBuyGOT is Ownable {\n    using SafeMath for uint256;\n    using SafeERC20 for IERC20;\n\n    IGoSwapFactory public factory;\n    address public sGOT;\n    address public GOT;\n    address public GOC;\n\n    function setFactory(IGoSwapFactory _factory) public onlyOwner {\n        factory = _factory;\n    }\n\n    function setSGOT(address _sGOT) public onlyOwner {\n        sGOT = _sGOT;\n    }\n\n    function setGOT(address _GOT) public onlyOwner {\n        GOT = _GOT;\n    }\n\n    function setGOC(address _GOC) public onlyOwner {\n        GOC = _GOC;\n    }\n\n    /**\n     * @dev 将token转换为GOT\n     * @param token0 token0\n     * @param token1 token1\n     */\n    function convert(address token0, address token1) public {\n        // 至少我们尝试使前置运行变得更困难\n        // At least we try to make front-running harder to do.\n        // 确认合约调用者为初始调用用户\n        require(msg.sender == tx.origin, \"do not convert from contract\");\n        // 通过token0和token1找到配对合约地址,并实例化配对合约\n        address pair = factory.getPair(token0, token1);\n        // 调用配对合约的transfer方法,将当前合约的余额发送到配对合约地址上\n        IERC20(pair).transfer(pair, IERC20(pair).balanceOf(address(this)));\n        // 调用配对合约的销毁方法,将流动性token销毁,之后配对合约将会向当前合约地址发送token0和token1\n        (uint256 amount0, uint256 amount1) = IGoSwapPair(pair).burn(\n            address(this)\n        );\n        // 调整顺序\n        if (token0 != IGoSwapPair(pair).token0()) {\n            (amount0, amount1) = (amount1, amount0);\n        }\n        //\n        uint256 GOCAmount = _toGOC(token0, amount0) + _toGOC(token1, amount1);\n        _toGOT(GOCAmount);\n    }\n\n    /**\n     * @dev 将token卖出转换为GOC\n     * @param token token\n     */\n    function _toGOC(address token, uint256 amountIn)\n        internal\n        returns (uint256)\n    {\n        // 如果token地址是GOT地址\n        if (token == GOT) {\n            // 将输入数额从当前合约地址发送到stake合约\n            _safeTransfer(token, sGOT, amountIn);\n            return 0;\n        }\n        // 如果token地址是GOC地址\n        if (token == GOC) {\n            // 将数额从当前合约发送到工厂合约上的GOC和GOT的配对合约地址上\n            _safeTransfer(token, factory.getPair(GOC, GOT), amountIn);\n            return amountIn;\n        }\n        // 实例化token地址和GOC地址的配对合约\n        IGoSwapPair pair = IGoSwapPair(factory.getPair(token, GOC));\n        // 如果配对合约地址 == 0地址 返回0\n        if (address(pair) == address(0)) {\n            return 0;\n        }\n        // 从配对合约获取储备量0,储备量1\n        (uint256 reserve0, uint256 reserve1, ) = pair.getReserves();\n        // 找到token0\n        address token0 = pair.token0();\n        // 获取手续费\n        uint8 fee = pair.fee();\n        // 排序形成储备量In和储备量Out\n        (uint256 reserveIn, uint256 reserveOut) = token0 == token\n            ? (reserve0, reserve1)\n            : (reserve1, reserve0);\n        // 税后输入数额 = 输入数额 * (1000-fee)\n        uint256 amountInWithFee = amountIn.mul(1000 - fee);\n        // 输出数额 = 税后输入数额 * 储备量Out / 储备量In * 1000 + 税后输入数额\n        uint256 amountOut = amountInWithFee.mul(reserveOut) /\n            reserveIn.mul(1000).add(amountInWithFee);\n        // 排序输出数额0和输出数额1,有一个是0\n        (uint256 amount0Out, uint256 amount1Out) = token0 == token\n            ? (uint256(0), amountOut)\n            : (amountOut, uint256(0));\n        // 将输入数额发送到配对合约\n        _safeTransfer(token, address(pair), amountIn);\n        // 执行配对合约的交换方法(输出数额0,输出数额1,发送到WETH和token的配对合约上)\n        pair.swap(\n            amount0Out,\n            amount1Out,\n            factory.getPair(GOC, GOT),\n            new bytes(0)\n        );\n        return amountOut;\n    }\n\n    /**\n     * @dev 用amountIn数量的GOC交换GOT并发送到stake合约上\n     * @param amountIn 输入数额\n     */\n    function _toGOT(uint256 amountIn) internal {\n        // 获取GOT和GOC的配对合约地址,并实例化配对合约\n        IGoSwapPair pair = IGoSwapPair(factory.getPair(GOC, GOT));\n        // 获取配对合约的储备量0,储备量1\n        (uint256 reserve0, uint256 reserve1, ) = pair.getReserves();\n        // 找到token0\n        address token0 = pair.token0();\n        // 获取手续费\n        uint8 fee = pair.fee();\n        // 排序生成储备量In和储备量Out\n        (uint256 reserveIn, uint256 reserveOut) = token0 == GOC\n            ? (reserve0, reserve1)\n            : (reserve1, reserve0);\n        // 税后输入数额 = 输入数额 * (1000-fee)\n        uint256 amountInWithFee = amountIn.mul(1000 - fee);\n        // 分子 = 税后输入数额 * 储备量Out\n        uint256 numerator = amountInWithFee.mul(reserveOut);\n        // 分母 = 储备量In * 1000 + 税后输入数额\n        uint256 denominator = reserveIn.mul(1000).add(amountInWithFee);\n        // 输出数额 = 分子 / 分母\n        uint256 amountOut = numerator / denominator;\n        // 排序输出数额0和输出数额1,有一个是0\n        (uint256 amount0Out, uint256 amount1Out) = token0 == GOC\n            ? (uint256(0), amountOut)\n            : (amountOut, uint256(0));\n        // 执行配对合约的交换方法(输出数额0,输出数额1,发送到stake合约上)\n        pair.swap(amount0Out, amount1Out, sGOT, new bytes(0));\n    }\n\n    /**\n     * @dev 安全法送方法\n     * @param token token地址\n     * @param to 接收地址\n     * @param amount 数额\n     */\n    function _safeTransfer(\n        address token,\n        address to,\n        uint256 amount\n    ) internal {\n        IERC20(token).safeTransfer(to, amount);\n    }\n}\n",
  "sourcePath": "/home/cui/Documents/goswap/goswap-core/contracts/GoSwapBuyGOT.sol",
  "compiler": {
    "name": "solc",
    "version": "0.6.12+commit.27d51765.Emscripten.clang"
  },
  "schemaVersion": "3.3.2",
  "updatedAt": "2021-01-22T03:09:29.899Z",
  "devdoc": {
    "kind": "dev",
    "methods": {
      "convert(address,address)": {
        "details": "将token转换为GOT",
        "params": {
          "token0": "token0",
          "token1": "token1"
        }
      },
      "owner()": {
        "details": "Returns the address of the current owner."
      },
      "renounceOwnership()": {
        "details": "Leaves the contract without owner. It will not be possible to call `onlyOwner` functions anymore. Can only be called by the current owner. NOTE: Renouncing ownership will leave the contract without an owner, thereby removing any functionality that is only available to the owner."
      },
      "transferOwnership(address)": {
        "details": "Transfers ownership of the contract to a new account (`newOwner`). Can only be called by the current owner."
      }
    },
    "title": "通过手续费回购GOT的合约",
    "version": 1
  },
  "userdoc": {
    "kind": "user",
    "methods": {},
    "version": 1
  }
}