{
  "contractName": "GoSwap_ZapIn",
  "abi": [
    {
      "anonymous": false,
      "inputs": [
        {
          "indexed": true,
          "internalType": "address",
          "name": "previousOwner",
          "type": "address"
        },
        {
          "indexed": true,
          "internalType": "address",
          "name": "newOwner",
          "type": "address"
        }
      ],
      "name": "OwnershipTransferred",
      "type": "event"
    },
    {
      "inputs": [],
      "name": "WHT",
      "outputs": [
        {
          "internalType": "address",
          "name": "",
          "type": "address"
        }
      ],
      "stateMutability": "view",
      "type": "function"
    },
    {
      "inputs": [],
      "name": "factory",
      "outputs": [
        {
          "internalType": "contract IGoSwapFactory",
          "name": "",
          "type": "address"
        }
      ],
      "stateMutability": "view",
      "type": "function"
    },
    {
      "inputs": [],
      "name": "otherFactory",
      "outputs": [
        {
          "internalType": "contract IGoSwapFactory",
          "name": "",
          "type": "address"
        }
      ],
      "stateMutability": "view",
      "type": "function"
    },
    {
      "inputs": [],
      "name": "owner",
      "outputs": [
        {
          "internalType": "address",
          "name": "",
          "type": "address"
        }
      ],
      "stateMutability": "view",
      "type": "function"
    },
    {
      "inputs": [],
      "name": "renounceOwnership",
      "outputs": [],
      "stateMutability": "nonpayable",
      "type": "function"
    },
    {
      "inputs": [],
      "name": "router",
      "outputs": [
        {
          "internalType": "contract IGoSwapRouter",
          "name": "",
          "type": "address"
        }
      ],
      "stateMutability": "view",
      "type": "function"
    },
    {
      "inputs": [],
      "name": "stopped",
      "outputs": [
        {
          "internalType": "bool",
          "name": "",
          "type": "bool"
        }
      ],
      "stateMutability": "view",
      "type": "function"
    },
    {
      "inputs": [
        {
          "internalType": "address",
          "name": "newOwner",
          "type": "address"
        }
      ],
      "name": "transferOwnership",
      "outputs": [],
      "stateMutability": "nonpayable",
      "type": "function"
    },
    {
      "inputs": [
        {
          "internalType": "contract IGoSwapFactory",
          "name": "_otherFactory",
          "type": "address"
        }
      ],
      "name": "setOtherFactory",
      "outputs": [],
      "stateMutability": "nonpayable",
      "type": "function"
    },
    {
      "inputs": [
        {
          "internalType": "contract IGoSwapFactory",
          "name": "_factory",
          "type": "address"
        }
      ],
      "name": "setFactory",
      "outputs": [],
      "stateMutability": "nonpayable",
      "type": "function"
    },
    {
      "inputs": [
        {
          "internalType": "contract IGoSwapRouter",
          "name": "_router",
          "type": "address"
        }
      ],
      "name": "setRouter",
      "outputs": [],
      "stateMutability": "nonpayable",
      "type": "function"
    },
    {
      "inputs": [
        {
          "internalType": "address",
          "name": "_WHT",
          "type": "address"
        }
      ],
      "name": "setWHT",
      "outputs": [],
      "stateMutability": "nonpayable",
      "type": "function"
    },
    {
      "inputs": [
        {
          "internalType": "address",
          "name": "_FromTokenContractAddress",
          "type": "address"
        },
        {
          "internalType": "address",
          "name": "_pairAddress",
          "type": "address"
        },
        {
          "internalType": "uint256",
          "name": "_amount",
          "type": "uint256"
        },
        {
          "internalType": "uint256",
          "name": "_minPoolTokens",
          "type": "uint256"
        },
        {
          "internalType": "address",
          "name": "_allowanceTarget",
          "type": "address"
        },
        {
          "internalType": "address",
          "name": "_swapTarget",
          "type": "address"
        },
        {
          "internalType": "bytes",
          "name": "swapData",
          "type": "bytes"
        }
      ],
      "name": "ZapIn",
      "outputs": [
        {
          "internalType": "uint256",
          "name": "",
          "type": "uint256"
        }
      ],
      "stateMutability": "payable",
      "type": "function"
    },
    {
      "inputs": [
        {
          "internalType": "contract IERC20",
          "name": "_TokenAddress",
          "type": "address"
        }
      ],
      "name": "inCaseTokengetsStuck",
      "outputs": [],
      "stateMutability": "nonpayable",
      "type": "function"
    },
    {
      "inputs": [],
      "name": "toggleContractActive",
      "outputs": [],
      "stateMutability": "nonpayable",
      "type": "function"
    },
    {
      "inputs": [],
      "name": "withdraw",
      "outputs": [],
      "stateMutability": "nonpayable",
      "type": "function"
    }
  ],
  "bytecode": "0x60806040526001805460ff60a01b1916905534801561001d57600080fd5b506001600090815561002d610080565b600180546001600160a01b0319166001600160a01b038316908117909155604051919250906000907f8be0079c531659141344cd1fd0a4f28419497f9722a3daafe3b4186f6b6457e0908290a350610084565b3390565b61293d806100936000396000f3fe6080604052600436106100f35760003560e01c80638da5cb5b1161008a578063c0d7865511610059578063c0d786551461033e578063c45a015514610371578063f2fde38b14610386578063f887ea40146103b9576100f3565b80638da5cb5b1461022c5780639bf05475146102415780639f3adea214610256578063bf6411b214610289576100f3565b80635cb48592116100c65780635cb485921461018a578063715018a6146101bb57806375f12b21146101d05780637c3c6d57146101f9576100f3565b80631385d24c146100f85780633ccfd60b1461010f578063551196d5146101245780635bb4780814610157575b600080fd5b34801561010457600080fd5b5061010d6103ce565b005b34801561011b57600080fd5b5061010d610447565b34801561013057600080fd5b5061010d6004803603602081101561014757600080fd5b50356001600160a01b03166104e8565b34801561016357600080fd5b5061010d6004803603602081101561017a57600080fd5b50356001600160a01b03166105dd565b34801561019657600080fd5b5061019f610657565b604080516001600160a01b039092168252519081900360200190f35b3480156101c757600080fd5b5061010d610666565b3480156101dc57600080fd5b506101e5610708565b604080519115158252519081900360200190f35b34801561020557600080fd5b5061010d6004803603602081101561021c57600080fd5b50356001600160a01b0316610718565b34801561023857600080fd5b5061019f610792565b34801561024d57600080fd5b5061019f6107a1565b34801561026257600080fd5b5061010d6004803603602081101561027957600080fd5b50356001600160a01b03166107b0565b61032c600480360360e081101561029f57600080fd5b6001600160a01b0382358116926020810135821692604082013592606083013592608081013582169260a08201359092169181019060e0810160c0820135600160201b8111156102ee57600080fd5b82018360208201111561030057600080fd5b803590602001918460018302840111600160201b8311171561032157600080fd5b50909250905061082a565b60408051918252519081900360200190f35b34801561034a57600080fd5b5061010d6004803603602081101561036157600080fd5b50356001600160a01b0316610aa8565b34801561037d57600080fd5b5061019f610b22565b34801561039257600080fd5b5061010d600480360360208110156103a957600080fd5b50356001600160a01b0316610b31565b3480156103c557600080fd5b5061019f610c2a565b6103d6610c39565b6001546001600160a01b03908116911614610426576040805162461bcd60e51b81526020600482018190526024820152600080516020612888833981519152604482015290519081900360640190fd5b6001805460ff60a01b198116600160a01b9182900460ff1615909102179055565b61044f610c39565b6001546001600160a01b0390811691161461049f576040805162461bcd60e51b81526020600482018190526024820152600080516020612888833981519152604482015290519081900360640190fd5b4760006104aa610792565b6040519091506001600160a01b0382169083156108fc029084906000818181858888f193505050501580156104e3573d6000803e3d6000fd5b505050565b6104f0610c39565b6001546001600160a01b03908116911614610540576040805162461bcd60e51b81526020600482018190526024820152600080516020612888833981519152604482015290519081900360640190fd5b6000816001600160a01b03166370a08231306040518263ffffffff1660e01b815260040180826001600160a01b0316815260200191505060206040518083038186803b15801561058f57600080fd5b505afa1580156105a3573d6000803e3d6000fd5b505050506040513d60208110156105b957600080fd5b505190506105d96105c8610792565b6001600160a01b0384169083610c3d565b5050565b6105e5610c39565b6001546001600160a01b03908116911614610635576040805162461bcd60e51b81526020600482018190526024820152600080516020612888833981519152604482015290519081900360640190fd5b600480546001600160a01b0319166001600160a01b0392909216919091179055565b6005546001600160a01b031681565b61066e610c39565b6001546001600160a01b039081169116146106be576040805162461bcd60e51b81526020600482018190526024820152600080516020612888833981519152604482015290519081900360640190fd5b6001546040516000916001600160a01b0316907f8be0079c531659141344cd1fd0a4f28419497f9722a3daafe3b4186f6b6457e0908390a3600180546001600160a01b0319169055565b600154600160a01b900460ff1681565b610720610c39565b6001546001600160a01b03908116911614610770576040805162461bcd60e51b81526020600482018190526024820152600080516020612888833981519152604482015290519081900360640190fd5b600580546001600160a01b0319166001600160a01b0392909216919091179055565b6001546001600160a01b031690565b6003546001600160a01b031681565b6107b8610c39565b6001546001600160a01b03908116911614610808576040805162461bcd60e51b81526020600482018190526024820152600080516020612888833981519152604482015290519081900360640190fd5b600380546001600160a01b0319166001600160a01b0392909216919091179055565b600060026000541415610884576040805162461bcd60e51b815260206004820152601f60248201527f5265656e7472616e637947756172643a207265656e7472616e742063616c6c00604482015290519081900360640190fd5b6002600055600154600160a01b900460ff16156108dd576040805162461bcd60e51b815260206004820152601260248201527115195b5c1bdc985c9a5b1e4814185d5cd95960721b604482015290519081900360640190fd5b60006001600160a01b038a1661093e5760003411610937576040805162461bcd60e51b8152602060048201526012602482015271115c9c9bdc8e881215081b9bdd081cd95b9d60721b604482015290519081900360640190fd5b50346109ef565b3415610982576040805162461bcd60e51b815260206004820152600e60248201526d115c9c9bdc8e881215081cd95b9d60921b604482015290519081900360640190fd5b600088116109d7576040805162461bcd60e51b815260206004820152601960248201527f4572726f723a20496e76616c69642045524320616d6f756e7400000000000000604482015290519081900360640190fd5b6109ec6001600160a01b038b1633308b610c8f565b50865b6000610a358b8b848a8a8a8a8080601f016020809104026020016040519081016040528093929190818152602001838380828437600092019190915250610cef92505050565b905087811015610a81576040805162461bcd60e51b81526020600482015260126024820152714552523a204869676820536c69707061676560701b604482015290519081900360640190fd5b610a956001600160a01b038b163383610c3d565b60016000559a9950505050505050505050565b610ab0610c39565b6001546001600160a01b03908116911614610b00576040805162461bcd60e51b81526020600482018190526024820152600080516020612888833981519152604482015290519081900360640190fd5b600280546001600160a01b0319166001600160a01b0392909216919091179055565b6004546001600160a01b031681565b610b39610c39565b6001546001600160a01b03908116911614610b89576040805162461bcd60e51b81526020600482018190526024820152600080516020612888833981519152604482015290519081900360640190fd5b6001600160a01b038116610bce5760405162461bcd60e51b81526004018080602001828103825260268152602001806128416026913960400191505060405180910390fd5b6001546040516001600160a01b038084169216907f8be0079c531659141344cd1fd0a4f28419497f9722a3daafe3b4186f6b6457e090600090a3600180546001600160a01b0319166001600160a01b0392909216919091179055565b6002546001600160a01b031681565b3390565b604080516001600160a01b038416602482015260448082018490528251808303909101815260649091019091526020810180516001600160e01b031663a9059cbb60e01b1790526104e3908490610d8c565b604080516001600160a01b0380861660248301528416604482015260648082018490528251808303909101815260849091019091526020810180516001600160e01b03166323b872dd60e01b179052610ce9908590610d8c565b50505050565b6000806000806000610d008a610e3d565b91509150816001600160a01b03168b6001600160a01b031614158015610d385750806001600160a01b03168b6001600160a01b031614155b15610d5557610d4b8b8b8b8b8b8b610f23565b9094509250610d5c565b8a92508893505b600080610d6b858585896112cd565b91509150610d7b8484848461148c565b9d9c50505050505050505050505050565b6060610de1826040518060400160405280602081526020017f5361666545524332303a206c6f772d6c6576656c2063616c6c206661696c6564815250856001600160a01b031661162f9092919063ffffffff16565b8051909150156104e357808060200190516020811015610e0057600080fd5b50516104e35760405162461bcd60e51b815260040180806020018281038252602a8152602001806128a8602a913960400191505060405180910390fd5b6000806000839050806001600160a01b0316630dfe16816040518163ffffffff1660e01b815260040160206040518083038186803b158015610e7e57600080fd5b505afa158015610e92573d6000803e3d6000fd5b505050506040513d6020811015610ea857600080fd5b50516040805163d21220a760e01b815290519194506001600160a01b0383169163d21220a791600480820192602092909190829003018186803b158015610eee57600080fd5b505afa158015610f02573d6000803e3d6000fd5b505050506040513d6020811015610f1857600080fd5b505192949293505050565b600080806001600160a01b038916610f3c575085610f68565b88610f526001600160a01b038216886000611648565b610f666001600160a01b038216888a611648565b505b600080610f748a610e3d565b604080516370a0823160e01b81523060048201529051929450909250839183916000916001600160a01b038516916370a08231916024808301926020929190829003018186803b158015610fc757600080fd5b505afa158015610fdb573d6000803e3d6000fd5b505050506040513d6020811015610ff157600080fd5b5051604080516370a0823160e01b815230600482015290519192506000916001600160a01b038516916370a08231916024808301926020929190829003018186803b15801561103f57600080fd5b505afa158015611053573d6000803e3d6000fd5b505050506040513d602081101561106957600080fd5b50516040518b519192506000916001600160a01b038e16918a918e9190819060208401908083835b602083106110b05780518252601f199092019160209182019101611091565b6001836020036101000a03801982511681845116808217855250505050505090500191505060006040518083038185875af1925050503d8060008114611112576040519150601f19603f3d011682016040523d82523d6000602084013e611117565b606091505b505090508061116d576040805162461bcd60e51b815260206004820152601760248201527f4572726f72205377617070696e6720546f6b656e732031000000000000000000604482015290519081900360640190fd5b60006111f284876001600160a01b03166370a08231306040518263ffffffff1660e01b815260040180826001600160a01b0316815260200191505060206040518083038186803b1580156111c057600080fd5b505afa1580156111d4573d6000803e3d6000fd5b505050506040513d60208110156111ea57600080fd5b50519061175b565b9050600061124784876001600160a01b03166370a08231306040518263ffffffff1660e01b815260040180826001600160a01b0316815260200191505060206040518083038186803b1580156111c057600080fd5b90508082111561125c57819b50889a50611263565b809b50879a505b60008c116112b8576040805162461bcd60e51b815260206004820152601f60248201527f5377617070656420746f20496e76616c696420496e7465726d65646961746500604482015290519081900360640190fd5b50505050505050505050965096945050505050565b600480546040805163e6a4390560e01b81526001600160a01b0387811694820194909452858416602482015290516000938493849391169163e6a4390591604480820192602092909190829003018186803b15801561132b57600080fd5b505afa15801561133f573d6000803e3d6000fd5b505050506040513d602081101561135557600080fd5b505160408051630240bc6b60e21b8152905191925060009182916001600160a01b03851691630902f1ac91600480820192606092909190829003018186803b1580156113a057600080fd5b505afa1580156113b4573d6000803e3d6000fd5b505050506040513d60608110156113ca57600080fd5b5080516020909101516dffffffffffffffffffffffffffff91821693501690506001600160a01b03898116908916141561144157600061140a83886117a6565b9050600081116114225761141f8760026117fc565b90505b61142d8a898361183e565b9450611439878261175b565b955050611480565b600061144d82886117a6565b905060008111611465576114628760026117fc565b90505b6114708a8a8361183e565b955061147c878261175b565b9450505b50505094509492505050565b6002546000906114a9906001600160a01b03878116911683611648565b6002546114c4906001600160a01b0386811691166000611648565b6002546114de906001600160a01b03878116911685611648565b6002546114f8906001600160a01b03868116911684611648565b6002546040805162e8e33760e81b81526001600160a01b0388811660048301528781166024830152604482018790526064820186905260016084830181905260a48301523060c4830152600f60fc1b60e483015291516000938493849391169163e8e33700916101048082019260609290919082900301818787803b15801561158057600080fd5b505af1158015611594573d6000803e3d6000fd5b505050506040513d60608110156115aa57600080fd5b5080516020820151604090920151909450909250905060006115cc878561175b565b11156115f1576115f1336115e0888661175b565b6001600160a01b038b169190610c3d565b60006115fd868461175b565b11156116225761162233611611878561175b565b6001600160a01b038a169190610c3d565b925050505b949350505050565b606061163e8484600085612525565b90505b9392505050565b8015806116ce575060408051636eb1769f60e11b81523060048201526001600160a01b03848116602483015291519185169163dd62ed3e91604480820192602092909190829003018186803b1580156116a057600080fd5b505afa1580156116b4573d6000803e3d6000fd5b505050506040513d60208110156116ca57600080fd5b5051155b6117095760405162461bcd60e51b81526004018080602001828103825260368152602001806128d26036913960400191505060405180910390fd5b604080516001600160a01b038416602482015260448082018490528251808303909101815260649091019091526020810180516001600160e01b031663095ea7b360e01b1790526104e3908490610d8c565b600061179d83836040518060400160405280601e81526020017f536166654d6174683a207375627472616374696f6e206f766572666c6f7700008152506126d0565b90505b92915050565b60006107ca6117ed6117ba856107cd61272a565b6117e76117e26117cd88623cda2961272a565b6117da88623cda2061272a565b89910161272a565b612783565b9061175b565b816117f457fe5b049392505050565b600061179d83836040518060400160405280601a81526020017f536166654d6174683a206469766973696f6e206279207a65726f0000000000008152506127d5565b6000826001600160a01b0316846001600160a01b03161415611861575080611641565b60025461187c906001600160a01b0386811691166000611648565b600254611896906001600160a01b03868116911684611648565b6005546001600160a01b0385811691161461229f576005546001600160a01b03848116911614612078576003546040805163e6a4390560e01b81526001600160a01b03878116600483015286811660248301529151600093929092169163e6a4390591604480820192602092909190829003018186803b15801561191957600080fd5b505afa15801561192d573d6000803e3d6000fd5b505050506040513d602081101561194357600080fd5b5051604080516002808252606080830184529394509091602083019080368337019050509050858160008151811061197757fe5b60200260200101906001600160a01b031690816001600160a01b03168152505084816001815181106119a557fe5b6001600160a01b039283166020918202929092010152600090831615611b31576002546040805163d06ca61f60e01b815260048101888152602482019283528551604483015285516001600160a01b039094169363d06ca61f938a938893926064909101906020808601910280838360005b83811015611a2f578181015183820152602001611a17565b50505050905001935050505060006040518083038186803b158015611a5357600080fd5b505afa158015611a67573d6000803e3d6000fd5b505050506040513d6000823e601f3d908101601f191682016040526020811015611a9057600080fd5b8101908080516040519392919084600160201b821115611aaf57600080fd5b908301906020820185811115611ac457600080fd5b82518660208202830111600160201b82111715611ae057600080fd5b82525081516020918201928201910280838360005b83811015611b0d578181015183820152602001611af5565b50505050905001604052505050600181518110611b2657fe5b602002602001015190505b604080516003808252608082019092526060916020820183803683370190505090508781600081518110611b6157fe5b6001600160a01b039283166020918202929092010152600554825191169082906001908110611b8c57fe5b60200260200101906001600160a01b031690816001600160a01b0316815250508681600281518110611bba57fe5b6001600160a01b039283166020918202929092018101919091526002546040805163d06ca61f60e01b8152600481018b815260248201928352865160448301528651600096949094169463d06ca61f948d948994909260649091019185820191028083838c5b83811015611c38578181015183820152602001611c20565b50505050905001935050505060006040518083038186803b158015611c5c57600080fd5b505afa158015611c70573d6000803e3d6000fd5b505050506040513d6000823e601f3d908101601f191682016040526020811015611c9957600080fd5b8101908080516040519392919084600160201b821115611cb857600080fd5b908301906020820185811115611ccd57600080fd5b82518660208202830111600160201b82111715611ce957600080fd5b82525081516020918201928201910280838360005b83811015611d16578181015183820152602001611cfe565b50505050905001604052505050600281518110611d2f57fe5b60200260200101519050808310611ed9576002546040516338ed173960e01b8152600481018981526001602483018190523060648401819052600f60fc1b6084850181905260a0604486019081528a5160a48701528a516001600160a01b03909716966338ed1739968f968d9594939092909160c401906020808801910280838360005b83811015611dcb578181015183820152602001611db3565b505050509050019650505050505050600060405180830381600087803b158015611df457600080fd5b505af1158015611e08573d6000803e3d6000fd5b505050506040513d6000823e601f3d908101601f191682016040526020811015611e3157600080fd5b8101908080516040519392919084600160201b821115611e5057600080fd5b908301906020820185811115611e6557600080fd5b82518660208202830111600160201b82111715611e8157600080fd5b82525081516020918201928201910280838360005b83811015611eae578181015183820152602001611e96565b50505050905001604052505050600185510381518110611eca57fe5b6020026020010151955061206e565b6002546040516338ed173960e01b8152600481018981526001602483018190523060648401819052600f60fc1b6084850181905260a060448601908152885160a487015288516001600160a01b03909716966338ed1739968f968b9594939092909160c401906020808801910280838360005b83811015611f64578181015183820152602001611f4c565b505050509050019650505050505050600060405180830381600087803b158015611f8d57600080fd5b505af1158015611fa1573d6000803e3d6000fd5b505050506040513d6000823e601f3d908101601f191682016040526020811015611fca57600080fd5b8101908080516040519392919084600160201b821115611fe957600080fd5b908301906020820185811115611ffe57600080fd5b82518660208202830111600160201b8211171561201a57600080fd5b82525081516020918201928201910280838360005b8381101561204757818101518382015260200161202f565b5050505090500160405250505060018351038151811061206357fe5b602002602001015195505b505050505061229a565b604080516002808252606080830184529260208301908036833701905050905084816000815181106120a657fe5b6001600160a01b0392831660209182029290920101526005548251911690829060019081106120d157fe5b60200260200101906001600160a01b031690816001600160a01b031681525050600260009054906101000a90046001600160a01b03166001600160a01b03166338ed17398460018430600f60fc1b6040518663ffffffff1660e01b81526004018086815260200185815260200180602001846001600160a01b03168152602001838152602001828103825285818151815260200191508051906020019060200280838360005b8381101561218f578181015183820152602001612177565b505050509050019650505050505050600060405180830381600087803b1580156121b857600080fd5b505af11580156121cc573d6000803e3d6000fd5b505050506040513d6000823e601f3d908101601f1916820160405260208110156121f557600080fd5b8101908080516040519392919084600160201b82111561221457600080fd5b90830190602082018581111561222957600080fd5b82518660208202830111600160201b8211171561224557600080fd5b82525081516020918201928201910280838360005b8381101561227257818101518382015260200161225a565b5050505090500160405250505060018251038151811061228e57fe5b60200260200101519150505b6124d0565b6040805160028082526060808301845292602083019080368337505060055482519293506001600160a01b0316918391506000906122d957fe5b60200260200101906001600160a01b031690816001600160a01b031681525050838160018151811061230757fe5b60200260200101906001600160a01b031690816001600160a01b031681525050600260009054906101000a90046001600160a01b03166001600160a01b03166338ed17398460018430600f60fc1b6040518663ffffffff1660e01b81526004018086815260200185815260200180602001846001600160a01b03168152602001838152602001828103825285818151815260200191508051906020019060200280838360005b838110156123c55781810151838201526020016123ad565b505050509050019650505050505050600060405180830381600087803b1580156123ee57600080fd5b505af1158015612402573d6000803e3d6000fd5b505050506040513d6000823e601f3d908101601f19168201604052602081101561242b57600080fd5b8101908080516040519392919084600160201b82111561244a57600080fd5b90830190602082018581111561245f57600080fd5b82518660208202830111600160201b8211171561247b57600080fd5b82525081516020918201928201910280838360005b838110156124a8578181015183820152602001612490565b505050509050016040525050506001825103815181106124c457fe5b60200260200101519150505b60008111611641576040805162461bcd60e51b815260206004820152601760248201527f4572726f72205377617070696e6720546f6b656e732032000000000000000000604482015290519081900360640190fd5b60606125308561283a565b612581576040805162461bcd60e51b815260206004820152601d60248201527f416464726573733a2063616c6c20746f206e6f6e2d636f6e7472616374000000604482015290519081900360640190fd5b60006060866001600160a01b031685876040518082805190602001908083835b602083106125c05780518252601f1990920191602091820191016125a1565b6001836020036101000a03801982511681845116808217855250505050505090500191505060006040518083038185875af1925050503d8060008114612622576040519150601f19603f3d011682016040523d82523d6000602084013e612627565b606091505b5091509150811561263b5791506116279050565b80511561264b5780518082602001fd5b8360405162461bcd60e51b81526004018080602001828103825283818151815260200191508051906020019080838360005b8381101561269557818101518382015260200161267d565b50505050905090810190601f1680156126c25780820380516001836020036101000a031916815260200191505b509250505060405180910390fd5b600081848411156127225760405162461bcd60e51b815260206004820181815283516024840152835190928392604490910191908501908083836000831561269557818101518382015260200161267d565b505050900390565b600082612739575060006117a0565b8282028284828161274657fe5b041461179d5760405162461bcd60e51b81526004018080602001828103825260218152602001806128676021913960400191505060405180910390fd5b600060038211156127c6575080600160028204015b818110156127c0578091506002818285816127af57fe5b0401816127b857fe5b049050612798565b506127d0565b81156127d0575060015b919050565b600081836128245760405162461bcd60e51b815260206004820181815283516024840152835190928392604490910191908501908083836000831561269557818101518382015260200161267d565b50600083858161283057fe5b0495945050505050565b3b15159056fe4f776e61626c653a206e6577206f776e657220697320746865207a65726f2061646472657373536166654d6174683a206d756c7469706c69636174696f6e206f766572666c6f774f776e61626c653a2063616c6c6572206973206e6f7420746865206f776e65725361666545524332303a204552433230206f7065726174696f6e20646964206e6f7420737563636565645361666545524332303a20617070726f76652066726f6d206e6f6e2d7a65726f20746f206e6f6e2d7a65726f20616c6c6f77616e6365a264697066735822122071f37bc995f70a478cf725a84418b1d41cb7df5b95e109d0e504850d610a8cdf64736f6c634300060c0033",
  "immutableReferences": {},
  "source": "// SPDX-License-Identifier: GPLv2\n\n// \n// \n// \n// \n// \n// \n// Copyright (C) 2020 zapper\n\n// This program is free software: you can redistribute it and/or modify\n// it under the terms of the GNU Affero General Public License as published by\n// the Free Software Foundation, either version 2 of the License, or\n// (at your option) any later version.\n//\n// This program is distributed in the hope that it will be useful,\n// but WITHOUT ANY WARRANTY; without even the implied warranty of\n// MERCHANTABILITY or FITNESS FOR A PARTICULAR PURPOSE.  See the\n// GNU Affero General Public License for more details.\n//\n\n///@author Zapper\n///@notice This contract adds liquidity to Sushiswap pools using ETH or any ERC20 Token.\n// SPDX-License-Identifier: GPLv2\n\npragma solidity ^0.6.0;\n\nimport \"@openzeppelin/contracts/utils/ReentrancyGuard.sol\";\nimport \"@openzeppelin/contracts/token/ERC20/SafeERC20.sol\";\nimport \"@openzeppelin/contracts/access/Ownable.sol\";\nimport \"./libraries/Math.sol\";\nimport \"./interfaces/IGoSwapFactory.sol\";\nimport \"./interfaces/IGoSwapRouter.sol\";\nimport \"./interfaces/IGoSwapPair.sol\";\n\ncontract GoSwap_ZapIn is ReentrancyGuard, Ownable {\n    using SafeMath for uint256;\n    using Address for address;\n    using SafeERC20 for IERC20;\n\n    bool public stopped = false;\n\n    IGoSwapRouter public router;\n    IGoSwapFactory public otherFactory;\n    IGoSwapFactory public factory;\n\n    address public WHT;\n\n    uint256\n        private constant deadline = 0xf000000000000000000000000000000000000000000000000000000000000000;\n\n    // circuit breaker modifiers\n    modifier stopInEmergency {\n        if (stopped) {\n            revert(\"Temporarily Paused\");\n        } else {\n            _;\n        }\n    }\n\n    function setOtherFactory(IGoSwapFactory _otherFactory) public onlyOwner {\n        otherFactory = _otherFactory;\n    }\n\n    function setFactory(IGoSwapFactory _factory) public onlyOwner {\n        factory = _factory;\n    }\n\n    function setRouter(IGoSwapRouter _router) public onlyOwner {\n        router = _router;\n    }\n\n    function setWHT(address _WHT) public onlyOwner {\n        WHT = _WHT;\n    }\n\n    /**\n    @notice This function is used to invest in given Sushiswap pair through ETH/ERC20 Tokens\n    @param _FromTokenContractAddress The ERC20 token used for investment (address(0x00) if ether)\n    @param _pairAddress The Sushiswap pair address\n    @param _amount The amount of fromToken to invest\n    @param _minPoolTokens Reverts if less tokens received than this\n    @param _allowanceTarget Spender for the first swap\n    @param _swapTarget Excecution target for the first swap\n    @param swapData Dex quote data\n    @return Amount of LP bought\n     */\n    function ZapIn(\n        address _FromTokenContractAddress,\n        address _pairAddress,\n        uint256 _amount,\n        uint256 _minPoolTokens,\n        address _allowanceTarget,\n        address _swapTarget,\n        bytes calldata swapData\n    ) external payable nonReentrant stopInEmergency returns (uint256) {\n        uint256 toInvest;\n        if (_FromTokenContractAddress == address(0)) {\n            require(msg.value > 0, \"Error: HT not sent\");\n            toInvest = msg.value;\n        } else {\n            require(msg.value == 0, \"Error: HT sent\");\n            require(_amount > 0, \"Error: Invalid ERC amount\");\n            IERC20(_FromTokenContractAddress).safeTransferFrom(\n                msg.sender,\n                address(this),\n                _amount\n            );\n            toInvest = _amount;\n        }\n\n        uint256 LPBought = _performZapIn(\n            _FromTokenContractAddress,\n            _pairAddress,\n            toInvest,\n            _allowanceTarget,\n            _swapTarget,\n            swapData\n        );\n        require(LPBought >= _minPoolTokens, \"ERR: High Slippage\");\n\n        IERC20(_pairAddress).safeTransfer(msg.sender, LPBought);\n        return LPBought;\n    }\n\n    function _getPairTokens(address _pairAddress)\n        internal\n        pure\n        returns (address token0, address token1)\n    {\n        IGoSwapPair pair = IGoSwapPair(_pairAddress);\n        token0 = pair.token0();\n        token1 = pair.token1();\n    }\n\n    function _performZapIn(\n        address _FromTokenContractAddress,\n        address _pairAddress,\n        uint256 _amount,\n        address _allowanceTarget,\n        address _swapTarget,\n        bytes memory swapData\n    ) internal returns (uint256) {\n        uint256 intermediateAmt;\n        address intermediateToken;\n        (\n            address _ToSushipoolToken0,\n            address _ToSushipoolToken1\n        ) = _getPairTokens(_pairAddress);\n\n        if (\n            _FromTokenContractAddress != _ToSushipoolToken0 &&\n            _FromTokenContractAddress != _ToSushipoolToken1\n        ) {\n            // swap to intermediate\n            (intermediateAmt, intermediateToken) = _fillQuote(\n                _FromTokenContractAddress,\n                _pairAddress,\n                _amount,\n                _allowanceTarget,\n                _swapTarget,\n                swapData\n            );\n        } else {\n            intermediateToken = _FromTokenContractAddress;\n            intermediateAmt = _amount;\n        }\n        // divide intermediate into appropriate amount to add liquidity\n        (uint256 token0Bought, uint256 token1Bought) = _swapIntermediate(\n            intermediateToken,\n            _ToSushipoolToken0,\n            _ToSushipoolToken1,\n            intermediateAmt\n        );\n\n        return\n            _deposit(\n                _ToSushipoolToken0,\n                _ToSushipoolToken1,\n                token0Bought,\n                token1Bought\n            );\n    }\n\n    function _deposit(\n        address _ToUnipoolToken0,\n        address _ToUnipoolToken1,\n        uint256 token0Bought,\n        uint256 token1Bought\n    ) internal returns (uint256) {\n        IERC20(_ToUnipoolToken0).safeApprove(address(router), 0);\n        IERC20(_ToUnipoolToken1).safeApprove(address(router), 0);\n\n        IERC20(_ToUnipoolToken0).safeApprove(address(router), token0Bought);\n        IERC20(_ToUnipoolToken1).safeApprove(address(router), token1Bought);\n\n        (uint256 amountA, uint256 amountB, uint256 LP) = router.addLiquidity(\n            _ToUnipoolToken0,\n            _ToUnipoolToken1,\n            token0Bought,\n            token1Bought,\n            1,\n            1,\n            address(this),\n            deadline\n        );\n\n        //Returning Residue in token0, if any.\n        if (token0Bought.sub(amountA) > 0) {\n            IERC20(_ToUnipoolToken0).safeTransfer(\n                msg.sender,\n                token0Bought.sub(amountA)\n            );\n        }\n\n        //Returning Residue in token1, if any\n        if (token1Bought.sub(amountB) > 0) {\n            IERC20(_ToUnipoolToken1).safeTransfer(\n                msg.sender,\n                token1Bought.sub(amountB)\n            );\n        }\n\n        return LP;\n    }\n\n    function _fillQuote(\n        address _fromTokenAddress,\n        address _pairAddress,\n        uint256 _amount,\n        address _allowanceTarget,\n        address _swapTarget,\n        bytes memory swapCallData\n    ) internal returns (uint256 amountBought, address intermediateToken) {\n        uint256 valueToSend;\n        if (_fromTokenAddress == address(0)) {\n            valueToSend = _amount;\n        } else {\n            IERC20 fromToken = IERC20(_fromTokenAddress);\n            fromToken.safeApprove(address(_allowanceTarget), 0);\n            fromToken.safeApprove(address(_allowanceTarget), _amount);\n        }\n\n        (address _token0, address _token1) = _getPairTokens(_pairAddress);\n        IERC20 token0 = IERC20(_token0);\n        IERC20 token1 = IERC20(_token1);\n        uint256 initialBalance0 = token0.balanceOf(address(this));\n        uint256 initialBalance1 = token1.balanceOf(address(this));\n\n        (bool success, ) = _swapTarget.call{value:valueToSend}(swapCallData);\n        require(success, \"Error Swapping Tokens 1\");\n\n        uint256 finalBalance0 = token0.balanceOf(address(this)).sub(\n            initialBalance0\n        );\n        uint256 finalBalance1 = token1.balanceOf(address(this)).sub(\n            initialBalance1\n        );\n\n        if (finalBalance0 > finalBalance1) {\n            amountBought = finalBalance0;\n            intermediateToken = _token0;\n        } else {\n            amountBought = finalBalance1;\n            intermediateToken = _token1;\n        }\n\n        require(amountBought > 0, \"Swapped to Invalid Intermediate\");\n    }\n\n    function _swapIntermediate(\n        address _toContractAddress,\n        address _ToSushipoolToken0,\n        address _ToSushipoolToken1,\n        uint256 _amount\n    ) internal returns (uint256 token0Bought, uint256 token1Bought) {\n        IGoSwapPair pair = IGoSwapPair(\n            factory.getPair(_ToSushipoolToken0, _ToSushipoolToken1)\n        );\n        (uint256 res0, uint256 res1, ) = pair.getReserves();\n        if (_toContractAddress == _ToSushipoolToken0) {\n            uint256 amountToSwap = calculateSwapInAmount(res0, _amount);\n            //if no reserve or a new pair is created\n            if (amountToSwap <= 0) amountToSwap = _amount.div(2);\n            token1Bought = _token2Token(\n                _toContractAddress,\n                _ToSushipoolToken1,\n                amountToSwap\n            );\n            token0Bought = _amount.sub(amountToSwap);\n        } else {\n            uint256 amountToSwap = calculateSwapInAmount(res1, _amount);\n            //if no reserve or a new pair is created\n            if (amountToSwap <= 0) amountToSwap = _amount.div(2);\n            token0Bought = _token2Token(\n                _toContractAddress,\n                _ToSushipoolToken0,\n                amountToSwap\n            );\n            token1Bought = _amount.sub(amountToSwap);\n        }\n    }\n\n    function calculateSwapInAmount(uint256 reserveIn, uint256 userIn)\n        internal\n        pure\n        returns (uint256)\n    {\n        return\n            Math\n                .sqrt(\n                reserveIn.mul(userIn.mul(3988000) + reserveIn.mul(3988009))\n            )\n                .sub(reserveIn.mul(1997)) / 1994;\n    }\n\n    /**\n    @notice This function is used to swap ERC20 <> ERC20\n    @param _FromTokenContractAddress The token address to swap from.\n    @param _ToTokenContractAddress The token address to swap to.\n    @param tokens2Trade The amount of tokens to swap\n    @return tokenBought The quantity of tokens bought\n    */\n    function _token2Token(\n        address _FromTokenContractAddress,\n        address _ToTokenContractAddress,\n        uint256 tokens2Trade\n    ) internal returns (uint256 tokenBought) {\n        if (_FromTokenContractAddress == _ToTokenContractAddress) {\n            return tokens2Trade;\n        }\n        IERC20(_FromTokenContractAddress).safeApprove(address(router), 0);\n        IERC20(_FromTokenContractAddress).safeApprove(\n            address(router),\n            tokens2Trade\n        );\n\n        if (_FromTokenContractAddress != WHT) {\n            if (_ToTokenContractAddress != WHT) {\n                // check output via tokenA -> tokenB\n                address pairA = otherFactory.getPair(\n                    _FromTokenContractAddress,\n                    _ToTokenContractAddress\n                );\n                address[] memory pathA = new address[](2);\n                pathA[0] = _FromTokenContractAddress;\n                pathA[1] = _ToTokenContractAddress;\n                uint256 amtA;\n                if (pairA != address(0)) {\n                    amtA = router.getAmountsOut(tokens2Trade, pathA)[1];\n                }\n\n                // check output via tokenA -> weth -> tokenB\n                address[] memory pathB = new address[](3);\n                pathB[0] = _FromTokenContractAddress;\n                pathB[1] = WHT;\n                pathB[2] = _ToTokenContractAddress;\n\n                uint256 amtB = router.getAmountsOut(tokens2Trade, pathB)[2];\n\n                if (amtA >= amtB) {\n                    tokenBought = router.swapExactTokensForTokens(\n                        tokens2Trade,\n                        1,\n                        pathA,\n                        address(this),\n                        deadline\n                    )[pathA.length - 1];\n                } else {\n                    tokenBought = router.swapExactTokensForTokens(\n                        tokens2Trade,\n                        1,\n                        pathB,\n                        address(this),\n                        deadline\n                    )[pathB.length - 1];\n                }\n            } else {\n                address[] memory path = new address[](2);\n                path[0] = _FromTokenContractAddress;\n                path[1] = WHT;\n\n                tokenBought = router.swapExactTokensForTokens(\n                    tokens2Trade,\n                    1,\n                    path,\n                    address(this),\n                    deadline\n                )[path.length - 1];\n            }\n        } else {\n            address[] memory path = new address[](2);\n            path[0] = WHT;\n            path[1] = _ToTokenContractAddress;\n            tokenBought = router.swapExactTokensForTokens(\n                tokens2Trade,\n                1,\n                path,\n                address(this),\n                deadline\n            )[path.length - 1];\n        }\n\n        require(tokenBought > 0, \"Error Swapping Tokens 2\");\n    }\n\n    function inCaseTokengetsStuck(IERC20 _TokenAddress) public onlyOwner {\n        uint256 qty = _TokenAddress.balanceOf(address(this));\n        _TokenAddress.safeTransfer(owner(), qty);\n    }\n\n    // - to Pause the contract\n    function toggleContractActive() public onlyOwner {\n        stopped = !stopped;\n    }\n\n    // - to withdraw any ETH balance sitting in the contract\n    function withdraw() public onlyOwner {\n        uint256 contractBalance = address(this).balance;\n        address payable _to = address(uint160(owner()));\n        _to.transfer(contractBalance);\n    }\n}\n",
  "sourcePath": "/home/cui/Documents/goswap/goswap-core/contracts/GoSwap_ZapIn.sol",
  "compiler": {
    "name": "solc",
    "version": "0.6.12+commit.27d51765.Emscripten.clang"
  },
  "schemaVersion": "3.3.2",
  "updatedAt": "2021-01-22T03:09:30.399Z",
  "devdoc": {
    "kind": "dev",
    "methods": {
      "ZapIn(address,address,uint256,uint256,address,address,bytes)": {
        "params": {
          "_FromTokenContractAddress": "The ERC20 token used for investment (address(0x00) if ether)",
          "_allowanceTarget": "Spender for the first swap",
          "_amount": "The amount of fromToken to invest",
          "_minPoolTokens": "Reverts if less tokens received than this",
          "_pairAddress": "The Sushiswap pair address",
          "_swapTarget": "Excecution target for the first swap",
          "swapData": "Dex quote data"
        },
        "returns": {
          "_0": "Amount of LP bought"
        }
      },
      "owner()": {
        "details": "Returns the address of the current owner."
      },
      "renounceOwnership()": {
        "details": "Leaves the contract without owner. It will not be possible to call `onlyOwner` functions anymore. Can only be called by the current owner. NOTE: Renouncing ownership will leave the contract without an owner, thereby removing any functionality that is only available to the owner."
      },
      "transferOwnership(address)": {
        "details": "Transfers ownership of the contract to a new account (`newOwner`). Can only be called by the current owner."
      }
    },
    "version": 1
  },
  "userdoc": {
    "kind": "user",
    "methods": {
      "ZapIn(address,address,uint256,uint256,address,address,bytes)": {
        "notice": "This function is used to invest in given Sushiswap pair through ETH/ERC20 Tokens"
      }
    },
    "version": 1
  }
}