{
  "contractName": "GoSwap_ZapOut",
  "abi": [
    {
      "anonymous": false,
      "inputs": [
        {
          "indexed": true,
          "internalType": "address",
          "name": "previousOwner",
          "type": "address"
        },
        {
          "indexed": true,
          "internalType": "address",
          "name": "newOwner",
          "type": "address"
        }
      ],
      "name": "OwnershipTransferred",
      "type": "event"
    },
    {
      "inputs": [],
      "name": "WHT",
      "outputs": [
        {
          "internalType": "address",
          "name": "",
          "type": "address"
        }
      ],
      "stateMutability": "view",
      "type": "function"
    },
    {
      "inputs": [],
      "name": "factory",
      "outputs": [
        {
          "internalType": "contract IGoSwapFactory",
          "name": "",
          "type": "address"
        }
      ],
      "stateMutability": "view",
      "type": "function"
    },
    {
      "inputs": [],
      "name": "otherFactory",
      "outputs": [
        {
          "internalType": "contract IGoSwapFactory",
          "name": "",
          "type": "address"
        }
      ],
      "stateMutability": "view",
      "type": "function"
    },
    {
      "inputs": [],
      "name": "otherRouter",
      "outputs": [
        {
          "internalType": "contract IGoSwapRouter",
          "name": "",
          "type": "address"
        }
      ],
      "stateMutability": "view",
      "type": "function"
    },
    {
      "inputs": [],
      "name": "owner",
      "outputs": [
        {
          "internalType": "address",
          "name": "",
          "type": "address"
        }
      ],
      "stateMutability": "view",
      "type": "function"
    },
    {
      "inputs": [],
      "name": "renounceOwnership",
      "outputs": [],
      "stateMutability": "nonpayable",
      "type": "function"
    },
    {
      "inputs": [],
      "name": "router",
      "outputs": [
        {
          "internalType": "contract IGoSwapRouter",
          "name": "",
          "type": "address"
        }
      ],
      "stateMutability": "view",
      "type": "function"
    },
    {
      "inputs": [],
      "name": "stopped",
      "outputs": [
        {
          "internalType": "bool",
          "name": "",
          "type": "bool"
        }
      ],
      "stateMutability": "view",
      "type": "function"
    },
    {
      "inputs": [
        {
          "internalType": "address",
          "name": "newOwner",
          "type": "address"
        }
      ],
      "name": "transferOwnership",
      "outputs": [],
      "stateMutability": "nonpayable",
      "type": "function"
    },
    {
      "stateMutability": "payable",
      "type": "receive"
    },
    {
      "inputs": [
        {
          "internalType": "contract IGoSwapFactory",
          "name": "_otherFactory",
          "type": "address"
        }
      ],
      "name": "setOtherFactory",
      "outputs": [],
      "stateMutability": "nonpayable",
      "type": "function"
    },
    {
      "inputs": [
        {
          "internalType": "contract IGoSwapFactory",
          "name": "_factory",
          "type": "address"
        }
      ],
      "name": "setFactory",
      "outputs": [],
      "stateMutability": "nonpayable",
      "type": "function"
    },
    {
      "inputs": [
        {
          "internalType": "contract IGoSwapRouter",
          "name": "_otherRouter",
          "type": "address"
        }
      ],
      "name": "setOtherRouter",
      "outputs": [],
      "stateMutability": "nonpayable",
      "type": "function"
    },
    {
      "inputs": [
        {
          "internalType": "contract IGoSwapRouter",
          "name": "_router",
          "type": "address"
        }
      ],
      "name": "setRouter",
      "outputs": [],
      "stateMutability": "nonpayable",
      "type": "function"
    },
    {
      "inputs": [
        {
          "internalType": "address",
          "name": "_WHT",
          "type": "address"
        }
      ],
      "name": "setWHT",
      "outputs": [],
      "stateMutability": "nonpayable",
      "type": "function"
    },
    {
      "inputs": [
        {
          "internalType": "address",
          "name": "_FromPoolAddress",
          "type": "address"
        },
        {
          "internalType": "uint256",
          "name": "_IncomingLP",
          "type": "uint256"
        }
      ],
      "name": "ZapOut2PairToken",
      "outputs": [
        {
          "internalType": "uint256",
          "name": "amountA",
          "type": "uint256"
        },
        {
          "internalType": "uint256",
          "name": "amountB",
          "type": "uint256"
        }
      ],
      "stateMutability": "nonpayable",
      "type": "function"
    },
    {
      "inputs": [
        {
          "internalType": "address",
          "name": "_ToTokenContractAddress",
          "type": "address"
        },
        {
          "internalType": "address",
          "name": "_FromPoolAddress",
          "type": "address"
        },
        {
          "internalType": "uint256",
          "name": "_IncomingLP",
          "type": "uint256"
        },
        {
          "internalType": "uint256",
          "name": "_minTokensRec",
          "type": "uint256"
        }
      ],
      "name": "ZapOut",
      "outputs": [
        {
          "internalType": "uint256",
          "name": "",
          "type": "uint256"
        }
      ],
      "stateMutability": "nonpayable",
      "type": "function"
    },
    {
      "inputs": [
        {
          "internalType": "address",
          "name": "_FromPoolAddress",
          "type": "address"
        },
        {
          "internalType": "uint256",
          "name": "_IncomingLP",
          "type": "uint256"
        },
        {
          "internalType": "uint256",
          "name": "_approvalAmount",
          "type": "uint256"
        },
        {
          "internalType": "uint256",
          "name": "_deadline",
          "type": "uint256"
        },
        {
          "internalType": "uint8",
          "name": "v",
          "type": "uint8"
        },
        {
          "internalType": "bytes32",
          "name": "r",
          "type": "bytes32"
        },
        {
          "internalType": "bytes32",
          "name": "s",
          "type": "bytes32"
        }
      ],
      "name": "ZapOut2PairTokenWithPermit",
      "outputs": [
        {
          "internalType": "uint256",
          "name": "amountA",
          "type": "uint256"
        },
        {
          "internalType": "uint256",
          "name": "amountB",
          "type": "uint256"
        }
      ],
      "stateMutability": "nonpayable",
      "type": "function"
    },
    {
      "inputs": [
        {
          "internalType": "address",
          "name": "_ToTokenContractAddress",
          "type": "address"
        },
        {
          "internalType": "address",
          "name": "_FromPoolAddress",
          "type": "address"
        },
        {
          "internalType": "uint256",
          "name": "_IncomingLP",
          "type": "uint256"
        },
        {
          "internalType": "uint256",
          "name": "_minTokensRec",
          "type": "uint256"
        },
        {
          "internalType": "uint256",
          "name": "_approvalAmount",
          "type": "uint256"
        },
        {
          "internalType": "uint256",
          "name": "_deadline",
          "type": "uint256"
        },
        {
          "internalType": "uint8",
          "name": "v",
          "type": "uint8"
        },
        {
          "internalType": "bytes32",
          "name": "r",
          "type": "bytes32"
        },
        {
          "internalType": "bytes32",
          "name": "s",
          "type": "bytes32"
        }
      ],
      "name": "ZapOutWithPermit",
      "outputs": [
        {
          "internalType": "uint256",
          "name": "",
          "type": "uint256"
        }
      ],
      "stateMutability": "nonpayable",
      "type": "function"
    },
    {
      "inputs": [
        {
          "internalType": "contract IERC20",
          "name": "_TokenAddress",
          "type": "address"
        }
      ],
      "name": "inCaseTokengetsStuck",
      "outputs": [],
      "stateMutability": "nonpayable",
      "type": "function"
    },
    {
      "inputs": [],
      "name": "toggleContractActive",
      "outputs": [],
      "stateMutability": "nonpayable",
      "type": "function"
    },
    {
      "inputs": [],
      "name": "withdraw",
      "outputs": [],
      "stateMutability": "nonpayable",
      "type": "function"
    }
  ],
  "bytecode": "0x60806040526001805460ff60a01b191690553480156200001e57600080fd5b50600160009081556200003062000084565b600180546001600160a01b0319166001600160a01b038316908117909155604051919250906000907f8be0079c531659141344cd1fd0a4f28419497f9722a3daafe3b4186f6b6457e0908290a35062000088565b3390565b61346980620000986000396000f3fe60806040526004361061012e5760003560e01c80637c3c6d57116100ab578063c0d786551161006f578063c0d786551461042d578063c246c8e014610460578063c45a0155146104d3578063ee857b69146104e8578063f2fde38b14610521578063f887ea40146105545761018a565b80637c3c6d57146103315780638da5cb5b146103645780639bf05475146103795780639f3adea21461038e578063bf93516c146103c15761018a565b8063551196d5116100f2578063551196d5146102785780635bb47808146102ab5780635cb48592146102de578063715018a6146102f357806375f12b21146103085761018a565b80631385d24c1461018f5780631eabd430146101a45780633ccfd60b146101d55780633e7e8ec4146101ea57806349c082cd1461021d5761018a565b3661018a5733321415610188576040805162461bcd60e51b815260206004820152601760248201527f446f206e6f742073656e64204854206469726563746c79000000000000000000604482015290519081900360640190fd5b005b600080fd5b34801561019b57600080fd5b50610188610569565b3480156101b057600080fd5b506101b96105e2565b604080516001600160a01b039092168252519081900360200190f35b3480156101e157600080fd5b506101886105f1565b3480156101f657600080fd5b506101886004803603602081101561020d57600080fd5b50356001600160a01b0316610692565b34801561022957600080fd5b506102666004803603608081101561024057600080fd5b506001600160a01b0381358116916020810135909116906040810135906060013561070c565b60408051918252519081900360200190f35b34801561028457600080fd5b506101886004803603602081101561029b57600080fd5b50356001600160a01b0316610b30565b3480156102b757600080fd5b50610188600480360360208110156102ce57600080fd5b50356001600160a01b0316610c25565b3480156102ea57600080fd5b506101b9610c9f565b3480156102ff57600080fd5b50610188610cae565b34801561031457600080fd5b5061031d610d50565b604080519115158252519081900360200190f35b34801561033d57600080fd5b506101886004803603602081101561035457600080fd5b50356001600160a01b0316610d60565b34801561037057600080fd5b506101b9610dda565b34801561038557600080fd5b506101b9610de9565b34801561039a57600080fd5b50610188600480360360208110156103b157600080fd5b50356001600160a01b0316610df8565b3480156103cd57600080fd5b5061026660048036036101208110156103e557600080fd5b506001600160a01b03813581169160208101359091169060408101359060608101359060808101359060a08101359060ff60c0820135169060e0810135906101000135610e72565b34801561043957600080fd5b506101886004803603602081101561045057600080fd5b50356001600160a01b0316610f6d565b34801561046c57600080fd5b506104ba600480360360e081101561048357600080fd5b506001600160a01b038135169060208101359060408101359060608101359060ff6080820135169060a08101359060c00135610fe7565b6040805192835260208301919091528051918290030190f35b3480156104df57600080fd5b506101b96110e4565b3480156104f457600080fd5b506104ba6004803603604081101561050b57600080fd5b506001600160a01b0381351690602001356110f3565b34801561052d57600080fd5b506101886004803603602081101561054457600080fd5b50356001600160a01b03166114cf565b34801561056057600080fd5b506101b96115c8565b6105716115d7565b6001546001600160a01b039081169116146105c1576040805162461bcd60e51b815260206004820181905260248201526000805160206133b4833981519152604482015290519081900360640190fd5b6001805460ff60a01b198116600160a01b9182900460ff1615909102179055565b6002546001600160a01b031681565b6105f96115d7565b6001546001600160a01b03908116911614610649576040805162461bcd60e51b815260206004820181905260248201526000805160206133b4833981519152604482015290519081900360640190fd5b476000610654610dda565b6040519091506001600160a01b0382169083156108fc029084906000818181858888f1935050505015801561068d573d6000803e3d6000fd5b505050565b61069a6115d7565b6001546001600160a01b039081169116146106ea576040805162461bcd60e51b815260206004820181905260248201526000805160206133b4833981519152604482015290519081900360640190fd5b600280546001600160a01b0319166001600160a01b0392909216919091179055565b600060026000541415610766576040805162461bcd60e51b815260206004820152601f60248201527f5265656e7472616e637947756172643a207265656e7472616e742063616c6c00604482015290519081900360640190fd5b6002600055600154600160a01b900460ff16156107bf576040805162461bcd60e51b815260206004820152601260248201527115195b5c1bdc985c9a5b1e4814185d5cd95960721b604482015290519081900360640190fd5b836001600160a01b03811661081b576040805162461bcd60e51b815260206004820152601b60248201527f4572726f723a20496e76616c696420706f6f6c20416464726573730000000000604482015290519081900360640190fd5b6000816001600160a01b0316630dfe16816040518163ffffffff1660e01b815260040160206040518083038186803b15801561085657600080fd5b505afa15801561086a573d6000803e3d6000fd5b505050506040513d602081101561088057600080fd5b50516040805163d21220a760e01b815290519192506000916001600160a01b0385169163d21220a7916004808301926020929190829003018186803b1580156108c857600080fd5b505afa1580156108dc573d6000803e3d6000fd5b505050506040513d60208110156108f257600080fd5b5051905061090b6001600160a01b0388163330896115db565b600354610925906001600160a01b0389811691168861163b565b60035460408051635d5155ef60e11b81526001600160a01b0385811660048301528481166024830152604482018a905260016064830181905260848301523060a4830152600f60fc1b60c48301528251600094859492169263baa2abde9260e480830193919282900301818787803b1580156109a057600080fd5b505af11580156109b4573d6000803e3d6000fd5b505050506040513d60408110156109ca57600080fd5b508051602090910151909250905060006109e48b8661174e565b80156109f557506109f58b8561174e565b15610a1857610a05858c85611b87565b9050610a12848c84611b87565b01610a83565b610a228b8661174e565b15610a52576000610a34858785611b87565b9050610a4a868d610a458488612509565b611b87565b915050610a83565b610a5c8b8561174e565b15610a83576000610a6e868686611b87565b9050610a7f858d610a458487612509565b9150505b87811015610ac8576040805162461bcd60e51b815260206004820152600d60248201526c4869676820736c69707061676560981b604482015290519081900360640190fd5b6001600160a01b038b16610b0957604051339082156108fc029083906000818181858888f19350505050158015610b03573d6000803e3d6000fd5b50610b1d565b610b1d6001600160a01b038c163383612563565b60016000559a9950505050505050505050565b610b386115d7565b6001546001600160a01b03908116911614610b88576040805162461bcd60e51b815260206004820181905260248201526000805160206133b4833981519152604482015290519081900360640190fd5b6000816001600160a01b03166370a08231306040518263ffffffff1660e01b815260040180826001600160a01b0316815260200191505060206040518083038186803b158015610bd757600080fd5b505afa158015610beb573d6000803e3d6000fd5b505050506040513d6020811015610c0157600080fd5b50519050610c21610c10610dda565b6001600160a01b0384169083612563565b5050565b610c2d6115d7565b6001546001600160a01b03908116911614610c7d576040805162461bcd60e51b815260206004820181905260248201526000805160206133b4833981519152604482015290519081900360640190fd5b600580546001600160a01b0319166001600160a01b0392909216919091179055565b6006546001600160a01b031681565b610cb66115d7565b6001546001600160a01b03908116911614610d06576040805162461bcd60e51b815260206004820181905260248201526000805160206133b4833981519152604482015290519081900360640190fd5b6001546040516000916001600160a01b0316907f8be0079c531659141344cd1fd0a4f28419497f9722a3daafe3b4186f6b6457e0908390a3600180546001600160a01b0319169055565b600154600160a01b900460ff1681565b610d686115d7565b6001546001600160a01b03908116911614610db8576040805162461bcd60e51b815260206004820181905260248201526000805160206133b4833981519152604482015290519081900360640190fd5b600680546001600160a01b0319166001600160a01b0392909216919091179055565b6001546001600160a01b031690565b6004546001600160a01b031681565b610e006115d7565b6001546001600160a01b03908116911614610e50576040805162461bcd60e51b815260206004820181905260248201526000805160206133b4833981519152604482015290519081900360640190fd5b600480546001600160a01b0319166001600160a01b0392909216919091179055565b600154600090600160a01b900460ff1615610ec9576040805162461bcd60e51b815260206004820152601260248201527115195b5c1bdc985c9a5b1e4814185d5cd95960721b604482015290519081900360640190fd5b6040805163d505accf60e01b8152336004820152306024820152604481018890526064810187905260ff8616608482015260a4810185905260c4810184905290516001600160a01b038b169163d505accf9160e480830192600092919082900301818387803b158015610f3b57600080fd5b505af1158015610f4f573d6000803e3d6000fd5b50505050610f5f8a8a8a8a61070c565b9a9950505050505050505050565b610f756115d7565b6001546001600160a01b03908116911614610fc5576040805162461bcd60e51b815260206004820181905260248201526000805160206133b4833981519152604482015290519081900360640190fd5b600380546001600160a01b0319166001600160a01b0392909216919091179055565b6001546000908190600160a01b900460ff1615611040576040805162461bcd60e51b815260206004820152601260248201527115195b5c1bdc985c9a5b1e4814185d5cd95960721b604482015290519081900360640190fd5b6040805163d505accf60e01b8152336004820152306024820152604481018990526064810188905260ff8716608482015260a4810186905260c4810185905290516001600160a01b038b169163d505accf9160e480830192600092919082900301818387803b1580156110b257600080fd5b505af11580156110c6573d6000803e3d6000fd5b505050506110d489896110f3565b909a909950975050505050505050565b6005546001600160a01b031681565b6000806002600054141561114e576040805162461bcd60e51b815260206004820152601f60248201527f5265656e7472616e637947756172643a207265656e7472616e742063616c6c00604482015290519081900360640190fd5b6002600055600154600160a01b900460ff16156111a7576040805162461bcd60e51b815260206004820152601260248201527115195b5c1bdc985c9a5b1e4814185d5cd95960721b604482015290519081900360640190fd5b836001600160a01b038116611203576040805162461bcd60e51b815260206004820152601b60248201527f4572726f723a20496e76616c696420706f6f6c20416464726573730000000000604482015290519081900360640190fd5b6000816001600160a01b0316630dfe16816040518163ffffffff1660e01b815260040160206040518083038186803b15801561123e57600080fd5b505afa158015611252573d6000803e3d6000fd5b505050506040513d602081101561126857600080fd5b50516040805163d21220a760e01b815290519192506000916001600160a01b0385169163d21220a7916004808301926020929190829003018186803b1580156112b057600080fd5b505afa1580156112c4573d6000803e3d6000fd5b505050506040513d60208110156112da57600080fd5b505190506112f36001600160a01b0388163330896115db565b60035461130d906001600160a01b0389811691168861163b565b6006546001600160a01b038381169116148061133657506006546001600160a01b038281169116145b1561140d576006546000906001600160a01b03848116911614611359578261135b565b815b60035460408051635843806360e11b81526001600160a01b038085166004830152602482018c90526001604483018190526064830152336084830152600f60fc1b60a483015282519495509092169263b08700c69260c48082019392918290030181600087803b1580156113ce57600080fd5b505af11580156113e2573d6000803e3d6000fd5b505050506040513d60408110156113f857600080fd5b50805160209091015190965094506114be9050565b60035460408051635d5155ef60e11b81526001600160a01b0385811660048301528481166024830152604482018a905260016064830181905260848301523360a4830152600f60fc1b60c4830152825193169263baa2abde9260e4808401939192918290030181600087803b15801561148557600080fd5b505af1158015611499573d6000803e3d6000fd5b505050506040513d60408110156114af57600080fd5b50805160209091015190955093505b505050600160005590939092509050565b6114d76115d7565b6001546001600160a01b03908116911614611527576040805162461bcd60e51b815260206004820181905260248201526000805160206133b4833981519152604482015290519081900360640190fd5b6001600160a01b03811661156c5760405162461bcd60e51b815260040180806020018281038252602681526020018061336d6026913960400191505060405180910390fd5b6001546040516001600160a01b038084169216907f8be0079c531659141344cd1fd0a4f28419497f9722a3daafe3b4186f6b6457e090600090a3600180546001600160a01b0319166001600160a01b0392909216919091179055565b6003546001600160a01b031681565b3390565b604080516001600160a01b0380861660248301528416604482015260648082018490528251808303909101815260849091019091526020810180516001600160e01b03166323b872dd60e01b1790526116359085906125b1565b50505050565b8015806116c1575060408051636eb1769f60e11b81523060048201526001600160a01b03848116602483015291519185169163dd62ed3e91604480820192602092909190829003018186803b15801561169357600080fd5b505afa1580156116a7573d6000803e3d6000fd5b505050506040513d60208110156116bd57600080fd5b5051155b6116fc5760405162461bcd60e51b81526004018080602001828103825260368152602001806133fe6036913960400191505060405180910390fd5b604080516001600160a01b038416602482015260448082018490528251808303909101815260649091019091526020810180516001600160e01b031663095ea7b360e01b17905261068d9084906125b1565b60006001600160a01b03831615158061176f57506001600160a01b03821615155b6117ba576040805162461bcd60e51b8152602060048201526017602482015276496e76616c69642045786368616e67652076616c75657360481b604482015290519081900360640190fd5b816001600160a01b0316836001600160a01b031614156117dc57506001611b81565b6001600160a01b03831615806117ff57506006546001600160a01b038481169116145b156118dd576006546001600160a01b038381169116148061182757506001600160a01b038216155b1561183457506001611b81565b600480546006546040805163e6a4390560e01b81526001600160a01b03878116958201959095529184166024830152516000939092169163e6a4390591604480820192602092909190829003018186803b15801561189157600080fd5b505afa1580156118a5573d6000803e3d6000fd5b505050506040513d60208110156118bb57600080fd5b505190506118c881612662565b156118d7576001915050611b81565b50611b7d565b6001600160a01b038216158061190057506006546001600160a01b038381169116145b15611992576006546001600160a01b038481169116148061192857506001600160a01b038316155b1561193557506001611b81565b600480546006546040805163e6a4390560e01b81526001600160a01b03888116958201959095529184166024830152516000939092169163e6a4390591604480820192602092909190829003018186803b15801561189157600080fd5b600480546006546040805163e6a4390560e01b81526001600160a01b03888116958201959095529184166024830152516000939092169163e6a4390591604480820192602092909190829003018186803b1580156119ef57600080fd5b505afa158015611a03573d6000803e3d6000fd5b505050506040513d6020811015611a1957600080fd5b5051600480546006546040805163e6a4390560e01b81526001600160a01b0389811695820195909552918416602483015251939450600093929091169163e6a4390591604480820192602092909190829003018186803b158015611a7c57600080fd5b505afa158015611a90573d6000803e3d6000fd5b505050506040513d6020811015611aa657600080fd5b5051600480546040805163e6a4390560e01b81526001600160a01b038a81169482019490945288841660248201529051939450600093929091169163e6a4390591604480820192602092909190829003018186803b158015611b0757600080fd5b505afa158015611b1b573d6000803e3d6000fd5b505050506040513d6020811015611b3157600080fd5b50519050611b3e83612662565b8015611b4e5750611b4e82612662565b15611b5f5760019350505050611b81565b611b6881612662565b15611b795760019350505050611b81565b5050505b5060005b92915050565b60006001600160a01b038416151580611ba857506001600160a01b03831615155b611bf3576040805162461bcd60e51b8152602060048201526017602482015276496e76616c69642045786368616e67652076616c75657360481b604482015290519081900360640190fd5b826001600160a01b0316846001600160a01b03161415611c14575080612502565b611c1e848461174e565b611c65576040805162461bcd60e51b815260206004820152601360248201527210d85b9b9bdd08189948195e18da185b99d959606a1b604482015290519081900360640190fd5b60008211611cab576040805162461bcd60e51b815260206004820152600e60248201526d125b9d985b1a5908185b5bdd5b9d60921b604482015290519081900360640190fd5b6001600160a01b0384166120f3576006546001600160a01b0384811691161415611d4057600660009054906101000a90046001600160a01b03166001600160a01b031663d0e30db0836040518263ffffffff1660e01b81526004016000604051808303818588803b158015611d1f57600080fd5b505af1158015611d33573d6000803e3d6000fd5b5050505050819050612502565b6040805160028082526060808301845292602083019080368337505060065482519293506001600160a01b031691839150600090611d7a57fe5b60200260200101906001600160a01b031690816001600160a01b0316815250508381600181518110611da857fe5b6001600160a01b039283166020918202929092018101919091526002546040805163d06ca61f60e01b81526004810188815260248201928352865160448301528651600096949094169463d06ca61f948a948994909260649091019185820191028083838c5b83811015611e26578181015183820152602001611e0e565b50505050905001935050505060006040518083038186803b158015611e4a57600080fd5b505afa158015611e5e573d6000803e3d6000fd5b505050506040513d6000823e601f3d908101601f191682016040526020811015611e8757600080fd5b8101908080516040519392919084600160201b821115611ea657600080fd5b908301906020820185811115611ebb57600080fd5b82518660208202830111600160201b82111715611ed757600080fd5b82525081516020918201928201910280838360005b83811015611f04578181015183820152602001611eec565b50505050905001604052505050600181518110611f1d57fe5b60200260200101519050611f48611f4082611f3b61271060c86126f3565b612735565b61271061278e565b90506060600260009054906101000a90046001600160a01b03166001600160a01b031663de6b825686848630600f60fc1b6040518663ffffffff1660e01b81526004018085815260200180602001846001600160a01b03168152602001838152602001828103825285818151815260200191508051906020019060200280838360005b83811015611fe3578181015183820152602001611fcb565b50505050905001955050505050506000604051808303818588803b15801561200a57600080fd5b505af115801561201e573d6000803e3d6000fd5b50505050506040513d6000823e601f3d908101601f19168201604052602081101561204857600080fd5b8101908080516040519392919084600160201b82111561206757600080fd5b90830190602082018581111561207c57600080fd5b82518660208202830111600160201b8211171561209857600080fd5b82525081516020918201928201910280838360005b838110156120c55781810151838201526020016120ad565b505050509050016040525050509050806001815181106120e157fe5b60200260200101519350505050612502565b6001600160a01b038316612491576006546001600160a01b03858116911614156121845760065460408051632e1a7d4d60e01b81526004810185905290516001600160a01b0390921691632e1a7d4d9160248082019260009290919082900301818387803b15801561216457600080fd5b505af1158015612178573d6000803e3d6000fd5b50505050819050612502565b604080516002808252606080830184529260208301908036833750506002549192506121be916001600160a01b038881169250168561163b565b84816000815181106121cc57fe5b6001600160a01b0392831660209182029290920101526006548251911690829060019081106121f757fe5b6001600160a01b039283166020918202929092018101919091526002546040805163d06ca61f60e01b81526004810188815260248201928352865160448301528651600096949094169463d06ca61f948a948994909260649091019185820191028083838c5b8381101561227557818101518382015260200161225d565b50505050905001935050505060006040518083038186803b15801561229957600080fd5b505afa1580156122ad573d6000803e3d6000fd5b505050506040513d6000823e601f3d908101601f1916820160405260208110156122d657600080fd5b8101908080516040519392919084600160201b8211156122f557600080fd5b90830190602082018581111561230a57600080fd5b82518660208202830111600160201b8211171561232657600080fd5b82525081516020918201928201910280838360005b8381101561235357818101518382015260200161233b565b5050505090500160405250505060018151811061236c57fe5b6020026020010151905061238a611f4082611f3b61271060c86126f3565b90506060600260009054906101000a90046001600160a01b03166001600160a01b0316634b36120886848630600f60fc1b6040518663ffffffff1660e01b81526004018086815260200185815260200180602001846001600160a01b03168152602001838152602001828103825285818151815260200191508051906020019060200280838360005b8381101561242b578181015183820152602001612413565b505050509050019650505050505050600060405180830381600087803b15801561245457600080fd5b505af1158015612468573d6000803e3d6000fd5b505050506040513d6000823e601f3d908101601f19168201604052602081101561204857600080fd5b6002546124ab906001600160a01b0386811691168461163b565b60006124b88585856127d0565b9050600081116124ff576040805162461bcd60e51b815260206004820152600d60248201526c04572726f7220696e207377617609c1b604482015290519081900360640190fd5b90505b9392505050565b600082820183811015612502576040805162461bcd60e51b815260206004820152601b60248201527f536166654d6174683a206164646974696f6e206f766572666c6f770000000000604482015290519081900360640190fd5b604080516001600160a01b038416602482015260448082018490528251808303909101815260649091019091526020810180516001600160e01b031663a9059cbb60e01b17905261068d9084905b6060612606826040518060400160405280602081526020017f5361666545524332303a206c6f772d6c6576656c2063616c6c206661696c6564815250856001600160a01b03166130e69092919063ffffffff16565b80519091501561068d5780806020019051602081101561262557600080fd5b505161068d5760405162461bcd60e51b815260040180806020018281038252602a8152602001806133d4602a913960400191505060405180910390fd5b60006001600160a01b038216156126ee576000826001600160a01b03166318160ddd6040518163ffffffff1660e01b815260040160206040518083038186803b1580156126ae57600080fd5b505afa1580156126c2573d6000803e3d6000fd5b505050506040513d60208110156126d857600080fd5b5051905080156126ec5760019150506126ee565b505b919050565b600061250283836040518060400160405280601e81526020017f536166654d6174683a207375627472616374696f6e206f766572666c6f7700008152506130f5565b60008261274457506000611b81565b8282028284828161275157fe5b04146125025760405162461bcd60e51b81526004018080602001828103825260218152602001806133936021913960400191505060405180910390fd5b600061250283836040518060400160405280601a81526020017f536166654d6174683a206469766973696f6e206279207a65726f00000000000081525061318c565b600480546006546040805163e6a4390560e01b81526001600160a01b03888116958201959095529184166024830152516000938493169163e6a43905916044808301926020929190829003018186803b15801561282c57600080fd5b505afa158015612840573d6000803e3d6000fd5b505050506040513d602081101561285657600080fd5b5051600480546006546040805163e6a4390560e01b81526001600160a01b038a811695820195909552918416602483015251939450600093929091169163e6a4390591604480820192602092909190829003018186803b1580156128b957600080fd5b505afa1580156128cd573d6000803e3d6000fd5b505050506040513d60208110156128e357600080fd5b5051600480546040805163e6a4390560e01b81526001600160a01b038b81169482019490945289841660248201529051939450600093929091169163e6a4390591604480820192602092909190829003018186803b15801561294457600080fd5b505afa158015612958573d6000803e3d6000fd5b505050506040513d602081101561296e57600080fd5b50519050606061297d82612662565b15612d1257604080516002808252606080830184529260208301908036833701905050905088816000815181106129b057fe5b60200260200101906001600160a01b031690816001600160a01b03168152505087816001815181106129de57fe5b6001600160a01b039283166020918202929092018101919091526002546040805163d06ca61f60e01b8152600481018c815260248201928352865160448301528651600096949094169463d06ca61f948e948994909260649091019185820191028083838c5b83811015612a5c578181015183820152602001612a44565b50505050905001935050505060006040518083038186803b158015612a8057600080fd5b505afa158015612a94573d6000803e3d6000fd5b505050506040513d6000823e601f3d908101601f191682016040526020811015612abd57600080fd5b8101908080516040519392919084600160201b821115612adc57600080fd5b908301906020820185811115612af157600080fd5b82518660208202830111600160201b82111715612b0d57600080fd5b82525081516020918201928201910280838360005b83811015612b3a578181015183820152602001612b22565b50505050905001604052505050600181518110612b5357fe5b60200260200101519050612b71611f4082611f3b61271060c86126f3565b6002546040516338ed173960e01b8152600481018b8152602482018490523060648301819052600f60fc1b6084840181905260a060448501908152885160a486015288519697506001600160a01b03909516956338ed1739958f9589958b95949390929160c401906020808801910280838360005b83811015612bfe578181015183820152602001612be6565b505050509050019650505050505050600060405180830381600087803b158015612c2757600080fd5b505af1158015612c3b573d6000803e3d6000fd5b505050506040513d6000823e601f3d908101601f191682016040526020811015612c6457600080fd5b8101908080516040519392919084600160201b821115612c8357600080fd5b908301906020820185811115612c9857600080fd5b82518660208202830111600160201b82111715612cb457600080fd5b82525081516020918201928201910280838360005b83811015612ce1578181015183820152602001612cc9565b50505050905001604052505050925082600181518110612cfd57fe5b60200260200101519650505050505050612502565b612d1b84612662565b8015612d2b5750612d2b83612662565b156130d857604080516003808252608082019092526060916020820183803683370190505090508881600081518110612d6057fe5b6001600160a01b039283166020918202929092010152600654825191169082906001908110612d8b57fe5b60200260200101906001600160a01b031690816001600160a01b0316815250508781600281518110612db957fe5b6001600160a01b039283166020918202929092018101919091526002546040805163d06ca61f60e01b8152600481018c815260248201928352865160448301528651600096949094169463d06ca61f948e948994909260649091019185820191028083838c5b83811015612e37578181015183820152602001612e1f565b50505050905001935050505060006040518083038186803b158015612e5b57600080fd5b505afa158015612e6f573d6000803e3d6000fd5b505050506040513d6000823e601f3d908101601f191682016040526020811015612e9857600080fd5b8101908080516040519392919084600160201b821115612eb757600080fd5b908301906020820185811115612ecc57600080fd5b82518660208202830111600160201b82111715612ee857600080fd5b82525081516020918201928201910280838360005b83811015612f15578181015183820152602001612efd565b50505050905001604052505050600281518110612f2e57fe5b60200260200101519050612f4c611f4082611f3b61271060c86126f3565b6002546040516338ed173960e01b8152600481018b8152602482018490523060648301819052600f60fc1b6084840181905260a060448501908152885160a486015288519697506001600160a01b03909516956338ed1739958f9589958b95949390929160c401906020808801910280838360005b83811015612fd9578181015183820152602001612fc1565b505050509050019650505050505050600060405180830381600087803b15801561300257600080fd5b505af1158015613016573d6000803e3d6000fd5b505050506040513d6000823e601f3d908101601f19168201604052602081101561303f57600080fd5b8101908080516040519392919084600160201b82111561305e57600080fd5b90830190602082018581111561307357600080fd5b82518660208202830111600160201b8211171561308f57600080fd5b82525081516020918201928201910280838360005b838110156130bc5781810151838201526020016130a4565b50505050905001604052505050925082600281518110612cfd57fe5b506000979650505050505050565b60606124ff84846000856131f1565b600081848411156131845760405162461bcd60e51b81526004018080602001828103825283818151815260200191508051906020019080838360005b83811015613149578181015183820152602001613131565b50505050905090810190601f1680156131765780820380516001836020036101000a031916815260200191505b509250505060405180910390fd5b505050900390565b600081836131db5760405162461bcd60e51b8152602060048201818152835160248401528351909283926044909101919085019080838360008315613149578181015183820152602001613131565b5060008385816131e757fe5b0495945050505050565b60606131fc85613366565b61324d576040805162461bcd60e51b815260206004820152601d60248201527f416464726573733a2063616c6c20746f206e6f6e2d636f6e7472616374000000604482015290519081900360640190fd5b60006060866001600160a01b031685876040518082805190602001908083835b6020831061328c5780518252601f19909201916020918201910161326d565b6001836020036101000a03801982511681845116808217855250505050505090500191505060006040518083038185875af1925050503d80600081146132ee576040519150601f19603f3d011682016040523d82523d6000602084013e6132f3565b606091505b5091509150811561330757915061335e9050565b8051156133175780518082602001fd5b60405162461bcd60e51b8152602060048201818152865160248401528651879391928392604401919085019080838360008315613149578181015183820152602001613131565b949350505050565b3b15159056fe4f776e61626c653a206e6577206f776e657220697320746865207a65726f2061646472657373536166654d6174683a206d756c7469706c69636174696f6e206f766572666c6f774f776e61626c653a2063616c6c6572206973206e6f7420746865206f776e65725361666545524332303a204552433230206f7065726174696f6e20646964206e6f7420737563636565645361666545524332303a20617070726f76652066726f6d206e6f6e2d7a65726f20746f206e6f6e2d7a65726f20616c6c6f77616e6365a2646970667358221220b52d637d26c3ff8ed0f07b79e05ccd103631a26b6392f7109085213229c0bd8864736f6c634300060c0033",
  "immutableReferences": {},
  "source": "// SPDX-License-Identifier: GPLv2\n\n// \n// \n// \n// \n// \n// \n// Copyright (C) 2020 zapper, nodar, suhail, seb, apoorv, sumit\n\n// This program is free software: you can redistribute it and/or modify\n// it under the terms of the GNU Affero General Public License as published by\n// the Free Software Foundation, either version 2 of the License, or\n// (at your option) any later version.\n//\n// This program is distributed in the hope that it will be useful,\n// but WITHOUT ANY WARRANTY; without even the implied warranty of\n// MERCHANTABILITY or FITNESS FOR A PARTICULAR PURPOSE.  See the\n// GNU Affero General Public License for more details.\n//\n// Visit <https://www.gnu.org/licenses/>for a copy of the GNU Affero General Public License\n\n///@author Zapper\n///@notice this contract implements one click removal of liquidity from swap pools, receiving ETH, ERC tokens or both.\n\npragma solidity ^0.6.0;\n\nimport \"@openzeppelin/contracts/utils/ReentrancyGuard.sol\";\nimport \"@openzeppelin/contracts/token/ERC20/SafeERC20.sol\";\nimport \"@openzeppelin/contracts/access/Ownable.sol\";\nimport \"./libraries/Math.sol\";\nimport \"./interfaces/IGoSwapFactory.sol\";\nimport \"./interfaces/IGoSwapRouter.sol\";\nimport \"./interfaces/IGoSwapPair.sol\";\nimport \"./interfaces/IERC20GoSwap.sol\";\nimport \"./interfaces/IWHT.sol\";\n\ncontract GoSwap_ZapOut is ReentrancyGuard, Ownable {\n    using SafeMath for uint256;\n    using SafeERC20 for IERC20;\n    using Address for address;\n\n    bool public stopped = false;\n\n    IGoSwapRouter public otherRouter;\n    IGoSwapRouter public router;\n    IGoSwapFactory public otherFactory;\n    IGoSwapFactory public factory;\n\n    address public WHT;\n\n    uint256\n        private constant deadline = 0xf000000000000000000000000000000000000000000000000000000000000000;\n\n    // circuit breaker modifiers\n    modifier stopInEmergency {\n        if (stopped) {\n            revert(\"Temporarily Paused\");\n        } else {\n            _;\n        }\n    }\n\n    function setOtherFactory(IGoSwapFactory _otherFactory) public onlyOwner {\n        otherFactory = _otherFactory;\n    }\n\n    function setFactory(IGoSwapFactory _factory) public onlyOwner {\n        factory = _factory;\n    }\n\n    function setOtherRouter(IGoSwapRouter _otherRouter) public onlyOwner {\n        otherRouter = _otherRouter;\n    }\n\n    function setRouter(IGoSwapRouter _router) public onlyOwner {\n        router = _router;\n    }\n\n    function setWHT(address _WHT) public onlyOwner {\n        WHT = _WHT;\n    }\n\n    /**\n    @notice This function is used to zapout of given Swap pair in the bounded tokens\n    @param _FromPoolAddress The Swap pair address to zapout\n    @param _IncomingLP The amount of LP\n    @return amountA the amount of pair tokens received after zapout\n     */\n    function ZapOut2PairToken(\n        address _FromPoolAddress,\n        uint256 _IncomingLP\n    )\n        public\n        nonReentrant\n        stopInEmergency\n        returns (uint256 amountA, uint256 amountB)\n    {\n        IGoSwapPair pair = IGoSwapPair(_FromPoolAddress);\n\n        require(\n            address(pair) != address(0),\n            \"Error: Invalid pool Address\"\n        );\n\n        //get reserves\n        address token0 = pair.token0();\n        address token1 = pair.token1();\n\n        IERC20(_FromPoolAddress).safeTransferFrom(\n            msg.sender,\n            address(this),\n            _IncomingLP\n        );\n\n        IERC20(_FromPoolAddress).safeApprove(address(router), _IncomingLP);\n\n        if (token0 == WHT || token1 == WHT) {\n            address _token = token0 == WHT ? token1 : token0;\n            (amountA, amountB) = router.removeLiquidityHT(\n                _token,\n                _IncomingLP,\n                1,\n                1,\n                msg.sender,\n                deadline\n            );\n        } else {\n            (amountA, amountB) = router.removeLiquidity(\n                token0,\n                token1,\n                _IncomingLP,\n                1,\n                1,\n                msg.sender,\n                deadline\n            );\n        }\n    }\n\n    /**\n    @notice This function is used to zapout of given swap pair in ETH/ERC20 Tokens\n    @param _ToTokenContractAddress The ERC20 token to zapout in (address(0x00) if ether)\n    @param _FromPoolAddress The swap pair address to zapout from\n    @param _IncomingLP The amount of LP\n    @return the amount of eth/tokens received after zapout\n     */\n    function ZapOut(\n        address _ToTokenContractAddress,\n        address _FromPoolAddress,\n        uint256 _IncomingLP,\n        uint256 _minTokensRec\n    ) public nonReentrant stopInEmergency returns (uint256) {\n        IGoSwapPair pair = IGoSwapPair(_FromPoolAddress);\n\n        require(\n            address(pair) != address(0),\n            \"Error: Invalid pool Address\"\n        );\n\n        //get pair tokens\n        address token0 = pair.token0();\n        address token1 = pair.token1();\n\n        IERC20(_FromPoolAddress).safeTransferFrom(\n            msg.sender,\n            address(this),\n            _IncomingLP\n        );\n\n        IERC20(_FromPoolAddress).safeApprove(address(router), _IncomingLP);\n\n        (uint256 amountA, uint256 amountB) = router.removeLiquidity(\n            token0,\n            token1,\n            _IncomingLP,\n            1,\n            1,\n            address(this),\n            deadline\n        );\n\n        uint256 tokenBought;\n        if (\n            canSwapFromV2(_ToTokenContractAddress, token0) &&\n            canSwapFromV2(_ToTokenContractAddress, token1)\n        ) {\n            tokenBought = swapFromV2(token0, _ToTokenContractAddress, amountA);\n            tokenBought += swapFromV2(token1, _ToTokenContractAddress, amountB);\n        } else if (canSwapFromV2(_ToTokenContractAddress, token0)) {\n            uint256 token0Bought = swapFromV2(token1, token0, amountB);\n            tokenBought = swapFromV2(\n                token0,\n                _ToTokenContractAddress,\n                token0Bought.add(amountA)\n            );\n        } else if (canSwapFromV2(_ToTokenContractAddress, token1)) {\n            uint256 token1Bought = swapFromV2(token0, token1, amountA);\n            tokenBought = swapFromV2(\n                token1,\n                _ToTokenContractAddress,\n                token1Bought.add(amountB)\n            );\n        }\n\n        require(tokenBought >= _minTokensRec, \"High slippage\");\n\n        if (_ToTokenContractAddress == address(0)) {\n            msg.sender.transfer(tokenBought);\n        } else {\n            IERC20(_ToTokenContractAddress).safeTransfer(\n                msg.sender,\n                tokenBought\n            );\n        }\n\n        return tokenBought;\n    }\n\n    function ZapOut2PairTokenWithPermit(\n        address _FromPoolAddress,\n        uint256 _IncomingLP,\n        uint256 _approvalAmount,\n        uint256 _deadline,\n        uint8 v,\n        bytes32 r,\n        bytes32 s\n    ) external stopInEmergency returns (uint256 amountA, uint256 amountB) {\n        // permit\n        IERC20GoSwap(_FromPoolAddress).permit(\n            msg.sender,\n            address(this),\n            _approvalAmount,\n            _deadline,\n            v,\n            r,\n            s\n        );\n        (amountA, amountB) = ZapOut2PairToken(\n            _FromPoolAddress,\n            _IncomingLP\n        );\n    }\n\n    function ZapOutWithPermit(\n        address _ToTokenContractAddress,\n        address _FromPoolAddress,\n        uint256 _IncomingLP,\n        uint256 _minTokensRec,\n        uint256 _approvalAmount,\n        uint256 _deadline,\n        uint8 v,\n        bytes32 r,\n        bytes32 s\n    ) external stopInEmergency returns (uint256) {\n        // permit\n        IERC20GoSwap(_FromPoolAddress).permit(\n            msg.sender,\n            address(this),\n            _approvalAmount,\n            _deadline,\n            v,\n            r,\n            s\n        );\n\n        return (\n            ZapOut(\n                _ToTokenContractAddress,\n                _FromPoolAddress,\n                _IncomingLP,\n                _minTokensRec\n            )\n        );\n    }\n\n    //swaps _fromToken for _toToken\n    //for eth, address(0) otherwise ERC token address\n    function swapFromV2(\n        address _fromToken,\n        address _toToken,\n        uint256 amount\n    ) internal returns (uint256) {\n        require(\n            _fromToken != address(0) || _toToken != address(0),\n            \"Invalid Exchange values\"\n        );\n        if (_fromToken == _toToken) return amount;\n\n        require(canSwapFromV2(_fromToken, _toToken), \"Cannot be exchanged\");\n        require(amount > 0, \"Invalid amount\");\n\n        if (_fromToken == address(0)) {\n            if (_toToken == WHT) {\n                IWHT(WHT).deposit{value:amount}();\n                return amount;\n            }\n            address[] memory path = new address[](2);\n            path[0] = WHT;\n            path[1] = _toToken;\n            uint256 minTokens = otherRouter.getAmountsOut(amount, path)[1];\n            minTokens = SafeMath.div(\n                SafeMath.mul(minTokens, SafeMath.sub(10000, 200)),\n                10000\n            );\n            uint256[] memory amounts = otherRouter.swapExactHTForTokens{value:amount}(minTokens, path, address(this), deadline);\n            return amounts[1];\n        } else if (_toToken == address(0)) {\n            if (_fromToken == WHT) {\n                IWHT(WHT).withdraw(amount);\n                return amount;\n            }\n            address[] memory path = new address[](2);\n            IERC20(_fromToken).safeApprove(address(otherRouter), amount);\n            path[0] = _fromToken;\n            path[1] = WHT;\n            uint256 minTokens = otherRouter.getAmountsOut(amount, path)[1];\n            minTokens = SafeMath.div(\n                SafeMath.mul(minTokens, SafeMath.sub(10000, 200)),\n                10000\n            );\n            uint256[] memory amounts = otherRouter.swapExactTokensForHT(\n                amount,\n                minTokens,\n                path,\n                address(this),\n                deadline\n            );\n            return amounts[1];\n        } else {\n            IERC20(_fromToken).safeApprove(address(otherRouter), amount);\n            uint256 returnedAmount = _swapTokenToTokenV2(\n                _fromToken,\n                _toToken,\n                amount\n            );\n            require(returnedAmount > 0, \"Error in swap\");\n            return returnedAmount;\n        }\n    }\n\n    //swaps 2 ERC tokens (UniV2)\n    function _swapTokenToTokenV2(\n        address _fromToken,\n        address _toToken,\n        uint256 amount\n    ) internal returns (uint256) {\n        IGoSwapPair pair1 = IGoSwapPair(otherFactory.getPair(_fromToken, WHT));\n        IGoSwapPair pair2 = IGoSwapPair(otherFactory.getPair(_toToken, WHT));\n        IGoSwapPair pair3 = IGoSwapPair(\n            otherFactory.getPair(_fromToken, _toToken)\n        );\n\n        uint256[] memory amounts;\n\n        if (_haveReserve(pair3)) {\n            address[] memory path = new address[](2);\n            path[0] = _fromToken;\n            path[1] = _toToken;\n            uint256 minTokens = otherRouter.getAmountsOut(amount, path)[1];\n            minTokens = SafeMath.div(\n                SafeMath.mul(minTokens, SafeMath.sub(10000, 200)),\n                10000\n            );\n            amounts = otherRouter.swapExactTokensForTokens(\n                amount,\n                minTokens,\n                path,\n                address(this),\n                deadline\n            );\n            return amounts[1];\n        } else if (_haveReserve(pair1) && _haveReserve(pair2)) {\n            address[] memory path = new address[](3);\n            path[0] = _fromToken;\n            path[1] = WHT;\n            path[2] = _toToken;\n            uint256 minTokens = otherRouter.getAmountsOut(amount, path)[2];\n            minTokens = SafeMath.div(\n                SafeMath.mul(minTokens, SafeMath.sub(10000, 200)),\n                10000\n            );\n            amounts = otherRouter.swapExactTokensForTokens(\n                amount,\n                minTokens,\n                path,\n                address(this),\n                deadline\n            );\n            return amounts[2];\n        }\n        return 0;\n    }\n\n    function canSwapFromV2(address _fromToken, address _toToken)\n        internal\n        view\n        returns (bool)\n    {\n        require(\n            _fromToken != address(0) || _toToken != address(0),\n            \"Invalid Exchange values\"\n        );\n\n        if (_fromToken == _toToken) return true;\n\n        if (_fromToken == address(0) || _fromToken == WHT) {\n            if (_toToken == WHT || _toToken == address(0)) return true;\n            IGoSwapPair pair = IGoSwapPair(otherFactory.getPair(_toToken, WHT));\n            if (_haveReserve(pair)) return true;\n        } else if (_toToken == address(0) || _toToken == WHT) {\n            if (_fromToken == WHT || _fromToken == address(0)) return true;\n            IGoSwapPair pair = IGoSwapPair(\n                otherFactory.getPair(_fromToken, WHT)\n            );\n            if (_haveReserve(pair)) return true;\n        } else {\n            IGoSwapPair pair1 = IGoSwapPair(\n                otherFactory.getPair(_fromToken, WHT)\n            );\n            IGoSwapPair pair2 = IGoSwapPair(\n                otherFactory.getPair(_toToken, WHT)\n            );\n            IGoSwapPair pair3 = IGoSwapPair(\n                otherFactory.getPair(_fromToken, _toToken)\n            );\n            if (_haveReserve(pair1) && _haveReserve(pair2)) return true;\n            if (_haveReserve(pair3)) return true;\n        }\n        return false;\n    }\n\n    //checks if the UNI v2 contract have reserves to swap tokens\n    function _haveReserve(IGoSwapPair pair) internal view returns (bool) {\n        if (address(pair) != address(0)) {\n            uint256 totalSupply = IERC20GoSwap(address(pair)).totalSupply();\n            if (totalSupply > 0) return true;\n        }\n    }\n\n    function inCaseTokengetsStuck(IERC20 _TokenAddress) public onlyOwner {\n        uint256 qty = _TokenAddress.balanceOf(address(this));\n        _TokenAddress.safeTransfer(owner(), qty);\n    }\n\n    // - to Pause the contract\n    function toggleContractActive() public onlyOwner {\n        stopped = !stopped;\n    }\n\n    // - to withdraw any ETH balance sitting in the contract\n    function withdraw() public onlyOwner {\n        uint256 contractBalance = address(this).balance;\n        address payable _to = address(uint160(owner()));\n        _to.transfer(contractBalance);\n    }\n\n    receive() external payable {\n        require(msg.sender != tx.origin, \"Do not send HT directly\");\n    }\n}\n",
  "sourcePath": "/home/cui/Documents/goswap/goswap-core/contracts/GoSwap_ZapOut.sol",
  "compiler": {
    "name": "solc",
    "version": "0.6.12+commit.27d51765.Emscripten.clang"
  },
  "schemaVersion": "3.3.2",
  "updatedAt": "2021-01-22T03:09:30.445Z",
  "devdoc": {
    "kind": "dev",
    "methods": {
      "ZapOut(address,address,uint256,uint256)": {
        "params": {
          "_FromPoolAddress": "The swap pair address to zapout from",
          "_IncomingLP": "The amount of LP",
          "_ToTokenContractAddress": "The ERC20 token to zapout in (address(0x00) if ether)"
        },
        "returns": {
          "_0": "the amount of eth/tokens received after zapout"
        }
      },
      "ZapOut2PairToken(address,uint256)": {
        "params": {
          "_FromPoolAddress": "The Swap pair address to zapout",
          "_IncomingLP": "The amount of LP"
        },
        "returns": {
          "amountA": "the amount of pair tokens received after zapout"
        }
      },
      "owner()": {
        "details": "Returns the address of the current owner."
      },
      "renounceOwnership()": {
        "details": "Leaves the contract without owner. It will not be possible to call `onlyOwner` functions anymore. Can only be called by the current owner. NOTE: Renouncing ownership will leave the contract without an owner, thereby removing any functionality that is only available to the owner."
      },
      "transferOwnership(address)": {
        "details": "Transfers ownership of the contract to a new account (`newOwner`). Can only be called by the current owner."
      }
    },
    "version": 1
  },
  "userdoc": {
    "kind": "user",
    "methods": {
      "ZapOut(address,address,uint256,uint256)": {
        "notice": "This function is used to zapout of given swap pair in ETH/ERC20 Tokens"
      },
      "ZapOut2PairToken(address,uint256)": {
        "notice": "This function is used to zapout of given Swap pair in the bounded tokens"
      }
    },
    "version": 1
  }
}