{
  "contractName": "GoSwapHighway",
  "abi": [
    {
      "inputs": [
        {
          "internalType": "contract IGoSwapToken",
          "name": "_GOT",
          "type": "address"
        },
        {
          "internalType": "address",
          "name": "_devaddr",
          "type": "address"
        },
        {
          "internalType": "uint256",
          "name": "_GOTPerBlock",
          "type": "uint256"
        },
        {
          "internalType": "uint256",
          "name": "_startBlock",
          "type": "uint256"
        },
        {
          "internalType": "uint256",
          "name": "_bonusEndBlock",
          "type": "uint256"
        }
      ],
      "stateMutability": "nonpayable",
      "type": "constructor"
    },
    {
      "anonymous": false,
      "inputs": [
        {
          "indexed": true,
          "internalType": "address",
          "name": "account",
          "type": "address"
        }
      ],
      "name": "AdminAdded",
      "type": "event"
    },
    {
      "anonymous": false,
      "inputs": [
        {
          "indexed": true,
          "internalType": "address",
          "name": "account",
          "type": "address"
        }
      ],
      "name": "AdminRemoved",
      "type": "event"
    },
    {
      "anonymous": false,
      "inputs": [
        {
          "indexed": true,
          "internalType": "address",
          "name": "user",
          "type": "address"
        },
        {
          "indexed": true,
          "internalType": "uint256",
          "name": "pid",
          "type": "uint256"
        },
        {
          "indexed": false,
          "internalType": "uint256",
          "name": "amount",
          "type": "uint256"
        }
      ],
      "name": "Deposit",
      "type": "event"
    },
    {
      "anonymous": false,
      "inputs": [
        {
          "indexed": true,
          "internalType": "address",
          "name": "user",
          "type": "address"
        },
        {
          "indexed": true,
          "internalType": "uint256",
          "name": "pid",
          "type": "uint256"
        },
        {
          "indexed": false,
          "internalType": "uint256",
          "name": "amount",
          "type": "uint256"
        }
      ],
      "name": "EmergencyWithdraw",
      "type": "event"
    },
    {
      "anonymous": false,
      "inputs": [
        {
          "indexed": true,
          "internalType": "address",
          "name": "user",
          "type": "address"
        },
        {
          "indexed": true,
          "internalType": "uint256",
          "name": "pid",
          "type": "uint256"
        },
        {
          "indexed": false,
          "internalType": "uint256",
          "name": "amount",
          "type": "uint256"
        }
      ],
      "name": "Withdraw",
      "type": "event"
    },
    {
      "inputs": [],
      "name": "BONUS_MULTIPLIER",
      "outputs": [
        {
          "internalType": "uint256",
          "name": "",
          "type": "uint256"
        }
      ],
      "stateMutability": "view",
      "type": "function"
    },
    {
      "inputs": [],
      "name": "GOT",
      "outputs": [
        {
          "internalType": "contract IGoSwapToken",
          "name": "",
          "type": "address"
        }
      ],
      "stateMutability": "view",
      "type": "function"
    },
    {
      "inputs": [],
      "name": "GOTPerBlock",
      "outputs": [
        {
          "internalType": "uint256",
          "name": "",
          "type": "uint256"
        }
      ],
      "stateMutability": "view",
      "type": "function"
    },
    {
      "inputs": [
        {
          "internalType": "address",
          "name": "account",
          "type": "address"
        }
      ],
      "name": "addAdmin",
      "outputs": [],
      "stateMutability": "nonpayable",
      "type": "function"
    },
    {
      "inputs": [],
      "name": "allAdmins",
      "outputs": [
        {
          "internalType": "address[]",
          "name": "admins",
          "type": "address[]"
        }
      ],
      "stateMutability": "view",
      "type": "function"
    },
    {
      "inputs": [],
      "name": "bonusEndBlock",
      "outputs": [
        {
          "internalType": "uint256",
          "name": "",
          "type": "uint256"
        }
      ],
      "stateMutability": "view",
      "type": "function"
    },
    {
      "inputs": [],
      "name": "devaddr",
      "outputs": [
        {
          "internalType": "address",
          "name": "",
          "type": "address"
        }
      ],
      "stateMutability": "view",
      "type": "function"
    },
    {
      "inputs": [
        {
          "internalType": "address",
          "name": "account",
          "type": "address"
        }
      ],
      "name": "isAdmin",
      "outputs": [
        {
          "internalType": "bool",
          "name": "",
          "type": "bool"
        }
      ],
      "stateMutability": "view",
      "type": "function"
    },
    {
      "inputs": [],
      "name": "migrator",
      "outputs": [
        {
          "internalType": "contract IGoSwapHighway",
          "name": "",
          "type": "address"
        }
      ],
      "stateMutability": "view",
      "type": "function"
    },
    {
      "inputs": [
        {
          "internalType": "uint256",
          "name": "",
          "type": "uint256"
        }
      ],
      "name": "poolInfo",
      "outputs": [
        {
          "internalType": "contract IERC20",
          "name": "lpToken",
          "type": "address"
        },
        {
          "internalType": "uint256",
          "name": "allocPoint",
          "type": "uint256"
        },
        {
          "internalType": "uint256",
          "name": "lastRewardBlock",
          "type": "uint256"
        },
        {
          "internalType": "uint256",
          "name": "accGOTPerShare",
          "type": "uint256"
        }
      ],
      "stateMutability": "view",
      "type": "function"
    },
    {
      "inputs": [
        {
          "internalType": "address",
          "name": "account",
          "type": "address"
        }
      ],
      "name": "removeAdmin",
      "outputs": [],
      "stateMutability": "nonpayable",
      "type": "function"
    },
    {
      "inputs": [],
      "name": "renounceAdmin",
      "outputs": [],
      "stateMutability": "nonpayable",
      "type": "function"
    },
    {
      "inputs": [],
      "name": "startBlock",
      "outputs": [
        {
          "internalType": "uint256",
          "name": "",
          "type": "uint256"
        }
      ],
      "stateMutability": "view",
      "type": "function"
    },
    {
      "inputs": [],
      "name": "totalAllocPoint",
      "outputs": [
        {
          "internalType": "uint256",
          "name": "",
          "type": "uint256"
        }
      ],
      "stateMutability": "view",
      "type": "function"
    },
    {
      "inputs": [
        {
          "internalType": "uint256",
          "name": "",
          "type": "uint256"
        },
        {
          "internalType": "address",
          "name": "",
          "type": "address"
        }
      ],
      "name": "userInfo",
      "outputs": [
        {
          "internalType": "uint256",
          "name": "amount",
          "type": "uint256"
        },
        {
          "internalType": "uint256",
          "name": "rewardDebt",
          "type": "uint256"
        }
      ],
      "stateMutability": "view",
      "type": "function"
    },
    {
      "inputs": [],
      "name": "poolLength",
      "outputs": [
        {
          "internalType": "uint256",
          "name": "",
          "type": "uint256"
        }
      ],
      "stateMutability": "view",
      "type": "function"
    },
    {
      "inputs": [
        {
          "internalType": "uint256",
          "name": "_allocPoint",
          "type": "uint256"
        },
        {
          "internalType": "contract IERC20",
          "name": "_lpToken",
          "type": "address"
        },
        {
          "internalType": "bool",
          "name": "_withUpdate",
          "type": "bool"
        }
      ],
      "name": "add",
      "outputs": [],
      "stateMutability": "nonpayable",
      "type": "function"
    },
    {
      "inputs": [
        {
          "internalType": "uint256",
          "name": "_pid",
          "type": "uint256"
        },
        {
          "internalType": "uint256",
          "name": "_allocPoint",
          "type": "uint256"
        },
        {
          "internalType": "bool",
          "name": "_withUpdate",
          "type": "bool"
        }
      ],
      "name": "set",
      "outputs": [],
      "stateMutability": "nonpayable",
      "type": "function"
    },
    {
      "inputs": [
        {
          "internalType": "contract IGoSwapHighway",
          "name": "_migrator",
          "type": "address"
        }
      ],
      "name": "setMigrator",
      "outputs": [],
      "stateMutability": "nonpayable",
      "type": "function"
    },
    {
      "inputs": [
        {
          "internalType": "uint256",
          "name": "_pid",
          "type": "uint256"
        }
      ],
      "name": "migrate",
      "outputs": [],
      "stateMutability": "nonpayable",
      "type": "function"
    },
    {
      "inputs": [
        {
          "internalType": "uint256",
          "name": "_from",
          "type": "uint256"
        },
        {
          "internalType": "uint256",
          "name": "_to",
          "type": "uint256"
        }
      ],
      "name": "getMultiplier",
      "outputs": [
        {
          "internalType": "uint256",
          "name": "",
          "type": "uint256"
        }
      ],
      "stateMutability": "view",
      "type": "function"
    },
    {
      "inputs": [
        {
          "internalType": "uint256",
          "name": "_pid",
          "type": "uint256"
        },
        {
          "internalType": "address",
          "name": "_user",
          "type": "address"
        }
      ],
      "name": "pendingToken",
      "outputs": [
        {
          "internalType": "uint256",
          "name": "",
          "type": "uint256"
        }
      ],
      "stateMutability": "view",
      "type": "function"
    },
    {
      "inputs": [],
      "name": "massUpdatePools",
      "outputs": [],
      "stateMutability": "nonpayable",
      "type": "function"
    },
    {
      "inputs": [
        {
          "internalType": "uint256",
          "name": "_pid",
          "type": "uint256"
        }
      ],
      "name": "updatePool",
      "outputs": [],
      "stateMutability": "nonpayable",
      "type": "function"
    },
    {
      "inputs": [
        {
          "internalType": "uint256",
          "name": "_pid",
          "type": "uint256"
        },
        {
          "internalType": "uint256",
          "name": "_amount",
          "type": "uint256"
        }
      ],
      "name": "deposit",
      "outputs": [],
      "stateMutability": "nonpayable",
      "type": "function"
    },
    {
      "inputs": [
        {
          "internalType": "uint256",
          "name": "_pid",
          "type": "uint256"
        },
        {
          "internalType": "uint256",
          "name": "_amount",
          "type": "uint256"
        }
      ],
      "name": "withdraw",
      "outputs": [],
      "stateMutability": "nonpayable",
      "type": "function"
    },
    {
      "inputs": [
        {
          "internalType": "uint256",
          "name": "_pid",
          "type": "uint256"
        }
      ],
      "name": "emergencyWithdraw",
      "outputs": [],
      "stateMutability": "nonpayable",
      "type": "function"
    },
    {
      "inputs": [
        {
          "internalType": "address",
          "name": "_devaddr",
          "type": "address"
        }
      ],
      "name": "dev",
      "outputs": [],
      "stateMutability": "nonpayable",
      "type": "function"
    }
  ],
  "bytecode": "0x608060405260006009553480156200001657600080fd5b506040516200208938038062002089833981810160405260a08110156200003c57600080fd5b508051602082015160408301516060840151608090940151929391929091906200006633620000a5565b600280546001600160a01b039687166001600160a01b0319918216179091556003805495909616941693909317909355600555600455600a556200017f565b620000c0816000620000f860201b620013bc1790919060201c565b506040516001600160a01b038216907f44d6d25963f097ad14f29f06854a01f575648a1ef82f30e562ccd3889717e33990600090a250565b60006200010f836001600160a01b03841662000118565b90505b92915050565b600062000126838362000167565b6200015e5750815460018181018455600084815260208082209093018490558454848252828601909352604090209190915562000112565b50600062000112565b60009081526001919091016020526040902054151590565b611efa806200018f6000396000f3fe608060405234801561001057600080fd5b50600436106101c45760003560e01c80635312ea8e116100f95780638d88a90e11610097578063c4dd5cef11610071578063c4dd5cef1461051d578063d49e77cd14610525578063db2cd3ae1461052d578063e2bbb15814610535576101c4565b80638d88a90e1461048f5780638dbb1e3a146104b557806393f1a40b146104d8576101c4565b806370480275116100d357806370480275146104355780637cd07e471461045b5780638aa285501461047f5780638bad0c0a14610487576101c4565b80635312ea8e146103e5578063630b5ba11461040257806364482f791461040a576101c4565b806324d7806c11610166578063454b060811610140578063454b06081461037757806348cd4cb11461039457806348e43af41461039c57806351eb05a6146103c8576101c4565b806324d7806c146102c257806340f32be6146102fc578063441a3e7014610354576101c4565b806317caf6f1116101a257806317caf6f1146102585780631aed6553146102605780631eaaa0451461026857806323cf31181461029c576101c4565b8063081e3eda146101c95780631526fe27146101e35780631785f53c14610230575b600080fd5b6101d1610558565b60408051918252519081900360200190f35b610200600480360360208110156101f957600080fd5b503561055e565b604080516001600160a01b0390951685526020850193909352838301919091526060830152519081900360800190f35b6102566004803603602081101561024657600080fd5b50356001600160a01b031661059f565b005b6101d16105ef565b6101d16105f5565b6102566004803603606081101561027e57600080fd5b508035906001600160a01b03602082013516906040013515156105fb565b610256600480360360208110156102b257600080fd5b50356001600160a01b0316610762565b6102e8600480360360208110156102d857600080fd5b50356001600160a01b03166107c8565b604080519115158252519081900360200190f35b6103046107da565b60408051602080825283518183015283519192839290830191858101910280838360005b83811015610340578181015183820152602001610328565b505050509050019250505060405180910390f35b6102566004803603604081101561036a57600080fd5b5080359060200135610878565b6102566004803603602081101561038d57600080fd5b50356109cb565b6101d1610c27565b6101d1600480360360408110156103b257600080fd5b50803590602001356001600160a01b0316610c2d565b610256600480360360208110156103de57600080fd5b5035610d95565b610256600480360360208110156103fb57600080fd5b5035610fb5565b610256611050565b6102566004803603606081101561042057600080fd5b50803590602081013590604001351515611073565b6102566004803603602081101561044b57600080fd5b50356001600160a01b0316611130565b61046361117d565b604080516001600160a01b039092168252519081900360200190f35b6101d161118c565b610256611191565b610256600480360360208110156104a557600080fd5b50356001600160a01b031661119c565b6101d1600480360360408110156104cb57600080fd5b5080359060200135611209565b610504600480360360408110156104ee57600080fd5b50803590602001356001600160a01b031661126f565b6040805192835260208301919091528051918290030190f35b610463611293565b6104636112a2565b6101d16112b1565b6102566004803603604081101561054b57600080fd5b50803590602001356112b7565b60075490565b6007818154811061056b57fe5b600091825260209091206004909102018054600182015460028301546003909301546001600160a01b039092169350919084565b6105a8336107c8565b6105e35760405162461bcd60e51b815260040180806020018281038252602e815260200180611e37602e913960400191505060405180910390fd5b6105ec816113d8565b50565b60095481565b60045481565b610604336107c8565b61063f5760405162461bcd60e51b815260040180806020018281038252602e815260200180611e37602e913960400191505060405180910390fd5b801561064d5761064d611050565b6000600a54431161066057600a54610662565b435b600954909150610672908561141b565b600955604080516080810182526001600160a01b0394851681526020810195865290810191825260006060820181815260078054600181018255925291517fa66cc928b5edb82af9bd49922954155ab7b0942694bea4ce44661d9a8736c688600490920291820180546001600160a01b031916919096161790945593517fa66cc928b5edb82af9bd49922954155ab7b0942694bea4ce44661d9a8736c689840155517fa66cc928b5edb82af9bd49922954155ab7b0942694bea4ce44661d9a8736c68a8301555090517fa66cc928b5edb82af9bd49922954155ab7b0942694bea4ce44661d9a8736c68b90910155565b61076b336107c8565b6107a65760405162461bcd60e51b815260040180806020018281038252602e815260200180611e37602e913960400191505060405180910390fd5b600680546001600160a01b0319166001600160a01b0392909216919091179055565b60006107d48183611475565b92915050565b60606107e6600061148a565b67ffffffffffffffff811180156107fc57600080fd5b50604051908082528060200260200182016040528015610826578160200160208202803683370190505b50905060005b610836600061148a565b81101561087457610848600082611495565b82828151811061085457fe5b6001600160a01b039092166020928302919091019091015260010161082c565b5090565b60006007838154811061088757fe5b6000918252602080832086845260088252604080852033865290925292208054600490920290920192508311156108fa576040805162461bcd60e51b81526020600482015260126024820152711dda5d1a191c985dce881b9bdd0819dbdbd960721b604482015290519081900360640190fd5b61090384610d95565b600061093d826001015461093764e8d4a51000610931876003015487600001546114a190919063ffffffff16565b906114fa565b9061153c565b9050610949338261157e565b8154610955908561153c565b80835560038401546109729164e8d4a510009161093191906114a1565b6001830155825461098d906001600160a01b0316338661170f565b604080518581529051869133917ff279e6a1f5e320cca91135676d9cb6e44ca8a08c0b88342bcdb1144f6511b5689181900360200190a35050505050565b6006546001600160a01b0316610a1f576040805162461bcd60e51b815260206004820152601460248201527336b4b3b930ba329d1037379036b4b3b930ba37b960611b604482015290519081900360640190fd5b600060078281548110610a2e57fe5b600091825260208083206004928302018054604080516370a0823160e01b81523095810195909552519195506001600160a01b0316939284926370a0823192602480840193829003018186803b158015610a8757600080fd5b505afa158015610a9b573d6000803e3d6000fd5b505050506040513d6020811015610ab157600080fd5b5051600654909150610ad0906001600160a01b03848116911683611761565b600654604080516386f880d560e01b81526001600160a01b038581166004830152915160009392909216916386f880d59160248082019260209290919082900301818787803b158015610b2257600080fd5b505af1158015610b36573d6000803e3d6000fd5b505050506040513d6020811015610b4c57600080fd5b5051604080516370a0823160e01b815230600482015290519192506001600160a01b038316916370a0823191602480820192602092909190829003018186803b158015610b9857600080fd5b505afa158015610bac573d6000803e3d6000fd5b505050506040513d6020811015610bc257600080fd5b50518214610c06576040805162461bcd60e51b815260206004820152600c60248201526b1b5a59dc985d194e8818985960a21b604482015290519081900360640190fd5b83546001600160a01b0319166001600160a01b039190911617909255505050565b600a5481565b60008060078481548110610c3d57fe5b600091825260208083208784526008825260408085206001600160a01b03898116875290845281862060049586029093016003810154815484516370a0823160e01b81523098810198909852935191985093969395939492909116926370a08231926024808301939192829003018186803b158015610cbb57600080fd5b505afa158015610ccf573d6000803e3d6000fd5b505050506040513d6020811015610ce557600080fd5b5051600285015490915043118015610cfc57508015155b15610d62576000610d11856002015443611209565b90506000610d3e6009546109318860010154610d38600554876114a190919063ffffffff16565b906114a1565b9050610d5d610d56846109318464e8d4a510006114a1565b859061141b565b935050505b610d8a836001015461093764e8d4a510006109318688600001546114a190919063ffffffff16565b979650505050505050565b600060078281548110610da457fe5b9060005260206000209060040201905080600201544311610dc557506105ec565b8054604080516370a0823160e01b815230600482015290516000926001600160a01b0316916370a08231916024808301926020929190829003018186803b158015610e0f57600080fd5b505afa158015610e23573d6000803e3d6000fd5b505050506040513d6020811015610e3957600080fd5b5051905080610e4f5750436002909101556105ec565b6000610e5f836002015443611209565b90506000610e866009546109318660010154610d38600554876114a190919063ffffffff16565b6002546003549192506001600160a01b03908116916340c10f199116610ead8460646114fa565b6040518363ffffffff1660e01b815260040180836001600160a01b0316815260200182815260200192505050600060405180830381600087803b158015610ef357600080fd5b505af1158015610f07573d6000803e3d6000fd5b5050600254604080516340c10f1960e01b81523060048201526024810186905290516001600160a01b0390921693506340c10f19925060448082019260009290919082900301818387803b158015610f5e57600080fd5b505af1158015610f72573d6000803e3d6000fd5b50505050610fa0610f958461093164e8d4a51000856114a190919063ffffffff16565b60038601549061141b565b60038501555050436002909201919091555050565b600060078281548110610fc457fe5b60009182526020808320858452600882526040808520338087529352909320805460049093029093018054909450611009926001600160a01b0391909116919061170f565b80546040805191825251849133917fbb757047c2b5f3974fe26b7c10f732e7bce710b0952a71082702781e62ae05959181900360200190a360008082556001909101555050565b60075460005b8181101561106f5761106781610d95565b600101611056565b5050565b61107c336107c8565b6110b75760405162461bcd60e51b815260040180806020018281038252602e815260200180611e37602e913960400191505060405180910390fd5b80156110c5576110c5611050565b611102826110fc600786815481106110d957fe5b90600052602060002090600402016001015460095461153c90919063ffffffff16565b9061141b565b600981905550816007848154811061111657fe5b906000526020600020906004020160010181905550505050565b611139336107c8565b6111745760405162461bcd60e51b815260040180806020018281038252602e815260200180611e37602e913960400191505060405180910390fd5b6105ec81611874565b6006546001600160a01b031681565b600a81565b61119a336113d8565b565b6003546001600160a01b031633146111e7576040805162461bcd60e51b81526020600482015260096024820152686465763a207775743f60b81b604482015290519081900360640190fd5b600380546001600160a01b0319166001600160a01b0392909216919091179055565b6000600454821161122a57611223600a610d38848661153c565b90506107d4565b600454831061123d57611223828461153c565b6112236112556004548461153c90919063ffffffff16565b6110fc600a610d388760045461153c90919063ffffffff16565b60086020908152600092835260408084209091529082529020805460019091015482565b6002546001600160a01b031681565b6003546001600160a01b031681565b60055481565b6000600783815481106112c657fe5b600091825260208083208684526008825260408085203386529092529220600490910290910191506112f784610d95565b80541561133a57600061132c826001015461093764e8d4a51000610931876003015487600001546114a190919063ffffffff16565b9050611338338261157e565b505b8154611351906001600160a01b03163330866118b7565b805461135d908461141b565b808255600383015461137a9164e8d4a510009161093191906114a1565b6001820155604080518481529051859133917f90890809c654f11d6e72a28fa60149770a0d11ec6c92319d6ceb2bb0a4ea1a159181900360200190a350505050565b60006113d1836001600160a01b038416611917565b9392505050565b6113e3600082611961565b506040516001600160a01b038216907fa3b62bc36326052d97ea62d63c3d60308ed4c3ea8ac079dd8499f1e9c4f80c0f90600090a250565b6000828201838110156113d1576040805162461bcd60e51b815260206004820152601b60248201527f536166654d6174683a206164646974696f6e206f766572666c6f770000000000604482015290519081900360640190fd5b60006113d1836001600160a01b038416611976565b60006107d48261198e565b60006113d18383611992565b6000826114b0575060006107d4565b828202828482816114bd57fe5b04146113d15760405162461bcd60e51b8152600401808060200182810382526021815260200180611e166021913960400191505060405180910390fd5b60006113d183836040518060400160405280601a81526020017f536166654d6174683a206469766973696f6e206279207a65726f0000000000008152506119f6565b60006113d183836040518060400160405280601e81526020017f536166654d6174683a207375627472616374696f6e206f766572666c6f770000815250611a98565b600254604080516370a0823160e01b815230600482015290516000926001600160a01b0316916370a08231916024808301926020929190829003018186803b1580156115c957600080fd5b505afa1580156115dd573d6000803e3d6000fd5b505050506040513d60208110156115f357600080fd5b5051905080821115611687576002546040805163a9059cbb60e01b81526001600160a01b038681166004830152602482018590529151919092169163a9059cbb9160448083019260209291908290030181600087803b15801561165557600080fd5b505af1158015611669573d6000803e3d6000fd5b505050506040513d602081101561167f57600080fd5b5061170a9050565b6002546040805163a9059cbb60e01b81526001600160a01b038681166004830152602482018690529151919092169163a9059cbb9160448083019260209291908290030181600087803b1580156116dd57600080fd5b505af11580156116f1573d6000803e3d6000fd5b505050506040513d602081101561170757600080fd5b50505b505050565b604080516001600160a01b038416602482015260448082018490528251808303909101815260649091019091526020810180516001600160e01b031663a9059cbb60e01b17905261170a908490611af2565b8015806117e7575060408051636eb1769f60e11b81523060048201526001600160a01b03848116602483015291519185169163dd62ed3e91604480820192602092909190829003018186803b1580156117b957600080fd5b505afa1580156117cd573d6000803e3d6000fd5b505050506040513d60208110156117e357600080fd5b5051155b6118225760405162461bcd60e51b8152600401808060200182810382526036815260200180611e8f6036913960400191505060405180910390fd5b604080516001600160a01b038416602482015260448082018490528251808303909101815260649091019091526020810180516001600160e01b031663095ea7b360e01b17905261170a908490611af2565b61187f6000826113bc565b506040516001600160a01b038216907f44d6d25963f097ad14f29f06854a01f575648a1ef82f30e562ccd3889717e33990600090a250565b604080516001600160a01b0380861660248301528416604482015260648082018490528251808303909101815260849091019091526020810180516001600160e01b03166323b872dd60e01b179052611911908590611af2565b50505050565b60006119238383611976565b611959575081546001818101845560008481526020808220909301849055845484825282860190935260409020919091556107d4565b5060006107d4565b60006113d1836001600160a01b038416611ba3565b60009081526001919091016020526040902054151590565b5490565b815460009082106119d45760405162461bcd60e51b8152600401808060200182810382526022815260200180611df46022913960400191505060405180910390fd5b8260000182815481106119e357fe5b9060005260206000200154905092915050565b60008183611a825760405162461bcd60e51b81526004018080602001828103825283818151815260200191508051906020019080838360005b83811015611a47578181015183820152602001611a2f565b50505050905090810190601f168015611a745780820380516001836020036101000a031916815260200191505b509250505060405180910390fd5b506000838581611a8e57fe5b0495945050505050565b60008184841115611aea5760405162461bcd60e51b8152602060048201818152835160248401528351909283926044909101919085019080838360008315611a47578181015183820152602001611a2f565b505050900390565b6060611b47826040518060400160405280602081526020017f5361666545524332303a206c6f772d6c6576656c2063616c6c206661696c6564815250856001600160a01b0316611c699092919063ffffffff16565b80519091501561170a57808060200190516020811015611b6657600080fd5b505161170a5760405162461bcd60e51b815260040180806020018281038252602a815260200180611e65602a913960400191505060405180910390fd5b60008181526001830160205260408120548015611c5f5783546000198083019190810190600090879083908110611bd657fe5b9060005260206000200154905080876000018481548110611bf357fe5b600091825260208083209091019290925582815260018981019092526040902090840190558654879080611c2357fe5b600190038181906000526020600020016000905590558660010160008781526020019081526020016000206000905560019450505050506107d4565b60009150506107d4565b6060611c788484600085611c80565b949350505050565b6060611c8b85611ded565b611cdc576040805162461bcd60e51b815260206004820152601d60248201527f416464726573733a2063616c6c20746f206e6f6e2d636f6e7472616374000000604482015290519081900360640190fd5b60006060866001600160a01b031685876040518082805190602001908083835b60208310611d1b5780518252601f199092019160209182019101611cfc565b6001836020036101000a03801982511681845116808217855250505050505090500191505060006040518083038185875af1925050503d8060008114611d7d576040519150601f19603f3d011682016040523d82523d6000602084013e611d82565b606091505b50915091508115611d96579150611c789050565b805115611da65780518082602001fd5b60405162461bcd60e51b8152602060048201818152865160248401528651879391928392604401919085019080838360008315611a47578181015183820152602001611a2f565b3b15159056fe456e756d657261626c655365743a20696e646578206f7574206f6620626f756e6473536166654d6174683a206d756c7469706c69636174696f6e206f766572666c6f7741646d696e526f6c653a2063616c6c657220646f6573206e6f742068617665207468652041646d696e20726f6c655361666545524332303a204552433230206f7065726174696f6e20646964206e6f7420737563636565645361666545524332303a20617070726f76652066726f6d206e6f6e2d7a65726f20746f206e6f6e2d7a65726f20616c6c6f77616e6365a264697066735822122024fe6a8feb9d46db4c271b4ec0dbdd9f22f05082a7538931983b52214adcca1964736f6c634300060c0033",
  "immutableReferences": {},
  "source": "// SPDX-License-Identifier: MIT\npragma solidity 0.6.12;\n\nimport \"@openzeppelin/contracts/token/ERC20/SafeERC20.sol\";\nimport \"@openzeppelin/contracts/utils/EnumerableSet.sol\";\nimport \"./interfaces/IGoSwapToken.sol\";\nimport \"./libraries/AdminRole.sol\";\n\n// \ninterface IGoSwapHighway {\n    // UniswapV2GoSwapLP Token\n    // LP TokenLP Token\n    // LP Token\n    // LP Token\n    //\n    // XXX MigratorUniswapV2 LP Token\n    //\n    // GoSwapGoSwap LP Token\n    // UniswapV2\n    function receiveMigrate(IERC20 token) external returns (IERC20);\n}\n\n// GoSwapHighwayGoSwapGoSwapToken\n//\n// \n// GoSwapToken\n// \n//\n// \n\ncontract GoSwapHighway is AdminRole {\n    using SafeMath for uint256;\n    using SafeERC20 for IERC20;\n\n    /// @notice \n    struct UserInfo {\n        uint256 amount; // LP Token\n        uint256 rewardDebt; // \n        //\n        // GoSwapToken\n        //\n        //    =user.amount * pool.accGOTPerShare-user.rewardDebt\n        //\n        // lP Token\n        //   1. GoSwapToken(accGOTPerShare)(lastRewardBlock)\n        //   2. \n        //   3. amount\n        //   4. `rewardDebt`\n    }\n\n    /// @notice \n    struct PoolInfo {\n        IERC20 lpToken; // LP Token\n        uint256 allocPoint; //  GoSwapToken\n        uint256 lastRewardBlock; // GoSwapToken\n        uint256 accGOTPerShare; // GoSwapToken1e12\n    }\n\n    /// @notice The GoSwap TOKEN!\n    IGoSwapToken public GOT;\n    /// @notice Dev address.\n    address public devaddr;\n    /// @notice \n    uint256 public bonusEndBlock;\n    /// @notice GoSwapToken\n    uint256 public GOTPerBlock;\n    /// @notice GoSwap Token\n    uint256 public constant BONUS_MULTIPLIER = 10;\n    /// @notice \n    IGoSwapHighway public migrator;\n\n    /// @notice \n    PoolInfo[] public poolInfo;\n    /// @notice ID=>=> \n    mapping(uint256 => mapping(address => UserInfo)) public userInfo;\n    /// @notice \n    uint256 public totalAllocPoint = 0;\n    /// @notice GoSwap Token\n    uint256 public startBlock;\n\n    /**\n    * @dev :\n    * @param user \n    * @param pid id\n    * @param amount \n     */\n    event Deposit(address indexed user, uint256 indexed pid, uint256 amount);\n\n    /**\n    * @dev :\n    * @param user \n    * @param pid id\n    * @param amount \n     */\n    event Withdraw(address indexed user, uint256 indexed pid, uint256 amount);\n\n    /**\n    * @dev :\n    * @param user \n    * @param pid id\n    * @param amount \n     */\n    event EmergencyWithdraw(\n        address indexed user,\n        uint256 indexed pid,\n        uint256 amount\n    );\n\n    /**\n     * @dev \n     * @param _GOT GoSwap Token\n     * @param _devaddr \n     * @param _GOTPerBlock GoSwap Token 1000000000000000000\n     * @param _startBlock GoSwap Token\n     * @param _bonusEndBlock \n     */\n    constructor(\n        IGoSwapToken _GOT,\n        address _devaddr,\n        uint256 _GOTPerBlock,\n        uint256 _startBlock,\n        uint256 _bonusEndBlock\n    ) public {\n        GOT = _GOT;\n        devaddr = _devaddr;\n        GOTPerBlock = _GOTPerBlock;\n        bonusEndBlock = _bonusEndBlock;\n        startBlock = _startBlock;\n    }\n\n    /**\n     * @dev \n     * @return \n     */\n    function poolLength() external view returns (uint256) {\n        return poolInfo.length;\n    }\n\n    /**\n     * @dev lp,\n     * @param _allocPoint  GoSwap Token\n     * @param _lpToken LP\n     * @param _withUpdate gas\n     */\n    // XXXLP\n    function add(\n        uint256 _allocPoint,\n        IERC20 _lpToken,\n        bool _withUpdate\n    ) public onlyAdmin {\n        // \n        if (_withUpdate) {\n            massUpdatePools();\n        }\n        //  =  > GoSwap Token >  : GoSwap Token\n        uint256 lastRewardBlock = block.number > startBlock\n            ? block.number\n            : startBlock;\n        // \n        totalAllocPoint = totalAllocPoint.add(_allocPoint);\n        // \n        poolInfo.push(\n            PoolInfo({\n                lpToken: _lpToken,\n                allocPoint: _allocPoint,\n                lastRewardBlock: lastRewardBlock,\n                accGOTPerShare: 0\n            })\n        );\n    }\n\n    /**\n     * @dev GoSwap Token\n     * @param _pid ID,\n     * @param _allocPoint  GoSwap Token\n     * @param _withUpdate gas\n     */\n    function set(\n        uint256 _pid,\n        uint256 _allocPoint,\n        bool _withUpdate\n    ) public onlyAdmin {\n        // \n        if (_withUpdate) {\n            massUpdatePools();\n        }\n        //  =  - [id]. + \n        totalAllocPoint = totalAllocPoint.sub(poolInfo[_pid].allocPoint).add(\n            _allocPoint\n        );\n        // [id]. = \n        poolInfo[_pid].allocPoint = _allocPoint;\n    }\n\n    /**\n     * @dev ,\n     * @param _migrator \n     */\n    function setMigrator(IGoSwapHighway _migrator) public onlyAdmin {\n        migrator = _migrator;\n    }\n\n    /**\n     * @dev lplp\n     * @param _pid id,\n     */\n    function migrate(uint256 _pid) public {\n        // \n        require(address(migrator) != address(0), \"migrate: no migrator\");\n        // \n        PoolInfo storage pool = poolInfo[_pid];\n        // LP token\n        IERC20 lpToken = pool.lpToken;\n        // LP token\n        uint256 bal = lpToken.balanceOf(address(this));\n        // LP token \n        lpToken.safeApprove(address(migrator), bal);\n        // LP token = \n        IERC20 newLpToken = migrator.receiveMigrate(lpToken);\n        //  = LP token\n        require(bal == newLpToken.balanceOf(address(this)), \"migrate: bad\");\n        // LP tokenLP token\n        pool.lpToken = newLpToken;\n    }\n\n    /**\n     * @dev fromto,\n     * @param _from from\n     * @param _to to\n     * @return \n     */\n    function getMultiplier(uint256 _from, uint256 _to)\n        public\n        view\n        returns (uint256)\n    {\n        // to <= \n        if (_to <= bonusEndBlock) {\n            //  (to - from) * \n            return _to.sub(_from).mul(BONUS_MULTIPLIER);\n            //  from >= \n        } else if (_from >= bonusEndBlock) {\n            // to - from\n            return _to.sub(_from);\n            // \n        } else {\n            //  ( - from) *  + (to - )\n            return\n                bonusEndBlock.sub(_from).mul(BONUS_MULTIPLIER).add(\n                    _to.sub(bonusEndBlock)\n                );\n        }\n    }\n\n    /**\n     * @dev GoSwap Token\n     * @param _pid id\n     * @param _user \n     * @return GoSwap Token\n     */\n    function pendingToken(uint256 _pid, address _user)\n        external\n        view\n        returns (uint256)\n    {\n        // \n        PoolInfo storage pool = poolInfo[_pid];\n        // id,\n        UserInfo storage user = userInfo[_pid][_user];\n        // GoSwap Token\n        uint256 accGOTPerShare = pool.accGOTPerShare;\n        // LPtoken = `.lpToken`\n        uint256 lpSupply = pool.lpToken.balanceOf(address(this));\n        //  > . && LPtoken != 0\n        if (block.number > pool.lastRewardBlock && lpSupply != 0) {\n            //  = (, )\n            uint256 multiplier = getMultiplier(\n                pool.lastRewardBlock,\n                block.number\n            );\n            // GOT =  * GoSwap Token *  / \n            uint256 GOTReward = multiplier\n                .mul(GOTPerBlock)\n                .mul(pool.allocPoint)\n                .div(totalAllocPoint);\n            // GoSwap Token = GoSwap Token + GOT * 1e12 / LPtoken\n            accGOTPerShare = accGOTPerShare.add(\n                GOTReward.mul(1e12).div(lpSupply)\n            );\n        }\n        //  . * GoSwap Token / 1e12 - .\n        return user.amount.mul(accGOTPerShare).div(1e12).sub(user.rewardDebt);\n    }\n\n    /**\n     * @dev \n     */\n    function massUpdatePools() public {\n        // \n        uint256 length = poolInfo.length;\n        // \n        for (uint256 pid = 0; pid < length; ++pid) {\n            // (id)\n            updatePool(pid);\n        }\n    }\n\n    /**\n     * @dev \n     * @param _pid id\n     */\n    function updatePool(uint256 _pid) public {\n        // \n        PoolInfo storage pool = poolInfo[_pid];\n        //  <= .\n        if (block.number <= pool.lastRewardBlock) {\n            // \n            return;\n        }\n        // LPtoken = `.lotoken`\n        uint256 lpSupply = pool.lpToken.balanceOf(address(this));\n        //  LPtoken == 0\n        if (lpSupply == 0) {\n            // . = \n            pool.lastRewardBlock = block.number;\n            // \n            return;\n        }\n        //  = (, )\n        uint256 multiplier = getMultiplier(pool.lastRewardBlock, block.number);\n        // GOT =  * GoSwap Token *  / \n        uint256 GOTReward = multiplier\n            .mul(GOTPerBlock)\n            .mul(pool.allocPoint)\n            .div(totalAllocPoint);\n        // GOT,  (`GOT` / 10) token\n        GOT.mint(devaddr, GOTReward.div(100));\n        // GOT,  `GOT` token\n        GOT.mint(address(this), GOTReward);\n        // GoSwap Token = GoSwap Token + GOT * 1e12 / LPtoken\n        pool.accGOTPerShare = pool.accGOTPerShare.add(\n            GOTReward.mul(1e12).div(lpSupply)\n        );\n        // . = \n        pool.lastRewardBlock = block.number;\n    }\n\n    /**\n     * @dev LPMasterChefGoSwap Token\n     * @param _pid id\n     * @param _amount \n     */\n    function deposit(uint256 _pid, uint256 _amount) public {\n        // \n        PoolInfo storage pool = poolInfo[_pid];\n        // id,\n        UserInfo storage user = userInfo[_pid][msg.sender];\n        // \n        updatePool(_pid);\n        // >0\n        if (user.amount > 0) {\n            //  = . * .GoSwap Token / 1e12 - .\n            uint256 pending = user\n                .amount\n                .mul(pool.accGOTPerShare)\n                .div(1e12)\n                .sub(user.rewardDebt);\n            // GOT\n            safeGoSwapTransfer(msg.sender, pending);\n        }\n        // .lptoken,_amountlp token\n        pool.lpToken.safeTransferFrom(\n            address(msg.sender),\n            address(this),\n            _amount\n        );\n        // .  = . + _amount\n        user.amount = user.amount.add(_amount);\n        // . = . * .GoSwap Token / 1e12\n        user.rewardDebt = user.amount.mul(pool.accGOTPerShare).div(1e12);\n        // \n        emit Deposit(msg.sender, _pid, _amount);\n    }\n\n    /**\n     * @dev MasterChefLP\n     * @param _pid id\n     * @param _amount \n     */\n    function withdraw(uint256 _pid, uint256 _amount) public {\n        // \n        PoolInfo storage pool = poolInfo[_pid];\n        // id,\n        UserInfo storage user = userInfo[_pid][msg.sender];\n        // . >= _amount\n        require(user.amount >= _amount, \"withdraw: not good\");\n        // \n        updatePool(_pid);\n        //  = . * .GoSwap Token / 1e12 - .\n        uint256 pending = user.amount.mul(pool.accGOTPerShare).div(1e12).sub(\n            user.rewardDebt\n        );\n        // GOT\n        safeGoSwapTransfer(msg.sender, pending);\n        // .  = . - _amount\n        user.amount = user.amount.sub(_amount);\n        // . = . * .GoSwap Token / 1e12\n        user.rewardDebt = user.amount.mul(pool.accGOTPerShare).div(1e12);\n        // .lptoken,_amountlp token\n        pool.lpToken.safeTransfer(address(msg.sender), _amount);\n        // \n        emit Withdraw(msg.sender, _pid, _amount);\n    }\n\n    /**\n     * @dev \n     * @param _pid id\n     */\n    function emergencyWithdraw(uint256 _pid) public {\n        // \n        PoolInfo storage pool = poolInfo[_pid];\n        // id,\n        UserInfo storage user = userInfo[_pid][msg.sender];\n        // .lptoken,_amountlp token\n        pool.lpToken.safeTransfer(address(msg.sender), user.amount);\n        // \n        emit EmergencyWithdraw(msg.sender, _pid, user.amount);\n        // . = 0\n        user.amount = 0;\n        // . = 0\n        user.rewardDebt = 0;\n    }\n\n    /**\n     * @dev GoSwap TokenGoSwap Token\n     * @param _to to\n     * @param _amount \n     */\n    function safeGoSwapTransfer(address _to, uint256 _amount) internal {\n        // GOT = GOT\n        uint256 GOTBal = GOT.balanceOf(address(this));\n        //  > GOT\n        if (_amount > GOTBal) {\n            // GOTGOTto\n            GOT.transfer(_to, GOTBal);\n        } else {\n            // _amountGOTto\n            GOT.transfer(_to, _amount);\n        }\n    }\n\n    /**\n     * @dev \n     * @param _devaddr \n     */\n    // Update dev address by the previous dev.\n    function dev(address _devaddr) public {\n        // \n        require(msg.sender == devaddr, \"dev: wut?\");\n        // \n        devaddr = _devaddr;\n    }\n}",
  "sourcePath": "/home/cui/Documents/goswap/goswap-core/contracts/GoSwapHighway.sol",
  "compiler": {
    "name": "solc",
    "version": "0.6.12+commit.27d51765.Emscripten.clang"
  },
  "schemaVersion": "3.3.2",
  "updatedAt": "2021-01-12T12:22:26.377Z",
  "devdoc": {
    "events": {
      "Deposit(address,uint256,uint256)": {
        "details": ":",
        "params": {
          "amount": "",
          "pid": "id",
          "user": ""
        }
      },
      "EmergencyWithdraw(address,uint256,uint256)": {
        "details": ":",
        "params": {
          "amount": "",
          "pid": "id",
          "user": ""
        }
      },
      "Withdraw(address,uint256,uint256)": {
        "details": ":",
        "params": {
          "amount": "",
          "pid": "id",
          "user": ""
        }
      }
    },
    "kind": "dev",
    "methods": {
      "add(uint256,address,bool)": {
        "details": "lp,",
        "params": {
          "_allocPoint": " GoSwap Token",
          "_lpToken": "LP",
          "_withUpdate": "gas"
        }
      },
      "addAdmin(address)": {
        "details": "",
        "params": {
          "account": ""
        }
      },
      "allAdmins()": {
        "details": "",
        "returns": {
          "admins": ""
        }
      },
      "constructor": {
        "details": "",
        "params": {
          "_GOT": "GoSwap Token",
          "_GOTPerBlock": "GoSwap Token 1000000000000000000",
          "_bonusEndBlock": "",
          "_devaddr": "",
          "_startBlock": "GoSwap Token"
        }
      },
      "deposit(uint256,uint256)": {
        "details": "LPMasterChefGoSwap Token",
        "params": {
          "_amount": "",
          "_pid": "id"
        }
      },
      "dev(address)": {
        "details": "",
        "params": {
          "_devaddr": ""
        }
      },
      "emergencyWithdraw(uint256)": {
        "details": "",
        "params": {
          "_pid": "id"
        }
      },
      "getMultiplier(uint256,uint256)": {
        "details": "fromto,",
        "params": {
          "_from": "from",
          "_to": "to"
        },
        "returns": {
          "_0": ""
        }
      },
      "isAdmin(address)": {
        "details": "",
        "params": {
          "account": ""
        },
        "returns": {
          "_0": ""
        }
      },
      "massUpdatePools()": {
        "details": ""
      },
      "migrate(uint256)": {
        "details": "lplp",
        "params": {
          "_pid": "id,"
        }
      },
      "pendingToken(uint256,address)": {
        "details": "GoSwap Token",
        "params": {
          "_pid": "id",
          "_user": ""
        },
        "returns": {
          "_0": "GoSwap Token"
        }
      },
      "poolLength()": {
        "details": "",
        "returns": {
          "_0": ""
        }
      },
      "removeAdmin(address)": {
        "details": "",
        "params": {
          "account": ""
        }
      },
      "renounceAdmin()": {
        "details": ""
      },
      "set(uint256,uint256,bool)": {
        "details": "GoSwap Token",
        "params": {
          "_allocPoint": " GoSwap Token",
          "_pid": "ID,",
          "_withUpdate": "gas"
        }
      },
      "setMigrator(address)": {
        "details": ",",
        "params": {
          "_migrator": ""
        }
      },
      "updatePool(uint256)": {
        "details": "",
        "params": {
          "_pid": "id"
        }
      },
      "withdraw(uint256,uint256)": {
        "details": "MasterChefLP",
        "params": {
          "_amount": "",
          "_pid": "id"
        }
      }
    },
    "version": 1
  },
  "userdoc": {
    "kind": "user",
    "methods": {
      "BONUS_MULTIPLIER()": {
        "notice": "GoSwap Token"
      },
      "GOT()": {
        "notice": "The GoSwap TOKEN!"
      },
      "GOTPerBlock()": {
        "notice": "GoSwapToken"
      },
      "bonusEndBlock()": {
        "notice": ""
      },
      "devaddr()": {
        "notice": "Dev address."
      },
      "migrator()": {
        "notice": ""
      },
      "poolInfo(uint256)": {
        "notice": ""
      },
      "startBlock()": {
        "notice": "GoSwap Token"
      },
      "totalAllocPoint()": {
        "notice": ""
      },
      "userInfo(uint256,address)": {
        "notice": "ID=>=> "
      }
    },
    "version": 1
  }
}