{
  "contractName": "GoSwapGovernance",
  "abi": [
    {
      "anonymous": false,
      "inputs": [
        {
          "indexed": true,
          "internalType": "address",
          "name": "account",
          "type": "address"
        }
      ],
      "name": "AdminAdded",
      "type": "event"
    },
    {
      "anonymous": false,
      "inputs": [
        {
          "indexed": true,
          "internalType": "address",
          "name": "account",
          "type": "address"
        }
      ],
      "name": "AdminRemoved",
      "type": "event"
    },
    {
      "anonymous": false,
      "inputs": [
        {
          "indexed": true,
          "internalType": "address",
          "name": "owner",
          "type": "address"
        },
        {
          "indexed": true,
          "internalType": "address",
          "name": "spender",
          "type": "address"
        },
        {
          "indexed": false,
          "internalType": "uint256",
          "name": "value",
          "type": "uint256"
        }
      ],
      "name": "Approval",
      "type": "event"
    },
    {
      "anonymous": false,
      "inputs": [
        {
          "indexed": true,
          "internalType": "address",
          "name": "delegator",
          "type": "address"
        },
        {
          "indexed": true,
          "internalType": "address",
          "name": "fromDelegate",
          "type": "address"
        },
        {
          "indexed": true,
          "internalType": "address",
          "name": "toDelegate",
          "type": "address"
        }
      ],
      "name": "DelegateChanged",
      "type": "event"
    },
    {
      "anonymous": false,
      "inputs": [
        {
          "indexed": true,
          "internalType": "address",
          "name": "delegate",
          "type": "address"
        },
        {
          "indexed": false,
          "internalType": "uint256",
          "name": "previousBalance",
          "type": "uint256"
        },
        {
          "indexed": false,
          "internalType": "uint256",
          "name": "newBalance",
          "type": "uint256"
        }
      ],
      "name": "DelegateVotesChanged",
      "type": "event"
    },
    {
      "anonymous": false,
      "inputs": [
        {
          "indexed": true,
          "internalType": "address",
          "name": "from",
          "type": "address"
        },
        {
          "indexed": true,
          "internalType": "address",
          "name": "to",
          "type": "address"
        },
        {
          "indexed": false,
          "internalType": "uint256",
          "name": "value",
          "type": "uint256"
        }
      ],
      "name": "Transfer",
      "type": "event"
    },
    {
      "inputs": [],
      "name": "DELEGATION_TYPEHASH",
      "outputs": [
        {
          "internalType": "bytes32",
          "name": "",
          "type": "bytes32"
        }
      ],
      "stateMutability": "view",
      "type": "function"
    },
    {
      "inputs": [],
      "name": "DOMAIN_TYPEHASH",
      "outputs": [
        {
          "internalType": "bytes32",
          "name": "",
          "type": "bytes32"
        }
      ],
      "stateMutability": "view",
      "type": "function"
    },
    {
      "inputs": [
        {
          "internalType": "address",
          "name": "account",
          "type": "address"
        }
      ],
      "name": "addAdmin",
      "outputs": [],
      "stateMutability": "nonpayable",
      "type": "function"
    },
    {
      "inputs": [],
      "name": "allAdmins",
      "outputs": [
        {
          "internalType": "address[]",
          "name": "admins",
          "type": "address[]"
        }
      ],
      "stateMutability": "view",
      "type": "function"
    },
    {
      "inputs": [
        {
          "internalType": "address",
          "name": "owner",
          "type": "address"
        },
        {
          "internalType": "address",
          "name": "spender",
          "type": "address"
        }
      ],
      "name": "allowance",
      "outputs": [
        {
          "internalType": "uint256",
          "name": "",
          "type": "uint256"
        }
      ],
      "stateMutability": "view",
      "type": "function"
    },
    {
      "inputs": [
        {
          "internalType": "address",
          "name": "spender",
          "type": "address"
        },
        {
          "internalType": "uint256",
          "name": "amount",
          "type": "uint256"
        }
      ],
      "name": "approve",
      "outputs": [
        {
          "internalType": "bool",
          "name": "",
          "type": "bool"
        }
      ],
      "stateMutability": "nonpayable",
      "type": "function"
    },
    {
      "inputs": [
        {
          "internalType": "address",
          "name": "account",
          "type": "address"
        }
      ],
      "name": "balanceOf",
      "outputs": [
        {
          "internalType": "uint256",
          "name": "",
          "type": "uint256"
        }
      ],
      "stateMutability": "view",
      "type": "function"
    },
    {
      "inputs": [
        {
          "internalType": "address",
          "name": "",
          "type": "address"
        },
        {
          "internalType": "uint32",
          "name": "",
          "type": "uint32"
        }
      ],
      "name": "checkpoints",
      "outputs": [
        {
          "internalType": "uint32",
          "name": "fromBlock",
          "type": "uint32"
        },
        {
          "internalType": "uint256",
          "name": "votes",
          "type": "uint256"
        }
      ],
      "stateMutability": "view",
      "type": "function"
    },
    {
      "inputs": [],
      "name": "decimals",
      "outputs": [
        {
          "internalType": "uint8",
          "name": "",
          "type": "uint8"
        }
      ],
      "stateMutability": "view",
      "type": "function"
    },
    {
      "inputs": [
        {
          "internalType": "address",
          "name": "spender",
          "type": "address"
        },
        {
          "internalType": "uint256",
          "name": "subtractedValue",
          "type": "uint256"
        }
      ],
      "name": "decreaseAllowance",
      "outputs": [
        {
          "internalType": "bool",
          "name": "",
          "type": "bool"
        }
      ],
      "stateMutability": "nonpayable",
      "type": "function"
    },
    {
      "inputs": [
        {
          "internalType": "address",
          "name": "spender",
          "type": "address"
        },
        {
          "internalType": "uint256",
          "name": "addedValue",
          "type": "uint256"
        }
      ],
      "name": "increaseAllowance",
      "outputs": [
        {
          "internalType": "bool",
          "name": "",
          "type": "bool"
        }
      ],
      "stateMutability": "nonpayable",
      "type": "function"
    },
    {
      "inputs": [
        {
          "internalType": "address",
          "name": "account",
          "type": "address"
        }
      ],
      "name": "isAdmin",
      "outputs": [
        {
          "internalType": "bool",
          "name": "",
          "type": "bool"
        }
      ],
      "stateMutability": "view",
      "type": "function"
    },
    {
      "inputs": [],
      "name": "name",
      "outputs": [
        {
          "internalType": "string",
          "name": "",
          "type": "string"
        }
      ],
      "stateMutability": "view",
      "type": "function"
    },
    {
      "inputs": [
        {
          "internalType": "address",
          "name": "",
          "type": "address"
        }
      ],
      "name": "nonces",
      "outputs": [
        {
          "internalType": "uint256",
          "name": "",
          "type": "uint256"
        }
      ],
      "stateMutability": "view",
      "type": "function"
    },
    {
      "inputs": [
        {
          "internalType": "address",
          "name": "",
          "type": "address"
        }
      ],
      "name": "numCheckpoints",
      "outputs": [
        {
          "internalType": "uint32",
          "name": "",
          "type": "uint32"
        }
      ],
      "stateMutability": "view",
      "type": "function"
    },
    {
      "inputs": [
        {
          "internalType": "address",
          "name": "account",
          "type": "address"
        }
      ],
      "name": "removeAdmin",
      "outputs": [],
      "stateMutability": "nonpayable",
      "type": "function"
    },
    {
      "inputs": [],
      "name": "renounceAdmin",
      "outputs": [],
      "stateMutability": "nonpayable",
      "type": "function"
    },
    {
      "inputs": [],
      "name": "symbol",
      "outputs": [
        {
          "internalType": "string",
          "name": "",
          "type": "string"
        }
      ],
      "stateMutability": "view",
      "type": "function"
    },
    {
      "inputs": [],
      "name": "totalSupply",
      "outputs": [
        {
          "internalType": "uint256",
          "name": "",
          "type": "uint256"
        }
      ],
      "stateMutability": "view",
      "type": "function"
    },
    {
      "inputs": [
        {
          "internalType": "address",
          "name": "recipient",
          "type": "address"
        },
        {
          "internalType": "uint256",
          "name": "amount",
          "type": "uint256"
        }
      ],
      "name": "transfer",
      "outputs": [
        {
          "internalType": "bool",
          "name": "",
          "type": "bool"
        }
      ],
      "stateMutability": "nonpayable",
      "type": "function"
    },
    {
      "inputs": [
        {
          "internalType": "address",
          "name": "sender",
          "type": "address"
        },
        {
          "internalType": "address",
          "name": "recipient",
          "type": "address"
        },
        {
          "internalType": "uint256",
          "name": "amount",
          "type": "uint256"
        }
      ],
      "name": "transferFrom",
      "outputs": [
        {
          "internalType": "bool",
          "name": "",
          "type": "bool"
        }
      ],
      "stateMutability": "nonpayable",
      "type": "function"
    },
    {
      "inputs": [
        {
          "internalType": "address",
          "name": "_to",
          "type": "address"
        },
        {
          "internalType": "uint256",
          "name": "_amount",
          "type": "uint256"
        }
      ],
      "name": "mint",
      "outputs": [],
      "stateMutability": "nonpayable",
      "type": "function"
    },
    {
      "inputs": [
        {
          "internalType": "address",
          "name": "delegator",
          "type": "address"
        }
      ],
      "name": "delegates",
      "outputs": [
        {
          "internalType": "address",
          "name": "",
          "type": "address"
        }
      ],
      "stateMutability": "view",
      "type": "function"
    },
    {
      "inputs": [
        {
          "internalType": "address",
          "name": "delegatee",
          "type": "address"
        }
      ],
      "name": "delegate",
      "outputs": [],
      "stateMutability": "nonpayable",
      "type": "function"
    },
    {
      "inputs": [
        {
          "internalType": "address",
          "name": "delegatee",
          "type": "address"
        },
        {
          "internalType": "uint256",
          "name": "nonce",
          "type": "uint256"
        },
        {
          "internalType": "uint256",
          "name": "expiry",
          "type": "uint256"
        },
        {
          "internalType": "uint8",
          "name": "v",
          "type": "uint8"
        },
        {
          "internalType": "bytes32",
          "name": "r",
          "type": "bytes32"
        },
        {
          "internalType": "bytes32",
          "name": "s",
          "type": "bytes32"
        }
      ],
      "name": "delegateBySig",
      "outputs": [],
      "stateMutability": "nonpayable",
      "type": "function"
    },
    {
      "inputs": [
        {
          "internalType": "address",
          "name": "account",
          "type": "address"
        }
      ],
      "name": "getCurrentVotes",
      "outputs": [
        {
          "internalType": "uint256",
          "name": "",
          "type": "uint256"
        }
      ],
      "stateMutability": "view",
      "type": "function"
    },
    {
      "inputs": [
        {
          "internalType": "address",
          "name": "account",
          "type": "address"
        },
        {
          "internalType": "uint256",
          "name": "blockNumber",
          "type": "uint256"
        }
      ],
      "name": "getPriorVotes",
      "outputs": [
        {
          "internalType": "uint256",
          "name": "",
          "type": "uint256"
        }
      ],
      "stateMutability": "view",
      "type": "function"
    }
  ],
  "bytecode": "0x60806040523480156200001157600080fd5b5060405180604001604052806011815260200170476f5377617020476f7665726e616e636560781b8152506040518060400160405280600381526020016223a7ab60e91b81525081600390805190602001906200007092919062000181565b5080516200008690600490602084019062000181565b50506005805460ff1916601217905550620000a133620000a7565b6200021d565b620000c2816006620000fa60201b620010ac1790919060201c565b506040516001600160a01b038216907f44d6d25963f097ad14f29f06854a01f575648a1ef82f30e562ccd3889717e33990600090a250565b600062000111836001600160a01b0384166200011a565b90505b92915050565b600062000128838362000169565b620001605750815460018181018455600084815260208082209093018490558454848252828601909352604090209190915562000114565b50600062000114565b60009081526001919091016020526040902054151590565b828054600181600116156101000203166002900490600052602060002090601f016020900481019282601f10620001c457805160ff1916838001178555620001f4565b82800160010185558215620001f4579182015b82811115620001f4578251825591602001919060010190620001d7565b506200020292915062000206565b5090565b5b8082111562000202576000815560010162000207565b611d90806200022d6000396000f3fe608060405234801561001057600080fd5b50600436106101a95760003560e01c80636fcfff45116100f9578063a457c2d711610097578063c3cda52011610071578063c3cda520146105b2578063dd62ed3e146105f9578063e7a324dc14610627578063f1127ed81461062f576101a9565b8063a457c2d714610534578063a9059cbb14610560578063b4b5ea571461058c576101a9565b8063782d6fe1116100d3578063782d6fe1146104d25780637ecebe00146104fe5780638bad0c0a1461052457806395d89b411461052c576101a9565b80636fcfff4514610447578063704802751461048657806370a08231146104ac576101a9565b806324d7806c1161016657806340c10f191161014057806340c10f191461035b57806340f32be614610387578063587cde1e146103df5780635c19a95c14610421576101a9565b806324d7806c146102eb578063313ce56714610311578063395093511461032f576101a9565b806306fdde03146101ae578063095ea7b31461022b5780631785f53c1461026b57806318160ddd1461029357806320606b70146102ad57806323b872dd146102b5575b600080fd5b6101b6610681565b6040805160208082528351818301528351919283929083019185019080838360005b838110156101f05781810151838201526020016101d8565b50505050905090810190601f16801561021d5780820380516001836020036101000a031916815260200191505b509250505060405180910390f35b6102576004803603604081101561024157600080fd5b506001600160a01b038135169060200135610717565b604080519115158252519081900360200190f35b6102916004803603602081101561028157600080fd5b50356001600160a01b0316610735565b005b61029b610785565b60408051918252519081900360200190f35b61029b61078b565b610257600480360360608110156102cb57600080fd5b506001600160a01b038135811691602081013590911690604001356107af565b6102576004803603602081101561030157600080fd5b50356001600160a01b0316610836565b610319610843565b6040805160ff9092168252519081900360200190f35b6102576004803603604081101561034557600080fd5b506001600160a01b03813516906020013561084c565b6102916004803603604081101561037157600080fd5b506001600160a01b03813516906020013561089a565b61038f610911565b60408051602080825283518183015283519192839290830191858101910280838360005b838110156103cb5781810151838201526020016103b3565b505050509050019250505060405180910390f35b610405600480360360208110156103f557600080fd5b50356001600160a01b03166109af565b604080516001600160a01b039092168252519081900360200190f35b6102916004803603602081101561043757600080fd5b50356001600160a01b03166109cd565b61046d6004803603602081101561045d57600080fd5b50356001600160a01b03166109d7565b6040805163ffffffff9092168252519081900360200190f35b6102916004803603602081101561049c57600080fd5b50356001600160a01b03166109ef565b61029b600480360360208110156104c257600080fd5b50356001600160a01b0316610a3c565b61029b600480360360408110156104e857600080fd5b506001600160a01b038135169060200135610a57565b61029b6004803603602081101561051457600080fd5b50356001600160a01b0316610c5f565b610291610c71565b6101b6610c7c565b6102576004803603604081101561054a57600080fd5b506001600160a01b038135169060200135610cdd565b6102576004803603604081101561057657600080fd5b506001600160a01b038135169060200135610d45565b61029b600480360360208110156105a257600080fd5b50356001600160a01b0316610d59565b610291600480360360c08110156105c857600080fd5b506001600160a01b038135169060208101359060408101359060ff6060820135169060808101359060a00135610dbd565b61029b6004803603604081101561060f57600080fd5b506001600160a01b0381358116916020013516611030565b61029b61105b565b6106616004803603604081101561064557600080fd5b5080356001600160a01b0316906020013563ffffffff1661107f565b6040805163ffffffff909316835260208301919091528051918290030190f35b60038054604080516020601f600260001961010060018816150201909516949094049384018190048102820181019092528281526060939092909183018282801561070d5780601f106106e25761010080835404028352916020019161070d565b820191906000526020600020905b8154815290600101906020018083116106f057829003601f168201915b5050505050905090565b600061072b6107246110c1565b84846110c5565b5060015b92915050565b61073e33610836565b6107795760405162461bcd60e51b815260040180806020018281038252602e815260200180611cbf602e913960400191505060405180910390fd5b610782816111b1565b50565b60025490565b7f8cad95687ba82c2ce50e74f7b754645e5117c3a5bec8151c0726d5857980a86681565b60006107bc8484846111f4565b61082c846107c86110c1565b61082785604051806060016040528060288152602001611c4d602891396001600160a01b038a166000908152600160205260408120906108066110c1565b6001600160a01b03168152602081019190915260400160002054919061134f565b6110c5565b5060019392505050565b600061072f6006836113e6565b60055460ff1690565b600061072b6108596110c1565b84610827856001600061086a6110c1565b6001600160a01b03908116825260208083019390935260409182016000908120918c1681529252902054906113fb565b6108a333610836565b6108de5760405162461bcd60e51b815260040180806020018281038252602e815260200180611cbf602e913960400191505060405180910390fd5b6108e88282611455565b6001600160a01b0380831660009081526008602052604081205461090d921683611545565b5050565b606061091d6006611687565b67ffffffffffffffff8111801561093357600080fd5b5060405190808252806020026020018201604052801561095d578160200160208202803683370190505b50905060005b61096d6006611687565b8110156109ab5761097f600682611692565b82828151811061098b57fe5b6001600160a01b0390921660209283029190910190910152600101610963565b5090565b6001600160a01b039081166000908152600860205260409020541690565b610782338261169e565b600a6020526000908152604090205463ffffffff1681565b6109f833610836565b610a335760405162461bcd60e51b815260040180806020018281038252602e815260200180611cbf602e913960400191505060405180910390fd5b61078281611733565b6001600160a01b031660009081526020819052604090205490565b6000438210610a975760405162461bcd60e51b8152600401808060200182810382526028815260200180611c256028913960400191505060405180910390fd5b6001600160a01b0383166000908152600a602052604090205463ffffffff1680610ac557600091505061072f565b6001600160a01b038416600090815260096020908152604080832063ffffffff600019860181168552925290912054168310610b34576001600160a01b03841660009081526009602090815260408083206000199490940163ffffffff1683529290522060010154905061072f565b6001600160a01b038416600090815260096020908152604080832083805290915290205463ffffffff16831015610b6f57600091505061072f565b600060001982015b8163ffffffff168163ffffffff161115610c2857600282820363ffffffff16048103610ba1611b24565b506001600160a01b038716600090815260096020908152604080832063ffffffff808616855290835292819020815180830190925280549093168082526001909301549181019190915290871415610c035760200151945061072f9350505050565b805163ffffffff16871115610c1a57819350610c21565b6001820392505b5050610b77565b506001600160a01b038516600090815260096020908152604080832063ffffffff9094168352929052206001015491505092915050565b600b6020526000908152604090205481565b610c7a336111b1565b565b60048054604080516020601f600260001961010060018816150201909516949094049384018190048102820181019092528281526060939092909183018282801561070d5780601f106106e25761010080835404028352916020019161070d565b600061072b610cea6110c1565b8461082785604051806060016040528060258152602001611d366025913960016000610d146110c1565b6001600160a01b03908116825260208083019390935260409182016000908120918d1681529252902054919061134f565b600061072b610d526110c1565b84846111f4565b6001600160a01b0381166000908152600a602052604081205463ffffffff1680610d84576000610db6565b6001600160a01b038316600090815260096020908152604080832063ffffffff60001986011684529091529020600101545b9392505050565b60007f8cad95687ba82c2ce50e74f7b754645e5117c3a5bec8151c0726d5857980a866610de8610681565b80519060200120610df7611776565b60408051602080820195909552808201939093526060830191909152306080808401919091528151808403909101815260a0830182528051908401207fe48329057bfd03d55e49b547132e39cffd9c1820ad7b9d4c5307691425d15adf60c08401526001600160a01b038b1660e084015261010083018a90526101208084018a9052825180850390910181526101408401835280519085012061190160f01b6101608501526101628401829052610182808501829052835180860390910181526101a285018085528151918701919091206000918290526101c2860180865281905260ff8b166101e287015261020286018a90526102228601899052935192965090949293909260019261024280840193601f198301929081900390910190855afa158015610f2a573d6000803e3d6000fd5b5050604051601f1901519150506001600160a01b038116610f7c5760405162461bcd60e51b8152600401808060200182810382526027815260200180611c986027913960400191505060405180910390fd5b6001600160a01b0381166000908152600b602052604090208054600181019091558914610fda5760405162461bcd60e51b8152600401808060200182810382526023815260200180611c756023913960400191505060405180910390fd5b874211156110195760405162461bcd60e51b8152600401808060200182810382526027815260200180611b816027913960400191505060405180910390fd5b611023818b61169e565b505050505b505050505050565b6001600160a01b03918216600090815260016020908152604080832093909416825291909152205490565b7fe48329057bfd03d55e49b547132e39cffd9c1820ad7b9d4c5307691425d15adf81565b60096020908152600092835260408084209091529082529020805460019091015463ffffffff9091169082565b6000610db6836001600160a01b03841661177a565b3390565b6001600160a01b03831661110a5760405162461bcd60e51b8152600401808060200182810382526024815260200180611d126024913960400191505060405180910390fd5b6001600160a01b03821661114f5760405162461bcd60e51b8152600401808060200182810382526022815260200180611ba86022913960400191505060405180910390fd5b6001600160a01b03808416600081815260016020908152604080832094871680845294825291829020859055815185815291517f8c5be1e5ebec7d5bd14f71427d1e84f3dd0314c0f7b2291e5b200ac8c7c3b9259281900390910190a3505050565b6111bc6006826117c4565b506040516001600160a01b038216907fa3b62bc36326052d97ea62d63c3d60308ed4c3ea8ac079dd8499f1e9c4f80c0f90600090a250565b6001600160a01b0383166112395760405162461bcd60e51b8152600401808060200182810382526025815260200180611ced6025913960400191505060405180910390fd5b6001600160a01b03821661127e5760405162461bcd60e51b8152600401808060200182810382526023815260200180611b5e6023913960400191505060405180910390fd5b611289838383611682565b6112c681604051806060016040528060268152602001611bca602691396001600160a01b038616600090815260208190526040902054919061134f565b6001600160a01b0380851660009081526020819052604080822093909355908416815220546112f590826113fb565b6001600160a01b038084166000818152602081815260409182902094909455805185815290519193928716927fddf252ad1be2c89b69c2b068fc378daa952ba7f163c4a11628f55a4df523b3ef92918290030190a3505050565b600081848411156113de5760405162461bcd60e51b81526004018080602001828103825283818151815260200191508051906020019080838360005b838110156113a357818101518382015260200161138b565b50505050905090810190601f1680156113d05780820380516001836020036101000a031916815260200191505b509250505060405180910390fd5b505050900390565b6000610db6836001600160a01b0384166117d9565b600082820183811015610db6576040805162461bcd60e51b815260206004820152601b60248201527f536166654d6174683a206164646974696f6e206f766572666c6f770000000000604482015290519081900360640190fd5b6001600160a01b0382166114b0576040805162461bcd60e51b815260206004820152601f60248201527f45524332303a206d696e7420746f20746865207a65726f206164647265737300604482015290519081900360640190fd5b6114bc60008383611682565b6002546114c990826113fb565b6002556001600160a01b0382166000908152602081905260409020546114ef90826113fb565b6001600160a01b0383166000818152602081815260408083209490945583518581529351929391927fddf252ad1be2c89b69c2b068fc378daa952ba7f163c4a11628f55a4df523b3ef9281900390910190a35050565b816001600160a01b0316836001600160a01b0316141580156115675750600081115b15611682576001600160a01b038316156115f9576001600160a01b0383166000908152600a602052604081205463ffffffff1690816115a75760006115d9565b6001600160a01b038516600090815260096020908152604080832063ffffffff60001987011684529091529020600101545b905060006115e782856117f1565b90506115f586848484611833565b5050505b6001600160a01b03821615611682576001600160a01b0382166000908152600a602052604081205463ffffffff169081611634576000611666565b6001600160a01b038416600090815260096020908152604080832063ffffffff60001987011684529091529020600101545b9050600061167482856113fb565b905061102885848484611833565b505050565b600061072f82611998565b6000610db6838361199c565b6001600160a01b03808316600090815260086020526040812054909116906116c584610a3c565b6001600160a01b0385811660008181526008602052604080822080546001600160a01b031916898616908117909155905194955093928616927f3134e8a2e6d97e929a7e54011ea5485d7d196dd5f0ba4d4ef95803e8e3fc257f9190a461172d828483611545565b50505050565b61173e6006826110ac565b506040516001600160a01b038216907f44d6d25963f097ad14f29f06854a01f575648a1ef82f30e562ccd3889717e33990600090a250565b4690565b600061178683836117d9565b6117bc5750815460018181018455600084815260208082209093018490558454848252828601909352604090209190915561072f565b50600061072f565b6000610db6836001600160a01b038416611a00565b60009081526001919091016020526040902054151590565b6000610db683836040518060400160405280601e81526020017f536166654d6174683a207375627472616374696f6e206f766572666c6f77000081525061134f565b600061185743604051806060016040528060358152602001611bf060359139611ac6565b905060008463ffffffff161180156118a057506001600160a01b038516600090815260096020908152604080832063ffffffff6000198901811685529252909120548282169116145b156118dd576001600160a01b038516600090815260096020908152604080832063ffffffff6000198901168452909152902060010182905561194e565b60408051808201825263ffffffff808416825260208083018681526001600160a01b038a166000818152600984528681208b8616825284528681209551865490861663ffffffff199182161787559251600196870155908152600a9092529390208054928801909116919092161790555b604080518481526020810184905281516001600160a01b038816927fdec2bacdd2f05b59de34da9b523dff8be42e5e38e818c82fdb0bae774387a724928290030190a25050505050565b5490565b815460009082106119de5760405162461bcd60e51b8152600401808060200182810382526022815260200180611b3c6022913960400191505060405180910390fd5b8260000182815481106119ed57fe5b9060005260206000200154905092915050565b60008181526001830160205260408120548015611abc5783546000198083019190810190600090879083908110611a3357fe5b9060005260206000200154905080876000018481548110611a5057fe5b600091825260208083209091019290925582815260018981019092526040902090840190558654879080611a8057fe5b6001900381819060005260206000200160009055905586600101600087815260200190815260200160002060009055600194505050505061072f565b600091505061072f565b6000816401000000008410611b1c5760405162461bcd60e51b81526020600482018181528351602484015283519092839260449091019190850190808383600083156113a357818101518382015260200161138b565b509192915050565b60408051808201909152600080825260208201529056fe456e756d657261626c655365743a20696e646578206f7574206f6620626f756e647345524332303a207472616e7366657220746f20746865207a65726f206164647265737353555348493a3a64656c656761746542795369673a207369676e6174757265206578706972656445524332303a20617070726f766520746f20746865207a65726f206164647265737345524332303a207472616e7366657220616d6f756e7420657863656564732062616c616e636553555348493a3a5f7772697465436865636b706f696e743a20626c6f636b206e756d6265722065786365656473203332206269747353555348493a3a6765745072696f72566f7465733a206e6f74207965742064657465726d696e656445524332303a207472616e7366657220616d6f756e74206578636565647320616c6c6f77616e636553555348493a3a64656c656761746542795369673a20696e76616c6964206e6f6e636553555348493a3a64656c656761746542795369673a20696e76616c6964207369676e617475726541646d696e526f6c653a2063616c6c657220646f6573206e6f742068617665207468652041646d696e20726f6c6545524332303a207472616e736665722066726f6d20746865207a65726f206164647265737345524332303a20617070726f76652066726f6d20746865207a65726f206164647265737345524332303a2064656372656173656420616c6c6f77616e63652062656c6f77207a65726fa2646970667358221220dba8b7f58c9e6de49ebc665842607c6a68bc6542022482441131b6263422e97064736f6c634300060c0033",
  "immutableReferences": {},
  "source": "// SPDX-License-Identifier: MIT\npragma solidity 0.6.12;\n\nimport \"@openzeppelin/contracts/token/ERC20/ERC20.sol\";\nimport './libraries/AdminRole.sol';\n\ncontract GoSwapGovernance is ERC20(\"GoSwap Governance\", \"GOV\"), AdminRole {\n    function mint(address _to, uint256 _amount) public onlyAdmin {\n        // ERC20\n        _mint(_to, _amount);\n        // ,amountto\n        _moveDelegates(address(0), _delegates[_to], _amount);\n    }\n\n    // YAM\n    // Copied and modified from YAM code:\n    // https://github.com/yam-finance/yam-protocol/blob/master/contracts/token/YAMGovernanceStorage.sol\n    // https://github.com/yam-finance/yam-protocol/blob/master/contracts/token/YAMGovernance.sol\n    // COMPOUND\n    // Which is copied and modified from COMPOUND:\n    // https://github.com/compound-finance/compound-protocol/blob/master/contracts/Governance/Comp.sol\n\n    // @notice \n    // @notice A record of each accounts delegate\n    mapping(address => address) internal _delegates;\n\n    /// @notice \n    /// @notice A checkpoint for marking number of votes from a given block\n    struct Checkpoint {\n        uint32 fromBlock;\n        uint256 votes;\n    }\n\n    /// @notice  =>=>\n    /// @notice A record of votes checkpoints for each account, by index\n    mapping(address => mapping(uint32 => Checkpoint)) public checkpoints;\n    /// @notice ,=>\n    /// @notice The number of checkpoints for each account\n    mapping(address => uint32) public numCheckpoints;\n\n    /// @notice EIP-712hash\n    /// @notice The EIP-712 typehash for the contract's domain\n    bytes32 public constant DOMAIN_TYPEHASH = keccak256(\n        \"EIP712Domain(string name,uint256 chainId,address verifyingContract)\"\n    );\n\n    /// @notice EIP-712hash\n    /// @notice The EIP-712 typehash for the delegation struct used by the contract\n    bytes32 public constant DELEGATION_TYPEHASH = keccak256(\n        \"Delegation(address delegatee,uint256 nonce,uint256 expiry)\"\n    );\n\n    /// @notice /\n    /// @notice A record of states for signing / validating signatures\n    mapping(address => uint256) public nonces;\n\n    /// @notice \n    /// @notice An event thats emitted when an account changes its delegate\n    event DelegateChanged(\n        address indexed delegator,\n        address indexed fromDelegate,\n        address indexed toDelegate\n    );\n\n    /// @notice \n    /// @notice An event thats emitted when a delegate account's vote balance changes\n    event DelegateVotesChanged(\n        address indexed delegate,\n        uint256 previousBalance,\n        uint256 newBalance\n    );\n\n    /**\n     * @notice delegator\n     * @notice Delegate votes from `msg.sender` to `delegatee`\n     * @param delegator \n     */\n    function delegates(address delegator) external view returns (address) {\n        // \n        return _delegates[delegator];\n    }\n\n    /**\n     * @notice \n     * @notice Delegate votes from `msg.sender` to `delegatee`\n     * @param delegatee \n     */\n    function delegate(address delegatee) external {\n        // `msg.sender`  `delegatee`\n        return _delegate(msg.sender, delegatee);\n    }\n\n    /**\n     * @notice delegatee\n     * @notice Delegates votes from signatory to `delegatee`\n     * @param delegatee \n     * @param nonce nonce,\n     * @param expiry \n     * @param v \n     * @param r ECDSA\n     * @param s ECDSA\n     */\n    function delegateBySig(\n        address delegatee,\n        uint256 nonce,\n        uint256 expiry,\n        uint8 v,\n        bytes32 r,\n        bytes32 s\n    ) external {\n        //  = hash(hash + hash + chainId + )\n        bytes32 domainSeparator = keccak256(\n            abi.encode(\n                DOMAIN_TYPEHASH,\n                keccak256(bytes(name())),\n                getChainId(),\n                address(this)\n            )\n        );\n\n        // hash = hash(hash +  + nonce + )\n        bytes32 structHash = keccak256(\n            abi.encode(DELEGATION_TYPEHASH, delegatee, nonce, expiry)\n        );\n\n        //  = hash( + hash)\n        bytes32 digest = keccak256(\n            abi.encodePacked(\"\\x19\\x01\", domainSeparator, structHash)\n        );\n\n        //  = (,v,r,s) v,r,s,\n        address signatory = ecrecover(digest, v, r, s);\n        //  != 0\n        require(\n            signatory != address(0),\n            \"SUSHI::delegateBySig: invalid signature\"\n        );\n        //  nonce == nonce[]++\n        require(\n            nonce == nonces[signatory]++,\n            \"SUSHI::delegateBySig: invalid nonce\"\n        );\n        //   <= \n        require(now <= expiry, \"SUSHI::delegateBySig: signature expired\");\n        // \n        return _delegate(signatory, delegatee);\n    }\n\n    /**\n     * @notice `account`\n     * @notice Gets the current votes balance for `account`\n     * @param account \n     * @return \n     */\n    function getCurrentVotes(address account) external view returns (uint256) {\n        //  = []\n        uint32 nCheckpoints = numCheckpoints[account];\n        //   > 0 ? [][ - 1(,0,1)]. : 0\n        return\n            nCheckpoints > 0 ? checkpoints[account][nCheckpoints - 1].votes : 0;\n    }\n\n    /**\n     * @notice \n     * @notice Determine the prior number of votes for an account as of a block number\n     * @dev \n     * @dev Block number must be a finalized block or else this function will revert to prevent misinformation.\n     * @param account \n     * @param blockNumber \n     * @return \n     */\n    function getPriorVotes(address account, uint256 blockNumber)\n        external\n        view\n        returns (uint256)\n    {\n        //   < \n        require(\n            blockNumber < block.number,\n            \"SUSHI::getPriorVotes: not yet determined\"\n        );\n\n        //  = []\n        uint32 nCheckpoints = numCheckpoints[account];\n        //  == 0  0\n        if (nCheckpoints == 0) {\n            return 0;\n        }\n\n        // \n        // First check most recent balance\n        //  [][ - 1(,0,1)].from <= \n        if (checkpoints[account][nCheckpoints - 1].fromBlock <= blockNumber) {\n            //  [][ - 1(,0,1)].\n            return checkpoints[account][nCheckpoints - 1].votes;\n        }\n\n        // \n        // Next check implicit zero balance\n        //  [][0].from >   0\n        if (checkpoints[account][0].fromBlock > blockNumber) {\n            return 0;\n        }\n\n        // from\n        // \n        uint32 lower = 0; //0\n        uint32 upper = nCheckpoints - 1; // (,0,1)\n        while (upper > lower) {\n            // >\n            //  =  - ( - ) / 2\n            uint32 center = upper - (upper - lower) / 2; // // ceil, avoiding overflow\n            // \n            Checkpoint memory cp = checkpoints[account][center];\n            //    \n            if (cp.fromBlock == blockNumber) {\n                // \n                return cp.votes;\n                //    \n            } else if (cp.fromBlock < blockNumber) {\n                //  = \n                lower = center;\n                // \n            } else {\n                //  =  - 1\n                upper = center - 1;\n            }\n        }\n        // \n        return checkpoints[account][lower].votes;\n    }\n\n    /**\n     * @dev \n     * @param delegator \n     * @param delegatee \n     */\n    function _delegate(address delegator, address delegatee) internal {\n        // \n        address currentDelegate = _delegates[delegator];\n        // SUSHI\n        uint256 delegatorBalance = balanceOf(delegator); // balance of underlying SUSHIs (not scaled);\n        // \n        _delegates[delegator] = delegatee;\n\n        // \n        emit DelegateChanged(delegator, currentDelegate, delegatee);\n\n        // \n        _moveDelegates(currentDelegate, delegatee, delegatorBalance);\n    }\n\n    /**\n     * @dev \n     * @param srcRep \n     * @param dstRep \n     * @param amount \n     */\n    function _moveDelegates(\n        address srcRep,\n        address dstRep,\n        uint256 amount\n    ) internal {\n        //  !=  &&  > 0\n        if (srcRep != dstRep && amount > 0) {\n            //  != 0 0\n            if (srcRep != address(0)) {\n                // \n                // decrease old representative\n                // \n                uint32 srcRepNum = numCheckpoints[srcRep];\n                //  =  > 0 ? [][ - 1(,0,1)]. : 0\n                uint256 srcRepOld = srcRepNum > 0\n                    ? checkpoints[srcRep][srcRepNum - 1].votes\n                    : 0;\n                //  =  - \n                uint256 srcRepNew = srcRepOld.sub(amount);\n                // ,\n                _writeCheckpoint(srcRep, srcRepNum, srcRepOld, srcRepNew);\n            }\n            //  != 0 0\n            if (dstRep != address(0)) {\n                // \n                // increase new representative\n                // \n                uint32 dstRepNum = numCheckpoints[dstRep];\n                //  =  > 0 ? [][ - 1(,0,1)]. : 0\n                uint256 dstRepOld = dstRepNum > 0\n                    ? checkpoints[dstRep][dstRepNum - 1].votes\n                    : 0;\n                //  =  + \n                uint256 dstRepNew = dstRepOld.add(amount);\n                // ,\n                _writeCheckpoint(dstRep, dstRepNum, dstRepOld, dstRepNew);\n            }\n        }\n    }\n\n    /**\n     * @dev \n     * @param delegatee \n     * @param nCheckpoints \n     * @param oldVotes \n     * @param newVotes \n     */\n    function _writeCheckpoint(\n        address delegatee,\n        uint32 nCheckpoints,\n        uint256 oldVotes,\n        uint256 newVotes\n    ) internal {\n        //  = 322()\n        uint32 blockNumber = safe32(\n            block.number,\n            \"SUSHI::_writeCheckpoint: block number exceeds 32 bits\"\n        );\n        //   > 0 && [][ - 1(,0,1)].from == \n        if (\n            nCheckpoints > 0 &&\n            checkpoints[delegatee][nCheckpoints - 1].fromBlock == blockNumber\n        ) {\n            // [][ - 1(,0,1)]. = \n            checkpoints[delegatee][nCheckpoints - 1].votes = newVotes;\n        } else {\n            // [][] = (, )\n            checkpoints[delegatee][nCheckpoints] = Checkpoint(\n                blockNumber,\n                newVotes\n            );\n            // [] =  + 1\n            numCheckpoints[delegatee] = nCheckpoints + 1;\n        }\n        // \n        emit DelegateVotesChanged(delegatee, oldVotes, newVotes);\n    }\n\n    /**\n     * @dev 32\n     * @param n \n     * @param errorMessage \n     */\n    function safe32(uint256 n, string memory errorMessage)\n        internal\n        pure\n        returns (uint32)\n    {\n        //  n < 2**32\n        require(n < 2**32, errorMessage);\n        // n\n        return uint32(n);\n    }\n\n    /**\n     * @dev id\n     */\n    function getChainId() internal pure returns (uint256) {\n        // chainId\n        uint256 chainId;\n        // chainId\n        assembly {\n            chainId := chainid()\n        }\n        // chainId\n        return chainId;\n    }\n}\n",
  "sourcePath": "/home/cui/Documents/goswap/goswap-core/contracts/GoSwapGovernance.sol",
  "compiler": {
    "name": "solc",
    "version": "0.6.12+commit.27d51765.Emscripten.clang"
  },
  "schemaVersion": "3.3.2",
  "updatedAt": "2021-01-22T03:09:29.952Z",
  "devdoc": {
    "kind": "dev",
    "methods": {
      "addAdmin(address)": {
        "details": "",
        "params": {
          "account": ""
        }
      },
      "allAdmins()": {
        "details": "",
        "returns": {
          "admins": ""
        }
      },
      "allowance(address,address)": {
        "details": "See {IERC20-allowance}."
      },
      "approve(address,uint256)": {
        "details": "See {IERC20-approve}. Requirements: - `spender` cannot be the zero address."
      },
      "balanceOf(address)": {
        "details": "See {IERC20-balanceOf}."
      },
      "decimals()": {
        "details": "Returns the number of decimals used to get its user representation. For example, if `decimals` equals `2`, a balance of `505` tokens should be displayed to a user as `5,05` (`505 / 10 ** 2`). Tokens usually opt for a value of 18, imitating the relationship between Ether and Wei. This is the value {ERC20} uses, unless {_setupDecimals} is called. NOTE: This information is only used for _display_ purposes: it in no way affects any of the arithmetic of the contract, including {IERC20-balanceOf} and {IERC20-transfer}."
      },
      "decreaseAllowance(address,uint256)": {
        "details": "Atomically decreases the allowance granted to `spender` by the caller. This is an alternative to {approve} that can be used as a mitigation for problems described in {IERC20-approve}. Emits an {Approval} event indicating the updated allowance. Requirements: - `spender` cannot be the zero address. - `spender` must have allowance for the caller of at least `subtractedValue`."
      },
      "delegate(address)": {
        "params": {
          "delegatee": ""
        }
      },
      "delegateBySig(address,uint256,uint256,uint8,bytes32,bytes32)": {
        "params": {
          "delegatee": "",
          "expiry": "",
          "nonce": "nonce,",
          "r": "ECDSA",
          "s": "ECDSA",
          "v": ""
        }
      },
      "delegates(address)": {
        "params": {
          "delegator": ""
        }
      },
      "getCurrentVotes(address)": {
        "params": {
          "account": ""
        },
        "returns": {
          "_0": ""
        }
      },
      "getPriorVotes(address,uint256)": {
        "details": "Block number must be a finalized block or else this function will revert to prevent misinformation.",
        "params": {
          "account": "",
          "blockNumber": ""
        },
        "returns": {
          "_0": ""
        }
      },
      "increaseAllowance(address,uint256)": {
        "details": "Atomically increases the allowance granted to `spender` by the caller. This is an alternative to {approve} that can be used as a mitigation for problems described in {IERC20-approve}. Emits an {Approval} event indicating the updated allowance. Requirements: - `spender` cannot be the zero address."
      },
      "isAdmin(address)": {
        "details": "",
        "params": {
          "account": ""
        },
        "returns": {
          "_0": ""
        }
      },
      "name()": {
        "details": "Returns the name of the token."
      },
      "removeAdmin(address)": {
        "details": "",
        "params": {
          "account": ""
        }
      },
      "renounceAdmin()": {
        "details": ""
      },
      "symbol()": {
        "details": "Returns the symbol of the token, usually a shorter version of the name."
      },
      "totalSupply()": {
        "details": "See {IERC20-totalSupply}."
      },
      "transfer(address,uint256)": {
        "details": "See {IERC20-transfer}. Requirements: - `recipient` cannot be the zero address. - the caller must have a balance of at least `amount`."
      },
      "transferFrom(address,address,uint256)": {
        "details": "See {IERC20-transferFrom}. Emits an {Approval} event indicating the updated allowance. This is not required by the EIP. See the note at the beginning of {ERC20}; Requirements: - `sender` and `recipient` cannot be the zero address. - `sender` must have a balance of at least `amount`. - the caller must have allowance for ``sender``'s tokens of at least `amount`."
      }
    },
    "version": 1
  },
  "userdoc": {
    "events": {
      "DelegateChanged(address,address,address)": {
        "notice": "An event thats emitted when an account changes its delegate"
      },
      "DelegateVotesChanged(address,uint256,uint256)": {
        "notice": "An event thats emitted when a delegate account's vote balance changes"
      }
    },
    "kind": "user",
    "methods": {
      "DELEGATION_TYPEHASH()": {
        "notice": "EIP-712hashThe EIP-712 typehash for the delegation struct used by the contract"
      },
      "DOMAIN_TYPEHASH()": {
        "notice": "EIP-712hashThe EIP-712 typehash for the contract's domain"
      },
      "checkpoints(address,uint32)": {
        "notice": " =>=>A record of votes checkpoints for each account, by index"
      },
      "delegate(address)": {
        "notice": "Delegate votes from `msg.sender` to `delegatee`"
      },
      "delegateBySig(address,uint256,uint256,uint8,bytes32,bytes32)": {
        "notice": "delegateeDelegates votes from signatory to `delegatee`"
      },
      "delegates(address)": {
        "notice": "delegatorDelegate votes from `msg.sender` to `delegatee`"
      },
      "getCurrentVotes(address)": {
        "notice": "`account`Gets the current votes balance for `account`"
      },
      "getPriorVotes(address,uint256)": {
        "notice": "Determine the prior number of votes for an account as of a block number"
      },
      "nonces(address)": {
        "notice": "/A record of states for signing / validating signatures"
      },
      "numCheckpoints(address)": {
        "notice": ",=>The number of checkpoints for each account"
      }
    },
    "version": 1
  }
}