{
  "contractName": "GOTWrapper",
  "abi": [
    {
      "inputs": [],
      "name": "GOT",
      "outputs": [
        {
          "internalType": "contract IERC20",
          "name": "",
          "type": "address"
        }
      ],
      "stateMutability": "view",
      "type": "function"
    },
    {
      "inputs": [],
      "name": "totalSupply",
      "outputs": [
        {
          "internalType": "uint256",
          "name": "",
          "type": "uint256"
        }
      ],
      "stateMutability": "view",
      "type": "function"
    },
    {
      "inputs": [
        {
          "internalType": "address",
          "name": "account",
          "type": "address"
        }
      ],
      "name": "balanceOf",
      "outputs": [
        {
          "internalType": "uint256",
          "name": "",
          "type": "uint256"
        }
      ],
      "stateMutability": "view",
      "type": "function"
    },
    {
      "inputs": [
        {
          "internalType": "uint256",
          "name": "amount",
          "type": "uint256"
        }
      ],
      "name": "stake",
      "outputs": [],
      "stateMutability": "nonpayable",
      "type": "function"
    },
    {
      "inputs": [
        {
          "internalType": "uint256",
          "name": "amount",
          "type": "uint256"
        }
      ],
      "name": "withdraw",
      "outputs": [],
      "stateMutability": "nonpayable",
      "type": "function"
    }
  ],
  "bytecode": "0x608060405234801561001057600080fd5b506106df806100206000396000f3fe608060405234801561001057600080fd5b50600436106100575760003560e01c806318160ddd1461005c5780632e1a7d4d1461007657806370a0823114610095578063a694fc3a146100bb578063c4dd5cef146100d8575b600080fd5b6100646100fc565b60408051918252519081900360200190f35b6100936004803603602081101561008c57600080fd5b5035610102565b005b610064600480360360208110156100ab57600080fd5b50356001600160a01b031661019a565b610093600480360360208110156100d157600080fd5b50356101b5565b6100e061020e565b604080516001600160a01b039092168252519081900360200190f35b60015490565b33600090815260026020526040902054818110156101515760405162461bcd60e51b81526004018080602001828103825260368152602001806106746036913960400191505060405180910390fd5b60015461015e908361021d565b60015561016b818361021d565b336000818152600260205260408120929092559054610196916001600160a01b039091169084610266565b5050565b6001600160a01b031660009081526002602052604090205490565b6001546101c290826102bd565b600155336000908152600260205260409020546101df90826102bd565b33600081815260026020526040812092909255905461020b916001600160a01b03909116903084610317565b50565b6000546001600160a01b031681565b600061025f83836040518060400160405280601e81526020017f536166654d6174683a207375627472616374696f6e206f766572666c6f770000815250610377565b9392505050565b604080516001600160a01b038416602482015260448082018490528251808303909101815260649091019091526020810180516001600160e01b031663a9059cbb60e01b1790526102b890849061040e565b505050565b60008282018381101561025f576040805162461bcd60e51b815260206004820152601b60248201527f536166654d6174683a206164646974696f6e206f766572666c6f770000000000604482015290519081900360640190fd5b604080516001600160a01b0380861660248301528416604482015260648082018490528251808303909101815260849091019091526020810180516001600160e01b03166323b872dd60e01b17905261037190859061040e565b50505050565b600081848411156104065760405162461bcd60e51b81526004018080602001828103825283818151815260200191508051906020019080838360005b838110156103cb5781810151838201526020016103b3565b50505050905090810190601f1680156103f85780820380516001836020036101000a031916815260200191505b509250505060405180910390fd5b505050900390565b6060610463826040518060400160405280602081526020017f5361666545524332303a206c6f772d6c6576656c2063616c6c206661696c6564815250856001600160a01b03166104bf9092919063ffffffff16565b8051909150156102b85780806020019051602081101561048257600080fd5b50516102b85760405162461bcd60e51b815260040180806020018281038252602a81526020018061064a602a913960400191505060405180910390fd5b60606104ce84846000856104d6565b949350505050565b60606104e185610643565b610532576040805162461bcd60e51b815260206004820152601d60248201527f416464726573733a2063616c6c20746f206e6f6e2d636f6e7472616374000000604482015290519081900360640190fd5b60006060866001600160a01b031685876040518082805190602001908083835b602083106105715780518252601f199092019160209182019101610552565b6001836020036101000a03801982511681845116808217855250505050505090500191505060006040518083038185875af1925050503d80600081146105d3576040519150601f19603f3d011682016040523d82523d6000602084013e6105d8565b606091505b509150915081156105ec5791506104ce9050565b8051156105fc5780518082602001fd5b60405162461bcd60e51b81526020600482018181528651602484015286518793919283926044019190850190808383600083156103cb5781810151838201526020016103b3565b3b15159056fe5361666545524332303a204552433230206f7065726174696f6e20646964206e6f742073756363656564426f617264726f6f6d3a20776974686472617720726571756573742067726561746572207468616e207374616b656420616d6f756e74a264697066735822122094e45b0dd7f8db968c2da8296c12efb92571287efa10a976b347328b5c76d7c464736f6c634300060c0033",
  "immutableReferences": {},
  "source": "// SPDX-License-Identifier: MIT\npragma solidity ^0.6.0;\n\nimport '@openzeppelin/contracts/token/ERC20/IERC20.sol';\nimport '@openzeppelin/contracts/token/ERC20/SafeERC20.sol';\nimport '@openzeppelin/contracts/token/ERC20/SafeERC20.sol';\nimport './libraries/AdminRole.sol';\nimport './libraries/Safe112.sol';\nimport './libraries/ContractGuard.sol';\n\n/**\n * @title 股份质押合约\n */\ncontract GOTWrapper {\n    using SafeMath for uint256;\n    using SafeERC20 for IERC20;\n    /// @notice GoSwap Token合约地址\n    IERC20 public GOT;\n    /// @dev 质押总量\n    uint256 private _totalSupply;\n    /// @dev 余额映射\n    mapping(address => uint256) private _balances;\n\n    /**\n     * @dev 返回总量\n     * @return 总量\n     */\n    function totalSupply() public view returns (uint256) {\n        return _totalSupply;\n    }\n\n    /**\n     * @dev 返回账户余额\n     * @param account 账户地址\n     * @return 余额\n     */\n    function balanceOf(address account) public view returns (uint256) {\n        return _balances[account];\n    }\n\n    /**\n     * @dev 把GOT抵押到Boardroom\n     * @param amount 质押数量\n     */\n    function stake(uint256 amount) public virtual {\n        // 总量增加\n        _totalSupply = _totalSupply.add(amount);\n        // 余额映射增加\n        _balances[msg.sender] = _balances[msg.sender].add(amount);\n        // 将GOT发送到当前合约\n        GOT.safeTransferFrom(msg.sender, address(this), amount);\n    }\n\n    /**\n     * @dev 从Boardroom赎回GOT\n     * @param amount 赎回数量\n     */\n    function withdraw(uint256 amount) public virtual {\n        // 用户的总质押数量\n        uint256 directorShare = _balances[msg.sender];\n        // 确认总质押数量大于取款数额\n        require(directorShare >= amount, 'Boardroom: withdraw request greater than staked amount');\n        // 总量减少\n        _totalSupply = _totalSupply.sub(amount);\n        // 余额减少\n        _balances[msg.sender] = directorShare.sub(amount);\n        // 将GOT发送给用户\n        GOT.safeTransfer(msg.sender, amount);\n    }\n}\n\n/**\n * @title GoSwap Cash Boardroom合约\n * 实现功能：\n * 1.GOT抵押到Boardroom，从Boardroom赎回GOT\n * 2.每次Epoch时，Admin计算GOC增发的数量(计算公式在Treasury合约)，\n * 并把GOC奖励分配给把GOT抵押到Boardroom的董事\n * 注解：TimBear 20210107\n */\ncontract Boardroom is GOTWrapper, ContractGuard, AdminRole {\n    using SafeERC20 for IERC20;\n    using Address for address;\n    using SafeMath for uint256;\n    using Safe112 for uint112;\n\n    /* ========== DATA STRUCTURES ========== */\n\n    /// @notice 结构体：董事会席位\n    struct Boardseat {\n        uint256 lastSnapshotIndex; // 最后快照索引\n        uint256 rewardEarned; // 未领取的奖励数量\n    }\n\n    /// @notice 结构体：董事会快照\n    struct BoardSnapshot {\n        uint256 time; // 区块高度\n        uint256 rewardReceived; // 收到的奖励\n        uint256 rewardPerShare; // 每股奖励数量\n    }\n\n    /* ========== STATE VARIABLES ========== */\n    /// @dev GoSwap Cash合约地址\n    IERC20 private GOC;\n\n    /// @dev 映射：每个地址对应每个董事会席位，即一个地址对应一个董事(结构体)\n    mapping(address => Boardseat) private directors;\n    /// @dev 董事会快照数组\n    BoardSnapshot[] private boardHistory;\n\n    /* ========== CONSTRUCTOR ========== */\n\n    /**\n     * @dev 构造函数\n     * @param _GOC GoSwap Cash合约地址\n     * @param _GOT GoSwap Token合约地址\n     */\n    constructor(IERC20 _GOC, IERC20 _GOT) public {\n        GOC = _GOC;\n        GOT = _GOT;\n        // 创建董事会快照\n        BoardSnapshot memory genesisSnapshot =\n            BoardSnapshot({time: block.number, rewardReceived: 0, rewardPerShare: 0});\n        //董事会的创世快照推入数组\n        boardHistory.push(genesisSnapshot);\n    }\n\n    /* ========== Modifiers =============== */\n    /// @notice 修饰符：需要调用者在Boardroom的抵押数量大于0\n    modifier directorExists {\n        require(balanceOf(msg.sender) > 0, 'Boardroom: The director does not exist');\n        _;\n    }\n\n    /// @notice 修饰符：更新指定用户的奖励(GOC)\n    /// @param director 成员地址\n    modifier updateReward(address director) {\n        // 如果成员地址不是0地址\n        if (director != address(0)) {\n            // 根据成员地址实例化董事会席位\n            Boardseat memory seat = directors[director];\n            // 已获取奖励数量 = 计算董事可提取的总奖励\n            seat.rewardEarned = earned(director);\n            // 最后快照索引 = 董事会快照数组长度-1\n            seat.lastSnapshotIndex = latestSnapshotIndex();\n            // 重新赋值\n            directors[director] = seat;\n        }\n        _;\n    }\n\n    /* ========== VIEW FUNCTIONS ========== */\n\n    // =========== Snapshot getters\n    // 一些只读方法：获取快照信息\n    /**\n     * @dev 最后快照索引\n     * @return 索引值\n     */\n    function latestSnapshotIndex() public view returns (uint256) {\n        // 董事会数组长度-1\n        return boardHistory.length.sub(1);\n    }\n\n    /**\n     * @dev 董事会最后一次快照具体内容\n     * @return 董事会快照结构体\n     */\n    function getLatestSnapshot() internal view returns (BoardSnapshot memory) {\n        return boardHistory[latestSnapshotIndex()];\n    }\n\n    /**\n     * @dev 返回指定用户的董事会席位最后快照id\n     * @param 用户地址\n     * @return 最后快照id\n     */\n    function getLastSnapshotIndexOf(address director) public view returns (uint256) {\n        return directors[director].lastSnapshotIndex;\n    }\n\n    /**\n     * @dev 返回指定用户的董事会席位最后快照id对应的董事会内容\n     * @param 用户地址\n     * @return 董事会快照结构体\n     */\n    function getLastSnapshotOf(address director) internal view returns (BoardSnapshot memory) {\n        return boardHistory[getLastSnapshotIndexOf(director)];\n    }\n\n    // =========== Director getters\n\n    /**\n     * @dev 返回董事会最后一次快照具体内容中的每股奖励数量\n     * @return 每股奖励数量\n     */\n    function rewardPerShare() public view returns (uint256) {\n        return getLatestSnapshot().rewardPerShare;\n    }\n\n    /**\n     * @dev 计算董事可提取的总奖励(GOC)\n     * @param 用户地址\n     * @return GOC数量\n     */\n    function earned(address director) public view returns (uint256) {\n        // 返回董事会最后一次快照具体内容中的每股奖励数量\n        uint256 latestRPS = rewardPerShare();\n        // 返回指定用户的董事会席位最后快照id对应的董事会内容中的每股奖励数量\n        uint256 storedRPS = getLastSnapshotOf(director).rewardPerShare;\n\n        //      (最新快照中每GOT可获得的GOC数量\n        //    - 上次快照中每GOT可获得的GOC数量)\n        //    x 董事抵押的GOT个数\n        //    + 董事未提取的奖励\n        //---------------------------------\n        //      董事可提取的总奖励\n        return balanceOf(director).mul(latestRPS.sub(storedRPS)).div(1e18).add(directors[director].rewardEarned);\n    }\n\n    /* ========== MUTATIVE FUNCTIONS ========== */\n\n    /**\n     * @dev 把GOT抵押到Boardroom\n     * @param amount 质押数量\n     */\n    function stake(uint256 amount) public override onlyOneBlock updateReward(msg.sender) {\n        // 确认数量大于0\n        require(amount > 0, 'Boardroom: Cannot stake 0');\n        // 调用父级质押方法\n        super.stake(amount);\n        //触发抵押事件\n        emit Staked(msg.sender, amount);\n    }\n\n    /**\n     * @dev 从Boardroom赎回GOT\n     * @param amount 赎回数量\n     */\n    function withdraw(uint256 amount) public override onlyOneBlock directorExists updateReward(msg.sender) {\n        // 确认数量大于0\n        require(amount > 0, 'Boardroom: Cannot withdraw 0');\n        // 调用父级赎回方法\n        super.withdraw(amount);\n        //触发赎回事件\n        emit Withdraw(msg.sender, amount);\n    }\n\n    /**\n     * @dev 从Boardroom赎回GOT，并提取奖励\n     */\n    function exit() external {\n        // 调用赎回方法\n        withdraw(balanceOf(msg.sender));\n        // 调用获取奖励方法\n        claimReward();\n    }\n\n    /**\n     * @dev 从Boardroom收获奖励，奖励为GOC\n     * @notice 修改器中先更新了指定用户的奖励(GOC)\n     */\n    function claimReward() public updateReward(msg.sender) {\n        //更新董事的奖励后，获取奖励数量\n        uint256 reward = directors[msg.sender].rewardEarned;\n        // 如果数量大于0\n        if (reward > 0) {\n            //把未领取的奖励数量重设为0\n            directors[msg.sender].rewardEarned = 0;\n            // 将奖励发送给用户\n            GOC.safeTransfer(msg.sender, reward);\n            //触发完成奖励事件\n            emit RewardPaid(msg.sender, reward);\n        }\n    }\n\n    /**\n     * @dev 分配铸币，即分配每个GOT可以获取多少GOC，仅Admin有权限控制\n     * @param amount 分配数量\n     * @notice 每Epoch增发多少GOC只由Admin决定,具体计算公式在Treasury合约\n     */\n    function allocateSeigniorage(uint256 amount) external onlyOneBlock onlyAdmin {\n        // 确认分配数量大于0\n        require(amount > 0, 'Boardroom: Cannot allocate 0');\n        // 确认质押总量大于0\n        require(totalSupply() > 0, 'Boardroom: Cannot allocate when totalSupply is 0');\n\n        // 上一次每股奖励数量 = 董事会最后一次快照具体内容中的每股奖励数量\n        uint256 prevRPS = rewardPerShare();\n        // 下一次每股奖励数量 =  上一次每股奖励数量 + 分配数量 * 1e18 / 质押总量\n        uint256 nextRPS = prevRPS.add(amount.mul(1e18).div(totalSupply()));\n        //注意：每次快照记录的都为总量(累积量)，计算每Epoch新奖励的数量时要用增量(做减法)\n        // 实例化董事会快照\n        BoardSnapshot memory newSnapshot =\n            BoardSnapshot({\n                time: block.number, // 当前区块高度\n                rewardReceived: amount, // 收到的分配数量\n                rewardPerShare: nextRPS // 每股奖励数量\n            });\n        //更新快照推入数组\n        boardHistory.push(newSnapshot);\n\n        //把增发的GOC数量发送到本合约中，增发数量由Admin决定\n        GOC.safeTransferFrom(msg.sender, address(this), amount);\n        //触发GOC增发至董事会事件\n        emit RewardAdded(msg.sender, amount);\n    }\n\n    /**\n     * @dev 拯救其它资产\n     * @param _token Token地址\n     * @param _amount 数量\n     * @param _to 目标地址\n     * @notice 误转到合约的其它资产可以取出\n     */\n    function governanceRecoverUnsupported(\n        IERC20 _token,\n        uint256 _amount,\n        address _to\n    ) external onlyAdmin {\n        // do not allow to drain core tokens\n        require(address(_token) != address(GOC), 'GOC');\n        require(address(_token) != address(GOT), 'GOT');\n        _token.safeTransfer(_to, _amount);\n    }\n\n    /* ========== EVENTS ========== */\n    /**\n     * @dev 事件: 质押\n     * @param user 用户地址\n     * @param amount 质押数量\n     */\n    event Staked(address indexed user, uint256 amount);\n    /**\n     * @dev 事件: 赎回\n     * @param user 用户地址\n     * @param amount 赎回数量\n     */\n    event Withdraw(address indexed user, uint256 amount);\n    /**\n     * @dev 事件: 支付奖励\n     * @param user 用户地址\n     * @param reward 奖励数量\n     */\n    event RewardPaid(address indexed user, uint256 reward);\n    /**\n     * @dev 事件: 奖励增加\n     * @param user 用户地址\n     * @param reward 奖励数量\n     */\n    event RewardAdded(address indexed user, uint256 reward);\n}\n",
  "sourcePath": "/home/cui/Documents/goswap/goswap-core/contracts/Boardroom.sol",
  "compiler": {
    "name": "solc",
    "version": "0.6.12+commit.27d51765.Emscripten.clang"
  },
  "schemaVersion": "3.3.2",
  "updatedAt": "2021-01-18T03:20:28.220Z",
  "devdoc": {
    "kind": "dev",
    "methods": {
      "balanceOf(address)": {
        "details": "返回账户余额",
        "params": {
          "account": "账户地址"
        },
        "returns": {
          "_0": "余额"
        }
      },
      "stake(uint256)": {
        "details": "把GOT抵押到Boardroom",
        "params": {
          "amount": "质押数量"
        }
      },
      "totalSupply()": {
        "details": "返回总量",
        "returns": {
          "_0": "总量"
        }
      },
      "withdraw(uint256)": {
        "details": "从Boardroom赎回GOT",
        "params": {
          "amount": "赎回数量"
        }
      }
    },
    "stateVariables": {
      "_balances": {
        "details": "余额映射"
      },
      "_totalSupply": {
        "details": "质押总量"
      }
    },
    "title": "股份质押合约",
    "version": 1
  },
  "userdoc": {
    "kind": "user",
    "methods": {
      "GOT()": {
        "notice": "GoSwap Token合约地址"
      }
    },
    "version": 1
  }
}