{
  "contractName": "HUSDGOTLPTokenSharePool",
  "abi": [
    {
      "inputs": [
        {
          "internalType": "address",
          "name": "GOT_",
          "type": "address"
        },
        {
          "internalType": "address",
          "name": "lptoken_",
          "type": "address"
        },
        {
          "internalType": "uint256",
          "name": "starttime_",
          "type": "uint256"
        }
      ],
      "stateMutability": "nonpayable",
      "type": "constructor"
    },
    {
      "anonymous": false,
      "inputs": [
        {
          "indexed": true,
          "internalType": "address",
          "name": "previousOwner",
          "type": "address"
        },
        {
          "indexed": true,
          "internalType": "address",
          "name": "newOwner",
          "type": "address"
        }
      ],
      "name": "OwnershipTransferred",
      "type": "event"
    },
    {
      "anonymous": false,
      "inputs": [
        {
          "indexed": false,
          "internalType": "uint256",
          "name": "reward",
          "type": "uint256"
        }
      ],
      "name": "RewardAdded",
      "type": "event"
    },
    {
      "anonymous": false,
      "inputs": [
        {
          "indexed": true,
          "internalType": "address",
          "name": "user",
          "type": "address"
        },
        {
          "indexed": false,
          "internalType": "uint256",
          "name": "reward",
          "type": "uint256"
        }
      ],
      "name": "RewardPaid",
      "type": "event"
    },
    {
      "anonymous": false,
      "inputs": [
        {
          "indexed": true,
          "internalType": "address",
          "name": "user",
          "type": "address"
        },
        {
          "indexed": false,
          "internalType": "uint256",
          "name": "amount",
          "type": "uint256"
        }
      ],
      "name": "Staked",
      "type": "event"
    },
    {
      "anonymous": false,
      "inputs": [
        {
          "indexed": true,
          "internalType": "address",
          "name": "user",
          "type": "address"
        },
        {
          "indexed": false,
          "internalType": "uint256",
          "name": "amount",
          "type": "uint256"
        }
      ],
      "name": "Withdrawn",
      "type": "event"
    },
    {
      "inputs": [],
      "name": "DURATION",
      "outputs": [
        {
          "internalType": "uint256",
          "name": "",
          "type": "uint256"
        }
      ],
      "stateMutability": "view",
      "type": "function"
    },
    {
      "inputs": [],
      "name": "GOT",
      "outputs": [
        {
          "internalType": "contract IERC20",
          "name": "",
          "type": "address"
        }
      ],
      "stateMutability": "view",
      "type": "function"
    },
    {
      "inputs": [
        {
          "internalType": "address",
          "name": "account",
          "type": "address"
        }
      ],
      "name": "balanceOf",
      "outputs": [
        {
          "internalType": "uint256",
          "name": "",
          "type": "uint256"
        }
      ],
      "stateMutability": "view",
      "type": "function"
    },
    {
      "inputs": [],
      "name": "lastUpdateTime",
      "outputs": [
        {
          "internalType": "uint256",
          "name": "",
          "type": "uint256"
        }
      ],
      "stateMutability": "view",
      "type": "function"
    },
    {
      "inputs": [],
      "name": "lpt",
      "outputs": [
        {
          "internalType": "contract IERC20",
          "name": "",
          "type": "address"
        }
      ],
      "stateMutability": "view",
      "type": "function"
    },
    {
      "inputs": [],
      "name": "owner",
      "outputs": [
        {
          "internalType": "address",
          "name": "",
          "type": "address"
        }
      ],
      "stateMutability": "view",
      "type": "function"
    },
    {
      "inputs": [],
      "name": "periodFinish",
      "outputs": [
        {
          "internalType": "uint256",
          "name": "",
          "type": "uint256"
        }
      ],
      "stateMutability": "view",
      "type": "function"
    },
    {
      "inputs": [],
      "name": "renounceOwnership",
      "outputs": [],
      "stateMutability": "nonpayable",
      "type": "function"
    },
    {
      "inputs": [],
      "name": "rewardDistribution",
      "outputs": [
        {
          "internalType": "address",
          "name": "",
          "type": "address"
        }
      ],
      "stateMutability": "view",
      "type": "function"
    },
    {
      "inputs": [],
      "name": "rewardPerTokenStored",
      "outputs": [
        {
          "internalType": "uint256",
          "name": "",
          "type": "uint256"
        }
      ],
      "stateMutability": "view",
      "type": "function"
    },
    {
      "inputs": [],
      "name": "rewardRate",
      "outputs": [
        {
          "internalType": "uint256",
          "name": "",
          "type": "uint256"
        }
      ],
      "stateMutability": "view",
      "type": "function"
    },
    {
      "inputs": [
        {
          "internalType": "address",
          "name": "",
          "type": "address"
        }
      ],
      "name": "rewards",
      "outputs": [
        {
          "internalType": "uint256",
          "name": "",
          "type": "uint256"
        }
      ],
      "stateMutability": "view",
      "type": "function"
    },
    {
      "inputs": [
        {
          "internalType": "address",
          "name": "_rewardDistribution",
          "type": "address"
        }
      ],
      "name": "setRewardDistribution",
      "outputs": [],
      "stateMutability": "nonpayable",
      "type": "function"
    },
    {
      "inputs": [],
      "name": "starttime",
      "outputs": [
        {
          "internalType": "uint256",
          "name": "",
          "type": "uint256"
        }
      ],
      "stateMutability": "view",
      "type": "function"
    },
    {
      "inputs": [],
      "name": "totalSupply",
      "outputs": [
        {
          "internalType": "uint256",
          "name": "",
          "type": "uint256"
        }
      ],
      "stateMutability": "view",
      "type": "function"
    },
    {
      "inputs": [
        {
          "internalType": "address",
          "name": "newOwner",
          "type": "address"
        }
      ],
      "name": "transferOwnership",
      "outputs": [],
      "stateMutability": "nonpayable",
      "type": "function"
    },
    {
      "inputs": [
        {
          "internalType": "address",
          "name": "",
          "type": "address"
        }
      ],
      "name": "userRewardPerTokenPaid",
      "outputs": [
        {
          "internalType": "uint256",
          "name": "",
          "type": "uint256"
        }
      ],
      "stateMutability": "view",
      "type": "function"
    },
    {
      "inputs": [],
      "name": "lastTimeRewardApplicable",
      "outputs": [
        {
          "internalType": "uint256",
          "name": "",
          "type": "uint256"
        }
      ],
      "stateMutability": "view",
      "type": "function"
    },
    {
      "inputs": [],
      "name": "rewardPerToken",
      "outputs": [
        {
          "internalType": "uint256",
          "name": "",
          "type": "uint256"
        }
      ],
      "stateMutability": "view",
      "type": "function"
    },
    {
      "inputs": [
        {
          "internalType": "address",
          "name": "account",
          "type": "address"
        }
      ],
      "name": "earned",
      "outputs": [
        {
          "internalType": "uint256",
          "name": "",
          "type": "uint256"
        }
      ],
      "stateMutability": "view",
      "type": "function"
    },
    {
      "inputs": [
        {
          "internalType": "uint256",
          "name": "amount",
          "type": "uint256"
        }
      ],
      "name": "stake",
      "outputs": [],
      "stateMutability": "nonpayable",
      "type": "function"
    },
    {
      "inputs": [
        {
          "internalType": "uint256",
          "name": "amount",
          "type": "uint256"
        }
      ],
      "name": "withdraw",
      "outputs": [],
      "stateMutability": "nonpayable",
      "type": "function"
    },
    {
      "inputs": [],
      "name": "exit",
      "outputs": [],
      "stateMutability": "nonpayable",
      "type": "function"
    },
    {
      "inputs": [],
      "name": "getReward",
      "outputs": [],
      "stateMutability": "nonpayable",
      "type": "function"
    },
    {
      "inputs": [
        {
          "internalType": "uint256",
          "name": "reward",
          "type": "uint256"
        }
      ],
      "name": "notifyRewardAmount",
      "outputs": [],
      "stateMutability": "nonpayable",
      "type": "function"
    }
  ],
  "bytecode": "0x60806040526301e133806006556000600855600060095534801561002257600080fd5b506040516115193803806115198339818101604052606081101561004557600080fd5b508051602082015160409092015190919060006100606100e6565b600380546001600160a01b0319166001600160a01b038316908117909155604051919250906000907f8be0079c531659141344cd1fd0a4f28419497f9722a3daafe3b4186f6b6457e0908290a350600580546001600160a01b039485166001600160a01b03199182161790915560008054939094169216919091179091556007556100ea565b3390565b611420806100f96000396000f3fe608060405234801561001057600080fd5b50600436106101725760003560e01c806380faa57d116100de578063c8f33c9111610097578063df136d6511610071578063df136d6514610324578063e9fad8ee1461032c578063ebe2b12b14610334578063f2fde38b1461033c57610172565b8063c8f33c911461030c578063cd3daf9d14610314578063ce5fc8d01461031c57610172565b806380faa57d146102a95780638b876347146102b15780638da58897146102d75780638da5cb5b146102df578063a694fc3a146102e7578063c4dd5cef1461030457610172565b80632e1a7d4d116101305780632e1a7d4d146102315780633c6b16ab1461024e5780633d18b9121461026b57806370a0823114610273578063715018a6146102995780637b0a47ee146102a157610172565b80628cc262146101775780630700037d146101af5780630d68b761146101d5578063101114cf146101fd57806318160ddd146102215780631be0528914610229575b600080fd5b61019d6004803603602081101561018d57600080fd5b50356001600160a01b0316610362565b60408051918252519081900360200190f35b61019d600480360360208110156101c557600080fd5b50356001600160a01b03166103d0565b6101fb600480360360208110156101eb57600080fd5b50356001600160a01b03166103e2565b005b61020561046e565b604080516001600160a01b039092168252519081900360200190f35b61019d61047d565b61019d610484565b6101fb6004803603602081101561024757600080fd5b503561048a565b6101fb6004803603602081101561026457600080fd5b50356105be565b6101fb61078e565b61019d6004803603602081101561028957600080fd5b50356001600160a01b03166108b6565b6101fb6108d1565b61019d610985565b61019d61098b565b61019d600480360360208110156102c757600080fd5b50356001600160a01b031661099e565b61019d6109b0565b6102056109b6565b6101fb600480360360208110156102fd57600080fd5b50356109c5565b610205610af9565b61019d610b08565b61019d610b0e565b610205610b5c565b61019d610b6b565b6101fb610b71565b61019d610b8c565b6101fb6004803603602081101561035257600080fd5b50356001600160a01b0316610b92565b6001600160a01b0381166000908152600d6020908152604080832054600c9092528220546103ca91906103c490670de0b6b3a7640000906103be906103af906103a9610b0e565b90610c9d565b6103b8886108b6565b90610ce6565b90610d3f565b90610d81565b92915050565b600d6020526000908152604090205481565b6103ea610ddb565b6003546001600160a01b0390811691161461044c576040805162461bcd60e51b815260206004820181905260248201527f4f776e61626c653a2063616c6c6572206973206e6f7420746865206f776e6572604482015290519081900360640190fd5b600480546001600160a01b0319166001600160a01b0392909216919091179055565b6004546001600160a01b031681565b6001545b90565b60065481565b33610493610b0e565b600b5561049e61098b565b600a556001600160a01b038116156104e5576104b981610362565b6001600160a01b0382166000908152600d6020908152604080832093909355600b54600c909152919020555b60075442101561053c576040805162461bcd60e51b815260206004820152601b60248201527f4c50546f6b656e5368617265506f6f6c3a206e6f742073746172740000000000604482015290519081900360640190fd5b6000821161057b5760405162461bcd60e51b815260040180806020018281038252602a815260200180611396602a913960400191505060405180910390fd5b61058482610ddf565b60408051838152905133917f7084f5476618d8e60b11ef0d7d3f06914655adb8793e28ff7f018d4c76d505d5919081900360200190a25050565b6004546001600160a01b03166105d2610ddb565b6001600160a01b0316146106175760405162461bcd60e51b815260040180806020018281038252602181526020018061134b6021913960400191505060405180910390fd5b6000610621610b0e565b600b5561062c61098b565b600a556001600160a01b038116156106735761064781610362565b6001600160a01b0382166000908152600d6020908152604080832093909355600b54600c909152919020555b60075442111561072d57600854421061069c57600654610694908390610d3f565b6009556106df565b6008546000906106ac9042610c9d565b905060006106c560095483610ce690919063ffffffff16565b6006549091506106d9906103be8684610d81565b60095550505b42600a8190556006546106f29190610d81565b6008556040805183815290517fde88a922e0d3b88b24e9623efeb464919c6bf9f66857a65e2bfcf2ce87a9433d9181900360200190a161078a565b60065461073b908390610d3f565b600955600754600a8190556006546107539190610d81565b6008556040805183815290517fde88a922e0d3b88b24e9623efeb464919c6bf9f66857a65e2bfcf2ce87a9433d9181900360200190a15b5050565b33610797610b0e565b600b556107a261098b565b600a556001600160a01b038116156107e9576107bd81610362565b6001600160a01b0382166000908152600d6020908152604080832093909355600b54600c909152919020555b600754421015610840576040805162461bcd60e51b815260206004820152601b60248201527f4c50546f6b656e5368617265506f6f6c3a206e6f742073746172740000000000604482015290519081900360640190fd5b600061084b33610362565b9050801561078a57336000818152600d602052604081205560055461087c916001600160a01b039091169083610e7f565b60408051828152905133917fe2403640ba68fed3a2f88b7557551d1993f84b99bb10ff833f0cf8db0c5e0486919081900360200190a25050565b6001600160a01b031660009081526002602052604090205490565b6108d9610ddb565b6003546001600160a01b0390811691161461093b576040805162461bcd60e51b815260206004820181905260248201527f4f776e61626c653a2063616c6c6572206973206e6f7420746865206f776e6572604482015290519081900360640190fd5b6003546040516000916001600160a01b0316907f8be0079c531659141344cd1fd0a4f28419497f9722a3daafe3b4186f6b6457e0908390a3600380546001600160a01b0319169055565b60095481565b600061099942600854610ed6565b905090565b600c6020526000908152604090205481565b60075481565b6003546001600160a01b031690565b336109ce610b0e565b600b556109d961098b565b600a556001600160a01b03811615610a20576109f481610362565b6001600160a01b0382166000908152600d6020908152604080832093909355600b54600c909152919020555b600754421015610a77576040805162461bcd60e51b815260206004820152601b60248201527f4c50546f6b656e5368617265506f6f6c3a206e6f742073746172740000000000604482015290519081900360640190fd5b60008211610ab65760405162461bcd60e51b81526004018080602001828103825260278152602001806113246027913960400191505060405180910390fd5b610abf82610eec565b60408051838152905133917f9e71bc8eea02a63969f509818f2dafb9254532904319f9dbda79b67bd34a5f3d919081900360200190a25050565b6005546001600160a01b031681565b600a5481565b6000610b1861047d565b610b255750600b54610481565b610999610b53610b3361047d565b6103be670de0b6b3a76400006103b86009546103b8600a546103a961098b565b600b5490610d81565b6000546001600160a01b031681565b600b5481565b610b82610b7d336108b6565b61048a565b610b8a61078e565b565b60085481565b610b9a610ddb565b6003546001600160a01b03908116911614610bfc576040805162461bcd60e51b815260206004820181905260248201527f4f776e61626c653a2063616c6c6572206973206e6f7420746865206f776e6572604482015290519081900360640190fd5b6001600160a01b038116610c415760405162461bcd60e51b81526004018080602001828103825260268152602001806112dd6026913960400191505060405180910390fd5b6003546040516001600160a01b038084169216907f8be0079c531659141344cd1fd0a4f28419497f9722a3daafe3b4186f6b6457e090600090a3600380546001600160a01b0319166001600160a01b0392909216919091179055565b6000610cdf83836040518060400160405280601e81526020017f536166654d6174683a207375627472616374696f6e206f766572666c6f770000815250610f45565b9392505050565b600082610cf5575060006103ca565b82820282848281610d0257fe5b0414610cdf5760405162461bcd60e51b81526004018080602001828103825260218152602001806113036021913960400191505060405180910390fd5b6000610cdf83836040518060400160405280601a81526020017f536166654d6174683a206469766973696f6e206279207a65726f000000000000815250610fdc565b600082820183811015610cdf576040805162461bcd60e51b815260206004820152601b60248201527f536166654d6174683a206164646974696f6e206f766572666c6f770000000000604482015290519081900360640190fd5b3390565b3360009081526002602052604090205481811015610e2e5760405162461bcd60e51b815260040180806020018281038252602b8152602001806113c0602b913960400191505060405180910390fd5b600154610e3b9083610c9d565b60015533600090815260026020526040902054610e589083610c9d565b33600081815260026020526040812092909255905461078a916001600160a01b0390911690845b604080516001600160a01b038416602482015260448082018490528251808303909101815260649091019091526020810180516001600160e01b031663a9059cbb60e01b179052610ed1908490611041565b505050565b6000818310610ee55781610cdf565b5090919050565b600154610ef99082610d81565b60015533600090815260026020526040902054610f169082610d81565b336000818152600260205260408120929092559054610f42916001600160a01b039091169030846110f2565b50565b60008184841115610fd45760405162461bcd60e51b81526004018080602001828103825283818151815260200191508051906020019080838360005b83811015610f99578181015183820152602001610f81565b50505050905090810190601f168015610fc65780820380516001836020036101000a031916815260200191505b509250505060405180910390fd5b505050900390565b6000818361102b5760405162461bcd60e51b8152602060048201818152835160248401528351909283926044909101919085019080838360008315610f99578181015183820152602001610f81565b50600083858161103757fe5b0495945050505050565b6060611096826040518060400160405280602081526020017f5361666545524332303a206c6f772d6c6576656c2063616c6c206661696c6564815250856001600160a01b03166111529092919063ffffffff16565b805190915015610ed1578080602001905160208110156110b557600080fd5b5051610ed15760405162461bcd60e51b815260040180806020018281038252602a81526020018061136c602a913960400191505060405180910390fd5b604080516001600160a01b0380861660248301528416604482015260648082018490528251808303909101815260849091019091526020810180516001600160e01b03166323b872dd60e01b17905261114c908590611041565b50505050565b60606111618484600085611169565b949350505050565b6060611174856112d6565b6111c5576040805162461bcd60e51b815260206004820152601d60248201527f416464726573733a2063616c6c20746f206e6f6e2d636f6e7472616374000000604482015290519081900360640190fd5b60006060866001600160a01b031685876040518082805190602001908083835b602083106112045780518252601f1990920191602091820191016111e5565b6001836020036101000a03801982511681845116808217855250505050505090500191505060006040518083038185875af1925050503d8060008114611266576040519150601f19603f3d011682016040523d82523d6000602084013e61126b565b606091505b5091509150811561127f5791506111619050565b80511561128f5780518082602001fd5b60405162461bcd60e51b8152602060048201818152865160248401528651879391928392604401919085019080838360008315610f99578181015183820152602001610f81565b3b15159056fe4f776e61626c653a206e6577206f776e657220697320746865207a65726f2061646472657373536166654d6174683a206d756c7469706c69636174696f6e206f766572666c6f7748555344474f434c50546f6b656e5368617265506f6f6c3a2043616e6e6f74207374616b65203043616c6c6572206973206e6f742072657761726420646973747269627574696f6e5361666545524332303a204552433230206f7065726174696f6e20646964206e6f74207375636365656448555344474f434c50546f6b656e5368617265506f6f6c3a2043616e6e6f742077697468647261772030776974686472617720726571756573742067726561746572207468616e207374616b656420616d6f756e74a26469706673582212202af3a1ec0db504ae752c60527d0204c0c6d053250a8a3715805167d0b6f76b6364736f6c634300060c0033",
  "immutableReferences": {},
  "source": "// SPDX-License-Identifier: MIT\npragma solidity ^0.6.0;\n/**\n *Submitted for verification at Etherscan.io on 2020-07-17\n */\n\n/*\n   ____            __   __        __   _\n  / __/__ __ ___  / /_ / /  ___  / /_ (_)__ __\n _\\ \\ / // // _ \\/ __// _ \\/ -_)/ __// / \\ \\ /\n/___/ \\_, //_//_/\\__//_//_/\\__/ \\__//_/ /_\\_\\\n     /___/\n\n* Synthetix: BASISCASHRewards.sol\n*\n* Docs: https://docs.synthetix.io/\n*\n*\n* MIT License\n* ===========\n*\n* Copyright (c) 2020 Synthetix\n*\n* Permission is hereby granted, free of charge, to any person obtaining a copy\n* of this software and associated documentation files (the \"Software\"), to deal\n* in the Software without restriction, including without limitation the rights\n* to use, copy, modify, merge, publish, distribute, sublicense, and/or sell\n* copies of the Software, and to permit persons to whom the Software is\n* furnished to do so, subject to the following conditions:\n*\n* The above copyright notice and this permission notice shall be included in all\n* copies or substantial portions of the Software.\n*\n* THE SOFTWARE IS PROVIDED \"AS IS\", WITHOUT WARRANTY OF ANY KIND, EXPRESS OR\n* IMPLIED, INCLUDING BUT NOT LIMITED TO THE WARRANTIES OF MERCHANTABILITY,\n* FITNESS FOR A PARTICULAR PURPOSE AND NONINFRINGEMENT. IN NO EVENT SHALL THE\n* AUTHORS OR COPYRIGHT HOLDERS BE LIABLE FOR ANY CLAIM, DAMAGES OR OTHER\n* LIABILITY, WHETHER IN AN ACTION OF CONTRACT, TORT OR OTHERWISE, ARISING FROM,\n* OUT OF OR IN CONNECTION WITH THE SOFTWARE OR THE USE OR OTHER DEALINGS IN THE\n*/\n\n// File: @openzeppelin/contracts/math/Math.sol\n\nimport '@openzeppelin/contracts/math/Math.sol';\n\n// File: @openzeppelin/contracts/math/SafeMath.sol\n\nimport '@openzeppelin/contracts/math/SafeMath.sol';\n\n// File: @openzeppelin/contracts/token/ERC20/IERC20.sol\n\nimport '@openzeppelin/contracts/token/ERC20/IERC20.sol';\n\n// File: @openzeppelin/contracts/utils/Address.sol\n\nimport '@openzeppelin/contracts/utils/Address.sol';\n\n// File: @openzeppelin/contracts/token/ERC20/SafeERC20.sol\n\nimport '@openzeppelin/contracts/token/ERC20/SafeERC20.sol';\n\n// File: contracts/IRewardDistributionRecipient.sol\n\nimport '../interfaces/IRewardDistributionRecipient.sol';\n\nimport './LPTokenWrapper.sol';\n\n/**\n* @title HUSD-GOTLP Token\n* @notice 365\n */\ncontract HUSDGOTLPTokenSharePool is LPTokenWrapper, IRewardDistributionRecipient {\n    IERC20 public GOT;\n    /// @notice  = 365\n    uint256 public DURATION = 365 days;\n    /// @notice \n    uint256 public starttime; // starttime TBD\n    /// @notice \n    uint256 public periodFinish = 0;\n    /// @notice \n    uint256 public rewardRate = 0;\n    /// @notice \n    uint256 public lastUpdateTime;\n    /// @notice \n    uint256 public rewardPerTokenStored;\n    /// @notice Token\n    mapping(address => uint256) public userRewardPerTokenPaid;\n    /// @notice \n    mapping(address => uint256) public rewards;\n\n    event RewardAdded(uint256 reward);\n    event Staked(address indexed user, uint256 amount);\n    event Withdrawn(address indexed user, uint256 amount);\n    event RewardPaid(address indexed user, uint256 reward);\n\n    /**\n     * @dev \n     * @param GOT_ GOT\n     * @param lptoken_ LPtoken\n     * @param starttime_ \n     */\n    constructor(\n        address GOT_,\n        address lptoken_,\n        uint256 starttime_\n    ) public {\n        GOT = IERC20(GOT_);\n        lpt = IERC20(lptoken_);\n        starttime = starttime_;\n    }\n\n    /**\n     * @dev \n     */\n    modifier checkStart() {\n        require(block.timestamp >= starttime, 'LPTokenSharePool: not start');\n        _;\n    }\n\n    /**\n     * @dev \n     * @param account \n     */\n    modifier updateReward(address account) {\n        //  = Token\n        rewardPerTokenStored = rewardPerToken();\n        //  = min(,)\n        lastUpdateTime = lastTimeRewardApplicable();\n        // !=0\n        if (account != address(0)) {\n            //  = \n            rewards[account] = earned(account);\n            // Token = \n            userRewardPerTokenPaid[account] = rewardPerTokenStored;\n        }\n        _;\n    }\n\n    /**\n     * @dev \n     * @return \n     * @notice ,\n     */\n    function lastTimeRewardApplicable() public view returns (uint256) {\n        // (,)\n        return Math.min(block.timestamp, periodFinish);\n    }\n\n    /**\n     * @dev Token\n     * @return \n     */\n    function rewardPerToken() public view returns (uint256) {\n        // 0\n        if (totalSupply() == 0) {\n            return rewardPerTokenStored;\n        }\n        //  + (min(,) - ) *  * 1e18 / \n        return\n            rewardPerTokenStored.add(\n                lastTimeRewardApplicable().sub(lastUpdateTime).mul(rewardRate).mul(1e18).div(totalSupply())\n            );\n    }\n\n    /**\n    * @dev \n    * @param account \n     */\n    function earned(address account) public view returns (uint256) {\n        //  * (Token - Token) / 1e18 + \n        return\n            balanceOf(account).mul(rewardPerToken().sub(userRewardPerTokenPaid[account])).div(1e18).add(\n                rewards[account]\n            );\n    }\n\n    /**\n    * @dev token\n    * @param amount \n     */\n    // stake visibility is public as overriding LPTokenWrapper's stake() function\n    function stake(uint256 amount) public override updateReward(msg.sender) checkStart {\n        // >0\n        require(amount > 0, 'HUSDGOCLPTokenSharePool: Cannot stake 0');\n        // \n        super.stake(amount);\n        // \n        emit Staked(msg.sender, amount);\n    }\n\n    /**\n    * @dev token\n    * @param amount \n     */\n    function withdraw(uint256 amount) public override updateReward(msg.sender) checkStart {\n        // >0\n        require(amount > 0, 'HUSDGOCLPTokenSharePool: Cannot withdraw 0');\n        // \n        super.withdraw(amount);\n        // \n        emit Withdrawn(msg.sender, amount);\n    }\n\n    /**\n    * @dev \n     */\n    function exit() external {\n        // \n        withdraw(balanceOf(msg.sender));\n        // \n        getReward();\n    }\n\n    /**\n    * @dev \n     */\n    function getReward() public updateReward(msg.sender) checkStart {\n        //  = \n        uint256 reward = earned(msg.sender);\n        // >0\n        if (reward > 0) {\n            //  = 0\n            rewards[msg.sender] = 0;\n            // \n            GOT.safeTransfer(msg.sender, reward);\n            // \n            emit RewardPaid(msg.sender, reward);\n        }\n    }\n\n    /**\n    * @dev \n    * @param reward \n     */\n    function notifyRewardAmount(uint256 reward) external override onlyRewardDistribution updateReward(address(0)) {\n        // >\n        if (block.timestamp > starttime) {\n            //  >= \n            if (block.timestamp >= periodFinish) {\n                //  =  / 365\n                rewardRate = reward.div(DURATION);\n            } else {\n                //  =  - \n                uint256 remaining = periodFinish.sub(block.timestamp);\n                //  =  *  (0)\n                uint256 leftover = remaining.mul(rewardRate);\n                //  = ( + ) / 365 \n                rewardRate = reward.add(leftover).div(DURATION);\n            }\n            // = \n            lastUpdateTime = block.timestamp;\n            //  =  + 365\n            periodFinish = block.timestamp.add(DURATION);\n            // \n            emit RewardAdded(reward);\n        } else {\n            //  =  / 365\n            rewardRate = reward.div(DURATION);\n            //  = \n            lastUpdateTime = starttime;\n            //  =  + 365\n            periodFinish = starttime.add(DURATION);\n            // \n            emit RewardAdded(reward);\n        }\n    }\n}\n",
  "sourcePath": "/home/cui/Documents/goswap/goswap-core/contracts/distribution/HUSDGOTLPTokenSharePool.sol",
  "compiler": {
    "name": "solc",
    "version": "0.6.12+commit.27d51765.Emscripten.clang"
  },
  "schemaVersion": "3.3.2",
  "updatedAt": "2021-01-18T03:20:28.680Z",
  "devdoc": {
    "kind": "dev",
    "methods": {
      "balanceOf(address)": {
        "details": "",
        "params": {
          "account": ""
        },
        "returns": {
          "_0": ""
        }
      },
      "constructor": {
        "details": "",
        "params": {
          "GOT_": "GOT",
          "lptoken_": "LPtoken",
          "starttime_": ""
        }
      },
      "earned(address)": {
        "details": "",
        "params": {
          "account": ""
        }
      },
      "exit()": {
        "details": ""
      },
      "getReward()": {
        "details": ""
      },
      "lastTimeRewardApplicable()": {
        "details": "",
        "returns": {
          "_0": ""
        }
      },
      "notifyRewardAmount(uint256)": {
        "details": "",
        "params": {
          "reward": ""
        }
      },
      "owner()": {
        "details": "Returns the address of the current owner."
      },
      "renounceOwnership()": {
        "details": "Leaves the contract without owner. It will not be possible to call `onlyOwner` functions anymore. Can only be called by the current owner. NOTE: Renouncing ownership will leave the contract without an owner, thereby removing any functionality that is only available to the owner."
      },
      "rewardPerToken()": {
        "details": "Token",
        "returns": {
          "_0": ""
        }
      },
      "stake(uint256)": {
        "details": "token",
        "params": {
          "amount": ""
        }
      },
      "totalSupply()": {
        "details": "",
        "returns": {
          "_0": ""
        }
      },
      "transferOwnership(address)": {
        "details": "Transfers ownership of the contract to a new account (`newOwner`). Can only be called by the current owner."
      },
      "withdraw(uint256)": {
        "details": "token",
        "params": {
          "amount": ""
        }
      }
    },
    "title": "HUSD-GOTLP Token",
    "version": 1
  },
  "userdoc": {
    "kind": "user",
    "methods": {
      "DURATION()": {
        "notice": " = 365"
      },
      "lastTimeRewardApplicable()": {
        "notice": ","
      },
      "lastUpdateTime()": {
        "notice": ""
      },
      "lpt()": {
        "notice": "GoSwap LP Token"
      },
      "periodFinish()": {
        "notice": ""
      },
      "rewardPerTokenStored()": {
        "notice": ""
      },
      "rewardRate()": {
        "notice": ""
      },
      "rewards(address)": {
        "notice": ""
      },
      "starttime()": {
        "notice": ""
      },
      "userRewardPerTokenPaid(address)": {
        "notice": "Token"
      }
    },
    "notice": "365",
    "version": 1
  }
}