{
  "contractName": "HUSDGOCLPTokenSharePool",
  "abi": [
    {
      "inputs": [
        {
          "internalType": "address",
          "name": "GOT_",
          "type": "address"
        },
        {
          "internalType": "address",
          "name": "lptoken_",
          "type": "address"
        },
        {
          "internalType": "uint256",
          "name": "starttime_",
          "type": "uint256"
        }
      ],
      "stateMutability": "nonpayable",
      "type": "constructor"
    },
    {
      "anonymous": false,
      "inputs": [
        {
          "indexed": true,
          "internalType": "address",
          "name": "previousOwner",
          "type": "address"
        },
        {
          "indexed": true,
          "internalType": "address",
          "name": "newOwner",
          "type": "address"
        }
      ],
      "name": "OwnershipTransferred",
      "type": "event"
    },
    {
      "anonymous": false,
      "inputs": [
        {
          "indexed": false,
          "internalType": "uint256",
          "name": "reward",
          "type": "uint256"
        }
      ],
      "name": "RewardAdded",
      "type": "event"
    },
    {
      "anonymous": false,
      "inputs": [
        {
          "indexed": true,
          "internalType": "address",
          "name": "user",
          "type": "address"
        },
        {
          "indexed": false,
          "internalType": "uint256",
          "name": "reward",
          "type": "uint256"
        }
      ],
      "name": "RewardPaid",
      "type": "event"
    },
    {
      "anonymous": false,
      "inputs": [
        {
          "indexed": true,
          "internalType": "address",
          "name": "user",
          "type": "address"
        },
        {
          "indexed": false,
          "internalType": "uint256",
          "name": "amount",
          "type": "uint256"
        }
      ],
      "name": "Staked",
      "type": "event"
    },
    {
      "anonymous": false,
      "inputs": [
        {
          "indexed": true,
          "internalType": "address",
          "name": "user",
          "type": "address"
        },
        {
          "indexed": false,
          "internalType": "uint256",
          "name": "amount",
          "type": "uint256"
        }
      ],
      "name": "Withdrawn",
      "type": "event"
    },
    {
      "inputs": [],
      "name": "DURATION",
      "outputs": [
        {
          "internalType": "uint256",
          "name": "",
          "type": "uint256"
        }
      ],
      "stateMutability": "view",
      "type": "function"
    },
    {
      "inputs": [],
      "name": "GOT",
      "outputs": [
        {
          "internalType": "contract IERC20",
          "name": "",
          "type": "address"
        }
      ],
      "stateMutability": "view",
      "type": "function"
    },
    {
      "inputs": [
        {
          "internalType": "address",
          "name": "account",
          "type": "address"
        }
      ],
      "name": "balanceOf",
      "outputs": [
        {
          "internalType": "uint256",
          "name": "",
          "type": "uint256"
        }
      ],
      "stateMutability": "view",
      "type": "function"
    },
    {
      "inputs": [],
      "name": "initreward",
      "outputs": [
        {
          "internalType": "uint256",
          "name": "",
          "type": "uint256"
        }
      ],
      "stateMutability": "view",
      "type": "function"
    },
    {
      "inputs": [],
      "name": "lastUpdateTime",
      "outputs": [
        {
          "internalType": "uint256",
          "name": "",
          "type": "uint256"
        }
      ],
      "stateMutability": "view",
      "type": "function"
    },
    {
      "inputs": [],
      "name": "lpt",
      "outputs": [
        {
          "internalType": "contract IERC20",
          "name": "",
          "type": "address"
        }
      ],
      "stateMutability": "view",
      "type": "function"
    },
    {
      "inputs": [],
      "name": "owner",
      "outputs": [
        {
          "internalType": "address",
          "name": "",
          "type": "address"
        }
      ],
      "stateMutability": "view",
      "type": "function"
    },
    {
      "inputs": [],
      "name": "periodFinish",
      "outputs": [
        {
          "internalType": "uint256",
          "name": "",
          "type": "uint256"
        }
      ],
      "stateMutability": "view",
      "type": "function"
    },
    {
      "inputs": [],
      "name": "renounceOwnership",
      "outputs": [],
      "stateMutability": "nonpayable",
      "type": "function"
    },
    {
      "inputs": [],
      "name": "rewardDistribution",
      "outputs": [
        {
          "internalType": "address",
          "name": "",
          "type": "address"
        }
      ],
      "stateMutability": "view",
      "type": "function"
    },
    {
      "inputs": [],
      "name": "rewardPerTokenStored",
      "outputs": [
        {
          "internalType": "uint256",
          "name": "",
          "type": "uint256"
        }
      ],
      "stateMutability": "view",
      "type": "function"
    },
    {
      "inputs": [],
      "name": "rewardRate",
      "outputs": [
        {
          "internalType": "uint256",
          "name": "",
          "type": "uint256"
        }
      ],
      "stateMutability": "view",
      "type": "function"
    },
    {
      "inputs": [
        {
          "internalType": "address",
          "name": "",
          "type": "address"
        }
      ],
      "name": "rewards",
      "outputs": [
        {
          "internalType": "uint256",
          "name": "",
          "type": "uint256"
        }
      ],
      "stateMutability": "view",
      "type": "function"
    },
    {
      "inputs": [
        {
          "internalType": "address",
          "name": "_rewardDistribution",
          "type": "address"
        }
      ],
      "name": "setRewardDistribution",
      "outputs": [],
      "stateMutability": "nonpayable",
      "type": "function"
    },
    {
      "inputs": [],
      "name": "starttime",
      "outputs": [
        {
          "internalType": "uint256",
          "name": "",
          "type": "uint256"
        }
      ],
      "stateMutability": "view",
      "type": "function"
    },
    {
      "inputs": [],
      "name": "totalSupply",
      "outputs": [
        {
          "internalType": "uint256",
          "name": "",
          "type": "uint256"
        }
      ],
      "stateMutability": "view",
      "type": "function"
    },
    {
      "inputs": [
        {
          "internalType": "address",
          "name": "newOwner",
          "type": "address"
        }
      ],
      "name": "transferOwnership",
      "outputs": [],
      "stateMutability": "nonpayable",
      "type": "function"
    },
    {
      "inputs": [
        {
          "internalType": "address",
          "name": "",
          "type": "address"
        }
      ],
      "name": "userRewardPerTokenPaid",
      "outputs": [
        {
          "internalType": "uint256",
          "name": "",
          "type": "uint256"
        }
      ],
      "stateMutability": "view",
      "type": "function"
    },
    {
      "inputs": [],
      "name": "lastTimeRewardApplicable",
      "outputs": [
        {
          "internalType": "uint256",
          "name": "",
          "type": "uint256"
        }
      ],
      "stateMutability": "view",
      "type": "function"
    },
    {
      "inputs": [],
      "name": "rewardPerToken",
      "outputs": [
        {
          "internalType": "uint256",
          "name": "",
          "type": "uint256"
        }
      ],
      "stateMutability": "view",
      "type": "function"
    },
    {
      "inputs": [
        {
          "internalType": "address",
          "name": "account",
          "type": "address"
        }
      ],
      "name": "earned",
      "outputs": [
        {
          "internalType": "uint256",
          "name": "",
          "type": "uint256"
        }
      ],
      "stateMutability": "view",
      "type": "function"
    },
    {
      "inputs": [
        {
          "internalType": "uint256",
          "name": "amount",
          "type": "uint256"
        }
      ],
      "name": "stake",
      "outputs": [],
      "stateMutability": "nonpayable",
      "type": "function"
    },
    {
      "inputs": [
        {
          "internalType": "uint256",
          "name": "amount",
          "type": "uint256"
        }
      ],
      "name": "withdraw",
      "outputs": [],
      "stateMutability": "nonpayable",
      "type": "function"
    },
    {
      "inputs": [],
      "name": "exit",
      "outputs": [],
      "stateMutability": "nonpayable",
      "type": "function"
    },
    {
      "inputs": [],
      "name": "getReward",
      "outputs": [],
      "stateMutability": "nonpayable",
      "type": "function"
    },
    {
      "inputs": [
        {
          "internalType": "uint256",
          "name": "reward",
          "type": "uint256"
        }
      ],
      "name": "notifyRewardAmount",
      "outputs": [],
      "stateMutability": "nonpayable",
      "type": "function"
    }
  ],
  "bytecode": "0x608060405262278d0060065569152d02c7e14af680000060075560006009556000600a5534801561002f57600080fd5b506040516116963803806116968339818101604052606081101561005257600080fd5b5080516020820151604090920151909190600061006d6100f3565b600380546001600160a01b0319166001600160a01b038316908117909155604051919250906000907f8be0079c531659141344cd1fd0a4f28419497f9722a3daafe3b4186f6b6457e0908290a350600580546001600160a01b039485166001600160a01b03199182161790915560008054939094169216919091179091556008556100f7565b3390565b611590806101066000396000f3fe608060405234801561001057600080fd5b506004361061018d5760003560e01c80638b876347116100de578063c8f33c9111610097578063df136d6511610071578063df136d6514610347578063e9fad8ee1461034f578063ebe2b12b14610357578063f2fde38b1461035f5761018d565b8063c8f33c911461032f578063cd3daf9d14610337578063ce5fc8d01461033f5761018d565b80638b876347146102cc5780638da58897146102f25780638da5cb5b146102fa5780639c907b5814610302578063a694fc3a1461030a578063c4dd5cef146103275761018d565b80632e1a7d4d1161014b57806370a082311161012557806370a082311461028e578063715018a6146102b45780637b0a47ee146102bc57806380faa57d146102c45761018d565b80632e1a7d4d1461024c5780633c6b16ab146102695780633d18b912146102865761018d565b80628cc262146101925780630700037d146101ca5780630d68b761146101f0578063101114cf1461021857806318160ddd1461023c5780631be0528914610244575b600080fd5b6101b8600480360360208110156101a857600080fd5b50356001600160a01b0316610385565b60408051918252519081900360200190f35b6101b8600480360360208110156101e057600080fd5b50356001600160a01b03166103f3565b6102166004803603602081101561020657600080fd5b50356001600160a01b0316610405565b005b610220610491565b604080516001600160a01b039092168252519081900360200190f35b6101b86104a0565b6101b86104a7565b6102166004803603602081101561026257600080fd5b50356104ad565b6102166004803603602081101561027f57600080fd5b503561064f565b6102166107fc565b6101b8600480360360208110156102a457600080fd5b50356001600160a01b0316610992565b6102166109ad565b6101b8610a61565b6101b8610a67565b6101b8600480360360208110156102e257600080fd5b50356001600160a01b0316610a7a565b6101b8610a8c565b610220610a92565b6101b8610aa1565b6102166004803603602081101561032057600080fd5b5035610aa7565b610220610c49565b6101b8610c58565b6101b8610c5e565b610220610cac565b6101b8610cbb565b610216610cc1565b6101b8610cdc565b6102166004803603602081101561037557600080fd5b50356001600160a01b0316610ce2565b6001600160a01b0381166000908152600e6020908152604080832054600d9092528220546103ed91906103e790670de0b6b3a7640000906103e1906103d2906103cc610c5e565b90610ded565b6103db88610992565b90610e36565b90610e8f565b90610ed1565b92915050565b600e6020526000908152604090205481565b61040d610f2b565b6003546001600160a01b0390811691161461046f576040805162461bcd60e51b815260206004820181905260248201527f4f776e61626c653a2063616c6c6572206973206e6f7420746865206f776e6572604482015290519081900360640190fd5b600480546001600160a01b0319166001600160a01b0392909216919091179055565b6004546001600160a01b031681565b6001545b90565b60065481565b336104b6610c5e565b600c556104c1610a67565b600b556001600160a01b03811615610508576104dc81610385565b6001600160a01b0382166000908152600e6020908152604080832093909355600c54600d909152919020555b60095442106105765761052c60646103e1604b600754610e3690919063ffffffff16565b600781905560065461053e9190610e8f565b600a5560065461054f904290610ed1565b60095560075460408051918252516000805160206114538339815191529181900360200190a15b6008544210156105cd576040805162461bcd60e51b815260206004820152601b60248201527f4c50546f6b656e5368617265506f6f6c3a206e6f742073746172740000000000604482015290519081900360640190fd5b6000821161060c5760405162461bcd60e51b815260040180806020018281038252602a815260200180611506602a913960400191505060405180910390fd5b61061582610f2f565b60408051838152905133917f7084f5476618d8e60b11ef0d7d3f06914655adb8793e28ff7f018d4c76d505d5919081900360200190a25050565b6004546001600160a01b0316610663610f2b565b6001600160a01b0316146106a85760405162461bcd60e51b81526004018080602001828103825260218152602001806114bb6021913960400191505060405180910390fd5b60006106b2610c5e565b600c556106bd610a67565b600b556001600160a01b03811615610704576106d881610385565b6001600160a01b0382166000908152600e6020908152604080832093909355600c54600d909152919020555b6008544211156107ac57600954421061072d57600654610725908390610e8f565b600a55610770565b60095460009061073d9042610ded565b90506000610756600a5483610e3690919063ffffffff16565b60065490915061076a906103e18684610ed1565b600a5550505b42600b8190556006546107839190610ed1565b6009556040805183815290516000805160206114538339815191529181900360200190a16107f8565b6006546007546107bb91610e8f565b600a55600854600b8190556006546107d39190610ed1565b6009556040805183815290516000805160206114538339815191529181900360200190a15b5050565b33610805610c5e565b600c55610810610a67565b600b556001600160a01b038116156108575761082b81610385565b6001600160a01b0382166000908152600e6020908152604080832093909355600c54600d909152919020555b60095442106108c55761087b60646103e1604b600754610e3690919063ffffffff16565b600781905560065461088d9190610e8f565b600a5560065461089e904290610ed1565b60095560075460408051918252516000805160206114538339815191529181900360200190a15b60085442101561091c576040805162461bcd60e51b815260206004820152601b60248201527f4c50546f6b656e5368617265506f6f6c3a206e6f742073746172740000000000604482015290519081900360640190fd5b600061092733610385565b905080156107f857336000818152600e6020526040812055600554610958916001600160a01b039091169083610fcf565b60408051828152905133917fe2403640ba68fed3a2f88b7557551d1993f84b99bb10ff833f0cf8db0c5e0486919081900360200190a25050565b6001600160a01b031660009081526002602052604090205490565b6109b5610f2b565b6003546001600160a01b03908116911614610a17576040805162461bcd60e51b815260206004820181905260248201527f4f776e61626c653a2063616c6c6572206973206e6f7420746865206f776e6572604482015290519081900360640190fd5b6003546040516000916001600160a01b0316907f8be0079c531659141344cd1fd0a4f28419497f9722a3daafe3b4186f6b6457e0908390a3600380546001600160a01b0319169055565b600a5481565b6000610a7542600954611026565b905090565b600d6020526000908152604090205481565b60085481565b6003546001600160a01b031690565b60075481565b33610ab0610c5e565b600c55610abb610a67565b600b556001600160a01b03811615610b0257610ad681610385565b6001600160a01b0382166000908152600e6020908152604080832093909355600c54600d909152919020555b6009544210610b7057610b2660646103e1604b600754610e3690919063ffffffff16565b6007819055600654610b389190610e8f565b600a55600654610b49904290610ed1565b60095560075460408051918252516000805160206114538339815191529181900360200190a15b600854421015610bc7576040805162461bcd60e51b815260206004820152601b60248201527f4c50546f6b656e5368617265506f6f6c3a206e6f742073746172740000000000604482015290519081900360640190fd5b60008211610c065760405162461bcd60e51b81526004018080602001828103825260278152602001806114946027913960400191505060405180910390fd5b610c0f8261103c565b60408051838152905133917f9e71bc8eea02a63969f509818f2dafb9254532904319f9dbda79b67bd34a5f3d919081900360200190a25050565b6005546001600160a01b031681565b600b5481565b6000610c686104a0565b610c755750600c546104a4565b610a75610ca3610c836104a0565b6103e1670de0b6b3a76400006103db600a546103db600b546103cc610a67565b600c5490610ed1565b6000546001600160a01b031681565b600c5481565b610cd2610ccd33610992565b6104ad565b610cda6107fc565b565b60095481565b610cea610f2b565b6003546001600160a01b03908116911614610d4c576040805162461bcd60e51b815260206004820181905260248201527f4f776e61626c653a2063616c6c6572206973206e6f7420746865206f776e6572604482015290519081900360640190fd5b6001600160a01b038116610d915760405162461bcd60e51b815260040180806020018281038252602681526020018061142d6026913960400191505060405180910390fd5b6003546040516001600160a01b038084169216907f8be0079c531659141344cd1fd0a4f28419497f9722a3daafe3b4186f6b6457e090600090a3600380546001600160a01b0319166001600160a01b0392909216919091179055565b6000610e2f83836040518060400160405280601e81526020017f536166654d6174683a207375627472616374696f6e206f766572666c6f770000815250611095565b9392505050565b600082610e45575060006103ed565b82820282848281610e5257fe5b0414610e2f5760405162461bcd60e51b81526004018080602001828103825260218152602001806114736021913960400191505060405180910390fd5b6000610e2f83836040518060400160405280601a81526020017f536166654d6174683a206469766973696f6e206279207a65726f00000000000081525061112c565b600082820183811015610e2f576040805162461bcd60e51b815260206004820152601b60248201527f536166654d6174683a206164646974696f6e206f766572666c6f770000000000604482015290519081900360640190fd5b3390565b3360009081526002602052604090205481811015610f7e5760405162461bcd60e51b815260040180806020018281038252602b815260200180611530602b913960400191505060405180910390fd5b600154610f8b9083610ded565b60015533600090815260026020526040902054610fa89083610ded565b3360008181526002602052604081209290925590546107f8916001600160a01b0390911690845b604080516001600160a01b038416602482015260448082018490528251808303909101815260649091019091526020810180516001600160e01b031663a9059cbb60e01b179052611021908490611191565b505050565b60008183106110355781610e2f565b5090919050565b6001546110499082610ed1565b600155336000908152600260205260409020546110669082610ed1565b336000818152600260205260408120929092559054611092916001600160a01b03909116903084611242565b50565b600081848411156111245760405162461bcd60e51b81526004018080602001828103825283818151815260200191508051906020019080838360005b838110156110e95781810151838201526020016110d1565b50505050905090810190601f1680156111165780820380516001836020036101000a031916815260200191505b509250505060405180910390fd5b505050900390565b6000818361117b5760405162461bcd60e51b81526020600482018181528351602484015283519092839260449091019190850190808383600083156110e95781810151838201526020016110d1565b50600083858161118757fe5b0495945050505050565b60606111e6826040518060400160405280602081526020017f5361666545524332303a206c6f772d6c6576656c2063616c6c206661696c6564815250856001600160a01b03166112a29092919063ffffffff16565b8051909150156110215780806020019051602081101561120557600080fd5b50516110215760405162461bcd60e51b815260040180806020018281038252602a8152602001806114dc602a913960400191505060405180910390fd5b604080516001600160a01b0380861660248301528416604482015260648082018490528251808303909101815260849091019091526020810180516001600160e01b03166323b872dd60e01b17905261129c908590611191565b50505050565b60606112b184846000856112b9565b949350505050565b60606112c485611426565b611315576040805162461bcd60e51b815260206004820152601d60248201527f416464726573733a2063616c6c20746f206e6f6e2d636f6e7472616374000000604482015290519081900360640190fd5b60006060866001600160a01b031685876040518082805190602001908083835b602083106113545780518252601f199092019160209182019101611335565b6001836020036101000a03801982511681845116808217855250505050505090500191505060006040518083038185875af1925050503d80600081146113b6576040519150601f19603f3d011682016040523d82523d6000602084013e6113bb565b606091505b509150915081156113cf5791506112b19050565b8051156113df5780518082602001fd5b60405162461bcd60e51b81526020600482018181528651602484015286518793919283926044019190850190808383600083156110e95781810151838201526020016110d1565b3b15159056fe4f776e61626c653a206e6577206f776e657220697320746865207a65726f2061646472657373de88a922e0d3b88b24e9623efeb464919c6bf9f66857a65e2bfcf2ce87a9433d536166654d6174683a206d756c7469706c69636174696f6e206f766572666c6f7748555344474f434c50546f6b656e5368617265506f6f6c3a2043616e6e6f74207374616b65203043616c6c6572206973206e6f742072657761726420646973747269627574696f6e5361666545524332303a204552433230206f7065726174696f6e20646964206e6f74207375636365656448555344474f434c50546f6b656e5368617265506f6f6c3a2043616e6e6f742077697468647261772030776974686472617720726571756573742067726561746572207468616e207374616b656420616d6f756e74a2646970667358221220d00ee470a8e57dd1a62b0c284fda26ed035462562162fb3ff4b04cfa4ac996c164736f6c634300060c0033",
  "immutableReferences": {},
  "source": "// SPDX-License-Identifier: MIT\npragma solidity ^0.6.0;\n/**\n *Submitted for verification at Etherscan.io on 2020-07-17\n */\n\n/*\n   ____            __   __        __   _\n  / __/__ __ ___  / /_ / /  ___  / /_ (_)__ __\n _\\ \\ / // // _ \\/ __// _ \\/ -_)/ __// / \\ \\ /\n/___/ \\_, //_//_/\\__//_//_/\\__/ \\__//_/ /_\\_\\\n     /___/\n\n* Synthetix: BASISCASHRewards.sol\n*\n* Docs: https://docs.synthetix.io/\n*\n*\n* MIT License\n* ===========\n*\n* Copyright (c) 2020 Synthetix\n*\n* Permission is hereby granted, free of charge, to any person obtaining a copy\n* of this software and associated documentation files (the \"Software\"), to deal\n* in the Software without restriction, including without limitation the rights\n* to use, copy, modify, merge, publish, distribute, sublicense, and/or sell\n* copies of the Software, and to permit persons to whom the Software is\n* furnished to do so, subject to the following conditions:\n*\n* The above copyright notice and this permission notice shall be included in all\n* copies or substantial portions of the Software.\n*\n* THE SOFTWARE IS PROVIDED \"AS IS\", WITHOUT WARRANTY OF ANY KIND, EXPRESS OR\n* IMPLIED, INCLUDING BUT NOT LIMITED TO THE WARRANTIES OF MERCHANTABILITY,\n* FITNESS FOR A PARTICULAR PURPOSE AND NONINFRINGEMENT. IN NO EVENT SHALL THE\n* AUTHORS OR COPYRIGHT HOLDERS BE LIABLE FOR ANY CLAIM, DAMAGES OR OTHER\n* LIABILITY, WHETHER IN AN ACTION OF CONTRACT, TORT OR OTHERWISE, ARISING FROM,\n* OUT OF OR IN CONNECTION WITH THE SOFTWARE OR THE USE OR OTHER DEALINGS IN THE\n*/\n\n// File: @openzeppelin/contracts/math/Math.sol\n\nimport '@openzeppelin/contracts/math/Math.sol';\n\n// File: @openzeppelin/contracts/math/SafeMath.sol\n\nimport '@openzeppelin/contracts/math/SafeMath.sol';\n\n// File: @openzeppelin/contracts/token/ERC20/IERC20.sol\n\nimport '@openzeppelin/contracts/token/ERC20/IERC20.sol';\n\n// File: @openzeppelin/contracts/utils/Address.sol\n\nimport '@openzeppelin/contracts/utils/Address.sol';\n\n// File: @openzeppelin/contracts/token/ERC20/SafeERC20.sol\n\nimport '@openzeppelin/contracts/token/ERC20/SafeERC20.sol';\n\n// File: contracts/IRewardDistributionRecipient.sol\n\nimport '../interfaces/IRewardDistributionRecipient.sol';\n\nimport './LPTokenWrapper.sol';\n\n/**\n* @title HUSD-GOCLP Token\n* @notice 30,100000,75%\n */\ncontract HUSDGOCLPTokenSharePool is LPTokenWrapper, IRewardDistributionRecipient {\n    IERC20 public GOT;\n    /// @notice  = 30\n    uint256 public DURATION = 30 days;\n    /// @notice \n    uint256 public initreward = 100000 * 10**18;\n    /// @notice \n    uint256 public starttime; // starttime TBD\n    /// @notice \n    uint256 public periodFinish = 0;\n    /// @notice \n    uint256 public rewardRate = 0;\n    /// @notice \n    uint256 public lastUpdateTime;\n    /// @notice \n    uint256 public rewardPerTokenStored;\n    /// @notice Token\n    mapping(address => uint256) public userRewardPerTokenPaid;\n    /// @notice \n    mapping(address => uint256) public rewards;\n\n    event RewardAdded(uint256 reward);\n    event Staked(address indexed user, uint256 amount);\n    event Withdrawn(address indexed user, uint256 amount);\n    event RewardPaid(address indexed user, uint256 reward);\n\n    /**\n     * @dev \n     * @param GOT_ GOT\n     * @param lptoken_ LPtoken\n     * @param starttime_ \n     */\n    constructor(\n        address GOT_,\n        address lptoken_,\n        uint256 starttime_\n    ) public {\n        GOT = IERC20(GOT_);\n        lpt = IERC20(lptoken_);\n        starttime = starttime_;\n    }\n\n    /**\n     * @dev \n     */\n    modifier checkStart() {\n        require(block.timestamp >= starttime, 'LPTokenSharePool: not start');\n        _;\n    }\n\n    /**\n     * @dev \n     */\n    modifier checkhalve() {\n        // >=\n        if (block.timestamp >= periodFinish) {\n            //  =  * 75%\n            initreward = initreward.mul(75).div(100);\n            //  =  / 30\n            rewardRate = initreward.div(DURATION);\n            //  =  + 30\n            periodFinish = block.timestamp.add(DURATION);\n            // \n            emit RewardAdded(initreward);\n        }\n        _;\n    }\n\n    /**\n     * @dev \n     * @param account \n     */\n    modifier updateReward(address account) {\n        //  = Token\n        rewardPerTokenStored = rewardPerToken();\n        //  = min(,)\n        lastUpdateTime = lastTimeRewardApplicable();\n        // !=0\n        if (account != address(0)) {\n            //  = \n            rewards[account] = earned(account);\n            // Token = \n            userRewardPerTokenPaid[account] = rewardPerTokenStored;\n        }\n        _;\n    }\n\n    /**\n     * @dev \n     * @return \n     * @notice ,\n     */\n    function lastTimeRewardApplicable() public view returns (uint256) {\n        // (,)\n        return Math.min(block.timestamp, periodFinish);\n    }\n\n    /**\n     * @dev Token\n     * @return \n     */\n    function rewardPerToken() public view returns (uint256) {\n        // 0\n        if (totalSupply() == 0) {\n            return rewardPerTokenStored;\n        }\n        //  + (min(,) - ) *  * 1e18 / \n        return\n            rewardPerTokenStored.add(\n                lastTimeRewardApplicable().sub(lastUpdateTime).mul(rewardRate).mul(1e18).div(totalSupply())\n            );\n    }\n\n    /**\n     * @dev \n     * @param account \n     */\n    function earned(address account) public view returns (uint256) {\n        //  * (Token - Token) / 1e18 + \n        return\n            balanceOf(account).mul(rewardPerToken().sub(userRewardPerTokenPaid[account])).div(1e18).add(\n                rewards[account]\n            );\n    }\n\n    /**\n     * @dev token\n     * @param amount \n     */\n    // stake visibility is public as overriding LPTokenWrapper's stake() function\n    function stake(uint256 amount) public override updateReward(msg.sender) checkhalve checkStart {\n        // >0\n        require(amount > 0, 'HUSDGOCLPTokenSharePool: Cannot stake 0');\n        // \n        super.stake(amount);\n        // \n        emit Staked(msg.sender, amount);\n    }\n\n    /**\n     * @dev token\n     * @param amount \n     */\n    function withdraw(uint256 amount) public override updateReward(msg.sender) checkhalve checkStart {\n        // >0\n        require(amount > 0, 'HUSDGOCLPTokenSharePool: Cannot withdraw 0');\n        // \n        super.withdraw(amount);\n        // \n        emit Withdrawn(msg.sender, amount);\n    }\n\n    /**\n     * @dev \n     */\n    function exit() external {\n        // \n        withdraw(balanceOf(msg.sender));\n        // \n        getReward();\n    }\n\n    /**\n     * @dev \n     */\n    function getReward() public updateReward(msg.sender) checkhalve checkStart {\n        //  = \n        uint256 reward = earned(msg.sender);\n        // >0\n        if (reward > 0) {\n            //  = 0\n            rewards[msg.sender] = 0;\n            // \n            GOT.safeTransfer(msg.sender, reward);\n            // \n            emit RewardPaid(msg.sender, reward);\n        }\n    }\n\n    /**\n     * @dev \n     * @param reward \n     */\n    function notifyRewardAmount(uint256 reward) external override onlyRewardDistribution updateReward(address(0)) {\n        // >\n        if (block.timestamp > starttime) {\n            //  >= \n            if (block.timestamp >= periodFinish) {\n                //  =  / 30\n                rewardRate = reward.div(DURATION);\n            } else {\n                //  =  - \n                uint256 remaining = periodFinish.sub(block.timestamp);\n                //  =  *  (0)\n                uint256 leftover = remaining.mul(rewardRate);\n                //  = ( + ) / 30\n                rewardRate = reward.add(leftover).div(DURATION);\n            }\n            // = \n            lastUpdateTime = block.timestamp;\n            //  =  + 30\n            periodFinish = block.timestamp.add(DURATION);\n            // \n            emit RewardAdded(reward);\n        } else {\n            //  =  / 30\n            rewardRate = initreward.div(DURATION);\n            //  = \n            lastUpdateTime = starttime;\n            //  =  + 30\n            periodFinish = starttime.add(DURATION);\n            // \n            emit RewardAdded(reward);\n        }\n    }\n}\n",
  "sourcePath": "/home/cui/Documents/goswap/goswap-core/contracts/distribution/HUSDGOCLPTokenSharePool.sol",
  "compiler": {
    "name": "solc",
    "version": "0.6.12+commit.27d51765.Emscripten.clang"
  },
  "schemaVersion": "3.3.2",
  "updatedAt": "2021-01-18T03:20:28.671Z",
  "devdoc": {
    "kind": "dev",
    "methods": {
      "balanceOf(address)": {
        "details": "",
        "params": {
          "account": ""
        },
        "returns": {
          "_0": ""
        }
      },
      "constructor": {
        "details": "",
        "params": {
          "GOT_": "GOT",
          "lptoken_": "LPtoken",
          "starttime_": ""
        }
      },
      "earned(address)": {
        "details": "",
        "params": {
          "account": ""
        }
      },
      "exit()": {
        "details": ""
      },
      "getReward()": {
        "details": ""
      },
      "lastTimeRewardApplicable()": {
        "details": "",
        "returns": {
          "_0": ""
        }
      },
      "notifyRewardAmount(uint256)": {
        "details": "",
        "params": {
          "reward": ""
        }
      },
      "owner()": {
        "details": "Returns the address of the current owner."
      },
      "renounceOwnership()": {
        "details": "Leaves the contract without owner. It will not be possible to call `onlyOwner` functions anymore. Can only be called by the current owner. NOTE: Renouncing ownership will leave the contract without an owner, thereby removing any functionality that is only available to the owner."
      },
      "rewardPerToken()": {
        "details": "Token",
        "returns": {
          "_0": ""
        }
      },
      "stake(uint256)": {
        "details": "token",
        "params": {
          "amount": ""
        }
      },
      "totalSupply()": {
        "details": "",
        "returns": {
          "_0": ""
        }
      },
      "transferOwnership(address)": {
        "details": "Transfers ownership of the contract to a new account (`newOwner`). Can only be called by the current owner."
      },
      "withdraw(uint256)": {
        "details": "token",
        "params": {
          "amount": ""
        }
      }
    },
    "title": "HUSD-GOCLP Token",
    "version": 1
  },
  "userdoc": {
    "kind": "user",
    "methods": {
      "DURATION()": {
        "notice": " = 30"
      },
      "initreward()": {
        "notice": ""
      },
      "lastTimeRewardApplicable()": {
        "notice": ","
      },
      "lastUpdateTime()": {
        "notice": ""
      },
      "lpt()": {
        "notice": "GoSwap LP Token"
      },
      "periodFinish()": {
        "notice": ""
      },
      "rewardPerTokenStored()": {
        "notice": ""
      },
      "rewardRate()": {
        "notice": ""
      },
      "rewards(address)": {
        "notice": ""
      },
      "starttime()": {
        "notice": ""
      },
      "userRewardPerTokenPaid(address)": {
        "notice": "Token"
      }
    },
    "notice": "30,100000,75%",
    "version": 1
  }
}