{
  "contractName": "InitialGOTDistributor",
  "abi": [
    {
      "inputs": [
        {
          "internalType": "contract IERC20",
          "name": "_GOT",
          "type": "address"
        },
        {
          "internalType": "contract IRewardDistributionRecipient",
          "name": "_HUSDGOCLPPool",
          "type": "address"
        },
        {
          "internalType": "uint256",
          "name": "_HUSDGOCInitialBalance",
          "type": "uint256"
        },
        {
          "internalType": "contract IRewardDistributionRecipient",
          "name": "_HUSDGOTLPPool",
          "type": "address"
        },
        {
          "internalType": "uint256",
          "name": "_HUSDGOTInitialBalance",
          "type": "uint256"
        }
      ],
      "stateMutability": "nonpayable",
      "type": "constructor"
    },
    {
      "anonymous": false,
      "inputs": [
        {
          "indexed": false,
          "internalType": "address",
          "name": "pool",
          "type": "address"
        },
        {
          "indexed": false,
          "internalType": "uint256",
          "name": "cashAmount",
          "type": "uint256"
        }
      ],
      "name": "Distributed",
      "type": "event"
    },
    {
      "inputs": [],
      "name": "GOT",
      "outputs": [
        {
          "internalType": "contract IERC20",
          "name": "",
          "type": "address"
        }
      ],
      "stateMutability": "view",
      "type": "function"
    },
    {
      "inputs": [],
      "name": "HUSDGOCInitialBalance",
      "outputs": [
        {
          "internalType": "uint256",
          "name": "",
          "type": "uint256"
        }
      ],
      "stateMutability": "view",
      "type": "function"
    },
    {
      "inputs": [],
      "name": "HUSDGOCLPPool",
      "outputs": [
        {
          "internalType": "contract IRewardDistributionRecipient",
          "name": "",
          "type": "address"
        }
      ],
      "stateMutability": "view",
      "type": "function"
    },
    {
      "inputs": [],
      "name": "HUSDGOTInitialBalance",
      "outputs": [
        {
          "internalType": "uint256",
          "name": "",
          "type": "uint256"
        }
      ],
      "stateMutability": "view",
      "type": "function"
    },
    {
      "inputs": [],
      "name": "HUSDGOTLPPool",
      "outputs": [
        {
          "internalType": "contract IRewardDistributionRecipient",
          "name": "",
          "type": "address"
        }
      ],
      "stateMutability": "view",
      "type": "function"
    },
    {
      "inputs": [],
      "name": "once",
      "outputs": [
        {
          "internalType": "bool",
          "name": "",
          "type": "bool"
        }
      ],
      "stateMutability": "view",
      "type": "function"
    },
    {
      "inputs": [],
      "name": "distribute",
      "outputs": [],
      "stateMutability": "nonpayable",
      "type": "function"
    }
  ],
  "bytecode": "0x60806040526000805460ff1916600117905534801561001d57600080fd5b50604051610542380380610542833981810160405260a081101561004057600080fd5b508051602082015160408301516060840151608090940151600080546001600160a01b0395861661010002610100600160a81b0319909116179055600180549385166001600160a01b031994851617905560029190915560038054939094169290911691909117909155600455610486806100bc6000396000f3fe608060405234801561001057600080fd5b506004361061007d5760003560e01c8063c4dd5cef1161005b578063c4dd5cef146100dc578063d5204d5c146100e4578063e041e36b146100ec578063e4fc6b6d146100f45761007d565b8063292a3f7e1461008257806343d42ccd1461009e5780635489003c146100c2575b600080fd5b61008a6100fe565b604080519115158252519081900360200190f35b6100a6610107565b604080516001600160a01b039092168252519081900360200190f35b6100ca610116565b60408051918252519081900360200190f35b6100a661011c565b6100ca610130565b6100a6610136565b6100fc610145565b005b60005460ff1681565b6003546001600160a01b031681565b60025481565b60005461010090046001600160a01b031681565b60045481565b6001546001600160a01b031681565b60005460ff166101865760405162461bcd60e51b81526004018080602001828103825260398152602001806104186039913960400191505060405180910390fd5b600080546001546002546040805163a9059cbb60e01b81526001600160a01b0393841660048201526024810192909252516101009093049091169263a9059cbb926044808401936020939083900390910190829087803b1580156101e957600080fd5b505af11580156101fd573d6000803e3d6000fd5b505050506040513d602081101561021357600080fd5b505060015460025460408051633c6b16ab60e01b81526004810192909252516001600160a01b0390921691633c6b16ab9160248082019260009290919082900301818387803b15801561026557600080fd5b505af1158015610279573d6000803e3d6000fd5b5050600154600254604080516001600160a01b039093168352602083019190915280517fb649c98f58055c520df0dcb5709eff2e931217ff2fb1e21376130d31bbb1c0af945091829003019150a160008054600354600480546040805163a9059cbb60e01b81526001600160a01b03948516938101939093526024830191909152516101009093049091169263a9059cbb926044808401936020939083900390910190829087803b15801561032d57600080fd5b505af1158015610341573d6000803e3d6000fd5b505050506040513d602081101561035757600080fd5b50506003546004805460408051633c6b16ab60e01b815292830191909152516001600160a01b0390921691633c6b16ab9160248082019260009290919082900301818387803b1580156103a957600080fd5b505af11580156103bd573d6000803e3d6000fd5b5050600354600454604080516001600160a01b039093168352602083019190915280517fb649c98f58055c520df0dcb5709eff2e931217ff2fb1e21376130d31bbb1c0af945091829003019150a16000805460ff1916905556fe496e697469616c474f544469737472696275746f723a20796f752063616e6e6f742072756e20746869732066756e6374696f6e207477696365a2646970667358221220808ca0caed7c775e4b7e6f37a05fdf6368f7d98c08d39edf028f81466f46f24d64736f6c634300060c0033",
  "immutableReferences": {},
  "source": "// SPDX-License-Identifier: MIT\npragma solidity ^0.6.0;\n\nimport '@openzeppelin/contracts/math/SafeMath.sol';\nimport '@openzeppelin/contracts/token/ERC20/IERC20.sol';\n\nimport '../interfaces/IRewardDistributionRecipient.sol';\n\ninterface IDistributor {\n    function distribute() external;\n}\n\ncontract InitialGOTDistributor is IDistributor {\n    using SafeMath for uint256;\n\n    event Distributed(address pool, uint256 cashAmount);\n    /// @notice 只能运行一次\n    bool public once = true;\n\n    /// @notice GOT地址\n    IERC20 public GOT;\n    /// @notice HUSDGOCLPPool 矿池地址\n    IRewardDistributionRecipient public HUSDGOCLPPool;\n    /// @notice HUSDGOC 初始奖励\n    uint256 public HUSDGOCInitialBalance;\n    /// @notice HUSDGOTLPPool 矿池地址\n    IRewardDistributionRecipient public HUSDGOTLPPool;\n    /// @notice HUSDGOT 初始奖励\n    uint256 public HUSDGOTInitialBalance;\n\n    /**\n    * @dev 构造函数\n    * @param _GOT GOT地址\n    * @param _HUSDGOCLPPool HUSDGOCLPPool 矿池地址\n    * @param _HUSDGOCInitialBalance HUSDGOC 初始奖励\n    * @param _HUSDGOTLPPool HUSDGOTLPPool 矿池地址\n    * @param _HUSDGOTInitialBalance HUSDGOT 初始奖励\n     */\n    constructor(\n        IERC20 _GOT,\n        IRewardDistributionRecipient _HUSDGOCLPPool,\n        uint256 _HUSDGOCInitialBalance,\n        IRewardDistributionRecipient _HUSDGOTLPPool,\n        uint256 _HUSDGOTInitialBalance\n    ) public {\n        GOT = _GOT;\n        HUSDGOCLPPool = _HUSDGOCLPPool;\n        HUSDGOCInitialBalance = _HUSDGOCInitialBalance;\n        HUSDGOTLPPool = _HUSDGOTLPPool;\n        HUSDGOTInitialBalance = _HUSDGOTInitialBalance;\n    }\n\n    /**\n    * @dev 分发奖励\n     */\n    function distribute() public override {\n        require(\n            once,\n            'InitialGOTDistributor: you cannot run this function twice'\n        );\n        // 将奖励的GOT发送给HUSDGOCLPPool 矿池地址\n        GOT.transfer(address(HUSDGOCLPPool), HUSDGOCInitialBalance);\n        // 通知奖励\n        HUSDGOCLPPool.notifyRewardAmount(HUSDGOCInitialBalance);\n        // 触发分发事件\n        emit Distributed(address(HUSDGOCLPPool), HUSDGOCInitialBalance);\n\n        // 将奖励的GOT发送给HUSDGOTLPPool 矿池地址\n        GOT.transfer(address(HUSDGOTLPPool), HUSDGOTInitialBalance);\n        // 通知奖励\n        HUSDGOTLPPool.notifyRewardAmount(HUSDGOTInitialBalance);\n        // 触发分发事件\n        emit Distributed(address(HUSDGOTLPPool), HUSDGOTInitialBalance);\n\n        once = false;\n    }\n}\n",
  "sourcePath": "/home/cui/Documents/goswap/goswap-core/contracts/distribution/InitialGOTDistributor.sol",
  "compiler": {
    "name": "solc",
    "version": "0.6.12+commit.27d51765.Emscripten.clang"
  },
  "schemaVersion": "3.3.2",
  "updatedAt": "2021-01-18T03:20:28.694Z",
  "devdoc": {
    "kind": "dev",
    "methods": {
      "constructor": {
        "details": "构造函数",
        "params": {
          "_GOT": "GOT地址",
          "_HUSDGOCInitialBalance": "HUSDGOC 初始奖励",
          "_HUSDGOCLPPool": "HUSDGOCLPPool 矿池地址",
          "_HUSDGOTInitialBalance": "HUSDGOT 初始奖励",
          "_HUSDGOTLPPool": "HUSDGOTLPPool 矿池地址"
        }
      },
      "distribute()": {
        "details": "分发奖励"
      }
    },
    "version": 1
  },
  "userdoc": {
    "kind": "user",
    "methods": {
      "GOT()": {
        "notice": "GOT地址"
      },
      "HUSDGOCInitialBalance()": {
        "notice": "HUSDGOC 初始奖励"
      },
      "HUSDGOCLPPool()": {
        "notice": "HUSDGOCLPPool 矿池地址"
      },
      "HUSDGOTInitialBalance()": {
        "notice": "HUSDGOT 初始奖励"
      },
      "HUSDGOTLPPool()": {
        "notice": "HUSDGOTLPPool 矿池地址"
      },
      "once()": {
        "notice": "只能运行一次"
      }
    },
    "version": 1
  }
}