{
  "contractName": "LPTokenWrapper",
  "abi": [
    {
      "inputs": [],
      "name": "lpt",
      "outputs": [
        {
          "internalType": "contract IERC20",
          "name": "",
          "type": "address"
        }
      ],
      "stateMutability": "view",
      "type": "function"
    },
    {
      "inputs": [],
      "name": "totalSupply",
      "outputs": [
        {
          "internalType": "uint256",
          "name": "",
          "type": "uint256"
        }
      ],
      "stateMutability": "view",
      "type": "function"
    },
    {
      "inputs": [
        {
          "internalType": "address",
          "name": "account",
          "type": "address"
        }
      ],
      "name": "balanceOf",
      "outputs": [
        {
          "internalType": "uint256",
          "name": "",
          "type": "uint256"
        }
      ],
      "stateMutability": "view",
      "type": "function"
    },
    {
      "inputs": [
        {
          "internalType": "uint256",
          "name": "amount",
          "type": "uint256"
        }
      ],
      "name": "stake",
      "outputs": [],
      "stateMutability": "nonpayable",
      "type": "function"
    },
    {
      "inputs": [
        {
          "internalType": "uint256",
          "name": "amount",
          "type": "uint256"
        }
      ],
      "name": "withdraw",
      "outputs": [],
      "stateMutability": "nonpayable",
      "type": "function"
    }
  ],
  "bytecode": "0x608060405234801561001057600080fd5b506106e4806100206000396000f3fe608060405234801561001057600080fd5b50600436106100575760003560e01c806318160ddd1461005c5780632e1a7d4d1461007657806370a0823114610095578063a694fc3a146100bb578063ce5fc8d0146100d8575b600080fd5b6100646100fc565b60408051918252519081900360200190f35b6100936004803603602081101561008c57600080fd5b5035610102565b005b610064600480360360208110156100ab57600080fd5b50356001600160a01b03166101aa565b610093600480360360208110156100d157600080fd5b50356101c5565b6100e061021e565b604080516001600160a01b039092168252519081900360200190f35b60015490565b33600090815260026020526040902054818110156101515760405162461bcd60e51b815260040180806020018281038252602b815260200180610684602b913960400191505060405180910390fd5b60015461015e908361022d565b6001553360009081526002602052604090205461017b908361022d565b3360008181526002602052604081209290925590546101a6916001600160a01b039091169084610276565b5050565b6001600160a01b031660009081526002602052604090205490565b6001546101d290826102cd565b600155336000908152600260205260409020546101ef90826102cd565b33600081815260026020526040812092909255905461021b916001600160a01b03909116903084610327565b50565b6000546001600160a01b031681565b600061026f83836040518060400160405280601e81526020017f536166654d6174683a207375627472616374696f6e206f766572666c6f770000815250610387565b9392505050565b604080516001600160a01b038416602482015260448082018490528251808303909101815260649091019091526020810180516001600160e01b031663a9059cbb60e01b1790526102c890849061041e565b505050565b60008282018381101561026f576040805162461bcd60e51b815260206004820152601b60248201527f536166654d6174683a206164646974696f6e206f766572666c6f770000000000604482015290519081900360640190fd5b604080516001600160a01b0380861660248301528416604482015260648082018490528251808303909101815260849091019091526020810180516001600160e01b03166323b872dd60e01b17905261038190859061041e565b50505050565b600081848411156104165760405162461bcd60e51b81526004018080602001828103825283818151815260200191508051906020019080838360005b838110156103db5781810151838201526020016103c3565b50505050905090810190601f1680156104085780820380516001836020036101000a031916815260200191505b509250505060405180910390fd5b505050900390565b6060610473826040518060400160405280602081526020017f5361666545524332303a206c6f772d6c6576656c2063616c6c206661696c6564815250856001600160a01b03166104cf9092919063ffffffff16565b8051909150156102c85780806020019051602081101561049257600080fd5b50516102c85760405162461bcd60e51b815260040180806020018281038252602a81526020018061065a602a913960400191505060405180910390fd5b60606104de84846000856104e6565b949350505050565b60606104f185610653565b610542576040805162461bcd60e51b815260206004820152601d60248201527f416464726573733a2063616c6c20746f206e6f6e2d636f6e7472616374000000604482015290519081900360640190fd5b60006060866001600160a01b031685876040518082805190602001908083835b602083106105815780518252601f199092019160209182019101610562565b6001836020036101000a03801982511681845116808217855250505050505090500191505060006040518083038185875af1925050503d80600081146105e3576040519150601f19603f3d011682016040523d82523d6000602084013e6105e8565b606091505b509150915081156105fc5791506104de9050565b80511561060c5780518082602001fd5b60405162461bcd60e51b81526020600482018181528651602484015286518793919283926044019190850190808383600083156103db5781810151838201526020016103c3565b3b15159056fe5361666545524332303a204552433230206f7065726174696f6e20646964206e6f742073756363656564776974686472617720726571756573742067726561746572207468616e207374616b656420616d6f756e74a2646970667358221220c2c13967552b90a05fa0e0f662905f612e8cd73e54d3fd497dea873f3884538464736f6c634300060c0033",
  "immutableReferences": {},
  "source": "// SPDX-License-Identifier: MIT\npragma solidity ^0.6.0;\n\nimport '@openzeppelin/contracts/math/SafeMath.sol';\nimport '@openzeppelin/contracts/token/ERC20/SafeERC20.sol';\nimport '@openzeppelin/contracts/token/ERC20/IERC20.sol';\n\n/**\n * @title LP质押合约\n */\ncontract LPTokenWrapper {\n    using SafeMath for uint256;\n    using SafeERC20 for IERC20;\n    /// @notice GoSwap LP Token合约地址\n    IERC20 public lpt;\n\n    /// @dev 质押总量\n    uint256 private _totalSupply;\n    /// @dev 余额映射\n    mapping(address => uint256) private _balances;\n\n    /**\n     * @dev 返回总量\n     * @return 总量\n     */\n    function totalSupply() public view returns (uint256) {\n        return _totalSupply;\n    }\n\n    /**\n     * @dev 返回账户余额\n     * @param account 账户地址\n     * @return 余额\n     */\n    function balanceOf(address account) public view returns (uint256) {\n        return _balances[account];\n    }\n\n    /**\n     * @dev 把GOT抵押到Boardroom\n     * @param amount 质押数量\n     */\n    function stake(uint256 amount) public virtual {\n        // 总量增加\n        _totalSupply = _totalSupply.add(amount);\n        // 余额映射增加\n        _balances[msg.sender] = _balances[msg.sender].add(amount);\n        // 将LPToken发送到当前合约\n        lpt.safeTransferFrom(msg.sender, address(this), amount);\n    }\n\n    /**\n     * @dev 赎回LPToken\n     * @param amount 赎回数量\n     */\n    function withdraw(uint256 amount) public virtual {\n        // 用户的总质押数量\n        uint256 directorShare = _balances[msg.sender];\n        // 确认总质押数量大于取款数额\n        require(directorShare >= amount, 'withdraw request greater than staked amount');\n        // 总量减少\n        _totalSupply = _totalSupply.sub(amount);\n        // 余额减少\n        _balances[msg.sender] = _balances[msg.sender].sub(amount);\n        // 将LPToken发送给用户\n        lpt.safeTransfer(msg.sender, amount);\n    }\n}\n",
  "sourcePath": "/home/cui/Documents/goswap/goswap-core/contracts/distribution/LPTokenWrapper.sol",
  "compiler": {
    "name": "solc",
    "version": "0.6.12+commit.27d51765.Emscripten.clang"
  },
  "schemaVersion": "3.3.2",
  "updatedAt": "2021-01-18T03:20:28.699Z",
  "devdoc": {
    "kind": "dev",
    "methods": {
      "balanceOf(address)": {
        "details": "返回账户余额",
        "params": {
          "account": "账户地址"
        },
        "returns": {
          "_0": "余额"
        }
      },
      "stake(uint256)": {
        "details": "把GOT抵押到Boardroom",
        "params": {
          "amount": "质押数量"
        }
      },
      "totalSupply()": {
        "details": "返回总量",
        "returns": {
          "_0": "总量"
        }
      },
      "withdraw(uint256)": {
        "details": "赎回LPToken",
        "params": {
          "amount": "赎回数量"
        }
      }
    },
    "stateVariables": {
      "_balances": {
        "details": "余额映射"
      },
      "_totalSupply": {
        "details": "质押总量"
      }
    },
    "title": "LP质押合约",
    "version": 1
  },
  "userdoc": {
    "kind": "user",
    "methods": {
      "lpt()": {
        "notice": "GoSwap LP Token合约地址"
      }
    },
    "version": 1
  }
}