{
  "contractName": "Treasury",
  "abi": [
    {
      "inputs": [
        {
          "internalType": "address",
          "name": "_cash",
          "type": "address"
        },
        {
          "internalType": "address",
          "name": "_bond",
          "type": "address"
        },
        {
          "internalType": "address",
          "name": "_share",
          "type": "address"
        },
        {
          "internalType": "address",
          "name": "_bondOracle",
          "type": "address"
        },
        {
          "internalType": "address",
          "name": "_seigniorageOracle",
          "type": "address"
        },
        {
          "internalType": "address",
          "name": "_boardroom",
          "type": "address"
        },
        {
          "internalType": "address",
          "name": "_fund",
          "type": "address"
        },
        {
          "internalType": "uint256",
          "name": "_startTime",
          "type": "uint256"
        }
      ],
      "stateMutability": "nonpayable",
      "type": "constructor"
    },
    {
      "anonymous": false,
      "inputs": [
        {
          "indexed": true,
          "internalType": "address",
          "name": "account",
          "type": "address"
        }
      ],
      "name": "AdminAdded",
      "type": "event"
    },
    {
      "anonymous": false,
      "inputs": [
        {
          "indexed": true,
          "internalType": "address",
          "name": "account",
          "type": "address"
        }
      ],
      "name": "AdminRemoved",
      "type": "event"
    },
    {
      "anonymous": false,
      "inputs": [
        {
          "indexed": false,
          "internalType": "uint256",
          "name": "timestamp",
          "type": "uint256"
        },
        {
          "indexed": false,
          "internalType": "uint256",
          "name": "seigniorage",
          "type": "uint256"
        }
      ],
      "name": "BoardroomFunded",
      "type": "event"
    },
    {
      "anonymous": false,
      "inputs": [
        {
          "indexed": true,
          "internalType": "address",
          "name": "from",
          "type": "address"
        },
        {
          "indexed": false,
          "internalType": "uint256",
          "name": "amount",
          "type": "uint256"
        }
      ],
      "name": "BoughtBonds",
      "type": "event"
    },
    {
      "anonymous": false,
      "inputs": [
        {
          "indexed": true,
          "internalType": "address",
          "name": "operator",
          "type": "address"
        },
        {
          "indexed": false,
          "internalType": "address",
          "name": "newFund",
          "type": "address"
        }
      ],
      "name": "ContributionPoolChanged",
      "type": "event"
    },
    {
      "anonymous": false,
      "inputs": [
        {
          "indexed": false,
          "internalType": "uint256",
          "name": "timestamp",
          "type": "uint256"
        },
        {
          "indexed": false,
          "internalType": "uint256",
          "name": "seigniorage",
          "type": "uint256"
        }
      ],
      "name": "ContributionPoolFunded",
      "type": "event"
    },
    {
      "anonymous": false,
      "inputs": [
        {
          "indexed": true,
          "internalType": "address",
          "name": "operator",
          "type": "address"
        },
        {
          "indexed": false,
          "internalType": "uint256",
          "name": "newRate",
          "type": "uint256"
        }
      ],
      "name": "ContributionPoolRateChanged",
      "type": "event"
    },
    {
      "anonymous": false,
      "inputs": [
        {
          "indexed": true,
          "internalType": "address",
          "name": "executor",
          "type": "address"
        },
        {
          "indexed": false,
          "internalType": "uint256",
          "name": "at",
          "type": "uint256"
        }
      ],
      "name": "Initialized",
      "type": "event"
    },
    {
      "anonymous": false,
      "inputs": [
        {
          "indexed": true,
          "internalType": "address",
          "name": "target",
          "type": "address"
        }
      ],
      "name": "Migration",
      "type": "event"
    },
    {
      "anonymous": false,
      "inputs": [
        {
          "indexed": true,
          "internalType": "address",
          "name": "from",
          "type": "address"
        },
        {
          "indexed": false,
          "internalType": "uint256",
          "name": "amount",
          "type": "uint256"
        }
      ],
      "name": "RedeemedBonds",
      "type": "event"
    },
    {
      "anonymous": false,
      "inputs": [
        {
          "indexed": false,
          "internalType": "uint256",
          "name": "timestamp",
          "type": "uint256"
        },
        {
          "indexed": false,
          "internalType": "uint256",
          "name": "seigniorage",
          "type": "uint256"
        }
      ],
      "name": "TreasuryFunded",
      "type": "event"
    },
    {
      "inputs": [
        {
          "internalType": "address",
          "name": "account",
          "type": "address"
        }
      ],
      "name": "addAdmin",
      "outputs": [],
      "stateMutability": "nonpayable",
      "type": "function"
    },
    {
      "inputs": [],
      "name": "allAdmins",
      "outputs": [
        {
          "internalType": "address[]",
          "name": "admins",
          "type": "address[]"
        }
      ],
      "stateMutability": "view",
      "type": "function"
    },
    {
      "inputs": [],
      "name": "boardroom",
      "outputs": [
        {
          "internalType": "address",
          "name": "",
          "type": "address"
        }
      ],
      "stateMutability": "view",
      "type": "function"
    },
    {
      "inputs": [],
      "name": "bond",
      "outputs": [
        {
          "internalType": "address",
          "name": "",
          "type": "address"
        }
      ],
      "stateMutability": "view",
      "type": "function"
    },
    {
      "inputs": [],
      "name": "bondDepletionFloor",
      "outputs": [
        {
          "internalType": "uint256",
          "name": "",
          "type": "uint256"
        }
      ],
      "stateMutability": "view",
      "type": "function"
    },
    {
      "inputs": [],
      "name": "bondOracle",
      "outputs": [
        {
          "internalType": "address",
          "name": "",
          "type": "address"
        }
      ],
      "stateMutability": "view",
      "type": "function"
    },
    {
      "inputs": [],
      "name": "cash",
      "outputs": [
        {
          "internalType": "address",
          "name": "",
          "type": "address"
        }
      ],
      "stateMutability": "view",
      "type": "function"
    },
    {
      "inputs": [],
      "name": "cashPriceCeiling",
      "outputs": [
        {
          "internalType": "uint256",
          "name": "",
          "type": "uint256"
        }
      ],
      "stateMutability": "view",
      "type": "function"
    },
    {
      "inputs": [],
      "name": "cashPriceOne",
      "outputs": [
        {
          "internalType": "uint256",
          "name": "",
          "type": "uint256"
        }
      ],
      "stateMutability": "view",
      "type": "function"
    },
    {
      "inputs": [],
      "name": "fund",
      "outputs": [
        {
          "internalType": "address",
          "name": "",
          "type": "address"
        }
      ],
      "stateMutability": "view",
      "type": "function"
    },
    {
      "inputs": [],
      "name": "fundAllocationRate",
      "outputs": [
        {
          "internalType": "uint256",
          "name": "",
          "type": "uint256"
        }
      ],
      "stateMutability": "view",
      "type": "function"
    },
    {
      "inputs": [],
      "name": "getCurrentEpoch",
      "outputs": [
        {
          "internalType": "uint256",
          "name": "",
          "type": "uint256"
        }
      ],
      "stateMutability": "view",
      "type": "function"
    },
    {
      "inputs": [],
      "name": "getLastEpoch",
      "outputs": [
        {
          "internalType": "uint256",
          "name": "",
          "type": "uint256"
        }
      ],
      "stateMutability": "view",
      "type": "function"
    },
    {
      "inputs": [],
      "name": "getNextEpoch",
      "outputs": [
        {
          "internalType": "uint256",
          "name": "",
          "type": "uint256"
        }
      ],
      "stateMutability": "view",
      "type": "function"
    },
    {
      "inputs": [],
      "name": "getPeriod",
      "outputs": [
        {
          "internalType": "uint256",
          "name": "",
          "type": "uint256"
        }
      ],
      "stateMutability": "view",
      "type": "function"
    },
    {
      "inputs": [],
      "name": "getStartTime",
      "outputs": [
        {
          "internalType": "uint256",
          "name": "",
          "type": "uint256"
        }
      ],
      "stateMutability": "view",
      "type": "function"
    },
    {
      "inputs": [],
      "name": "initialized",
      "outputs": [
        {
          "internalType": "bool",
          "name": "",
          "type": "bool"
        }
      ],
      "stateMutability": "view",
      "type": "function"
    },
    {
      "inputs": [
        {
          "internalType": "address",
          "name": "account",
          "type": "address"
        }
      ],
      "name": "isAdmin",
      "outputs": [
        {
          "internalType": "bool",
          "name": "",
          "type": "bool"
        }
      ],
      "stateMutability": "view",
      "type": "function"
    },
    {
      "inputs": [],
      "name": "migrated",
      "outputs": [
        {
          "internalType": "bool",
          "name": "",
          "type": "bool"
        }
      ],
      "stateMutability": "view",
      "type": "function"
    },
    {
      "inputs": [],
      "name": "nextEpochPoint",
      "outputs": [
        {
          "internalType": "uint256",
          "name": "",
          "type": "uint256"
        }
      ],
      "stateMutability": "view",
      "type": "function"
    },
    {
      "inputs": [
        {
          "internalType": "address",
          "name": "account",
          "type": "address"
        }
      ],
      "name": "removeAdmin",
      "outputs": [],
      "stateMutability": "nonpayable",
      "type": "function"
    },
    {
      "inputs": [],
      "name": "renounceAdmin",
      "outputs": [],
      "stateMutability": "nonpayable",
      "type": "function"
    },
    {
      "inputs": [],
      "name": "seigniorageOracle",
      "outputs": [
        {
          "internalType": "address",
          "name": "",
          "type": "address"
        }
      ],
      "stateMutability": "view",
      "type": "function"
    },
    {
      "inputs": [
        {
          "internalType": "uint256",
          "name": "_period",
          "type": "uint256"
        }
      ],
      "name": "setPeriod",
      "outputs": [],
      "stateMutability": "nonpayable",
      "type": "function"
    },
    {
      "inputs": [],
      "name": "share",
      "outputs": [
        {
          "internalType": "address",
          "name": "",
          "type": "address"
        }
      ],
      "stateMutability": "view",
      "type": "function"
    },
    {
      "inputs": [],
      "name": "getReserve",
      "outputs": [
        {
          "internalType": "uint256",
          "name": "",
          "type": "uint256"
        }
      ],
      "stateMutability": "view",
      "type": "function"
    },
    {
      "inputs": [],
      "name": "getBondOraclePrice",
      "outputs": [
        {
          "internalType": "uint256",
          "name": "",
          "type": "uint256"
        }
      ],
      "stateMutability": "view",
      "type": "function"
    },
    {
      "inputs": [],
      "name": "getSeigniorageOraclePrice",
      "outputs": [
        {
          "internalType": "uint256",
          "name": "",
          "type": "uint256"
        }
      ],
      "stateMutability": "view",
      "type": "function"
    },
    {
      "inputs": [],
      "name": "initialize",
      "outputs": [],
      "stateMutability": "nonpayable",
      "type": "function"
    },
    {
      "inputs": [
        {
          "internalType": "address",
          "name": "target",
          "type": "address"
        }
      ],
      "name": "migrate",
      "outputs": [],
      "stateMutability": "nonpayable",
      "type": "function"
    },
    {
      "inputs": [
        {
          "internalType": "address",
          "name": "newFund",
          "type": "address"
        }
      ],
      "name": "setFund",
      "outputs": [],
      "stateMutability": "nonpayable",
      "type": "function"
    },
    {
      "inputs": [
        {
          "internalType": "uint256",
          "name": "rate",
          "type": "uint256"
        }
      ],
      "name": "setFundAllocationRate",
      "outputs": [],
      "stateMutability": "nonpayable",
      "type": "function"
    },
    {
      "inputs": [
        {
          "internalType": "uint256",
          "name": "amount",
          "type": "uint256"
        },
        {
          "internalType": "uint256",
          "name": "targetPrice",
          "type": "uint256"
        }
      ],
      "name": "buyBonds",
      "outputs": [],
      "stateMutability": "nonpayable",
      "type": "function"
    },
    {
      "inputs": [
        {
          "internalType": "uint256",
          "name": "amount",
          "type": "uint256"
        },
        {
          "internalType": "uint256",
          "name": "targetPrice",
          "type": "uint256"
        }
      ],
      "name": "redeemBonds",
      "outputs": [],
      "stateMutability": "nonpayable",
      "type": "function"
    },
    {
      "inputs": [],
      "name": "allocateSeigniorage",
      "outputs": [],
      "stateMutability": "nonpayable",
      "type": "function"
    }
  ],
  "bytecode": "0x60806040526006805461ffff19169055600060105560026011553480156200002657600080fd5b5060405162003b1e38038062003b1e83398181016040526101008110156200004d57600080fd5b508051602082015160408301516060840151608085015160a086015160c087015160e09097015195969495939492939192909162015180816000620000923362000224565b428211620000e7576040805162461bcd60e51b815260206004820152601960248201527f45706f63683a20696e76616c69642073746172742074696d6500000000000000604482015290519081900360640190fd5b60038390556004829055620001246200010d828562000277602090811b620029cd17901c565b600454620002de60201b62002a2f1790919060201c565b6005555050600780546001600160a01b03199081166001600160a01b038c8116919091179092556008805482168b84161790556009805482168a8416179055600b80548216898416179055600c80548216888416179055600a80549091168683161790556006805462010000600160b01b031916620100009286169290920291909117905550670de0b6b3a7640000600d819055620001ee90606490620001da9060699062000277602090811b620029cd17901c565b6200033960201b62002a891790919060201c565b600e8190555062000212600d546103e86200027760201b620029cd1790919060201c565b600f5550620004a89650505050505050565b6200023f8160016200038360201b62002acb1790919060201c565b506040516001600160a01b038216907f44d6d25963f097ad14f29f06854a01f575648a1ef82f30e562ccd3889717e33990600090a250565b6000826200028857506000620002d8565b828202828482816200029657fe5b0414620002d55760405162461bcd60e51b815260040180806020018281038252602181526020018062003afd6021913960400191505060405180910390fd5b90505b92915050565b600082820183811015620002d5576040805162461bcd60e51b815260206004820152601b60248201527f536166654d6174683a206164646974696f6e206f766572666c6f770000000000604482015290519081900360640190fd5b6000620002d583836040518060400160405280601a81526020017f536166654d6174683a206469766973696f6e206279207a65726f0000000000008152506200039a60201b60201c565b6000620002d5836001600160a01b03841662000441565b600081836200042a5760405162461bcd60e51b81526004018080602001828103825283818151815260200191508051906020019080838360005b83811015620003ee578181015183820152602001620003d4565b50505050905090810190601f1680156200041c5780820380516001836020036101000a031916815260200191505b509250505060405180910390fd5b5060008385816200043757fe5b0495945050505050565b60006200044f838362000490565b6200048757508154600181810184556000848152602080822090930184905584548482528286019093526040902091909155620002d8565b506000620002d8565b60009081526001919091016020526040902054151590565b61364580620004b86000396000f3fe608060405234801561001057600080fd5b50600436106102115760003560e01c80636d19921d11610125578063b8e2cf8e116100ad578063c5967c261161007c578063c5967c2614610472578063c828371e1461047a578063ce5494bb14610482578063e03047b7146104a8578063efe97d05146104b057610211565b8063b8e2cf8e14610452578063b97dd9e21461045a578063c1a2977214610462578063c1aa39001461046a57610211565b806395b1828a116100f457806395b1828a14610415578063961be39114610432578063a8d5fd651461043a578063a9cfc46e14610442578063b60d42881461044a57610211565b80636d19921d146103d757806370480275146103df5780638129fc1c146104055780638bad0c0a1461040d57610211565b806324d7806c116101a857806354f04a111161017757806354f04a111461039457806359bf5d39146103b75780635b756179146103bf5780635e02c51e146103c757806364c9ec6f146103cf57610211565b806324d7806c146103065780632c678c641461032c578063398bac631461033457806340f32be61461033c57610211565b8063158ef93e116101e4578063158ef93e146102a25780631785f53c146102be5780631ed24195146102e457806323ced135146102fe57610211565b80630e21750f146102165780630f3a9f651461023e578063118ebbf91461025b578063132eeaa71461027e575b600080fd5b61023c6004803603602081101561022c57600080fd5b50356001600160a01b03166104b8565b005b61023c6004803603602081101561025457600080fd5b503561055d565b61023c6004803603604081101561027157600080fd5b50803590602001356105a6565b610286610bb8565b604080516001600160a01b039092168252519081900360200190f35b6102aa610bc7565b604080519115158252519081900360200190f35b61023c600480360360208110156102d457600080fd5b50356001600160a01b0316610bd5565b6102ec610c25565b60408051918252519081900360200190f35b6102ec610c2c565b6102aa6004803603602081101561031c57600080fd5b50356001600160a01b0316610c32565b6102aa610c47565b6102ec610c50565b610344610c7a565b60408051602080825283518183015283519192839290830191858101910280838360005b83811015610380578181015183820152602001610368565b505050509050019250505060405180910390f35b61023c600480360360408110156103aa57600080fd5b5080359060200135610d18565b6102ec6112e1565b61023c6112e7565b610286611b58565b610286611b67565b610286611b76565b61023c600480360360208110156103f557600080fd5b50356001600160a01b0316611b85565b61023c611bd2565b61023c611ff0565b61023c6004803603602081101561042b57600080fd5b5035611ffb565b61028661207d565b61028661208c565b6102ec61209b565b6102866120a1565b6102ec6120b6565b6102ec6120ce565b6102ec6120ee565b6102ec612106565b6102ec61210c565b6102ec61212e565b61023c6004803603602081101561049857600080fd5b50356001600160a01b0316612134565b6102ec612997565b6102ec61299d565b6104c133610c32565b6104fc5760405162461bcd60e51b815260040180806020018281038252602e81526020018061355c602e913960400191505060405180910390fd5b600680546001600160a01b03831662010000810262010000600160b01b031990921691909117909155604080519182525133917f970b0c70d6e9879d19345f9dbfd8bacae71546478b8bb2d8a56ad8927d3d436e919081900360200190a250565b61056633610c32565b6105a15760405162461bcd60e51b815260040180806020018281038252602e81526020018061355c602e913960400191505060405180910390fd5b600355565b6105ae612ae0565b156105ea5760405162461bcd60e51b81526004018080602001828103825260268152602001806135b46026913960400191505060405180910390fd5b6105f2612aff565b1561062e5760405162461bcd60e51b81526004018080602001828103825260268152602001806135b46026913960400191505060405180910390fd5b60065460ff161561067b576040805162461bcd60e51b8152602060048201526012602482015271151c99585cdd5c9e4e881b5a59dc985d195960721b604482015290519081900360640190fd5b6004544210156106cb576040805162461bcd60e51b8152602060048201526016602482015275115c1bd8da0e881b9bdd081cdd185c9d1959081e595d60521b604482015290519081900360640190fd5b60075460408051630935e01b60e21b815230600482015290516001600160a01b03909216916324d7806c91602480820192602092909190829003018186803b15801561071657600080fd5b505afa15801561072a573d6000803e3d6000fd5b505050506040513d602081101561074057600080fd5b505180156107c1575060085460408051630935e01b60e21b815230600482015290516001600160a01b03909216916324d7806c91602480820192602092909190829003018186803b15801561079457600080fd5b505afa1580156107a8573d6000803e3d6000fd5b505050506040513d60208110156107be57600080fd5b50515b8015610840575060095460408051630935e01b60e21b815230600482015290516001600160a01b03909216916324d7806c91602480820192602092909190829003018186803b15801561081357600080fd5b505afa158015610827573d6000803e3d6000fd5b505050506040513d602081101561083d57600080fd5b50515b80156108bf5750600a5460408051630935e01b60e21b815230600482015290516001600160a01b03909216916324d7806c91602480820192602092909190829003018186803b15801561089257600080fd5b505afa1580156108a6573d6000803e3d6000fd5b505050506040513d60208110156108bc57600080fd5b50515b6108fe576040805162461bcd60e51b815260206004820152601e602482015260008051602061350c833981519152604482015290519081900360640190fd5b6000821161093d5760405162461bcd60e51b815260040180806020018281038252602e815260200180613430602e913960400191505060405180910390fd5b600b54600090610955906001600160a01b0316612b1e565b90508181146109ab576040805162461bcd60e51b815260206004820152601a60248201527f54726561737572793a2063617368207072696365206d6f766564000000000000604482015290519081900360640190fd5b600e5481116109eb5760405162461bcd60e51b815260040180806020018281038252603281526020018061345e6032913960400191505060405180910390fd5b600754604080516370a0823160e01b8152306004820152905185926001600160a01b0316916370a08231916024808301926020929190829003018186803b158015610a3557600080fd5b505afa158015610a49573d6000803e3d6000fd5b505050506040513d6020811015610a5f57600080fd5b50511015610a9e5760405162461bcd60e51b81526004018080602001828103825260258152602001806134906025913960400191505060405180910390fd5b610ab6610aad60105485612be1565b60105490612bf7565b6010556008546040805163079cc67960e41b81523360048201526024810186905290516001600160a01b03909216916379cc67909160448082019260009290919082900301818387803b158015610b0c57600080fd5b505af1158015610b20573d6000803e3d6000fd5b5050600754610b3c92506001600160a01b031690503385612c39565b610b44612c90565b60408051848152905133917f9c3478f12dce08d85673d802af16ed5b9ebab8420ffd7b145d65d3157084b2ce919081900360200190a25050436000908152602081815260408083203284529091528082208054600160ff199182168117909255338452919092208054909116909117905550565b600c546001600160a01b031681565b600654610100900460ff1681565b610bde33610c32565b610c195760405162461bcd60e51b815260040180806020018281038252602e81526020018061355c602e913960400191505060405180910390fd5b610c2281612d5c565b50565b6003545b90565b600e5481565b6000610c3f600183612d9f565b90505b919050565b60065460ff1681565b6000610c75600354610c6f600454600554612bf790919063ffffffff16565b90612a89565b905090565b6060610c866001612db4565b67ffffffffffffffff81118015610c9c57600080fd5b50604051908082528060200260200182016040528015610cc6578160200160208202803683370190505b50905060005b610cd66001612db4565b811015610d1457610ce8600182612dbf565b828281518110610cf457fe5b6001600160a01b0390921660209283029190910190910152600101610ccc565b5090565b610d20612ae0565b15610d5c5760405162461bcd60e51b81526004018080602001828103825260268152602001806135b46026913960400191505060405180910390fd5b610d64612aff565b15610da05760405162461bcd60e51b81526004018080602001828103825260268152602001806135b46026913960400191505060405180910390fd5b60065460ff1615610ded576040805162461bcd60e51b8152602060048201526012602482015271151c99585cdd5c9e4e881b5a59dc985d195960721b604482015290519081900360640190fd5b600454421015610e3d576040805162461bcd60e51b8152602060048201526016602482015275115c1bd8da0e881b9bdd081cdd185c9d1959081e595d60521b604482015290519081900360640190fd5b60075460408051630935e01b60e21b815230600482015290516001600160a01b03909216916324d7806c91602480820192602092909190829003018186803b158015610e8857600080fd5b505afa158015610e9c573d6000803e3d6000fd5b505050506040513d6020811015610eb257600080fd5b50518015610f33575060085460408051630935e01b60e21b815230600482015290516001600160a01b03909216916324d7806c91602480820192602092909190829003018186803b158015610f0657600080fd5b505afa158015610f1a573d6000803e3d6000fd5b505050506040513d6020811015610f3057600080fd5b50515b8015610fb2575060095460408051630935e01b60e21b815230600482015290516001600160a01b03909216916324d7806c91602480820192602092909190829003018186803b158015610f8557600080fd5b505afa158015610f99573d6000803e3d6000fd5b505050506040513d6020811015610faf57600080fd5b50515b80156110315750600a5460408051630935e01b60e21b815230600482015290516001600160a01b03909216916324d7806c91602480820192602092909190829003018186803b15801561100457600080fd5b505afa158015611018573d6000803e3d6000fd5b505050506040513d602081101561102e57600080fd5b50515b611070576040805162461bcd60e51b815260206004820152601e602482015260008051602061350c833981519152604482015290519081900360640190fd5b600082116110af5760405162461bcd60e51b815260040180806020018281038252603081526020018061352c6030913960400191505060405180910390fd5b600b546000906110c7906001600160a01b0316612b1e565b905081811461111d576040805162461bcd60e51b815260206004820152601a60248201527f54726561737572793a2063617368207072696365206d6f766564000000000000604482015290519081900360640190fd5b600d54811061115d5760405162461bcd60e51b815260040180806020018281038252603281526020018061345e6032913960400191505060405180910390fd5b6007546040805163079cc67960e41b815233600482015260248101869052905183926001600160a01b0316916379cc679091604480830192600092919082900301818387803b1580156111af57600080fd5b505af11580156111c3573d6000803e3d6000fd5b50506008546001600160a01b031691506340c10f199050336111f184610c6f89670de0b6b3a76400006129cd565b6040518363ffffffff1660e01b815260040180836001600160a01b0316815260200182815260200192505050602060405180830381600087803b15801561123757600080fd5b505af115801561124b573d6000803e3d6000fd5b505050506040513d602081101561126157600080fd5b5061126c9050612c90565b60408051858152905133917fdbf5270c3cf4729fec4fdac76fda864aa4f3d14d657ad21772ac28f627141ed9919081900360200190a25050436000908152602081815260408083203284529091528082208054600160ff19918216811790925533845291909220805490911690911790555050565b60105490565b6112ef612ae0565b1561132b5760405162461bcd60e51b81526004018080602001828103825260268152602001806135b46026913960400191505060405180910390fd5b611333612aff565b1561136f5760405162461bcd60e51b81526004018080602001828103825260268152602001806135b46026913960400191505060405180910390fd5b60065460ff16156113bc576040805162461bcd60e51b8152602060048201526012602482015271151c99585cdd5c9e4e881b5a59dc985d195960721b604482015290519081900360640190fd5b60045442101561140c576040805162461bcd60e51b8152602060048201526016602482015275115c1bd8da0e881b9bdd081cdd185c9d1959081e595d60521b604482015290519081900360640190fd5b600454421161145b576040805162461bcd60e51b8152602060048201526016602482015275115c1bd8da0e881b9bdd081cdd185c9d1959081e595d60521b604482015290519081900360640190fd5b61146361299d565b61146b6120ce565b10156114b3576040805162461bcd60e51b8152602060048201526012602482015271115c1bd8da0e881b9bdd08185b1b1bddd95960721b604482015290519081900360640190fd5b60075460408051630935e01b60e21b815230600482015290516001600160a01b03909216916324d7806c91602480820192602092909190829003018186803b1580156114fe57600080fd5b505afa158015611512573d6000803e3d6000fd5b505050506040513d602081101561152857600080fd5b505180156115a9575060085460408051630935e01b60e21b815230600482015290516001600160a01b03909216916324d7806c91602480820192602092909190829003018186803b15801561157c57600080fd5b505afa158015611590573d6000803e3d6000fd5b505050506040513d60208110156115a657600080fd5b50515b8015611628575060095460408051630935e01b60e21b815230600482015290516001600160a01b03909216916324d7806c91602480820192602092909190829003018186803b1580156115fb57600080fd5b505afa15801561160f573d6000803e3d6000fd5b505050506040513d602081101561162557600080fd5b50515b80156116a75750600a5460408051630935e01b60e21b815230600482015290516001600160a01b03909216916324d7806c91602480820192602092909190829003018186803b15801561167a57600080fd5b505afa15801561168e573d6000803e3d6000fd5b505050506040513d60208110156116a457600080fd5b50515b6116e6576040805162461bcd60e51b815260206004820152601e602482015260008051602061350c833981519152604482015290519081900360640190fd5b6116ee612c90565b600c54600090611706906001600160a01b0316612b1e565b9050600e5481116117175750611b19565b600061179f601054600760009054906101000a90046001600160a01b03166001600160a01b03166318160ddd6040518163ffffffff1660e01b815260040160206040518083038186803b15801561176d57600080fd5b505afa158015611781573d6000803e3d6000fd5b505050506040513d602081101561179757600080fd5b505190612bf7565b905060006117b8600d5484612bf790919063ffffffff16565b905060006117d2670de0b6b3a7640000610c6f85856129cd565b600754604080516340c10f1960e01b81523060048201526024810184905290519293506001600160a01b03909116916340c10f19916044808201926020929091908290030181600087803b15801561182957600080fd5b505af115801561183d573d6000803e3d6000fd5b505050506040513d602081101561185357600080fd5b505060115460009061186d90606490610c6f9085906129cd565b9050801561198057600654600754611899916001600160a01b0391821691620100009091041683612dcb565b60065460075460408051635ff03ed360e11b81526001600160a01b0392831660048201526024810185905260606044820152602060648201527f54726561737572793a20536569676e696f7261676520416c6c6f636174696f6e60848201529051620100009093049091169163bfe07da69160a48082019260009290919082900301818387803b15801561192c57600080fd5b505af1158015611940573d6000803e3d6000fd5b5050604080514281526020810185905281517f4caa64211297e9263667fef70732dc65ca7a8e8c60dc72539ed94518628212d09450908190039091019150a15b61198a8282612bf7565b915060006119eb836119e6601054600860009054906101000a90046001600160a01b03166001600160a01b03166318160ddd6040518163ffffffff1660e01b815260040160206040518083038186803b15801561176d57600080fd5b612be1565b90508015611a3f57601054611a009082612a2f565b601055604080514281526020810183905281517ff705142bf09f04297640495ddf7c59b7fd6f51894c5aea9602d631cf05f0efc2929181900390910190a15b6000611a4b8483612bf7565b90508015611b1157600a54600754611a70916001600160a01b03918216911683612dcb565b600a54604080516397ffe1d760e01b81526004810184905290516001600160a01b03909216916397ffe1d79160248082019260009290919082900301818387803b158015611abd57600080fd5b505af1158015611ad1573d6000803e3d6000fd5b5050604080514281526020810185905281517f03ca7276ab7799bf73fb79d27ff0610cd7049574f2508ef8445162833d439aea9450908190039091019150a15b505050505050505b42600555436000908152602081815260408083203284529091528082208054600160ff1991821681179092553384529190922080549091169091179055565b600a546001600160a01b031681565b6008546001600160a01b031681565b600b546001600160a01b031681565b611b8e33610c32565b611bc95760405162461bcd60e51b815260040180806020018281038252602e81526020018061355c602e913960400191505060405180910390fd5b610c2281612ede565b60075460408051630935e01b60e21b815230600482015290516001600160a01b03909216916324d7806c91602480820192602092909190829003018186803b158015611c1d57600080fd5b505afa158015611c31573d6000803e3d6000fd5b505050506040513d6020811015611c4757600080fd5b50518015611cc8575060085460408051630935e01b60e21b815230600482015290516001600160a01b03909216916324d7806c91602480820192602092909190829003018186803b158015611c9b57600080fd5b505afa158015611caf573d6000803e3d6000fd5b505050506040513d6020811015611cc557600080fd5b50515b8015611d47575060095460408051630935e01b60e21b815230600482015290516001600160a01b03909216916324d7806c91602480820192602092909190829003018186803b158015611d1a57600080fd5b505afa158015611d2e573d6000803e3d6000fd5b505050506040513d6020811015611d4457600080fd5b50515b8015611dc65750600a5460408051630935e01b60e21b815230600482015290516001600160a01b03909216916324d7806c91602480820192602092909190829003018186803b158015611d9957600080fd5b505afa158015611dad573d6000803e3d6000fd5b505050506040513d6020811015611dc357600080fd5b50515b611e05576040805162461bcd60e51b815260206004820152601e602482015260008051602061350c833981519152604482015290519081900360640190fd5b600654610100900460ff1615611e5a576040805162461bcd60e51b8152602060048201526015602482015274151c99585cdd5c9e4e881a5b9a5d1a585b1a5e9959605a1b604482015290519081900360640190fd5b600754604080516370a0823160e01b815230600482015290516001600160a01b03909216916342966c689183916370a0823191602480820192602092909190829003018186803b158015611ead57600080fd5b505afa158015611ec1573d6000803e3d6000fd5b505050506040513d6020811015611ed757600080fd5b5051604080516001600160e01b031960e085901b168152600481019290925251602480830192600092919082900301818387803b158015611f1757600080fd5b505af1158015611f2b573d6000803e3d6000fd5b5050600754604080516370a0823160e01b815230600482015290516001600160a01b0390921693506370a082319250602480820192602092909190829003018186803b158015611f7a57600080fd5b505afa158015611f8e573d6000803e3d6000fd5b505050506040513d6020811015611fa457600080fd5b50516010556006805461ff00191661010017905560408051438152905133917f25ff68dd81b34665b5ba7e553ee5511bf6812e12adb4a7e2c0d9e26b3099ce79919081900360200190a2565b611ff933612d5c565b565b61200433610c32565b61203f5760405162461bcd60e51b815260040180806020018281038252602e81526020018061355c602e913960400191505060405180910390fd5b601181905560408051828152905133917f25ba333c9a98f8f18bb40ff507a4a1fb423614f442759c754d038a9de3f81cf3919081900360200190a250565b6007546001600160a01b031681565b6009546001600160a01b031681565b600d5481565b6006546201000090046001600160a01b031681565b600c54600090610c75906001600160a01b0316612b1e565b6000610c75600354610c6f6004546120e860045442612f21565b90612bf7565b600b54600090610c75906001600160a01b0316612b1e565b60115481565b6000610c7561212560035461211f61299d565b906129cd565b60045490612a2f565b60045490565b61213d33610c32565b6121785760405162461bcd60e51b815260040180806020018281038252602e81526020018061355c602e913960400191505060405180910390fd5b60075460408051630935e01b60e21b815230600482015290516001600160a01b03909216916324d7806c91602480820192602092909190829003018186803b1580156121c357600080fd5b505afa1580156121d7573d6000803e3d6000fd5b505050506040513d60208110156121ed57600080fd5b5051801561226e575060085460408051630935e01b60e21b815230600482015290516001600160a01b03909216916324d7806c91602480820192602092909190829003018186803b15801561224157600080fd5b505afa158015612255573d6000803e3d6000fd5b505050506040513d602081101561226b57600080fd5b50515b80156122ed575060095460408051630935e01b60e21b815230600482015290516001600160a01b03909216916324d7806c91602480820192602092909190829003018186803b1580156122c057600080fd5b505afa1580156122d4573d6000803e3d6000fd5b505050506040513d60208110156122ea57600080fd5b50515b801561236c5750600a5460408051630935e01b60e21b815230600482015290516001600160a01b03909216916324d7806c91602480820192602092909190829003018186803b15801561233f57600080fd5b505afa158015612353573d6000803e3d6000fd5b505050506040513d602081101561236957600080fd5b50515b6123ab576040805162461bcd60e51b815260206004820152601e602482015260008051602061350c833981519152604482015290519081900360640190fd5b60065460ff16156123f8576040805162461bcd60e51b8152602060048201526012602482015271151c99585cdd5c9e4e881b5a59dc985d195960721b604482015290519081900360640190fd5b60075460408051637048027560e01b81526001600160a01b03848116600483015291519190921691637048027591602480830192600092919082900301818387803b15801561244657600080fd5b505af115801561245a573d6000803e3d6000fd5b50505050600760009054906101000a90046001600160a01b03166001600160a01b0316638bad0c0a6040518163ffffffff1660e01b8152600401600060405180830381600087803b1580156124ae57600080fd5b505af11580156124c2573d6000803e3d6000fd5b5050600754604080516370a0823160e01b815230600482015290516001600160a01b03909216935063a9059cbb9250849184916370a08231916024808301926020929190829003018186803b15801561251a57600080fd5b505afa15801561252e573d6000803e3d6000fd5b505050506040513d602081101561254457600080fd5b5051604080516001600160e01b031960e086901b1681526001600160a01b03909316600484015260248301919091525160448083019260209291908290030181600087803b15801561259557600080fd5b505af11580156125a9573d6000803e3d6000fd5b505050506040513d60208110156125bf57600080fd5b505060085460408051637048027560e01b81526001600160a01b03848116600483015291519190921691637048027591602480830192600092919082900301818387803b15801561260f57600080fd5b505af1158015612623573d6000803e3d6000fd5b50505050600860009054906101000a90046001600160a01b03166001600160a01b0316638bad0c0a6040518163ffffffff1660e01b8152600401600060405180830381600087803b15801561267757600080fd5b505af115801561268b573d6000803e3d6000fd5b5050600854604080516370a0823160e01b815230600482015290516001600160a01b03909216935063a9059cbb9250849184916370a08231916024808301926020929190829003018186803b1580156126e357600080fd5b505afa1580156126f7573d6000803e3d6000fd5b505050506040513d602081101561270d57600080fd5b5051604080516001600160e01b031960e086901b1681526001600160a01b03909316600484015260248301919091525160448083019260209291908290030181600087803b15801561275e57600080fd5b505af1158015612772573d6000803e3d6000fd5b505050506040513d602081101561278857600080fd5b505060095460408051637048027560e01b81526001600160a01b03848116600483015291519190921691637048027591602480830192600092919082900301818387803b1580156127d857600080fd5b505af11580156127ec573d6000803e3d6000fd5b50505050600960009054906101000a90046001600160a01b03166001600160a01b0316638bad0c0a6040518163ffffffff1660e01b8152600401600060405180830381600087803b15801561284057600080fd5b505af1158015612854573d6000803e3d6000fd5b5050600954604080516370a0823160e01b815230600482015290516001600160a01b03909216935063a9059cbb9250849184916370a08231916024808301926020929190829003018186803b1580156128ac57600080fd5b505afa1580156128c0573d6000803e3d6000fd5b505050506040513d60208110156128d657600080fd5b5051604080516001600160e01b031960e086901b1681526001600160a01b03909316600484015260248301919091525160448083019260209291908290030181600087803b15801561292757600080fd5b505af115801561293b573d6000803e3d6000fd5b505050506040513d602081101561295157600080fd5b50506006805460ff191660011790556040516001600160a01b038216907f0caca70b66aed56b0630989a049110023c5a3f37e0ea4b6ce96fc747663f3ebc90600090a250565b600f5481565b600060055460045414156129ba576129b3610c50565b9050610c29565b610c7560016129c7610c50565b90612a2f565b6000826129dc57506000612a29565b828202828482816129e957fe5b0414612a265760405162461bcd60e51b81526004018080602001828103825260218152602001806134b56021913960400191505060405180910390fd5b90505b92915050565b600082820183811015612a26576040805162461bcd60e51b815260206004820152601b60248201527f536166654d6174683a206164646974696f6e206f766572666c6f770000000000604482015290519081900360640190fd5b6000612a2683836040518060400160405280601a81526020017f536166654d6174683a206469766973696f6e206279207a65726f000000000000815250612f31565b6000612a26836001600160a01b038416612fd3565b4360009081526020818152604080832032845290915290205460ff1690565b4360009081526020818152604080832033845290915290205460ff1690565b60075460408051633ddac95360e01b81526001600160a01b039283166004820152670de0b6b3a764000060248201529051600092841691633ddac953916044808301926020929190829003018186803b158015612b7a57600080fd5b505afa925050508015612b9f57506040513d6020811015612b9a57600080fd5b505160015b612bda5760405162461bcd60e51b81526004018080602001828103825260368152602001806134d66036913960400191505060405180910390fd5b9050610c42565b6000818310612bf05781612a26565b5090919050565b6000612a2683836040518060400160405280601e81526020017f536166654d6174683a207375627472616374696f6e206f766572666c6f77000081525061301d565b604080516001600160a01b038416602482015260448082018490528251808303909101815260649091019091526020810180516001600160e01b031663a9059cbb60e01b179052612c8b908490613077565b505050565b600b60009054906101000a90046001600160a01b03166001600160a01b031663a2e620456040518163ffffffff1660e01b8152600401600060405180830381600087803b158015612ce057600080fd5b505af1925050508015612cf1575060015b50600c60009054906101000a90046001600160a01b03166001600160a01b031663a2e620456040518163ffffffff1660e01b8152600401600060405180830381600087803b158015612d4257600080fd5b505af1925050508015612d53575060015b611ff957611ff9565b612d67600182613128565b506040516001600160a01b038216907fa3b62bc36326052d97ea62d63c3d60308ed4c3ea8ac079dd8499f1e9c4f80c0f90600090a250565b6000612a26836001600160a01b03841661313d565b6000610c3f82613155565b6000612a268383613159565b801580612e51575060408051636eb1769f60e11b81523060048201526001600160a01b03848116602483015291519185169163dd62ed3e91604480820192602092909190829003018186803b158015612e2357600080fd5b505afa158015612e37573d6000803e3d6000fd5b505050506040513d6020811015612e4d57600080fd5b5051155b612e8c5760405162461bcd60e51b81526004018080602001828103825260368152602001806135da6036913960400191505060405180910390fd5b604080516001600160a01b038416602482015260448082018490528251808303909101815260649091019091526020810180516001600160e01b031663095ea7b360e01b179052612c8b908490613077565b612ee9600182612acb565b506040516001600160a01b038216907f44d6d25963f097ad14f29f06854a01f575648a1ef82f30e562ccd3889717e33990600090a250565b600081831015612bf05781612a26565b60008183612fbd5760405162461bcd60e51b81526004018080602001828103825283818151815260200191508051906020019080838360005b83811015612f82578181015183820152602001612f6a565b50505050905090810190601f168015612faf5780820380516001836020036101000a031916815260200191505b509250505060405180910390fd5b506000838581612fc957fe5b0495945050505050565b6000612fdf838361313d565b61301557508154600181810184556000848152602080822090930184905584548482528286019093526040902091909155612a29565b506000612a29565b6000818484111561306f5760405162461bcd60e51b8152602060048201818152835160248401528351909283926044909101919085019080838360008315612f82578181015183820152602001612f6a565b505050900390565b60606130cc826040518060400160405280602081526020017f5361666545524332303a206c6f772d6c6576656c2063616c6c206661696c6564815250856001600160a01b03166131bd9092919063ffffffff16565b805190915015612c8b578080602001905160208110156130eb57600080fd5b5051612c8b5760405162461bcd60e51b815260040180806020018281038252602a81526020018061358a602a913960400191505060405180910390fd5b6000612a26836001600160a01b0384166131d4565b60009081526001919091016020526040902054151590565b5490565b8154600090821061319b5760405162461bcd60e51b815260040180806020018281038252602281526020018061340e6022913960400191505060405180910390fd5b8260000182815481106131aa57fe5b9060005260206000200154905092915050565b60606131cc848460008561329a565b949350505050565b60008181526001830160205260408120548015613290578354600019808301919081019060009087908390811061320757fe5b906000526020600020015490508087600001848154811061322457fe5b60009182526020808320909101929092558281526001898101909252604090209084019055865487908061325457fe5b60019003818190600052602060002001600090559055866001016000878152602001908152602001600020600090556001945050505050612a29565b6000915050612a29565b60606132a585613407565b6132f6576040805162461bcd60e51b815260206004820152601d60248201527f416464726573733a2063616c6c20746f206e6f6e2d636f6e7472616374000000604482015290519081900360640190fd5b60006060866001600160a01b031685876040518082805190602001908083835b602083106133355780518252601f199092019160209182019101613316565b6001836020036101000a03801982511681845116808217855250505050505090500191505060006040518083038185875af1925050503d8060008114613397576040519150601f19603f3d011682016040523d82523d6000602084013e61339c565b606091505b509150915081156133b05791506131cc9050565b8051156133c05780518082602001fd5b60405162461bcd60e51b8152602060048201818152865160248401528651879391928392604401919085019080838360008315612f82578181015183820152602001612f6a565b3b15159056fe456e756d657261626c655365743a20696e646578206f7574206f6620626f756e647354726561737572793a2063616e6e6f742072656465656d20626f6e64732077697468207a65726f20616d6f756e7454726561737572793a20636173685072696365206e6f7420656c696769626c6520666f7220626f6e6420707572636861736554726561737572793a20747265617375727920686173206e6f206d6f726520627564676574536166654d6174683a206d756c7469706c69636174696f6e206f766572666c6f7754726561737572793a206661696c656420746f20636f6e73756c7420636173682070726963652066726f6d20746865206f7261636c6554726561737572793a206e656564206d6f7265207065726d697373696f6e000054726561737572793a2063616e6e6f7420707572636861736520626f6e64732077697468207a65726f20616d6f756e7441646d696e526f6c653a2063616c6c657220646f6573206e6f742068617665207468652041646d696e20726f6c655361666545524332303a204552433230206f7065726174696f6e20646964206e6f742073756363656564436f6e747261637447756172643a206f6e6520626c6f636b2c206f6e652066756e6374696f6e5361666545524332303a20617070726f76652066726f6d206e6f6e2d7a65726f20746f206e6f6e2d7a65726f20616c6c6f77616e6365a2646970667358221220d84133ef71dd393a2ccf6ac083dba07eb646c45d6051efae54b9c2542575744664736f6c634300060c0033536166654d6174683a206d756c7469706c69636174696f6e206f766572666c6f77",
  "immutableReferences": {},
  "source": "// SPDX-License-Identifier: MIT\npragma solidity ^0.6.0;\n\nimport '@openzeppelin/contracts/token/ERC20/IERC20.sol';\nimport '@openzeppelin/contracts/token/ERC20/SafeERC20.sol';\n\nimport './interfaces/IOracle.sol';\nimport './interfaces/IBoardroom.sol';\nimport './interfaces/IERC20Burnable.sol';\nimport './interfaces/ISimpleERCFund.sol';\nimport './libraries/Math.sol';\nimport './libraries/FixedPoint.sol';\nimport './libraries/Epoch.sol';\nimport './libraries/Safe112.sol';\nimport './libraries/AdminRole.sol';\nimport './libraries/ContractGuard.sol';\n\n/**\n * @title GoSwap Cash Treasury\n * \n * 1.GOCGOCGOCGOBGOBGOC\n * 2.GOCGOCGOCfund treasury boardroom\n * TimBear 20210107\n * @notice Monetary policy logic to adjust supplies of basis cash assets\n * @author Summer Smith & Rick Sanchez\n */\ncontract Treasury is ContractGuard, Epoch {\n    using FixedPoint for *;\n    using SafeERC20 for IERC20;\n    using Address for address;\n    using SafeMath for uint256;\n    using Safe112 for uint112;\n\n    /* ========== STATE VARIABLES ========== */\n\n    // ========== FLAGS \n    /// @notice \n    bool public migrated = false;\n    /// @notice \n    bool public initialized = false;\n\n    // ========== CORE \n    /// @notice \n    address public fund;\n    /// @notice GoSwap Cash\n    address public cash;\n    /// @notice GoSwap Bond\n    address public bond;\n    /// @notice GoSwap Token\n    address public share;\n    /// @notice \n    address public boardroom;\n\n    /// @notice Bond\n    address public bondOracle;\n    /// @notice \n    address public seigniorageOracle;\n\n    // ========== PARAMS \n    /// @notice \n    uint256 public cashPriceOne;\n    /// @notice \n    uint256 public cashPriceCeiling;\n    /// @notice Bond\n    uint256 public bondDepletionFloor;\n    /// @dev \n    uint256 private accumulatedSeigniorage = 0;\n    /// @notice  2%\n    uint256 public fundAllocationRate = 2; // %\n\n    /* ========== CONSTRUCTOR ========== */\n    /**\n     * @dev \n     * @param _cash GoSwap Cash\n     * @param _bond GoSwap Bond\n     * @param _share GoSwap Token\n     * @param _bondOracle Bond\n     * @param _seigniorageOracle \n     * @param _boardroom \n     * @param _fund \n     * @param _startTime \n     */\n    constructor(\n        address _cash,\n        address _bond,\n        address _share,\n        address _bondOracle,\n        address _seigniorageOracle,\n        address _boardroom,\n        address _fund,\n        uint256 _startTime\n    ) public Epoch(1 days, _startTime, 0) {\n        cash = _cash;\n        bond = _bond;\n        share = _share;\n        bondOracle = _bondOracle;\n        seigniorageOracle = _seigniorageOracle;\n\n        boardroom = _boardroom;\n        fund = _fund;\n\n        // 1\n        cashPriceOne = 10**18;\n        // cash1.05 105 * 10**18 / 10**2 = 1.05 ether\n        cashPriceCeiling = uint256(105).mul(cashPriceOne).div(10**2);\n        // band 1000 * 10**18\n        bondDepletionFloor = uint256(1000).mul(cashPriceOne);\n    }\n\n    /* =================== Modifier =================== */\n\n    /// @notice MigrationAdmin\n    modifier checkMigration {\n        require(!migrated, 'Treasury: migrated');\n        _;\n    }\n\n    /// @notice cash bond share boardroomAdmin\n    modifier checkAdmin {\n        require(\n            AdminRole(cash).isAdmin(address(this)) &&\n                AdminRole(bond).isAdmin(address(this)) &&\n                AdminRole(share).isAdmin(address(this)) &&\n                AdminRole(boardroom).isAdmin(address(this)),\n            'Treasury: need more permission'\n        );\n        _;\n    }\n\n    /* ========== VIEW FUNCTIONS ========== */\n    //\n\n    /**\n     * @dev ,?\n     * @return \n     */\n    function getReserve() public view returns (uint256) {\n        return accumulatedSeigniorage;\n    }\n\n    // oracle\n    /**\n     * @dev BondCash\n     * @return \n     */\n    function getBondOraclePrice() public view returns (uint256) {\n        // BondCash\n        return _getCashPrice(bondOracle);\n    }\n\n    /**\n     * @dev Cash\n     * @return \n     */\n    function getSeigniorageOraclePrice() public view returns (uint256) {\n        // Cash\n        return _getCashPrice(seigniorageOracle);\n    }\n\n    /**\n     * @dev \n     * @param oracle \n     * @return \n     */\n    function _getCashPrice(address oracle) internal view returns (uint256) {\n        try IOracle(oracle).consult(cash, 1e18) returns (uint256 price) {\n            return price;\n        } catch {\n            revert('Treasury: failed to consult cash price from the oracle');\n        }\n    }\n\n    /* ========== GOVERNANCE ========== */\n\n    /**\n     * @dev \n     */\n    function initialize() public checkAdmin {\n        // \n        require(!initialized, 'Treasury: initialized');\n\n        // burn all of it's balance\n        // GOC\n        IERC20Burnable(cash).burn(IERC20(cash).balanceOf(address(this)));\n\n        // set accumulatedSeigniorage to it's balance\n        // GOC,0\n        accumulatedSeigniorage = IERC20(cash).balanceOf(address(this));\n\n        initialized = true;\n        //\n        emit Initialized(msg.sender, block.number);\n    }\n\n    /**\n     * @dev AdmintargetAdmin\n     */\n    function migrate(address target) public onlyAdmin checkAdmin {\n        require(!migrated, 'Treasury: migrated');\n\n        // cash\n        //GOCAdminOwnertargetGOCtarget\n        AdminRole(cash).addAdmin(target);\n        AdminRole(cash).renounceAdmin();\n        IERC20(cash).transfer(target, IERC20(cash).balanceOf(address(this)));\n\n        // bond\n        //GOBAdminOwnertargetGOBtarget\n        AdminRole(bond).addAdmin(target);\n        AdminRole(bond).renounceAdmin();\n        IERC20(bond).transfer(target, IERC20(bond).balanceOf(address(this)));\n\n        // share\n        //GOTAdminOwnertargetGOTtarget\n        AdminRole(share).addAdmin(target);\n        AdminRole(share).renounceAdmin();\n        IERC20(share).transfer(target, IERC20(share).balanceOf(address(this)));\n\n        migrated = true;\n        //\n        emit Migration(target);\n    }\n\n    /**\n     * @dev \n     */\n    function setFund(address newFund) public onlyAdmin {\n        //\n        fund = newFund;\n        //\n        emit ContributionPoolChanged(msg.sender, newFund);\n    }\n\n    /**\n     * @dev \n     */\n    function setFundAllocationRate(uint256 rate) public onlyAdmin {\n        //\n        fundAllocationRate = rate;\n        //\n        emit ContributionPoolRateChanged(msg.sender, rate);\n    }\n\n    /* ========== MUTABLE FUNCTIONS ========== */\n\n    /**\n     * @dev GOC\n     */\n    function _updateCashPrice() internal {\n        try IOracle(bondOracle).update() {} catch {}\n        try IOracle(seigniorageOracle).update() {} catch {}\n    }\n\n    /**\n     * @dev GOC1GOCGOB\n     * @param amount \n     * @param targetPrice ,Cash\n     */\n    function buyBonds(uint256 amount, uint256 targetPrice)\n        external\n        onlyOneBlock // \n        checkMigration // \n        checkStartTime // \n        checkAdmin // \n    {\n        require(amount > 0, 'Treasury: cannot purchase bonds with zero amount');\n\n        //BondGOC\n        uint256 cashPrice = _getCashPrice(bondOracle);\n        //GOC\n        require(cashPrice == targetPrice, 'Treasury: cash price moved');\n        //GOC1\n        require(\n            cashPrice < cashPriceOne, // price < $1\n            'Treasury: cashPrice not eligible for bond purchase'\n        );\n        // Bond = Cash\n        uint256 bondPrice = cashPrice;\n        //amountGOC\n        IERC20Burnable(cash).burnFrom(msg.sender, amount);\n        //GOB: 1GOC(1/bondPrice)GOB\n        IERC20Burnable(bond).mint(msg.sender, amount.mul(1e18).div(bondPrice));\n        //GOC\n        _updateCashPrice();\n        //GOB\n        emit BoughtBonds(msg.sender, amount);\n    }\n\n    /**\n     * @dev GOC1.05GOBGOC\n     * @param amount \n     * @param targetPrice ,Cash\n     */\n    function redeemBonds(uint256 amount, uint256 targetPrice)\n        external\n        onlyOneBlock // \n        checkMigration // \n        checkStartTime // \n        checkAdmin // \n    {\n        require(amount > 0, 'Treasury: cannot redeem bonds with zero amount');\n\n        //GOC\n        uint256 cashPrice = _getCashPrice(bondOracle);\n        //GOC\n        require(cashPrice == targetPrice, 'Treasury: cash price moved');\n        // GOCcashPriceCeiling1.05\n        require(\n            cashPrice > cashPriceCeiling, // price > $1.05\n            'Treasury: cashPrice not eligible for bond purchase'\n        );\n        // GOCGOB\n        require(IERC20(cash).balanceOf(address(this)) >= amount, 'Treasury: treasury has no more budget');\n        // GOC =  - (,GOB),1GOB1GOC\n        accumulatedSeigniorage = accumulatedSeigniorage.sub(Math.min(accumulatedSeigniorage, amount));\n\n        // GOB\n        IERC20Burnable(bond).burnFrom(msg.sender, amount);\n        // GOC\n        IERC20(cash).safeTransfer(msg.sender, amount);\n        // GOC\n        _updateCashPrice();\n\n        // GOB\n        emit RedeemedBonds(msg.sender, amount);\n    }\n\n    /**\n     * @dev GOCGOC\n     */\n    function allocateSeigniorage() external onlyOneBlock checkMigration checkStartTime checkEpoch checkAdmin {\n        //GOC\n        _updateCashPrice();\n        //GOC\n        uint256 cashPrice = _getCashPrice(seigniorageOracle);\n        //GOCcashPriceCeiling1.05GOC\n        if (cashPrice <= cashPriceCeiling) {\n            return; // just advance epoch instead revert\n        }\n\n        // circulating supply\n        //GOC = GOC - GOC\n        uint256 cashSupply = IERC20(cash).totalSupply().sub(accumulatedSeigniorage);\n        // = GOC - 1 :0.8\n        uint256 percentage = cashPrice.sub(cashPriceOne);\n        //GOC = GOC * \n        uint256 seigniorage = cashSupply.mul(percentage).div(1e18);\n        //GOC,\n        IERC20Burnable(cash).mint(address(this), seigniorage);\n\n        // ======================== BIP-3\n        //  = GOC * fundAllocationRate / 100 = GOC * 2%\n        uint256 fundReserve = seigniorage.mul(fundAllocationRate).div(100);\n        if (fundReserve > 0) {\n            // fund,\n            IERC20(cash).safeApprove(fund, fundReserve);\n            // fund\n            ISimpleERCFund(fund).deposit(cash, fundReserve, 'Treasury: Seigniorage Allocation');\n            //GOC\n            emit ContributionPoolFunded(now, fundReserve);\n        }\n        //GOC = GOC - \n        seigniorage = seigniorage.sub(fundReserve);\n\n        // ======================== BIP-4\n        // = min(GOC, GOB-GOC)\n        //GOCGOBBoardroom\n        uint256 treasuryReserve = Math.min(seigniorage, IERC20(bond).totalSupply().sub(accumulatedSeigniorage));\n        if (treasuryReserve > 0) {\n            //GOC = GOC + \n            accumulatedSeigniorage = accumulatedSeigniorage.add(treasuryReserve);\n            //\n            emit TreasuryFunded(now, treasuryReserve);\n        }\n\n        // boardroom\n        //GOC = GOC - \n        uint256 boardroomReserve = seigniorage.sub(treasuryReserve);\n        if (boardroomReserve > 0) {\n            // \n            IERC20(cash).safeApprove(boardroom, boardroomReserve);\n            //BoardroomallocateSeigniorage,GOC\n            IBoardroom(boardroom).allocateSeigniorage(boardroomReserve);\n            //\n            emit BoardroomFunded(now, boardroomReserve);\n        }\n    }\n\n    // GOV\n    event Initialized(address indexed executor, uint256 at);\n    event Migration(address indexed target);\n    event ContributionPoolChanged(address indexed operator, address newFund);\n    event ContributionPoolRateChanged(address indexed operator, uint256 newRate);\n\n    // CORE\n    event RedeemedBonds(address indexed from, uint256 amount);\n    event BoughtBonds(address indexed from, uint256 amount);\n    event TreasuryFunded(uint256 timestamp, uint256 seigniorage);\n    event BoardroomFunded(uint256 timestamp, uint256 seigniorage);\n    event ContributionPoolFunded(uint256 timestamp, uint256 seigniorage);\n}\n",
  "sourcePath": "/home/cui/Documents/goswap/goswap-core/contracts/Treasury.sol",
  "compiler": {
    "name": "solc",
    "version": "0.6.12+commit.27d51765.Emscripten.clang"
  },
  "schemaVersion": "3.3.2",
  "updatedAt": "2021-01-18T03:20:28.656Z",
  "devdoc": {
    "author": "Summer Smith & Rick Sanchez",
    "kind": "dev",
    "methods": {
      "addAdmin(address)": {
        "details": "",
        "params": {
          "account": ""
        }
      },
      "allAdmins()": {
        "details": "",
        "returns": {
          "admins": ""
        }
      },
      "allocateSeigniorage()": {
        "details": "GOCGOC"
      },
      "buyBonds(uint256,uint256)": {
        "details": "GOC1GOCGOB",
        "params": {
          "amount": "",
          "targetPrice": ",Cash"
        }
      },
      "constructor": {
        "details": "",
        "params": {
          "_boardroom": "",
          "_bond": "GoSwap Bond",
          "_bondOracle": "Bond",
          "_cash": "GoSwap Cash",
          "_fund": "",
          "_seigniorageOracle": "",
          "_share": "GoSwap Token",
          "_startTime": ""
        }
      },
      "getBondOraclePrice()": {
        "details": "BondCash",
        "returns": {
          "_0": ""
        }
      },
      "getCurrentEpoch()": {
        "details": ""
      },
      "getLastEpoch()": {
        "details": ""
      },
      "getNextEpoch()": {
        "details": ""
      },
      "getPeriod()": {
        "details": ""
      },
      "getReserve()": {
        "details": ",?",
        "returns": {
          "_0": ""
        }
      },
      "getSeigniorageOraclePrice()": {
        "details": "Cash",
        "returns": {
          "_0": ""
        }
      },
      "getStartTime()": {
        "details": ""
      },
      "initialize()": {
        "details": ""
      },
      "isAdmin(address)": {
        "details": "",
        "params": {
          "account": ""
        },
        "returns": {
          "_0": ""
        }
      },
      "migrate(address)": {
        "details": "AdmintargetAdmin"
      },
      "nextEpochPoint()": {
        "details": ""
      },
      "redeemBonds(uint256,uint256)": {
        "details": "GOC1.05GOBGOC",
        "params": {
          "amount": "",
          "targetPrice": ",Cash"
        }
      },
      "removeAdmin(address)": {
        "details": "",
        "params": {
          "account": ""
        }
      },
      "renounceAdmin()": {
        "details": ""
      },
      "setFund(address)": {
        "details": ""
      },
      "setFundAllocationRate(uint256)": {
        "details": ""
      },
      "setPeriod(uint256)": {
        "details": "",
        "params": {
          "_period": ""
        }
      }
    },
    "stateVariables": {
      "accumulatedSeigniorage": {
        "details": ""
      }
    },
    "title": "GoSwap Cash Treasury  1.GOCGOCGOCGOBGOBGOC 2.GOCGOCGOCfund treasury boardroom TimBear 20210107",
    "version": 1
  },
  "userdoc": {
    "kind": "user",
    "methods": {
      "boardroom()": {
        "notice": ""
      },
      "bond()": {
        "notice": "GoSwap Bond"
      },
      "bondDepletionFloor()": {
        "notice": "Bond"
      },
      "bondOracle()": {
        "notice": "Bond"
      },
      "cash()": {
        "notice": "GoSwap Cash"
      },
      "cashPriceCeiling()": {
        "notice": ""
      },
      "cashPriceOne()": {
        "notice": ""
      },
      "fund()": {
        "notice": ""
      },
      "fundAllocationRate()": {
        "notice": " 2%"
      },
      "initialized()": {
        "notice": ""
      },
      "migrated()": {
        "notice": ""
      },
      "seigniorageOracle()": {
        "notice": ""
      },
      "share()": {
        "notice": "GoSwap Token"
      }
    },
    "notice": "Monetary policy logic to adjust supplies of basis cash assets",
    "version": 1
  }
}